{
	"contracts/ArbitrageBot.sol": {
		"ArbitrageBot": {
			"abi": [
				{
					"inputs": [
						{
							"internalType": "address",
							"name": "_addressProvider",
							"type": "address"
						}
					],
					"stateMutability": "nonpayable",
					"type": "constructor"
				},
				{
					"inputs": [
						{
							"internalType": "address",
							"name": "owner",
							"type": "address"
						}
					],
					"name": "OwnableInvalidOwner",
					"type": "error"
				},
				{
					"inputs": [
						{
							"internalType": "address",
							"name": "account",
							"type": "address"
						}
					],
					"name": "OwnableUnauthorizedAccount",
					"type": "error"
				},
				{
					"anonymous": false,
					"inputs": [
						{
							"indexed": true,
							"internalType": "address",
							"name": "previousOwner",
							"type": "address"
						},
						{
							"indexed": true,
							"internalType": "address",
							"name": "newOwner",
							"type": "address"
						}
					],
					"name": "OwnershipTransferred",
					"type": "event"
				},
				{
					"inputs": [],
					"name": "ADDRESSES_PROVIDER",
					"outputs": [
						{
							"internalType": "contract IPoolAddressesProvider",
							"name": "",
							"type": "address"
						}
					],
					"stateMutability": "view",
					"type": "function"
				},
				{
					"inputs": [],
					"name": "POOL",
					"outputs": [
						{
							"internalType": "contract IPool",
							"name": "",
							"type": "address"
						}
					],
					"stateMutability": "view",
					"type": "function"
				},
				{
					"inputs": [
						{
							"internalType": "address",
							"name": "asset",
							"type": "address"
						},
						{
							"internalType": "uint256",
							"name": "amount",
							"type": "uint256"
						},
						{
							"internalType": "address[]",
							"name": "dexRouters",
							"type": "address[]"
						}
					],
					"name": "checkArbitrageProfitability",
					"outputs": [
						{
							"internalType": "bool",
							"name": "",
							"type": "bool"
						},
						{
							"internalType": "uint256",
							"name": "",
							"type": "uint256"
						}
					],
					"stateMutability": "view",
					"type": "function"
				},
				{
					"inputs": [
						{
							"internalType": "address",
							"name": "asset",
							"type": "address"
						},
						{
							"internalType": "uint256",
							"name": "amount",
							"type": "uint256"
						},
						{
							"internalType": "address[]",
							"name": "dexRouters",
							"type": "address[]"
						}
					],
					"name": "executeFlashLoan",
					"outputs": [],
					"stateMutability": "nonpayable",
					"type": "function"
				},
				{
					"inputs": [
						{
							"internalType": "address",
							"name": "asset",
							"type": "address"
						},
						{
							"internalType": "uint256",
							"name": "amount",
							"type": "uint256"
						},
						{
							"internalType": "uint256",
							"name": "premium",
							"type": "uint256"
						},
						{
							"internalType": "address",
							"name": "initiator",
							"type": "address"
						},
						{
							"internalType": "bytes",
							"name": "params",
							"type": "bytes"
						}
					],
					"name": "executeOperation",
					"outputs": [
						{
							"internalType": "bool",
							"name": "",
							"type": "bool"
						}
					],
					"stateMutability": "nonpayable",
					"type": "function"
				},
				{
					"inputs": [],
					"name": "owner",
					"outputs": [
						{
							"internalType": "address",
							"name": "",
							"type": "address"
						}
					],
					"stateMutability": "view",
					"type": "function"
				},
				{
					"inputs": [],
					"name": "renounceOwnership",
					"outputs": [],
					"stateMutability": "nonpayable",
					"type": "function"
				},
				{
					"inputs": [
						{
							"internalType": "address",
							"name": "newOwner",
							"type": "address"
						}
					],
					"name": "transferOwnership",
					"outputs": [],
					"stateMutability": "nonpayable",
					"type": "function"
				},
				{
					"inputs": [
						{
							"internalType": "address",
							"name": "token",
							"type": "address"
						},
						{
							"internalType": "uint256",
							"name": "amount",
							"type": "uint256"
						}
					],
					"name": "withdrawTokens",
					"outputs": [],
					"stateMutability": "nonpayable",
					"type": "function"
				}
			],
			"devdoc": {
				"custom:dev-run-script": "../scripts/deploy_with_ethers.ts",
				"details": "ContractDescription",
				"errors": {
					"OwnableInvalidOwner(address)": [
						{
							"details": "The owner is not a valid owner account. (eg. `address(0)`)"
						}
					],
					"OwnableUnauthorizedAccount(address)": [
						{
							"details": "The caller account is not authorized to perform an operation."
						}
					]
				},
				"kind": "dev",
				"methods": {
					"executeOperation(address,uint256,uint256,address,bytes)": {
						"details": "Ensure that the contract can return the debt + premium, e.g., has      enough funds to repay and has approved the Pool to pull the total amount",
						"params": {
							"amount": "The amount of the flash-borrowed asset",
							"asset": "The address of the flash-borrowed asset",
							"initiator": "The address of the flashloan initiator",
							"params": "The byte-encoded params passed when initiating the flashloan",
							"premium": "The fee of the flash-borrowed asset"
						},
						"returns": {
							"_0": "True if the execution of the operation succeeds, false otherwise"
						}
					},
					"owner()": {
						"details": "Returns the address of the current owner."
					},
					"renounceOwnership()": {
						"details": "Leaves the contract without owner. It will not be possible to call `onlyOwner` functions. Can only be called by the current owner. NOTE: Renouncing ownership will leave the contract without an owner, thereby disabling any functionality that is only available to the owner."
					},
					"transferOwnership(address)": {
						"details": "Transfers ownership of the contract to a new account (`newOwner`). Can only be called by the current owner."
					}
				},
				"title": "ContractName",
				"version": 1
			},
			"evm": {
				"assembly": "    /* \"contracts/ArbitrageBot.sol\":524:4408  contract ArbitrageBot is FlashLoanSimpleReceiverBase, Ownable {... */\n  mstore(0x40, 0xc0)\n    /* \"contracts/ArbitrageBot.sol\":892:1043  constructor(address _addressProvider) ... */\n  callvalue\n  dup1\n  iszero\n  tag_1\n  jumpi\n  0x00\n  dup1\n  revert\ntag_1:\n  pop\n  mload(0x40)\n  sub(codesize, bytecodeSize)\n  dup1\n  bytecodeSize\n  dup4\n  codecopy\n  dup2\n  dup2\n  add\n  0x40\n  mstore\n  dup2\n  add\n  swap1\n  tag_2\n  swap2\n  swap1\n  tag_3\n  jump\t// in\ntag_2:\n    /* \"contracts/ArbitrageBot.sol\":1025:1035  msg.sender */\n  caller\n    /* \"contracts/ArbitrageBot.sol\":990:1006  _addressProvider */\n  dup2\n    /* \"@aave/core-v3/contracts/flashloan/base/FlashLoanSimpleReceiverBase.sol\":673:681  provider */\n  dup1\n    /* \"@aave/core-v3/contracts/flashloan/base/FlashLoanSimpleReceiverBase.sol\":652:681  ADDRESSES_PROVIDER = provider */\n  0xffffffffffffffffffffffffffffffffffffffff\n  and\n  0x80\n  dup2\n  0xffffffffffffffffffffffffffffffffffffffff\n  and\n  dup2\n  mstore\n  pop\n  pop\n    /* \"@aave/core-v3/contracts/flashloan/base/FlashLoanSimpleReceiverBase.sol\":700:708  provider */\n  dup1\n    /* \"@aave/core-v3/contracts/flashloan/base/FlashLoanSimpleReceiverBase.sol\":700:716  provider.getPool */\n  0xffffffffffffffffffffffffffffffffffffffff\n  and\n  0x026b1d5f\n    /* \"@aave/core-v3/contracts/flashloan/base/FlashLoanSimpleReceiverBase.sol\":700:718  provider.getPool() */\n  mload(0x40)\n  dup2\n  0xffffffff\n  and\n  0xe0\n  shl\n  dup2\n  mstore\n  0x04\n  add\n  0x20\n  mload(0x40)\n  dup1\n  dup4\n  sub\n  dup2\n  dup7\n  gas\n  staticcall\n  iszero\n  dup1\n  iszero\n  tag_9\n  jumpi\n  returndatasize\n  0x00\n  dup1\n  returndatacopy\n  revert(0x00, returndatasize)\ntag_9:\n  pop\n  pop\n  pop\n  pop\n  mload(0x40)\n  returndatasize\n  not(0x1f)\n  0x1f\n  dup3\n  add\n  and\n  dup3\n  add\n  dup1\n  0x40\n  mstore\n  pop\n  dup2\n  add\n  swap1\n  tag_10\n  swap2\n  swap1\n  tag_3\n  jump\t// in\ntag_10:\n    /* \"@aave/core-v3/contracts/flashloan/base/FlashLoanSimpleReceiverBase.sol\":687:719  POOL = IPool(provider.getPool()) */\n  0xffffffffffffffffffffffffffffffffffffffff\n  and\n  0xa0\n  dup2\n  0xffffffffffffffffffffffffffffffffffffffff\n  and\n  dup2\n  mstore\n  pop\n  pop\n    /* \"@aave/core-v3/contracts/flashloan/base/FlashLoanSimpleReceiverBase.sol\":601:724  constructor(IPoolAddressesProvider provider) {... */\n  pop\n    /* \"@openzeppelin/contracts/access/Ownable.sol\":1297:1298  0 */\n  0x00\n    /* \"@openzeppelin/contracts/access/Ownable.sol\":1273:1299  initialOwner == address(0) */\n  0xffffffffffffffffffffffffffffffffffffffff\n  and\n    /* \"@openzeppelin/contracts/access/Ownable.sol\":1273:1285  initialOwner */\n  dup2\n    /* \"@openzeppelin/contracts/access/Ownable.sol\":1273:1299  initialOwner == address(0) */\n  0xffffffffffffffffffffffffffffffffffffffff\n  and\n  sub\n    /* \"@openzeppelin/contracts/access/Ownable.sol\":1269:1364  if (initialOwner == address(0)) {... */\n  tag_12\n  jumpi\n    /* \"@openzeppelin/contracts/access/Ownable.sol\":1350:1351  0 */\n  0x00\n    /* \"@openzeppelin/contracts/access/Ownable.sol\":1322:1353  OwnableInvalidOwner(address(0)) */\n  mload(0x40)\n  0x1e4fbdf700000000000000000000000000000000000000000000000000000000\n  dup2\n  mstore\n  0x04\n  add\n  tag_13\n  swap2\n  swap1\n  tag_14\n  jump\t// in\ntag_13:\n  mload(0x40)\n  dup1\n  swap2\n  sub\n  swap1\n  revert\n    /* \"@openzeppelin/contracts/access/Ownable.sol\":1269:1364  if (initialOwner == address(0)) {... */\ntag_12:\n    /* \"@openzeppelin/contracts/access/Ownable.sol\":1373:1405  _transferOwnership(initialOwner) */\n  tag_15\n    /* \"@openzeppelin/contracts/access/Ownable.sol\":1392:1404  initialOwner */\n  dup2\n    /* \"@openzeppelin/contracts/access/Ownable.sol\":1373:1391  _transferOwnership */\n  shl(0x20, tag_16)\n    /* \"@openzeppelin/contracts/access/Ownable.sol\":1373:1405  _transferOwnership(initialOwner) */\n  0x20\n  shr\n  jump\t// in\ntag_15:\n    /* \"@openzeppelin/contracts/access/Ownable.sol\":1225:1412  constructor(address initialOwner) {... */\n  pop\n    /* \"contracts/ArbitrageBot.sol\":892:1043  constructor(address _addressProvider) ... */\n  pop\n    /* \"contracts/ArbitrageBot.sol\":524:4408  contract ArbitrageBot is FlashLoanSimpleReceiverBase, Ownable {... */\n  jump(tag_18)\n    /* \"@openzeppelin/contracts/access/Ownable.sol\":2912:3099  function _transferOwnership(address newOwner) internal virtual {... */\ntag_16:\n    /* \"@openzeppelin/contracts/access/Ownable.sol\":2985:3001  address oldOwner */\n  0x00\n    /* \"@openzeppelin/contracts/access/Ownable.sol\":3004:3010  _owner */\n  dup1\n  0x00\n  swap1\n  sload\n  swap1\n  0x0100\n  exp\n  swap1\n  div\n  0xffffffffffffffffffffffffffffffffffffffff\n  and\n    /* \"@openzeppelin/contracts/access/Ownable.sol\":2985:3010  address oldOwner = _owner */\n  swap1\n  pop\n    /* \"@openzeppelin/contracts/access/Ownable.sol\":3029:3037  newOwner */\n  dup2\n    /* \"@openzeppelin/contracts/access/Ownable.sol\":3020:3026  _owner */\n  0x00\n  dup1\n    /* \"@openzeppelin/contracts/access/Ownable.sol\":3020:3037  _owner = newOwner */\n  0x0100\n  exp\n  dup2\n  sload\n  dup2\n  0xffffffffffffffffffffffffffffffffffffffff\n  mul\n  not\n  and\n  swap1\n  dup4\n  0xffffffffffffffffffffffffffffffffffffffff\n  and\n  mul\n  or\n  swap1\n  sstore\n  pop\n    /* \"@openzeppelin/contracts/access/Ownable.sol\":3083:3091  newOwner */\n  dup2\n    /* \"@openzeppelin/contracts/access/Ownable.sol\":3052:3092  OwnershipTransferred(oldOwner, newOwner) */\n  0xffffffffffffffffffffffffffffffffffffffff\n  and\n    /* \"@openzeppelin/contracts/access/Ownable.sol\":3073:3081  oldOwner */\n  dup2\n    /* \"@openzeppelin/contracts/access/Ownable.sol\":3052:3092  OwnershipTransferred(oldOwner, newOwner) */\n  0xffffffffffffffffffffffffffffffffffffffff\n  and\n  0x8be0079c531659141344cd1fd0a4f28419497f9722a3daafe3b4186f6b6457e0\n  mload(0x40)\n  mload(0x40)\n  dup1\n  swap2\n  sub\n  swap1\n  log3\n    /* \"@openzeppelin/contracts/access/Ownable.sol\":2975:3099  {... */\n  pop\n    /* \"@openzeppelin/contracts/access/Ownable.sol\":2912:3099  function _transferOwnership(address newOwner) internal virtual {... */\n  pop\n  jump\t// out\n    /* \"#utility.yul\":88:205   */\ntag_21:\n    /* \"#utility.yul\":197:198   */\n  0x00\n    /* \"#utility.yul\":194:195   */\n  dup1\n    /* \"#utility.yul\":187:199   */\n  revert\n    /* \"#utility.yul\":334:460   */\ntag_23:\n    /* \"#utility.yul\":371:378   */\n  0x00\n    /* \"#utility.yul\":411:453   */\n  0xffffffffffffffffffffffffffffffffffffffff\n    /* \"#utility.yul\":404:409   */\n  dup3\n    /* \"#utility.yul\":400:454   */\n  and\n    /* \"#utility.yul\":389:454   */\n  swap1\n  pop\n    /* \"#utility.yul\":334:460   */\n  swap2\n  swap1\n  pop\n  jump\t// out\n    /* \"#utility.yul\":466:562   */\ntag_24:\n    /* \"#utility.yul\":503:510   */\n  0x00\n    /* \"#utility.yul\":532:556   */\n  tag_34\n    /* \"#utility.yul\":550:555   */\n  dup3\n    /* \"#utility.yul\":532:556   */\n  tag_23\n  jump\t// in\ntag_34:\n    /* \"#utility.yul\":521:556   */\n  swap1\n  pop\n    /* \"#utility.yul\":466:562   */\n  swap2\n  swap1\n  pop\n  jump\t// out\n    /* \"#utility.yul\":568:690   */\ntag_25:\n    /* \"#utility.yul\":641:665   */\n  tag_36\n    /* \"#utility.yul\":659:664   */\n  dup2\n    /* \"#utility.yul\":641:665   */\n  tag_24\n  jump\t// in\ntag_36:\n    /* \"#utility.yul\":634:639   */\n  dup2\n    /* \"#utility.yul\":631:666   */\n  eq\n    /* \"#utility.yul\":621:684   */\n  tag_37\n  jumpi\n    /* \"#utility.yul\":680:681   */\n  0x00\n    /* \"#utility.yul\":677:678   */\n  dup1\n    /* \"#utility.yul\":670:682   */\n  revert\n    /* \"#utility.yul\":621:684   */\ntag_37:\n    /* \"#utility.yul\":568:690   */\n  pop\n  jump\t// out\n    /* \"#utility.yul\":696:839   */\ntag_26:\n    /* \"#utility.yul\":753:758   */\n  0x00\n    /* \"#utility.yul\":784:790   */\n  dup2\n    /* \"#utility.yul\":778:791   */\n  mload\n    /* \"#utility.yul\":769:791   */\n  swap1\n  pop\n    /* \"#utility.yul\":800:833   */\n  tag_39\n    /* \"#utility.yul\":827:832   */\n  dup2\n    /* \"#utility.yul\":800:833   */\n  tag_25\n  jump\t// in\ntag_39:\n    /* \"#utility.yul\":696:839   */\n  swap3\n  swap2\n  pop\n  pop\n  jump\t// out\n    /* \"#utility.yul\":845:1196   */\ntag_3:\n    /* \"#utility.yul\":915:921   */\n  0x00\n    /* \"#utility.yul\":964:966   */\n  0x20\n    /* \"#utility.yul\":952:961   */\n  dup3\n    /* \"#utility.yul\":943:950   */\n  dup5\n    /* \"#utility.yul\":939:962   */\n  sub\n    /* \"#utility.yul\":935:967   */\n  slt\n    /* \"#utility.yul\":932:1051   */\n  iszero\n  tag_41\n  jumpi\n    /* \"#utility.yul\":970:1049   */\n  tag_42\n  tag_21\n  jump\t// in\ntag_42:\n    /* \"#utility.yul\":932:1051   */\ntag_41:\n    /* \"#utility.yul\":1090:1091   */\n  0x00\n    /* \"#utility.yul\":1115:1179   */\n  tag_43\n    /* \"#utility.yul\":1171:1178   */\n  dup5\n    /* \"#utility.yul\":1162:1168   */\n  dup3\n    /* \"#utility.yul\":1151:1160   */\n  dup6\n    /* \"#utility.yul\":1147:1169   */\n  add\n    /* \"#utility.yul\":1115:1179   */\n  tag_26\n  jump\t// in\ntag_43:\n    /* \"#utility.yul\":1105:1179   */\n  swap2\n  pop\n    /* \"#utility.yul\":1061:1189   */\n  pop\n    /* \"#utility.yul\":845:1196   */\n  swap3\n  swap2\n  pop\n  pop\n  jump\t// out\n    /* \"#utility.yul\":1202:1320   */\ntag_27:\n    /* \"#utility.yul\":1289:1313   */\n  tag_45\n    /* \"#utility.yul\":1307:1312   */\n  dup2\n    /* \"#utility.yul\":1289:1313   */\n  tag_24\n  jump\t// in\ntag_45:\n    /* \"#utility.yul\":1284:1287   */\n  dup3\n    /* \"#utility.yul\":1277:1314   */\n  mstore\n    /* \"#utility.yul\":1202:1320   */\n  pop\n  pop\n  jump\t// out\n    /* \"#utility.yul\":1326:1548   */\ntag_14:\n    /* \"#utility.yul\":1419:1423   */\n  0x00\n    /* \"#utility.yul\":1457:1459   */\n  0x20\n    /* \"#utility.yul\":1446:1455   */\n  dup3\n    /* \"#utility.yul\":1442:1460   */\n  add\n    /* \"#utility.yul\":1434:1460   */\n  swap1\n  pop\n    /* \"#utility.yul\":1470:1541   */\n  tag_47\n    /* \"#utility.yul\":1538:1539   */\n  0x00\n    /* \"#utility.yul\":1527:1536   */\n  dup4\n    /* \"#utility.yul\":1523:1540   */\n  add\n    /* \"#utility.yul\":1514:1520   */\n  dup5\n    /* \"#utility.yul\":1470:1541   */\n  tag_27\n  jump\t// in\ntag_47:\n    /* \"#utility.yul\":1326:1548   */\n  swap3\n  swap2\n  pop\n  pop\n  jump\t// out\n    /* \"contracts/ArbitrageBot.sol\":524:4408  contract ArbitrageBot is FlashLoanSimpleReceiverBase, Ownable {... */\ntag_18:\n  mload(0x80)\n  mload(0xa0)\n  codecopy(0x00, dataOffset(sub_0), dataSize(sub_0))\n  0x00\n  assignImmutable(\"0x8fef2229291b68be841adf029e58b87f39ba144b2d3b0af1760243d0a9bc6a1c\")\n  0x00\n  assignImmutable(\"0x5c4c6aa067b6f8e6cb38e6ab843832a94d1712d661a04d73c517d6a1931a9e5d\")\n  return(0x00, dataSize(sub_0))\nstop\n\nsub_0: assembly {\n        /* \"contracts/ArbitrageBot.sol\":524:4408  contract ArbitrageBot is FlashLoanSimpleReceiverBase, Ownable {... */\n      mstore(0x40, 0x80)\n      callvalue\n      dup1\n      iszero\n      tag_1\n      jumpi\n      0x00\n      dup1\n      revert\n    tag_1:\n      pop\n      jumpi(tag_2, lt(calldatasize, 0x04))\n      shr(0xe0, calldataload(0x00))\n      dup1\n      0x715018a6\n      gt\n      tag_12\n      jumpi\n      dup1\n      0x715018a6\n      eq\n      tag_7\n      jumpi\n      dup1\n      0x7535d246\n      eq\n      tag_8\n      jumpi\n      dup1\n      0x8da5cb5b\n      eq\n      tag_9\n      jumpi\n      dup1\n      0x9cbf194d\n      eq\n      tag_10\n      jumpi\n      dup1\n      0xf2fde38b\n      eq\n      tag_11\n      jumpi\n      jump(tag_2)\n    tag_12:\n      dup1\n      0x0542975c\n      eq\n      tag_3\n      jumpi\n      dup1\n      0x06b091f9\n      eq\n      tag_4\n      jumpi\n      dup1\n      0x1b11d0ff\n      eq\n      tag_5\n      jumpi\n      dup1\n      0x245c94d3\n      eq\n      tag_6\n      jumpi\n    tag_2:\n      0x00\n      dup1\n      revert\n        /* \"@aave/core-v3/contracts/flashloan/base/FlashLoanSimpleReceiverBase.sol\":489:556  IPoolAddressesProvider public immutable override ADDRESSES_PROVIDER */\n    tag_3:\n      tag_13\n      tag_14\n      jump\t// in\n    tag_13:\n      mload(0x40)\n      tag_15\n      swap2\n      swap1\n      tag_16\n      jump\t// in\n    tag_15:\n      mload(0x40)\n      dup1\n      swap2\n      sub\n      swap1\n      return\n        /* \"contracts/ArbitrageBot.sol\":4276:4406  function withdrawTokens(address token, uint256 amount) external onlyOwner {... */\n    tag_4:\n      tag_17\n      0x04\n      dup1\n      calldatasize\n      sub\n      dup2\n      add\n      swap1\n      tag_18\n      swap2\n      swap1\n      tag_19\n      jump\t// in\n    tag_18:\n      tag_20\n      jump\t// in\n    tag_17:\n      stop\n        /* \"contracts/ArbitrageBot.sol\":1049:1803  function executeOperation(... */\n    tag_5:\n      tag_21\n      0x04\n      dup1\n      calldatasize\n      sub\n      dup2\n      add\n      swap1\n      tag_22\n      swap2\n      swap1\n      tag_23\n      jump\t// in\n    tag_22:\n      tag_24\n      jump\t// in\n    tag_21:\n      mload(0x40)\n      tag_25\n      swap2\n      swap1\n      tag_26\n      jump\t// in\n    tag_25:\n      mload(0x40)\n      dup1\n      swap2\n      sub\n      swap1\n      return\n        /* \"contracts/ArbitrageBot.sol\":2912:3335  function checkArbitrageProfitability(... */\n    tag_6:\n      tag_27\n      0x04\n      dup1\n      calldatasize\n      sub\n      dup2\n      add\n      swap1\n      tag_28\n      swap2\n      swap1\n      tag_29\n      jump\t// in\n    tag_28:\n      tag_30\n      jump\t// in\n    tag_27:\n      mload(0x40)\n      tag_31\n      swap3\n      swap2\n      swap1\n      tag_32\n      jump\t// in\n    tag_31:\n      mload(0x40)\n      dup1\n      swap2\n      sub\n      swap1\n      return\n        /* \"@openzeppelin/contracts/access/Ownable.sol\":2293:2394  function renounceOwnership() public virtual onlyOwner {... */\n    tag_7:\n      tag_33\n      tag_34\n      jump\t// in\n    tag_33:\n      stop\n        /* \"@aave/core-v3/contracts/flashloan/base/FlashLoanSimpleReceiverBase.sol\":560:596  IPool public immutable override POOL */\n    tag_8:\n      tag_35\n      tag_36\n      jump\t// in\n    tag_35:\n      mload(0x40)\n      tag_37\n      swap2\n      swap1\n      tag_38\n      jump\t// in\n    tag_37:\n      mload(0x40)\n      dup1\n      swap2\n      sub\n      swap1\n      return\n        /* \"@openzeppelin/contracts/access/Ownable.sol\":1638:1723  function owner() public view virtual returns (address) {... */\n    tag_9:\n      tag_39\n      tag_40\n      jump\t// in\n    tag_39:\n      mload(0x40)\n      tag_41\n      swap2\n      swap1\n      tag_42\n      jump\t// in\n    tag_41:\n      mload(0x40)\n      dup1\n      swap2\n      sub\n      swap1\n      return\n        /* \"contracts/ArbitrageBot.sol\":3965:4234  function executeFlashLoan(... */\n    tag_10:\n      tag_43\n      0x04\n      dup1\n      calldatasize\n      sub\n      dup2\n      add\n      swap1\n      tag_44\n      swap2\n      swap1\n      tag_29\n      jump\t// in\n    tag_44:\n      tag_45\n      jump\t// in\n    tag_43:\n      stop\n        /* \"@openzeppelin/contracts/access/Ownable.sol\":2543:2758  function transferOwnership(address newOwner) public virtual onlyOwner {... */\n    tag_11:\n      tag_46\n      0x04\n      dup1\n      calldatasize\n      sub\n      dup2\n      add\n      swap1\n      tag_47\n      swap2\n      swap1\n      tag_48\n      jump\t// in\n    tag_47:\n      tag_49\n      jump\t// in\n    tag_46:\n      stop\n        /* \"@aave/core-v3/contracts/flashloan/base/FlashLoanSimpleReceiverBase.sol\":489:556  IPoolAddressesProvider public immutable override ADDRESSES_PROVIDER */\n    tag_14:\n      immutable(\"0x5c4c6aa067b6f8e6cb38e6ab843832a94d1712d661a04d73c517d6a1931a9e5d\")\n      dup2\n      jump\t// out\n        /* \"contracts/ArbitrageBot.sol\":4276:4406  function withdrawTokens(address token, uint256 amount) external onlyOwner {... */\n    tag_20:\n        /* \"@openzeppelin/contracts/access/Ownable.sol\":1531:1544  _checkOwner() */\n      tag_51\n        /* \"@openzeppelin/contracts/access/Ownable.sol\":1531:1542  _checkOwner */\n      tag_52\n        /* \"@openzeppelin/contracts/access/Ownable.sol\":1531:1544  _checkOwner() */\n      jump\t// in\n    tag_51:\n        /* \"contracts/ArbitrageBot.sol\":4367:4372  token */\n      dup2\n        /* \"contracts/ArbitrageBot.sol\":4360:4382  IERC20(token).transfer */\n      0xffffffffffffffffffffffffffffffffffffffff\n      and\n      0xa9059cbb\n        /* \"contracts/ArbitrageBot.sol\":4383:4390  owner() */\n      tag_54\n        /* \"contracts/ArbitrageBot.sol\":4383:4388  owner */\n      tag_40\n        /* \"contracts/ArbitrageBot.sol\":4383:4390  owner() */\n      jump\t// in\n    tag_54:\n        /* \"contracts/ArbitrageBot.sol\":4392:4398  amount */\n      dup4\n        /* \"contracts/ArbitrageBot.sol\":4360:4399  IERC20(token).transfer(owner(), amount) */\n      mload(0x40)\n      dup4\n      0xffffffff\n      and\n      0xe0\n      shl\n      dup2\n      mstore\n      0x04\n      add\n      tag_55\n      swap3\n      swap2\n      swap1\n      tag_56\n      jump\t// in\n    tag_55:\n      0x20\n      mload(0x40)\n      dup1\n      dup4\n      sub\n      dup2\n      0x00\n      dup8\n      gas\n      call\n      iszero\n      dup1\n      iszero\n      tag_58\n      jumpi\n      returndatasize\n      0x00\n      dup1\n      returndatacopy\n      revert(0x00, returndatasize)\n    tag_58:\n      pop\n      pop\n      pop\n      pop\n      mload(0x40)\n      returndatasize\n      not(0x1f)\n      0x1f\n      dup3\n      add\n      and\n      dup3\n      add\n      dup1\n      0x40\n      mstore\n      pop\n      dup2\n      add\n      swap1\n      tag_59\n      swap2\n      swap1\n      tag_60\n      jump\t// in\n    tag_59:\n      pop\n        /* \"contracts/ArbitrageBot.sol\":4276:4406  function withdrawTokens(address token, uint256 amount) external onlyOwner {... */\n      pop\n      pop\n      jump\t// out\n        /* \"contracts/ArbitrageBot.sol\":1049:1803  function executeOperation(... */\n    tag_24:\n        /* \"contracts/ArbitrageBot.sol\":1238:1242  bool */\n      0x00\n        /* \"contracts/ArbitrageBot.sol\":1284:1311  address[] memory dexRouters */\n      dup1\n        /* \"contracts/ArbitrageBot.sol\":1326:1332  params */\n      dup4\n      dup4\n        /* \"contracts/ArbitrageBot.sol\":1315:1346  abi.decode(params, (address[])) */\n      dup2\n      add\n      swap1\n      tag_62\n      swap2\n      swap1\n      tag_63\n      jump\t// in\n    tag_62:\n        /* \"contracts/ArbitrageBot.sol\":1283:1346  (address[] memory dexRouters) = abi.decode(params, (address[])) */\n      swap1\n      pop\n        /* \"contracts/ArbitrageBot.sol\":1436:1441  asset */\n      dup8\n        /* \"contracts/ArbitrageBot.sol\":1429:1450  IERC20(asset).approve */\n      0xffffffffffffffffffffffffffffffffffffffff\n      and\n      0x095ea7b3\n        /* \"contracts/ArbitrageBot.sol\":1459:1463  POOL */\n      immutable(\"0x8fef2229291b68be841adf029e58b87f39ba144b2d3b0af1760243d0a9bc6a1c\")\n        /* \"contracts/ArbitrageBot.sol\":1475:1482  premium */\n      dup9\n        /* \"contracts/ArbitrageBot.sol\":1466:1472  amount */\n      dup11\n        /* \"contracts/ArbitrageBot.sol\":1466:1482  amount + premium */\n      tag_64\n      swap2\n      swap1\n      tag_65\n      jump\t// in\n    tag_64:\n        /* \"contracts/ArbitrageBot.sol\":1429:1483  IERC20(asset).approve(address(POOL), amount + premium) */\n      mload(0x40)\n      dup4\n      0xffffffff\n      and\n      0xe0\n      shl\n      dup2\n      mstore\n      0x04\n      add\n      tag_66\n      swap3\n      swap2\n      swap1\n      tag_56\n      jump\t// in\n    tag_66:\n      0x20\n      mload(0x40)\n      dup1\n      dup4\n      sub\n      dup2\n      0x00\n      dup8\n      gas\n      call\n      iszero\n      dup1\n      iszero\n      tag_68\n      jumpi\n      returndatasize\n      0x00\n      dup1\n      returndatacopy\n      revert(0x00, returndatasize)\n    tag_68:\n      pop\n      pop\n      pop\n      pop\n      mload(0x40)\n      returndatasize\n      not(0x1f)\n      0x1f\n      dup3\n      add\n      and\n      dup3\n      add\n      dup1\n      0x40\n      mstore\n      pop\n      dup2\n      add\n      swap1\n      tag_69\n      swap2\n      swap1\n      tag_60\n      jump\t// in\n    tag_69:\n      pop\n        /* \"contracts/ArbitrageBot.sol\":1537:1559  uint256 amountReceived */\n      0x00\n        /* \"contracts/ArbitrageBot.sol\":1562:1605  executeArbitrage(asset, amount, dexRouters) */\n      tag_70\n        /* \"contracts/ArbitrageBot.sol\":1579:1584  asset */\n      dup10\n        /* \"contracts/ArbitrageBot.sol\":1586:1592  amount */\n      dup10\n        /* \"contracts/ArbitrageBot.sol\":1594:1604  dexRouters */\n      dup5\n        /* \"contracts/ArbitrageBot.sol\":1562:1578  executeArbitrage */\n      tag_71\n        /* \"contracts/ArbitrageBot.sol\":1562:1605  executeArbitrage(asset, amount, dexRouters) */\n      jump\t// in\n    tag_70:\n        /* \"contracts/ArbitrageBot.sol\":1537:1605  uint256 amountReceived = executeArbitrage(asset, amount, dexRouters) */\n      swap1\n      pop\n        /* \"contracts/ArbitrageBot.sol\":1716:1723  premium */\n      dup7\n        /* \"contracts/ArbitrageBot.sol\":1707:1713  amount */\n      dup9\n        /* \"contracts/ArbitrageBot.sol\":1707:1723  amount + premium */\n      tag_72\n      swap2\n      swap1\n      tag_65\n      jump\t// in\n    tag_72:\n        /* \"contracts/ArbitrageBot.sol\":1689:1703  amountReceived */\n      dup2\n        /* \"contracts/ArbitrageBot.sol\":1689:1723  amountReceived >= amount + premium */\n      lt\n      iszero\n        /* \"contracts/ArbitrageBot.sol\":1681:1766  require(amountReceived >= amount + premium, \"Insufficient funds to repay flash loan\") */\n      tag_73\n      jumpi\n      mload(0x40)\n      0x08c379a000000000000000000000000000000000000000000000000000000000\n      dup2\n      mstore\n      0x04\n      add\n      tag_74\n      swap1\n      tag_75\n      jump\t// in\n    tag_74:\n      mload(0x40)\n      dup1\n      swap2\n      sub\n      swap1\n      revert\n    tag_73:\n        /* \"contracts/ArbitrageBot.sol\":1792:1796  true */\n      0x01\n        /* \"contracts/ArbitrageBot.sol\":1785:1796  return true */\n      swap3\n      pop\n      pop\n      pop\n        /* \"contracts/ArbitrageBot.sol\":1049:1803  function executeOperation(... */\n      swap7\n      swap6\n      pop\n      pop\n      pop\n      pop\n      pop\n      pop\n      jump\t// out\n        /* \"contracts/ArbitrageBot.sol\":2912:3335  function checkArbitrageProfitability(... */\n    tag_30:\n        /* \"contracts/ArbitrageBot.sol\":3064:3068  bool */\n      0x00\n        /* \"contracts/ArbitrageBot.sol\":3070:3077  uint256 */\n      dup1\n        /* \"contracts/ArbitrageBot.sol\":3089:3112  uint256 estimatedReturn */\n      0x00\n        /* \"contracts/ArbitrageBot.sol\":3115:3159  simulateArbitrage(asset, amount, dexRouters) */\n      tag_77\n        /* \"contracts/ArbitrageBot.sol\":3133:3138  asset */\n      dup8\n        /* \"contracts/ArbitrageBot.sol\":3140:3146  amount */\n      dup8\n        /* \"contracts/ArbitrageBot.sol\":3148:3158  dexRouters */\n      dup8\n      dup8\n        /* \"contracts/ArbitrageBot.sol\":3115:3132  simulateArbitrage */\n      tag_78\n        /* \"contracts/ArbitrageBot.sol\":3115:3159  simulateArbitrage(asset, amount, dexRouters) */\n      jump\t// in\n    tag_77:\n        /* \"contracts/ArbitrageBot.sol\":3089:3159  uint256 estimatedReturn = simulateArbitrage(asset, amount, dexRouters) */\n      swap1\n      pop\n        /* \"contracts/ArbitrageBot.sol\":3169:3193  uint256 flashLoanPremium */\n      0x00\n        /* \"contracts/ArbitrageBot.sol\":3211:3216  10000 */\n      0x2710\n        /* \"contracts/ArbitrageBot.sol\":3206:3207  9 */\n      0x09\n        /* \"contracts/ArbitrageBot.sol\":3197:3203  amount */\n      dup9\n        /* \"contracts/ArbitrageBot.sol\":3197:3207  amount * 9 */\n      tag_79\n      swap2\n      swap1\n      tag_80\n      jump\t// in\n    tag_79:\n        /* \"contracts/ArbitrageBot.sol\":3196:3216  (amount * 9) / 10000 */\n      tag_81\n      swap2\n      swap1\n      tag_82\n      jump\t// in\n    tag_81:\n        /* \"contracts/ArbitrageBot.sol\":3169:3216  uint256 flashLoanPremium = (amount * 9) / 10000 */\n      swap1\n      pop\n        /* \"contracts/ArbitrageBot.sol\":3294:3310  flashLoanPremium */\n      dup1\n        /* \"contracts/ArbitrageBot.sol\":3285:3291  amount */\n      dup8\n        /* \"contracts/ArbitrageBot.sol\":3285:3310  amount + flashLoanPremium */\n      tag_83\n      swap2\n      swap1\n      tag_65\n      jump\t// in\n    tag_83:\n        /* \"contracts/ArbitrageBot.sol\":3267:3282  estimatedReturn */\n      dup3\n        /* \"contracts/ArbitrageBot.sol\":3267:3310  estimatedReturn > amount + flashLoanPremium */\n      gt\n        /* \"contracts/ArbitrageBot.sol\":3312:3327  estimatedReturn */\n      dup3\n        /* \"contracts/ArbitrageBot.sol\":3259:3328  return (estimatedReturn > amount + flashLoanPremium, estimatedReturn) */\n      swap4\n      pop\n      swap4\n      pop\n      pop\n      pop\n        /* \"contracts/ArbitrageBot.sol\":2912:3335  function checkArbitrageProfitability(... */\n      swap5\n      pop\n      swap5\n      swap3\n      pop\n      pop\n      pop\n      jump\t// out\n        /* \"@openzeppelin/contracts/access/Ownable.sol\":2293:2394  function renounceOwnership() public virtual onlyOwner {... */\n    tag_34:\n        /* \"@openzeppelin/contracts/access/Ownable.sol\":1531:1544  _checkOwner() */\n      tag_85\n        /* \"@openzeppelin/contracts/access/Ownable.sol\":1531:1542  _checkOwner */\n      tag_52\n        /* \"@openzeppelin/contracts/access/Ownable.sol\":1531:1544  _checkOwner() */\n      jump\t// in\n    tag_85:\n        /* \"@openzeppelin/contracts/access/Ownable.sol\":2357:2387  _transferOwnership(address(0)) */\n      tag_87\n        /* \"@openzeppelin/contracts/access/Ownable.sol\":2384:2385  0 */\n      0x00\n        /* \"@openzeppelin/contracts/access/Ownable.sol\":2357:2375  _transferOwnership */\n      tag_88\n        /* \"@openzeppelin/contracts/access/Ownable.sol\":2357:2387  _transferOwnership(address(0)) */\n      jump\t// in\n    tag_87:\n        /* \"@openzeppelin/contracts/access/Ownable.sol\":2293:2394  function renounceOwnership() public virtual onlyOwner {... */\n      jump\t// out\n        /* \"@aave/core-v3/contracts/flashloan/base/FlashLoanSimpleReceiverBase.sol\":560:596  IPool public immutable override POOL */\n    tag_36:\n      immutable(\"0x8fef2229291b68be841adf029e58b87f39ba144b2d3b0af1760243d0a9bc6a1c\")\n      dup2\n      jump\t// out\n        /* \"@openzeppelin/contracts/access/Ownable.sol\":1638:1723  function owner() public view virtual returns (address) {... */\n    tag_40:\n        /* \"@openzeppelin/contracts/access/Ownable.sol\":1684:1691  address */\n      0x00\n        /* \"@openzeppelin/contracts/access/Ownable.sol\":1710:1716  _owner */\n      dup1\n      0x00\n      swap1\n      sload\n      swap1\n      0x0100\n      exp\n      swap1\n      div\n      0xffffffffffffffffffffffffffffffffffffffff\n      and\n        /* \"@openzeppelin/contracts/access/Ownable.sol\":1703:1716  return _owner */\n      swap1\n      pop\n        /* \"@openzeppelin/contracts/access/Ownable.sol\":1638:1723  function owner() public view virtual returns (address) {... */\n      swap1\n      jump\t// out\n        /* \"contracts/ArbitrageBot.sol\":3965:4234  function executeFlashLoan(... */\n    tag_45:\n        /* \"@openzeppelin/contracts/access/Ownable.sol\":1531:1544  _checkOwner() */\n      tag_91\n        /* \"@openzeppelin/contracts/access/Ownable.sol\":1531:1542  _checkOwner */\n      tag_52\n        /* \"@openzeppelin/contracts/access/Ownable.sol\":1531:1544  _checkOwner() */\n      jump\t// in\n    tag_91:\n        /* \"contracts/ArbitrageBot.sol\":4112:4131  bytes memory params */\n      0x00\n        /* \"contracts/ArbitrageBot.sol\":4145:4155  dexRouters */\n      dup3\n      dup3\n        /* \"contracts/ArbitrageBot.sol\":4134:4156  abi.encode(dexRouters) */\n      add(0x20, mload(0x40))\n      tag_93\n      swap3\n      swap2\n      swap1\n      tag_94\n      jump\t// in\n    tag_93:\n      mload(0x40)\n      0x20\n      dup2\n      dup4\n      sub\n      sub\n      dup2\n      mstore\n      swap1\n      0x40\n      mstore\n        /* \"contracts/ArbitrageBot.sol\":4112:4156  bytes memory params = abi.encode(dexRouters) */\n      swap1\n      pop\n        /* \"contracts/ArbitrageBot.sol\":4166:4170  POOL */\n      immutable(\"0x8fef2229291b68be841adf029e58b87f39ba144b2d3b0af1760243d0a9bc6a1c\")\n        /* \"contracts/ArbitrageBot.sol\":4166:4186  POOL.flashLoanSimple */\n      0xffffffffffffffffffffffffffffffffffffffff\n      and\n      0x42b0b77c\n        /* \"contracts/ArbitrageBot.sol\":4195:4199  this */\n      address\n        /* \"contracts/ArbitrageBot.sol\":4202:4207  asset */\n      dup8\n        /* \"contracts/ArbitrageBot.sol\":4209:4215  amount */\n      dup8\n        /* \"contracts/ArbitrageBot.sol\":4217:4223  params */\n      dup6\n        /* \"contracts/ArbitrageBot.sol\":4225:4226  0 */\n      0x00\n        /* \"contracts/ArbitrageBot.sol\":4166:4227  POOL.flashLoanSimple(address(this), asset, amount, params, 0) */\n      mload(0x40)\n      dup7\n      0xffffffff\n      and\n      0xe0\n      shl\n      dup2\n      mstore\n      0x04\n      add\n      tag_95\n      swap6\n      swap5\n      swap4\n      swap3\n      swap2\n      swap1\n      tag_96\n      jump\t// in\n    tag_95:\n      0x00\n      mload(0x40)\n      dup1\n      dup4\n      sub\n      dup2\n      0x00\n      dup8\n      dup1\n      extcodesize\n      iszero\n      dup1\n      iszero\n      tag_97\n      jumpi\n      0x00\n      dup1\n      revert\n    tag_97:\n      pop\n      gas\n      call\n      iszero\n      dup1\n      iszero\n      tag_99\n      jumpi\n      returndatasize\n      0x00\n      dup1\n      returndatacopy\n      revert(0x00, returndatasize)\n    tag_99:\n      pop\n      pop\n      pop\n      pop\n        /* \"contracts/ArbitrageBot.sol\":4102:4234  {... */\n      pop\n        /* \"contracts/ArbitrageBot.sol\":3965:4234  function executeFlashLoan(... */\n      pop\n      pop\n      pop\n      pop\n      jump\t// out\n        /* \"@openzeppelin/contracts/access/Ownable.sol\":2543:2758  function transferOwnership(address newOwner) public virtual onlyOwner {... */\n    tag_49:\n        /* \"@openzeppelin/contracts/access/Ownable.sol\":1531:1544  _checkOwner() */\n      tag_101\n        /* \"@openzeppelin/contracts/access/Ownable.sol\":1531:1542  _checkOwner */\n      tag_52\n        /* \"@openzeppelin/contracts/access/Ownable.sol\":1531:1544  _checkOwner() */\n      jump\t// in\n    tag_101:\n        /* \"@openzeppelin/contracts/access/Ownable.sol\":2647:2648  0 */\n      0x00\n        /* \"@openzeppelin/contracts/access/Ownable.sol\":2627:2649  newOwner == address(0) */\n      0xffffffffffffffffffffffffffffffffffffffff\n      and\n        /* \"@openzeppelin/contracts/access/Ownable.sol\":2627:2635  newOwner */\n      dup2\n        /* \"@openzeppelin/contracts/access/Ownable.sol\":2627:2649  newOwner == address(0) */\n      0xffffffffffffffffffffffffffffffffffffffff\n      and\n      sub\n        /* \"@openzeppelin/contracts/access/Ownable.sol\":2623:2714  if (newOwner == address(0)) {... */\n      tag_103\n      jumpi\n        /* \"@openzeppelin/contracts/access/Ownable.sol\":2700:2701  0 */\n      0x00\n        /* \"@openzeppelin/contracts/access/Ownable.sol\":2672:2703  OwnableInvalidOwner(address(0)) */\n      mload(0x40)\n      0x1e4fbdf700000000000000000000000000000000000000000000000000000000\n      dup2\n      mstore\n      0x04\n      add\n      tag_104\n      swap2\n      swap1\n      tag_42\n      jump\t// in\n    tag_104:\n      mload(0x40)\n      dup1\n      swap2\n      sub\n      swap1\n      revert\n        /* \"@openzeppelin/contracts/access/Ownable.sol\":2623:2714  if (newOwner == address(0)) {... */\n    tag_103:\n        /* \"@openzeppelin/contracts/access/Ownable.sol\":2723:2751  _transferOwnership(newOwner) */\n      tag_105\n        /* \"@openzeppelin/contracts/access/Ownable.sol\":2742:2750  newOwner */\n      dup2\n        /* \"@openzeppelin/contracts/access/Ownable.sol\":2723:2741  _transferOwnership */\n      tag_88\n        /* \"@openzeppelin/contracts/access/Ownable.sol\":2723:2751  _transferOwnership(newOwner) */\n      jump\t// in\n    tag_105:\n        /* \"@openzeppelin/contracts/access/Ownable.sol\":2543:2758  function transferOwnership(address newOwner) public virtual onlyOwner {... */\n      pop\n      jump\t// out\n        /* \"@openzeppelin/contracts/access/Ownable.sol\":1796:1958  function _checkOwner() internal view virtual {... */\n    tag_52:\n        /* \"@openzeppelin/contracts/access/Ownable.sol\":1866:1878  _msgSender() */\n      tag_107\n        /* \"@openzeppelin/contracts/access/Ownable.sol\":1866:1876  _msgSender */\n      tag_108\n        /* \"@openzeppelin/contracts/access/Ownable.sol\":1866:1878  _msgSender() */\n      jump\t// in\n    tag_107:\n        /* \"@openzeppelin/contracts/access/Ownable.sol\":1855:1878  owner() != _msgSender() */\n      0xffffffffffffffffffffffffffffffffffffffff\n      and\n        /* \"@openzeppelin/contracts/access/Ownable.sol\":1855:1862  owner() */\n      tag_109\n        /* \"@openzeppelin/contracts/access/Ownable.sol\":1855:1860  owner */\n      tag_40\n        /* \"@openzeppelin/contracts/access/Ownable.sol\":1855:1862  owner() */\n      jump\t// in\n    tag_109:\n        /* \"@openzeppelin/contracts/access/Ownable.sol\":1855:1878  owner() != _msgSender() */\n      0xffffffffffffffffffffffffffffffffffffffff\n      and\n      eq\n        /* \"@openzeppelin/contracts/access/Ownable.sol\":1851:1952  if (owner() != _msgSender()) {... */\n      tag_110\n      jumpi\n        /* \"@openzeppelin/contracts/access/Ownable.sol\":1928:1940  _msgSender() */\n      tag_111\n        /* \"@openzeppelin/contracts/access/Ownable.sol\":1928:1938  _msgSender */\n      tag_108\n        /* \"@openzeppelin/contracts/access/Ownable.sol\":1928:1940  _msgSender() */\n      jump\t// in\n    tag_111:\n        /* \"@openzeppelin/contracts/access/Ownable.sol\":1901:1941  OwnableUnauthorizedAccount(_msgSender()) */\n      mload(0x40)\n      0x118cdaa700000000000000000000000000000000000000000000000000000000\n      dup2\n      mstore\n      0x04\n      add\n      tag_112\n      swap2\n      swap1\n      tag_42\n      jump\t// in\n    tag_112:\n      mload(0x40)\n      dup1\n      swap2\n      sub\n      swap1\n      revert\n        /* \"@openzeppelin/contracts/access/Ownable.sol\":1851:1952  if (owner() != _msgSender()) {... */\n    tag_110:\n        /* \"@openzeppelin/contracts/access/Ownable.sol\":1796:1958  function _checkOwner() internal view virtual {... */\n      jump\t// out\n        /* \"contracts/ArbitrageBot.sol\":1809:2906  function executeArbitrage(... */\n    tag_71:\n        /* \"contracts/ArbitrageBot.sol\":1943:1950  uint256 */\n      0x00\n        /* \"contracts/ArbitrageBot.sol\":2003:2023  uint256 startBalance */\n      dup1\n        /* \"contracts/ArbitrageBot.sol\":2033:2038  asset */\n      dup5\n        /* \"contracts/ArbitrageBot.sol\":2026:2049  IERC20(asset).balanceOf */\n      0xffffffffffffffffffffffffffffffffffffffff\n      and\n      0x70a08231\n        /* \"contracts/ArbitrageBot.sol\":2058:2062  this */\n      address\n        /* \"contracts/ArbitrageBot.sol\":2026:2064  IERC20(asset).balanceOf(address(this)) */\n      mload(0x40)\n      dup3\n      0xffffffff\n      and\n      0xe0\n      shl\n      dup2\n      mstore\n      0x04\n      add\n      tag_114\n      swap2\n      swap1\n      tag_42\n      jump\t// in\n    tag_114:\n      0x20\n      mload(0x40)\n      dup1\n      dup4\n      sub\n      dup2\n      dup7\n      gas\n      staticcall\n      iszero\n      dup1\n      iszero\n      tag_116\n      jumpi\n      returndatasize\n      0x00\n      dup1\n      returndatacopy\n      revert(0x00, returndatasize)\n    tag_116:\n      pop\n      pop\n      pop\n      pop\n      mload(0x40)\n      returndatasize\n      not(0x1f)\n      0x1f\n      dup3\n      add\n      and\n      dup3\n      add\n      dup1\n      0x40\n      mstore\n      pop\n      dup2\n      add\n      swap1\n      tag_117\n      swap2\n      swap1\n      tag_118\n      jump\t// in\n    tag_117:\n        /* \"contracts/ArbitrageBot.sol\":2003:2064  uint256 startBalance = IERC20(asset).balanceOf(address(this)) */\n      swap1\n      pop\n        /* \"contracts/ArbitrageBot.sol\":2127:2133  uint i */\n      0x00\n        /* \"contracts/ArbitrageBot.sol\":2122:2804  for (uint i = 0; i < dexRouters.length - 1; i++) {... */\n    tag_119:\n        /* \"contracts/ArbitrageBot.sol\":2163:2164  1 */\n      0x01\n        /* \"contracts/ArbitrageBot.sol\":2143:2153  dexRouters */\n      dup5\n        /* \"contracts/ArbitrageBot.sol\":2143:2160  dexRouters.length */\n      mload\n        /* \"contracts/ArbitrageBot.sol\":2143:2164  dexRouters.length - 1 */\n      tag_122\n      swap2\n      swap1\n      tag_123\n      jump\t// in\n    tag_122:\n        /* \"contracts/ArbitrageBot.sol\":2139:2140  i */\n      dup2\n        /* \"contracts/ArbitrageBot.sol\":2139:2164  i < dexRouters.length - 1 */\n      lt\n        /* \"contracts/ArbitrageBot.sol\":2122:2804  for (uint i = 0; i < dexRouters.length - 1; i++) {... */\n      iszero\n      tag_120\n      jumpi\n        /* \"contracts/ArbitrageBot.sol\":2185:2207  uint256 currentBalance */\n      0x00\n        /* \"contracts/ArbitrageBot.sol\":2217:2222  asset */\n      dup7\n        /* \"contracts/ArbitrageBot.sol\":2210:2233  IERC20(asset).balanceOf */\n      0xffffffffffffffffffffffffffffffffffffffff\n      and\n      0x70a08231\n        /* \"contracts/ArbitrageBot.sol\":2242:2246  this */\n      address\n        /* \"contracts/ArbitrageBot.sol\":2210:2248  IERC20(asset).balanceOf(address(this)) */\n      mload(0x40)\n      dup3\n      0xffffffff\n      and\n      0xe0\n      shl\n      dup2\n      mstore\n      0x04\n      add\n      tag_124\n      swap2\n      swap1\n      tag_42\n      jump\t// in\n    tag_124:\n      0x20\n      mload(0x40)\n      dup1\n      dup4\n      sub\n      dup2\n      dup7\n      gas\n      staticcall\n      iszero\n      dup1\n      iszero\n      tag_126\n      jumpi\n      returndatasize\n      0x00\n      dup1\n      returndatacopy\n      revert(0x00, returndatasize)\n    tag_126:\n      pop\n      pop\n      pop\n      pop\n      mload(0x40)\n      returndatasize\n      not(0x1f)\n      0x1f\n      dup3\n      add\n      and\n      dup3\n      add\n      dup1\n      0x40\n      mstore\n      pop\n      dup2\n      add\n      swap1\n      tag_127\n      swap2\n      swap1\n      tag_118\n      jump\t// in\n    tag_127:\n        /* \"contracts/ArbitrageBot.sol\":2185:2248  uint256 currentBalance = IERC20(asset).balanceOf(address(this)) */\n      swap1\n      pop\n        /* \"contracts/ArbitrageBot.sol\":2328:2333  asset */\n      dup7\n        /* \"contracts/ArbitrageBot.sol\":2321:2342  IERC20(asset).approve */\n      0xffffffffffffffffffffffffffffffffffffffff\n      and\n      0x095ea7b3\n        /* \"contracts/ArbitrageBot.sol\":2343:2353  dexRouters */\n      dup7\n        /* \"contracts/ArbitrageBot.sol\":2354:2355  i */\n      dup5\n        /* \"contracts/ArbitrageBot.sol\":2343:2356  dexRouters[i] */\n      dup2\n      mload\n      dup2\n      lt\n      tag_128\n      jumpi\n      tag_129\n      tag_130\n      jump\t// in\n    tag_129:\n    tag_128:\n      0x20\n      mul\n      0x20\n      add\n      add\n      mload\n        /* \"contracts/ArbitrageBot.sol\":2358:2372  currentBalance */\n      dup4\n        /* \"contracts/ArbitrageBot.sol\":2321:2373  IERC20(asset).approve(dexRouters[i], currentBalance) */\n      mload(0x40)\n      dup4\n      0xffffffff\n      and\n      0xe0\n      shl\n      dup2\n      mstore\n      0x04\n      add\n      tag_131\n      swap3\n      swap2\n      swap1\n      tag_56\n      jump\t// in\n    tag_131:\n      0x20\n      mload(0x40)\n      dup1\n      dup4\n      sub\n      dup2\n      0x00\n      dup8\n      gas\n      call\n      iszero\n      dup1\n      iszero\n      tag_133\n      jumpi\n      returndatasize\n      0x00\n      dup1\n      returndatacopy\n      revert(0x00, returndatasize)\n    tag_133:\n      pop\n      pop\n      pop\n      pop\n      mload(0x40)\n      returndatasize\n      not(0x1f)\n      0x1f\n      dup3\n      add\n      and\n      dup3\n      add\n      dup1\n      0x40\n      mstore\n      pop\n      dup2\n      add\n      swap1\n      tag_134\n      swap2\n      swap1\n      tag_60\n      jump\t// in\n    tag_134:\n      pop\n        /* \"contracts/ArbitrageBot.sol\":2429:2450  address[] memory path */\n      0x00\n        /* \"contracts/ArbitrageBot.sol\":2467:2468  2 */\n      0x02\n        /* \"contracts/ArbitrageBot.sol\":2453:2469  new address[](2) */\n      0xffffffffffffffff\n      dup2\n      gt\n      iszero\n      tag_135\n      jumpi\n      tag_136\n      tag_137\n      jump\t// in\n    tag_136:\n    tag_135:\n      mload(0x40)\n      swap1\n      dup1\n      dup3\n      mstore\n      dup1\n      0x20\n      mul\n      0x20\n      add\n      dup3\n      add\n      0x40\n      mstore\n      dup1\n      iszero\n      tag_138\n      jumpi\n      dup2\n      0x20\n      add\n      0x20\n      dup3\n      mul\n      dup1\n      calldatasize\n      dup4\n      calldatacopy\n      dup1\n      dup3\n      add\n      swap2\n      pop\n      pop\n      swap1\n      pop\n    tag_138:\n      pop\n        /* \"contracts/ArbitrageBot.sol\":2429:2469  address[] memory path = new address[](2) */\n      swap1\n      pop\n        /* \"contracts/ArbitrageBot.sol\":2493:2498  asset */\n      dup8\n        /* \"contracts/ArbitrageBot.sol\":2483:2487  path */\n      dup2\n        /* \"contracts/ArbitrageBot.sol\":2488:2489  0 */\n      0x00\n        /* \"contracts/ArbitrageBot.sol\":2483:2490  path[0] */\n      dup2\n      mload\n      dup2\n      lt\n      tag_139\n      jumpi\n      tag_140\n      tag_130\n      jump\t// in\n    tag_140:\n    tag_139:\n      0x20\n      mul\n      0x20\n      add\n      add\n        /* \"contracts/ArbitrageBot.sol\":2483:2498  path[0] = asset */\n      swap1\n      0xffffffffffffffffffffffffffffffffffffffff\n      and\n      swap1\n      dup2\n      0xffffffffffffffffffffffffffffffffffffffff\n      and\n      dup2\n      mstore\n      pop\n      pop\n        /* \"contracts/ArbitrageBot.sol\":624:666  0xC02aaA39b223FE8D0A0e5C4F27eAD9083C756Cc2 */\n      0xc02aaa39b223fe8d0a0e5c4f27ead9083c756cc2\n        /* \"contracts/ArbitrageBot.sol\":2512:2516  path */\n      dup2\n        /* \"contracts/ArbitrageBot.sol\":2517:2518  1 */\n      0x01\n        /* \"contracts/ArbitrageBot.sol\":2512:2519  path[1] */\n      dup2\n      mload\n      dup2\n      lt\n      tag_141\n      jumpi\n      tag_142\n      tag_130\n      jump\t// in\n    tag_142:\n    tag_141:\n      0x20\n      mul\n      0x20\n      add\n      add\n        /* \"contracts/ArbitrageBot.sol\":2512:2526  path[1] = WETH */\n      swap1\n      0xffffffffffffffffffffffffffffffffffffffff\n      and\n      swap1\n      dup2\n      0xffffffffffffffffffffffffffffffffffffffff\n      and\n      dup2\n      mstore\n      pop\n      pop\n        /* \"contracts/ArbitrageBot.sol\":2572:2582  dexRouters */\n      dup6\n        /* \"contracts/ArbitrageBot.sol\":2583:2584  i */\n      dup4\n        /* \"contracts/ArbitrageBot.sol\":2572:2585  dexRouters[i] */\n      dup2\n      mload\n      dup2\n      lt\n      tag_143\n      jumpi\n      tag_144\n      tag_130\n      jump\t// in\n    tag_144:\n    tag_143:\n      0x20\n      mul\n      0x20\n      add\n      add\n      mload\n        /* \"contracts/ArbitrageBot.sol\":2553:2611  IUniswapV2Router02(dexRouters[i]).swapExactTokensForTokens */\n      0xffffffffffffffffffffffffffffffffffffffff\n      and\n      0x38ed1739\n        /* \"contracts/ArbitrageBot.sol\":2629:2643  currentBalance */\n      dup4\n        /* \"contracts/ArbitrageBot.sol\":2661:2662  0 */\n      0x00\n        /* \"contracts/ArbitrageBot.sol\":2711:2715  path */\n      dup5\n        /* \"contracts/ArbitrageBot.sol\":2741:2745  this */\n      address\n        /* \"contracts/ArbitrageBot.sol\":2764:2779  block.timestamp */\n      timestamp\n        /* \"contracts/ArbitrageBot.sol\":2553:2793  IUniswapV2Router02(dexRouters[i]).swapExactTokensForTokens(... */\n      mload(0x40)\n      dup7\n      0xffffffff\n      and\n      0xe0\n      shl\n      dup2\n      mstore\n      0x04\n      add\n      tag_145\n      swap6\n      swap5\n      swap4\n      swap3\n      swap2\n      swap1\n      tag_146\n      jump\t// in\n    tag_145:\n      0x00\n      mload(0x40)\n      dup1\n      dup4\n      sub\n      dup2\n      0x00\n      dup8\n      gas\n      call\n      iszero\n      dup1\n      iszero\n      tag_148\n      jumpi\n      returndatasize\n      0x00\n      dup1\n      returndatacopy\n      revert(0x00, returndatasize)\n    tag_148:\n      pop\n      pop\n      pop\n      pop\n      mload(0x40)\n      returndatasize\n      0x00\n      dup3\n      returndatacopy\n      returndatasize\n      not(0x1f)\n      0x1f\n      dup3\n      add\n      and\n      dup3\n      add\n      dup1\n      0x40\n      mstore\n      pop\n      dup2\n      add\n      swap1\n      tag_149\n      swap2\n      swap1\n      tag_150\n      jump\t// in\n    tag_149:\n      pop\n        /* \"contracts/ArbitrageBot.sol\":2171:2804  {... */\n      pop\n      pop\n        /* \"contracts/ArbitrageBot.sol\":2166:2169  i++ */\n      dup1\n      dup1\n      0x01\n      add\n      swap2\n      pop\n      pop\n        /* \"contracts/ArbitrageBot.sol\":2122:2804  for (uint i = 0; i < dexRouters.length - 1; i++) {... */\n      jump(tag_119)\n    tag_120:\n      pop\n        /* \"contracts/ArbitrageBot.sol\":2868:2873  asset */\n      dup5\n        /* \"contracts/ArbitrageBot.sol\":2861:2884  IERC20(asset).balanceOf */\n      0xffffffffffffffffffffffffffffffffffffffff\n      and\n      0x70a08231\n        /* \"contracts/ArbitrageBot.sol\":2893:2897  this */\n      address\n        /* \"contracts/ArbitrageBot.sol\":2861:2899  IERC20(asset).balanceOf(address(this)) */\n      mload(0x40)\n      dup3\n      0xffffffff\n      and\n      0xe0\n      shl\n      dup2\n      mstore\n      0x04\n      add\n      tag_151\n      swap2\n      swap1\n      tag_42\n      jump\t// in\n    tag_151:\n      0x20\n      mload(0x40)\n      dup1\n      dup4\n      sub\n      dup2\n      dup7\n      gas\n      staticcall\n      iszero\n      dup1\n      iszero\n      tag_153\n      jumpi\n      returndatasize\n      0x00\n      dup1\n      returndatacopy\n      revert(0x00, returndatasize)\n    tag_153:\n      pop\n      pop\n      pop\n      pop\n      mload(0x40)\n      returndatasize\n      not(0x1f)\n      0x1f\n      dup3\n      add\n      and\n      dup3\n      add\n      dup1\n      0x40\n      mstore\n      pop\n      dup2\n      add\n      swap1\n      tag_154\n      swap2\n      swap1\n      tag_118\n      jump\t// in\n    tag_154:\n        /* \"contracts/ArbitrageBot.sol\":2854:2899  return IERC20(asset).balanceOf(address(this)) */\n      swap2\n      pop\n      pop\n        /* \"contracts/ArbitrageBot.sol\":1809:2906  function executeArbitrage(... */\n      swap4\n      swap3\n      pop\n      pop\n      pop\n      jump\t// out\n        /* \"contracts/ArbitrageBot.sol\":3341:3959  function simulateArbitrage(... */\n    tag_78:\n        /* \"contracts/ArbitrageBot.sol\":3483:3490  uint256 */\n      0x00\n        /* \"contracts/ArbitrageBot.sol\":3502:3523  uint256 currentAmount */\n      dup1\n        /* \"contracts/ArbitrageBot.sol\":3526:3532  amount */\n      dup5\n        /* \"contracts/ArbitrageBot.sol\":3502:3532  uint256 currentAmount = amount */\n      swap1\n      pop\n        /* \"contracts/ArbitrageBot.sol\":3556:3562  uint i */\n      0x00\n        /* \"contracts/ArbitrageBot.sol\":3551:3914  for (uint i = 0; i < dexRouters.length; i++) {... */\n    tag_156:\n        /* \"contracts/ArbitrageBot.sol\":3572:3582  dexRouters */\n      dup5\n      dup5\n        /* \"contracts/ArbitrageBot.sol\":3572:3589  dexRouters.length */\n      swap1\n      pop\n        /* \"contracts/ArbitrageBot.sol\":3568:3569  i */\n      dup2\n        /* \"contracts/ArbitrageBot.sol\":3568:3589  i < dexRouters.length */\n      lt\n        /* \"contracts/ArbitrageBot.sol\":3551:3914  for (uint i = 0; i < dexRouters.length; i++) {... */\n      iszero\n      tag_157\n      jumpi\n        /* \"contracts/ArbitrageBot.sol\":3610:3631  address[] memory path */\n      0x00\n        /* \"contracts/ArbitrageBot.sol\":3648:3649  2 */\n      0x02\n        /* \"contracts/ArbitrageBot.sol\":3634:3650  new address[](2) */\n      0xffffffffffffffff\n      dup2\n      gt\n      iszero\n      tag_159\n      jumpi\n      tag_160\n      tag_137\n      jump\t// in\n    tag_160:\n    tag_159:\n      mload(0x40)\n      swap1\n      dup1\n      dup3\n      mstore\n      dup1\n      0x20\n      mul\n      0x20\n      add\n      dup3\n      add\n      0x40\n      mstore\n      dup1\n      iszero\n      tag_161\n      jumpi\n      dup2\n      0x20\n      add\n      0x20\n      dup3\n      mul\n      dup1\n      calldatasize\n      dup4\n      calldatacopy\n      dup1\n      dup3\n      add\n      swap2\n      pop\n      pop\n      swap1\n      pop\n    tag_161:\n      pop\n        /* \"contracts/ArbitrageBot.sol\":3610:3650  address[] memory path = new address[](2) */\n      swap1\n      pop\n        /* \"contracts/ArbitrageBot.sol\":3674:3679  asset */\n      dup8\n        /* \"contracts/ArbitrageBot.sol\":3664:3668  path */\n      dup2\n        /* \"contracts/ArbitrageBot.sol\":3669:3670  0 */\n      0x00\n        /* \"contracts/ArbitrageBot.sol\":3664:3671  path[0] */\n      dup2\n      mload\n      dup2\n      lt\n      tag_162\n      jumpi\n      tag_163\n      tag_130\n      jump\t// in\n    tag_163:\n    tag_162:\n      0x20\n      mul\n      0x20\n      add\n      add\n        /* \"contracts/ArbitrageBot.sol\":3664:3679  path[0] = asset */\n      swap1\n      0xffffffffffffffffffffffffffffffffffffffff\n      and\n      swap1\n      dup2\n      0xffffffffffffffffffffffffffffffffffffffff\n      and\n      dup2\n      mstore\n      pop\n      pop\n        /* \"contracts/ArbitrageBot.sol\":624:666  0xC02aaA39b223FE8D0A0e5C4F27eAD9083C756Cc2 */\n      0xc02aaa39b223fe8d0a0e5c4f27ead9083c756cc2\n        /* \"contracts/ArbitrageBot.sol\":3693:3697  path */\n      dup2\n        /* \"contracts/ArbitrageBot.sol\":3698:3699  1 */\n      0x01\n        /* \"contracts/ArbitrageBot.sol\":3693:3700  path[1] */\n      dup2\n      mload\n      dup2\n      lt\n      tag_164\n      jumpi\n      tag_165\n      tag_130\n      jump\t// in\n    tag_165:\n    tag_164:\n      0x20\n      mul\n      0x20\n      add\n      add\n        /* \"contracts/ArbitrageBot.sol\":3693:3707  path[1] = WETH */\n      swap1\n      0xffffffffffffffffffffffffffffffffffffffff\n      and\n      swap1\n      dup2\n      0xffffffffffffffffffffffffffffffffffffffff\n      and\n      dup2\n      mstore\n      pop\n      pop\n        /* \"contracts/ArbitrageBot.sol\":3734:3758  uint256[] memory amounts */\n      0x00\n        /* \"contracts/ArbitrageBot.sol\":3780:3790  dexRouters */\n      dup7\n      dup7\n        /* \"contracts/ArbitrageBot.sol\":3791:3792  i */\n      dup5\n        /* \"contracts/ArbitrageBot.sol\":3780:3793  dexRouters[i] */\n      dup2\n      dup2\n      lt\n      tag_166\n      jumpi\n      tag_167\n      tag_130\n      jump\t// in\n    tag_167:\n    tag_166:\n      swap1\n      pop\n      0x20\n      mul\n      add\n      0x20\n      dup2\n      add\n      swap1\n      tag_168\n      swap2\n      swap1\n      tag_48\n      jump\t// in\n    tag_168:\n        /* \"contracts/ArbitrageBot.sol\":3761:3825  IUniswapV2Router02(dexRouters[i])... */\n      0xffffffffffffffffffffffffffffffffffffffff\n      and\n      0xd06ca61f\n        /* \"contracts/ArbitrageBot.sol\":3826:3839  currentAmount */\n      dup6\n        /* \"contracts/ArbitrageBot.sol\":3841:3845  path */\n      dup5\n        /* \"contracts/ArbitrageBot.sol\":3761:3846  IUniswapV2Router02(dexRouters[i])... */\n      mload(0x40)\n      dup4\n      0xffffffff\n      and\n      0xe0\n      shl\n      dup2\n      mstore\n      0x04\n      add\n      tag_169\n      swap3\n      swap2\n      swap1\n      tag_170\n      jump\t// in\n    tag_169:\n      0x00\n      mload(0x40)\n      dup1\n      dup4\n      sub\n      dup2\n      dup7\n      gas\n      staticcall\n      iszero\n      dup1\n      iszero\n      tag_172\n      jumpi\n      returndatasize\n      0x00\n      dup1\n      returndatacopy\n      revert(0x00, returndatasize)\n    tag_172:\n      pop\n      pop\n      pop\n      pop\n      mload(0x40)\n      returndatasize\n      0x00\n      dup3\n      returndatacopy\n      returndatasize\n      not(0x1f)\n      0x1f\n      dup3\n      add\n      and\n      dup3\n      add\n      dup1\n      0x40\n      mstore\n      pop\n      dup2\n      add\n      swap1\n      tag_173\n      swap2\n      swap1\n      tag_150\n      jump\t// in\n    tag_173:\n        /* \"contracts/ArbitrageBot.sol\":3734:3846  uint256[] memory amounts = IUniswapV2Router02(dexRouters[i])... */\n      swap1\n      pop\n        /* \"contracts/ArbitrageBot.sol\":3893:3900  amounts */\n      dup1\n        /* \"contracts/ArbitrageBot.sol\":3901:3902  1 */\n      0x01\n        /* \"contracts/ArbitrageBot.sol\":3893:3903  amounts[1] */\n      dup2\n      mload\n      dup2\n      lt\n      tag_174\n      jumpi\n      tag_175\n      tag_130\n      jump\t// in\n    tag_175:\n    tag_174:\n      0x20\n      mul\n      0x20\n      add\n      add\n      mload\n        /* \"contracts/ArbitrageBot.sol\":3877:3903  currentAmount = amounts[1] */\n      swap4\n      pop\n        /* \"contracts/ArbitrageBot.sol\":3596:3914  {... */\n      pop\n      pop\n        /* \"contracts/ArbitrageBot.sol\":3591:3594  i++ */\n      dup1\n      dup1\n      0x01\n      add\n      swap2\n      pop\n      pop\n        /* \"contracts/ArbitrageBot.sol\":3551:3914  for (uint i = 0; i < dexRouters.length; i++) {... */\n      jump(tag_156)\n    tag_157:\n      pop\n        /* \"contracts/ArbitrageBot.sol\":3939:3952  currentAmount */\n      dup1\n        /* \"contracts/ArbitrageBot.sol\":3932:3952  return currentAmount */\n      swap2\n      pop\n      pop\n        /* \"contracts/ArbitrageBot.sol\":3341:3959  function simulateArbitrage(... */\n      swap5\n      swap4\n      pop\n      pop\n      pop\n      pop\n      jump\t// out\n        /* \"@openzeppelin/contracts/access/Ownable.sol\":2912:3099  function _transferOwnership(address newOwner) internal virtual {... */\n    tag_88:\n        /* \"@openzeppelin/contracts/access/Ownable.sol\":2985:3001  address oldOwner */\n      0x00\n        /* \"@openzeppelin/contracts/access/Ownable.sol\":3004:3010  _owner */\n      dup1\n      0x00\n      swap1\n      sload\n      swap1\n      0x0100\n      exp\n      swap1\n      div\n      0xffffffffffffffffffffffffffffffffffffffff\n      and\n        /* \"@openzeppelin/contracts/access/Ownable.sol\":2985:3010  address oldOwner = _owner */\n      swap1\n      pop\n        /* \"@openzeppelin/contracts/access/Ownable.sol\":3029:3037  newOwner */\n      dup2\n        /* \"@openzeppelin/contracts/access/Ownable.sol\":3020:3026  _owner */\n      0x00\n      dup1\n        /* \"@openzeppelin/contracts/access/Ownable.sol\":3020:3037  _owner = newOwner */\n      0x0100\n      exp\n      dup2\n      sload\n      dup2\n      0xffffffffffffffffffffffffffffffffffffffff\n      mul\n      not\n      and\n      swap1\n      dup4\n      0xffffffffffffffffffffffffffffffffffffffff\n      and\n      mul\n      or\n      swap1\n      sstore\n      pop\n        /* \"@openzeppelin/contracts/access/Ownable.sol\":3083:3091  newOwner */\n      dup2\n        /* \"@openzeppelin/contracts/access/Ownable.sol\":3052:3092  OwnershipTransferred(oldOwner, newOwner) */\n      0xffffffffffffffffffffffffffffffffffffffff\n      and\n        /* \"@openzeppelin/contracts/access/Ownable.sol\":3073:3081  oldOwner */\n      dup2\n        /* \"@openzeppelin/contracts/access/Ownable.sol\":3052:3092  OwnershipTransferred(oldOwner, newOwner) */\n      0xffffffffffffffffffffffffffffffffffffffff\n      and\n      0x8be0079c531659141344cd1fd0a4f28419497f9722a3daafe3b4186f6b6457e0\n      mload(0x40)\n      mload(0x40)\n      dup1\n      swap2\n      sub\n      swap1\n      log3\n        /* \"@openzeppelin/contracts/access/Ownable.sol\":2975:3099  {... */\n      pop\n        /* \"@openzeppelin/contracts/access/Ownable.sol\":2912:3099  function _transferOwnership(address newOwner) internal virtual {... */\n      pop\n      jump\t// out\n        /* \"@openzeppelin/contracts/utils/Context.sol\":656:752  function _msgSender() internal view virtual returns (address) {... */\n    tag_108:\n        /* \"@openzeppelin/contracts/utils/Context.sol\":709:716  address */\n      0x00\n        /* \"@openzeppelin/contracts/utils/Context.sol\":735:745  msg.sender */\n      caller\n        /* \"@openzeppelin/contracts/utils/Context.sol\":728:745  return msg.sender */\n      swap1\n      pop\n        /* \"@openzeppelin/contracts/utils/Context.sol\":656:752  function _msgSender() internal view virtual returns (address) {... */\n      swap1\n      jump\t// out\n        /* \"#utility.yul\":7:133   */\n    tag_178:\n        /* \"#utility.yul\":44:51   */\n      0x00\n        /* \"#utility.yul\":84:126   */\n      0xffffffffffffffffffffffffffffffffffffffff\n        /* \"#utility.yul\":77:82   */\n      dup3\n        /* \"#utility.yul\":73:127   */\n      and\n        /* \"#utility.yul\":62:127   */\n      swap1\n      pop\n        /* \"#utility.yul\":7:133   */\n      swap2\n      swap1\n      pop\n      jump\t// out\n        /* \"#utility.yul\":139:199   */\n    tag_179:\n        /* \"#utility.yul\":167:170   */\n      0x00\n        /* \"#utility.yul\":188:193   */\n      dup2\n        /* \"#utility.yul\":181:193   */\n      swap1\n      pop\n        /* \"#utility.yul\":139:199   */\n      swap2\n      swap1\n      pop\n      jump\t// out\n        /* \"#utility.yul\":205:347   */\n    tag_180:\n        /* \"#utility.yul\":255:264   */\n      0x00\n        /* \"#utility.yul\":288:341   */\n      tag_246\n        /* \"#utility.yul\":306:340   */\n      tag_247\n        /* \"#utility.yul\":315:339   */\n      tag_248\n        /* \"#utility.yul\":333:338   */\n      dup5\n        /* \"#utility.yul\":315:339   */\n      tag_178\n      jump\t// in\n    tag_248:\n        /* \"#utility.yul\":306:340   */\n      tag_179\n      jump\t// in\n    tag_247:\n        /* \"#utility.yul\":288:341   */\n      tag_178\n      jump\t// in\n    tag_246:\n        /* \"#utility.yul\":275:341   */\n      swap1\n      pop\n        /* \"#utility.yul\":205:347   */\n      swap2\n      swap1\n      pop\n      jump\t// out\n        /* \"#utility.yul\":353:479   */\n    tag_181:\n        /* \"#utility.yul\":403:412   */\n      0x00\n        /* \"#utility.yul\":436:473   */\n      tag_250\n        /* \"#utility.yul\":467:472   */\n      dup3\n        /* \"#utility.yul\":436:473   */\n      tag_180\n      jump\t// in\n    tag_250:\n        /* \"#utility.yul\":423:473   */\n      swap1\n      pop\n        /* \"#utility.yul\":353:479   */\n      swap2\n      swap1\n      pop\n      jump\t// out\n        /* \"#utility.yul\":485:641   */\n    tag_182:\n        /* \"#utility.yul\":565:574   */\n      0x00\n        /* \"#utility.yul\":598:635   */\n      tag_252\n        /* \"#utility.yul\":629:634   */\n      dup3\n        /* \"#utility.yul\":598:635   */\n      tag_181\n      jump\t// in\n    tag_252:\n        /* \"#utility.yul\":585:635   */\n      swap1\n      pop\n        /* \"#utility.yul\":485:641   */\n      swap2\n      swap1\n      pop\n      jump\t// out\n        /* \"#utility.yul\":647:838   */\n    tag_183:\n        /* \"#utility.yul\":764:831   */\n      tag_254\n        /* \"#utility.yul\":825:830   */\n      dup2\n        /* \"#utility.yul\":764:831   */\n      tag_182\n      jump\t// in\n    tag_254:\n        /* \"#utility.yul\":759:762   */\n      dup3\n        /* \"#utility.yul\":752:832   */\n      mstore\n        /* \"#utility.yul\":647:838   */\n      pop\n      pop\n      jump\t// out\n        /* \"#utility.yul\":844:1126   */\n    tag_16:\n        /* \"#utility.yul\":967:971   */\n      0x00\n        /* \"#utility.yul\":1005:1007   */\n      0x20\n        /* \"#utility.yul\":994:1003   */\n      dup3\n        /* \"#utility.yul\":990:1008   */\n      add\n        /* \"#utility.yul\":982:1008   */\n      swap1\n      pop\n        /* \"#utility.yul\":1018:1119   */\n      tag_256\n        /* \"#utility.yul\":1116:1117   */\n      0x00\n        /* \"#utility.yul\":1105:1114   */\n      dup4\n        /* \"#utility.yul\":1101:1118   */\n      add\n        /* \"#utility.yul\":1092:1098   */\n      dup5\n        /* \"#utility.yul\":1018:1119   */\n      tag_183\n      jump\t// in\n    tag_256:\n        /* \"#utility.yul\":844:1126   */\n      swap3\n      swap2\n      pop\n      pop\n      jump\t// out\n        /* \"#utility.yul\":1132:1207   */\n    tag_184:\n        /* \"#utility.yul\":1165:1171   */\n      0x00\n        /* \"#utility.yul\":1198:1200   */\n      0x40\n        /* \"#utility.yul\":1192:1201   */\n      mload\n        /* \"#utility.yul\":1182:1201   */\n      swap1\n      pop\n        /* \"#utility.yul\":1132:1207   */\n      swap1\n      jump\t// out\n        /* \"#utility.yul\":1213:1330   */\n    tag_185:\n        /* \"#utility.yul\":1322:1323   */\n      0x00\n        /* \"#utility.yul\":1319:1320   */\n      dup1\n        /* \"#utility.yul\":1312:1324   */\n      revert\n        /* \"#utility.yul\":1336:1453   */\n    tag_186:\n        /* \"#utility.yul\":1445:1446   */\n      0x00\n        /* \"#utility.yul\":1442:1443   */\n      dup1\n        /* \"#utility.yul\":1435:1447   */\n      revert\n        /* \"#utility.yul\":1459:1555   */\n    tag_187:\n        /* \"#utility.yul\":1496:1503   */\n      0x00\n        /* \"#utility.yul\":1525:1549   */\n      tag_261\n        /* \"#utility.yul\":1543:1548   */\n      dup3\n        /* \"#utility.yul\":1525:1549   */\n      tag_178\n      jump\t// in\n    tag_261:\n        /* \"#utility.yul\":1514:1549   */\n      swap1\n      pop\n        /* \"#utility.yul\":1459:1555   */\n      swap2\n      swap1\n      pop\n      jump\t// out\n        /* \"#utility.yul\":1561:1683   */\n    tag_188:\n        /* \"#utility.yul\":1634:1658   */\n      tag_263\n        /* \"#utility.yul\":1652:1657   */\n      dup2\n        /* \"#utility.yul\":1634:1658   */\n      tag_187\n      jump\t// in\n    tag_263:\n        /* \"#utility.yul\":1627:1632   */\n      dup2\n        /* \"#utility.yul\":1624:1659   */\n      eq\n        /* \"#utility.yul\":1614:1677   */\n      tag_264\n      jumpi\n        /* \"#utility.yul\":1673:1674   */\n      0x00\n        /* \"#utility.yul\":1670:1671   */\n      dup1\n        /* \"#utility.yul\":1663:1675   */\n      revert\n        /* \"#utility.yul\":1614:1677   */\n    tag_264:\n        /* \"#utility.yul\":1561:1683   */\n      pop\n      jump\t// out\n        /* \"#utility.yul\":1689:1828   */\n    tag_189:\n        /* \"#utility.yul\":1735:1740   */\n      0x00\n        /* \"#utility.yul\":1773:1779   */\n      dup2\n        /* \"#utility.yul\":1760:1780   */\n      calldataload\n        /* \"#utility.yul\":1751:1780   */\n      swap1\n      pop\n        /* \"#utility.yul\":1789:1822   */\n      tag_266\n        /* \"#utility.yul\":1816:1821   */\n      dup2\n        /* \"#utility.yul\":1789:1822   */\n      tag_188\n      jump\t// in\n    tag_266:\n        /* \"#utility.yul\":1689:1828   */\n      swap3\n      swap2\n      pop\n      pop\n      jump\t// out\n        /* \"#utility.yul\":1834:1911   */\n    tag_190:\n        /* \"#utility.yul\":1871:1878   */\n      0x00\n        /* \"#utility.yul\":1900:1905   */\n      dup2\n        /* \"#utility.yul\":1889:1905   */\n      swap1\n      pop\n        /* \"#utility.yul\":1834:1911   */\n      swap2\n      swap1\n      pop\n      jump\t// out\n        /* \"#utility.yul\":1917:2039   */\n    tag_191:\n        /* \"#utility.yul\":1990:2014   */\n      tag_269\n        /* \"#utility.yul\":2008:2013   */\n      dup2\n        /* \"#utility.yul\":1990:2014   */\n      tag_190\n      jump\t// in\n    tag_269:\n        /* \"#utility.yul\":1983:1988   */\n      dup2\n        /* \"#utility.yul\":1980:2015   */\n      eq\n        /* \"#utility.yul\":1970:2033   */\n      tag_270\n      jumpi\n        /* \"#utility.yul\":2029:2030   */\n      0x00\n        /* \"#utility.yul\":2026:2027   */\n      dup1\n        /* \"#utility.yul\":2019:2031   */\n      revert\n        /* \"#utility.yul\":1970:2033   */\n    tag_270:\n        /* \"#utility.yul\":1917:2039   */\n      pop\n      jump\t// out\n        /* \"#utility.yul\":2045:2184   */\n    tag_192:\n        /* \"#utility.yul\":2091:2096   */\n      0x00\n        /* \"#utility.yul\":2129:2135   */\n      dup2\n        /* \"#utility.yul\":2116:2136   */\n      calldataload\n        /* \"#utility.yul\":2107:2136   */\n      swap1\n      pop\n        /* \"#utility.yul\":2145:2178   */\n      tag_272\n        /* \"#utility.yul\":2172:2177   */\n      dup2\n        /* \"#utility.yul\":2145:2178   */\n      tag_191\n      jump\t// in\n    tag_272:\n        /* \"#utility.yul\":2045:2184   */\n      swap3\n      swap2\n      pop\n      pop\n      jump\t// out\n        /* \"#utility.yul\":2190:2664   */\n    tag_19:\n        /* \"#utility.yul\":2258:2264   */\n      0x00\n        /* \"#utility.yul\":2266:2272   */\n      dup1\n        /* \"#utility.yul\":2315:2317   */\n      0x40\n        /* \"#utility.yul\":2303:2312   */\n      dup4\n        /* \"#utility.yul\":2294:2301   */\n      dup6\n        /* \"#utility.yul\":2290:2313   */\n      sub\n        /* \"#utility.yul\":2286:2318   */\n      slt\n        /* \"#utility.yul\":2283:2402   */\n      iszero\n      tag_274\n      jumpi\n        /* \"#utility.yul\":2321:2400   */\n      tag_275\n      tag_185\n      jump\t// in\n    tag_275:\n        /* \"#utility.yul\":2283:2402   */\n    tag_274:\n        /* \"#utility.yul\":2441:2442   */\n      0x00\n        /* \"#utility.yul\":2466:2519   */\n      tag_276\n        /* \"#utility.yul\":2511:2518   */\n      dup6\n        /* \"#utility.yul\":2502:2508   */\n      dup3\n        /* \"#utility.yul\":2491:2500   */\n      dup7\n        /* \"#utility.yul\":2487:2509   */\n      add\n        /* \"#utility.yul\":2466:2519   */\n      tag_189\n      jump\t// in\n    tag_276:\n        /* \"#utility.yul\":2456:2519   */\n      swap3\n      pop\n        /* \"#utility.yul\":2412:2529   */\n      pop\n        /* \"#utility.yul\":2568:2570   */\n      0x20\n        /* \"#utility.yul\":2594:2647   */\n      tag_277\n        /* \"#utility.yul\":2639:2646   */\n      dup6\n        /* \"#utility.yul\":2630:2636   */\n      dup3\n        /* \"#utility.yul\":2619:2628   */\n      dup7\n        /* \"#utility.yul\":2615:2637   */\n      add\n        /* \"#utility.yul\":2594:2647   */\n      tag_192\n      jump\t// in\n    tag_277:\n        /* \"#utility.yul\":2584:2647   */\n      swap2\n      pop\n        /* \"#utility.yul\":2539:2657   */\n      pop\n        /* \"#utility.yul\":2190:2664   */\n      swap3\n      pop\n      swap3\n      swap1\n      pop\n      jump\t// out\n        /* \"#utility.yul\":2670:2787   */\n    tag_193:\n        /* \"#utility.yul\":2779:2780   */\n      0x00\n        /* \"#utility.yul\":2776:2777   */\n      dup1\n        /* \"#utility.yul\":2769:2781   */\n      revert\n        /* \"#utility.yul\":2793:2910   */\n    tag_194:\n        /* \"#utility.yul\":2902:2903   */\n      0x00\n        /* \"#utility.yul\":2899:2900   */\n      dup1\n        /* \"#utility.yul\":2892:2904   */\n      revert\n        /* \"#utility.yul\":2916:3033   */\n    tag_195:\n        /* \"#utility.yul\":3025:3026   */\n      0x00\n        /* \"#utility.yul\":3022:3023   */\n      dup1\n        /* \"#utility.yul\":3015:3027   */\n      revert\n        /* \"#utility.yul\":3052:3604   */\n    tag_196:\n        /* \"#utility.yul\":3109:3117   */\n      0x00\n        /* \"#utility.yul\":3119:3125   */\n      dup1\n        /* \"#utility.yul\":3169:3172   */\n      dup4\n        /* \"#utility.yul\":3162:3166   */\n      0x1f\n        /* \"#utility.yul\":3154:3160   */\n      dup5\n        /* \"#utility.yul\":3150:3167   */\n      add\n        /* \"#utility.yul\":3146:3173   */\n      slt\n        /* \"#utility.yul\":3136:3258   */\n      tag_282\n      jumpi\n        /* \"#utility.yul\":3177:3256   */\n      tag_283\n      tag_193\n      jump\t// in\n    tag_283:\n        /* \"#utility.yul\":3136:3258   */\n    tag_282:\n        /* \"#utility.yul\":3290:3296   */\n      dup3\n        /* \"#utility.yul\":3277:3297   */\n      calldataload\n        /* \"#utility.yul\":3267:3297   */\n      swap1\n      pop\n        /* \"#utility.yul\":3320:3338   */\n      0xffffffffffffffff\n        /* \"#utility.yul\":3312:3318   */\n      dup2\n        /* \"#utility.yul\":3309:3339   */\n      gt\n        /* \"#utility.yul\":3306:3423   */\n      iszero\n      tag_284\n      jumpi\n        /* \"#utility.yul\":3342:3421   */\n      tag_285\n      tag_194\n      jump\t// in\n    tag_285:\n        /* \"#utility.yul\":3306:3423   */\n    tag_284:\n        /* \"#utility.yul\":3456:3460   */\n      0x20\n        /* \"#utility.yul\":3448:3454   */\n      dup4\n        /* \"#utility.yul\":3444:3461   */\n      add\n        /* \"#utility.yul\":3432:3461   */\n      swap2\n      pop\n        /* \"#utility.yul\":3510:3513   */\n      dup4\n        /* \"#utility.yul\":3502:3506   */\n      0x01\n        /* \"#utility.yul\":3494:3500   */\n      dup3\n        /* \"#utility.yul\":3490:3507   */\n      mul\n        /* \"#utility.yul\":3480:3488   */\n      dup4\n        /* \"#utility.yul\":3476:3508   */\n      add\n        /* \"#utility.yul\":3473:3514   */\n      gt\n        /* \"#utility.yul\":3470:3598   */\n      iszero\n      tag_286\n      jumpi\n        /* \"#utility.yul\":3517:3596   */\n      tag_287\n      tag_195\n      jump\t// in\n    tag_287:\n        /* \"#utility.yul\":3470:3598   */\n    tag_286:\n        /* \"#utility.yul\":3052:3604   */\n      swap3\n      pop\n      swap3\n      swap1\n      pop\n      jump\t// out\n        /* \"#utility.yul\":3610:4719   */\n    tag_23:\n        /* \"#utility.yul\":3716:3722   */\n      0x00\n        /* \"#utility.yul\":3724:3730   */\n      dup1\n        /* \"#utility.yul\":3732:3738   */\n      0x00\n        /* \"#utility.yul\":3740:3746   */\n      dup1\n        /* \"#utility.yul\":3748:3754   */\n      0x00\n        /* \"#utility.yul\":3756:3762   */\n      dup1\n        /* \"#utility.yul\":3805:3808   */\n      0xa0\n        /* \"#utility.yul\":3793:3802   */\n      dup8\n        /* \"#utility.yul\":3784:3791   */\n      dup10\n        /* \"#utility.yul\":3780:3803   */\n      sub\n        /* \"#utility.yul\":3776:3809   */\n      slt\n        /* \"#utility.yul\":3773:3893   */\n      iszero\n      tag_289\n      jumpi\n        /* \"#utility.yul\":3812:3891   */\n      tag_290\n      tag_185\n      jump\t// in\n    tag_290:\n        /* \"#utility.yul\":3773:3893   */\n    tag_289:\n        /* \"#utility.yul\":3932:3933   */\n      0x00\n        /* \"#utility.yul\":3957:4010   */\n      tag_291\n        /* \"#utility.yul\":4002:4009   */\n      dup10\n        /* \"#utility.yul\":3993:3999   */\n      dup3\n        /* \"#utility.yul\":3982:3991   */\n      dup11\n        /* \"#utility.yul\":3978:4000   */\n      add\n        /* \"#utility.yul\":3957:4010   */\n      tag_189\n      jump\t// in\n    tag_291:\n        /* \"#utility.yul\":3947:4010   */\n      swap7\n      pop\n        /* \"#utility.yul\":3903:4020   */\n      pop\n        /* \"#utility.yul\":4059:4061   */\n      0x20\n        /* \"#utility.yul\":4085:4138   */\n      tag_292\n        /* \"#utility.yul\":4130:4137   */\n      dup10\n        /* \"#utility.yul\":4121:4127   */\n      dup3\n        /* \"#utility.yul\":4110:4119   */\n      dup11\n        /* \"#utility.yul\":4106:4128   */\n      add\n        /* \"#utility.yul\":4085:4138   */\n      tag_192\n      jump\t// in\n    tag_292:\n        /* \"#utility.yul\":4075:4138   */\n      swap6\n      pop\n        /* \"#utility.yul\":4030:4148   */\n      pop\n        /* \"#utility.yul\":4187:4189   */\n      0x40\n        /* \"#utility.yul\":4213:4266   */\n      tag_293\n        /* \"#utility.yul\":4258:4265   */\n      dup10\n        /* \"#utility.yul\":4249:4255   */\n      dup3\n        /* \"#utility.yul\":4238:4247   */\n      dup11\n        /* \"#utility.yul\":4234:4256   */\n      add\n        /* \"#utility.yul\":4213:4266   */\n      tag_192\n      jump\t// in\n    tag_293:\n        /* \"#utility.yul\":4203:4266   */\n      swap5\n      pop\n        /* \"#utility.yul\":4158:4276   */\n      pop\n        /* \"#utility.yul\":4315:4317   */\n      0x60\n        /* \"#utility.yul\":4341:4394   */\n      tag_294\n        /* \"#utility.yul\":4386:4393   */\n      dup10\n        /* \"#utility.yul\":4377:4383   */\n      dup3\n        /* \"#utility.yul\":4366:4375   */\n      dup11\n        /* \"#utility.yul\":4362:4384   */\n      add\n        /* \"#utility.yul\":4341:4394   */\n      tag_189\n      jump\t// in\n    tag_294:\n        /* \"#utility.yul\":4331:4394   */\n      swap4\n      pop\n        /* \"#utility.yul\":4286:4404   */\n      pop\n        /* \"#utility.yul\":4471:4474   */\n      0x80\n        /* \"#utility.yul\":4460:4469   */\n      dup8\n        /* \"#utility.yul\":4456:4475   */\n      add\n        /* \"#utility.yul\":4443:4476   */\n      calldataload\n        /* \"#utility.yul\":4503:4521   */\n      0xffffffffffffffff\n        /* \"#utility.yul\":4495:4501   */\n      dup2\n        /* \"#utility.yul\":4492:4522   */\n      gt\n        /* \"#utility.yul\":4489:4606   */\n      iszero\n      tag_295\n      jumpi\n        /* \"#utility.yul\":4525:4604   */\n      tag_296\n      tag_186\n      jump\t// in\n    tag_296:\n        /* \"#utility.yul\":4489:4606   */\n    tag_295:\n        /* \"#utility.yul\":4638:4702   */\n      tag_297\n        /* \"#utility.yul\":4694:4701   */\n      dup10\n        /* \"#utility.yul\":4685:4691   */\n      dup3\n        /* \"#utility.yul\":4674:4683   */\n      dup11\n        /* \"#utility.yul\":4670:4692   */\n      add\n        /* \"#utility.yul\":4638:4702   */\n      tag_196\n      jump\t// in\n    tag_297:\n        /* \"#utility.yul\":4620:4702   */\n      swap3\n      pop\n      swap3\n      pop\n        /* \"#utility.yul\":4414:4712   */\n      pop\n        /* \"#utility.yul\":3610:4719   */\n      swap3\n      swap6\n      pop\n      swap3\n      swap6\n      pop\n      swap3\n      swap6\n      jump\t// out\n        /* \"#utility.yul\":4725:4815   */\n    tag_197:\n        /* \"#utility.yul\":4759:4766   */\n      0x00\n        /* \"#utility.yul\":4802:4807   */\n      dup2\n        /* \"#utility.yul\":4795:4808   */\n      iszero\n        /* \"#utility.yul\":4788:4809   */\n      iszero\n        /* \"#utility.yul\":4777:4809   */\n      swap1\n      pop\n        /* \"#utility.yul\":4725:4815   */\n      swap2\n      swap1\n      pop\n      jump\t// out\n        /* \"#utility.yul\":4821:4930   */\n    tag_198:\n        /* \"#utility.yul\":4902:4923   */\n      tag_300\n        /* \"#utility.yul\":4917:4922   */\n      dup2\n        /* \"#utility.yul\":4902:4923   */\n      tag_197\n      jump\t// in\n    tag_300:\n        /* \"#utility.yul\":4897:4900   */\n      dup3\n        /* \"#utility.yul\":4890:4924   */\n      mstore\n        /* \"#utility.yul\":4821:4930   */\n      pop\n      pop\n      jump\t// out\n        /* \"#utility.yul\":4936:5146   */\n    tag_26:\n        /* \"#utility.yul\":5023:5027   */\n      0x00\n        /* \"#utility.yul\":5061:5063   */\n      0x20\n        /* \"#utility.yul\":5050:5059   */\n      dup3\n        /* \"#utility.yul\":5046:5064   */\n      add\n        /* \"#utility.yul\":5038:5064   */\n      swap1\n      pop\n        /* \"#utility.yul\":5074:5139   */\n      tag_302\n        /* \"#utility.yul\":5136:5137   */\n      0x00\n        /* \"#utility.yul\":5125:5134   */\n      dup4\n        /* \"#utility.yul\":5121:5138   */\n      add\n        /* \"#utility.yul\":5112:5118   */\n      dup5\n        /* \"#utility.yul\":5074:5139   */\n      tag_198\n      jump\t// in\n    tag_302:\n        /* \"#utility.yul\":4936:5146   */\n      swap3\n      swap2\n      pop\n      pop\n      jump\t// out\n        /* \"#utility.yul\":5169:5737   */\n    tag_199:\n        /* \"#utility.yul\":5242:5250   */\n      0x00\n        /* \"#utility.yul\":5252:5258   */\n      dup1\n        /* \"#utility.yul\":5302:5305   */\n      dup4\n        /* \"#utility.yul\":5295:5299   */\n      0x1f\n        /* \"#utility.yul\":5287:5293   */\n      dup5\n        /* \"#utility.yul\":5283:5300   */\n      add\n        /* \"#utility.yul\":5279:5306   */\n      slt\n        /* \"#utility.yul\":5269:5391   */\n      tag_304\n      jumpi\n        /* \"#utility.yul\":5310:5389   */\n      tag_305\n      tag_193\n      jump\t// in\n    tag_305:\n        /* \"#utility.yul\":5269:5391   */\n    tag_304:\n        /* \"#utility.yul\":5423:5429   */\n      dup3\n        /* \"#utility.yul\":5410:5430   */\n      calldataload\n        /* \"#utility.yul\":5400:5430   */\n      swap1\n      pop\n        /* \"#utility.yul\":5453:5471   */\n      0xffffffffffffffff\n        /* \"#utility.yul\":5445:5451   */\n      dup2\n        /* \"#utility.yul\":5442:5472   */\n      gt\n        /* \"#utility.yul\":5439:5556   */\n      iszero\n      tag_306\n      jumpi\n        /* \"#utility.yul\":5475:5554   */\n      tag_307\n      tag_194\n      jump\t// in\n    tag_307:\n        /* \"#utility.yul\":5439:5556   */\n    tag_306:\n        /* \"#utility.yul\":5589:5593   */\n      0x20\n        /* \"#utility.yul\":5581:5587   */\n      dup4\n        /* \"#utility.yul\":5577:5594   */\n      add\n        /* \"#utility.yul\":5565:5594   */\n      swap2\n      pop\n        /* \"#utility.yul\":5643:5646   */\n      dup4\n        /* \"#utility.yul\":5635:5639   */\n      0x20\n        /* \"#utility.yul\":5627:5633   */\n      dup3\n        /* \"#utility.yul\":5623:5640   */\n      mul\n        /* \"#utility.yul\":5613:5621   */\n      dup4\n        /* \"#utility.yul\":5609:5641   */\n      add\n        /* \"#utility.yul\":5606:5647   */\n      gt\n        /* \"#utility.yul\":5603:5731   */\n      iszero\n      tag_308\n      jumpi\n        /* \"#utility.yul\":5650:5729   */\n      tag_309\n      tag_195\n      jump\t// in\n    tag_309:\n        /* \"#utility.yul\":5603:5731   */\n    tag_308:\n        /* \"#utility.yul\":5169:5737   */\n      swap3\n      pop\n      swap3\n      swap1\n      pop\n      jump\t// out\n        /* \"#utility.yul\":5743:6592   */\n    tag_29:\n        /* \"#utility.yul\":5847:5853   */\n      0x00\n        /* \"#utility.yul\":5855:5861   */\n      dup1\n        /* \"#utility.yul\":5863:5869   */\n      0x00\n        /* \"#utility.yul\":5871:5877   */\n      dup1\n        /* \"#utility.yul\":5920:5922   */\n      0x60\n        /* \"#utility.yul\":5908:5917   */\n      dup6\n        /* \"#utility.yul\":5899:5906   */\n      dup8\n        /* \"#utility.yul\":5895:5918   */\n      sub\n        /* \"#utility.yul\":5891:5923   */\n      slt\n        /* \"#utility.yul\":5888:6007   */\n      iszero\n      tag_311\n      jumpi\n        /* \"#utility.yul\":5926:6005   */\n      tag_312\n      tag_185\n      jump\t// in\n    tag_312:\n        /* \"#utility.yul\":5888:6007   */\n    tag_311:\n        /* \"#utility.yul\":6046:6047   */\n      0x00\n        /* \"#utility.yul\":6071:6124   */\n      tag_313\n        /* \"#utility.yul\":6116:6123   */\n      dup8\n        /* \"#utility.yul\":6107:6113   */\n      dup3\n        /* \"#utility.yul\":6096:6105   */\n      dup9\n        /* \"#utility.yul\":6092:6114   */\n      add\n        /* \"#utility.yul\":6071:6124   */\n      tag_189\n      jump\t// in\n    tag_313:\n        /* \"#utility.yul\":6061:6124   */\n      swap5\n      pop\n        /* \"#utility.yul\":6017:6134   */\n      pop\n        /* \"#utility.yul\":6173:6175   */\n      0x20\n        /* \"#utility.yul\":6199:6252   */\n      tag_314\n        /* \"#utility.yul\":6244:6251   */\n      dup8\n        /* \"#utility.yul\":6235:6241   */\n      dup3\n        /* \"#utility.yul\":6224:6233   */\n      dup9\n        /* \"#utility.yul\":6220:6242   */\n      add\n        /* \"#utility.yul\":6199:6252   */\n      tag_192\n      jump\t// in\n    tag_314:\n        /* \"#utility.yul\":6189:6252   */\n      swap4\n      pop\n        /* \"#utility.yul\":6144:6262   */\n      pop\n        /* \"#utility.yul\":6329:6331   */\n      0x40\n        /* \"#utility.yul\":6318:6327   */\n      dup6\n        /* \"#utility.yul\":6314:6332   */\n      add\n        /* \"#utility.yul\":6301:6333   */\n      calldataload\n        /* \"#utility.yul\":6360:6378   */\n      0xffffffffffffffff\n        /* \"#utility.yul\":6352:6358   */\n      dup2\n        /* \"#utility.yul\":6349:6379   */\n      gt\n        /* \"#utility.yul\":6346:6463   */\n      iszero\n      tag_315\n      jumpi\n        /* \"#utility.yul\":6382:6461   */\n      tag_316\n      tag_186\n      jump\t// in\n    tag_316:\n        /* \"#utility.yul\":6346:6463   */\n    tag_315:\n        /* \"#utility.yul\":6495:6575   */\n      tag_317\n        /* \"#utility.yul\":6567:6574   */\n      dup8\n        /* \"#utility.yul\":6558:6564   */\n      dup3\n        /* \"#utility.yul\":6547:6556   */\n      dup9\n        /* \"#utility.yul\":6543:6565   */\n      add\n        /* \"#utility.yul\":6495:6575   */\n      tag_199\n      jump\t// in\n    tag_317:\n        /* \"#utility.yul\":6477:6575   */\n      swap3\n      pop\n      swap3\n      pop\n        /* \"#utility.yul\":6272:6585   */\n      pop\n        /* \"#utility.yul\":5743:6592   */\n      swap3\n      swap6\n      swap2\n      swap5\n      pop\n      swap3\n      pop\n      jump\t// out\n        /* \"#utility.yul\":6598:6716   */\n    tag_200:\n        /* \"#utility.yul\":6685:6709   */\n      tag_319\n        /* \"#utility.yul\":6703:6708   */\n      dup2\n        /* \"#utility.yul\":6685:6709   */\n      tag_190\n      jump\t// in\n    tag_319:\n        /* \"#utility.yul\":6680:6683   */\n      dup3\n        /* \"#utility.yul\":6673:6710   */\n      mstore\n        /* \"#utility.yul\":6598:6716   */\n      pop\n      pop\n      jump\t// out\n        /* \"#utility.yul\":6722:7042   */\n    tag_32:\n        /* \"#utility.yul\":6837:6841   */\n      0x00\n        /* \"#utility.yul\":6875:6877   */\n      0x40\n        /* \"#utility.yul\":6864:6873   */\n      dup3\n        /* \"#utility.yul\":6860:6878   */\n      add\n        /* \"#utility.yul\":6852:6878   */\n      swap1\n      pop\n        /* \"#utility.yul\":6888:6953   */\n      tag_321\n        /* \"#utility.yul\":6950:6951   */\n      0x00\n        /* \"#utility.yul\":6939:6948   */\n      dup4\n        /* \"#utility.yul\":6935:6952   */\n      add\n        /* \"#utility.yul\":6926:6932   */\n      dup6\n        /* \"#utility.yul\":6888:6953   */\n      tag_198\n      jump\t// in\n    tag_321:\n        /* \"#utility.yul\":6963:7035   */\n      tag_322\n        /* \"#utility.yul\":7031:7033   */\n      0x20\n        /* \"#utility.yul\":7020:7029   */\n      dup4\n        /* \"#utility.yul\":7016:7034   */\n      add\n        /* \"#utility.yul\":7007:7013   */\n      dup5\n        /* \"#utility.yul\":6963:7035   */\n      tag_200\n      jump\t// in\n    tag_322:\n        /* \"#utility.yul\":6722:7042   */\n      swap4\n      swap3\n      pop\n      pop\n      pop\n      jump\t// out\n        /* \"#utility.yul\":7048:7187   */\n    tag_201:\n        /* \"#utility.yul\":7111:7120   */\n      0x00\n        /* \"#utility.yul\":7144:7181   */\n      tag_324\n        /* \"#utility.yul\":7175:7180   */\n      dup3\n        /* \"#utility.yul\":7144:7181   */\n      tag_181\n      jump\t// in\n    tag_324:\n        /* \"#utility.yul\":7131:7181   */\n      swap1\n      pop\n        /* \"#utility.yul\":7048:7187   */\n      swap2\n      swap1\n      pop\n      jump\t// out\n        /* \"#utility.yul\":7193:7350   */\n    tag_202:\n        /* \"#utility.yul\":7293:7343   */\n      tag_326\n        /* \"#utility.yul\":7337:7342   */\n      dup2\n        /* \"#utility.yul\":7293:7343   */\n      tag_201\n      jump\t// in\n    tag_326:\n        /* \"#utility.yul\":7288:7291   */\n      dup3\n        /* \"#utility.yul\":7281:7344   */\n      mstore\n        /* \"#utility.yul\":7193:7350   */\n      pop\n      pop\n      jump\t// out\n        /* \"#utility.yul\":7356:7604   */\n    tag_38:\n        /* \"#utility.yul\":7462:7466   */\n      0x00\n        /* \"#utility.yul\":7500:7502   */\n      0x20\n        /* \"#utility.yul\":7489:7498   */\n      dup3\n        /* \"#utility.yul\":7485:7503   */\n      add\n        /* \"#utility.yul\":7477:7503   */\n      swap1\n      pop\n        /* \"#utility.yul\":7513:7597   */\n      tag_328\n        /* \"#utility.yul\":7594:7595   */\n      0x00\n        /* \"#utility.yul\":7583:7592   */\n      dup4\n        /* \"#utility.yul\":7579:7596   */\n      add\n        /* \"#utility.yul\":7570:7576   */\n      dup5\n        /* \"#utility.yul\":7513:7597   */\n      tag_202\n      jump\t// in\n    tag_328:\n        /* \"#utility.yul\":7356:7604   */\n      swap3\n      swap2\n      pop\n      pop\n      jump\t// out\n        /* \"#utility.yul\":7610:7728   */\n    tag_203:\n        /* \"#utility.yul\":7697:7721   */\n      tag_330\n        /* \"#utility.yul\":7715:7720   */\n      dup2\n        /* \"#utility.yul\":7697:7721   */\n      tag_187\n      jump\t// in\n    tag_330:\n        /* \"#utility.yul\":7692:7695   */\n      dup3\n        /* \"#utility.yul\":7685:7722   */\n      mstore\n        /* \"#utility.yul\":7610:7728   */\n      pop\n      pop\n      jump\t// out\n        /* \"#utility.yul\":7734:7956   */\n    tag_42:\n        /* \"#utility.yul\":7827:7831   */\n      0x00\n        /* \"#utility.yul\":7865:7867   */\n      0x20\n        /* \"#utility.yul\":7854:7863   */\n      dup3\n        /* \"#utility.yul\":7850:7868   */\n      add\n        /* \"#utility.yul\":7842:7868   */\n      swap1\n      pop\n        /* \"#utility.yul\":7878:7949   */\n      tag_332\n        /* \"#utility.yul\":7946:7947   */\n      0x00\n        /* \"#utility.yul\":7935:7944   */\n      dup4\n        /* \"#utility.yul\":7931:7948   */\n      add\n        /* \"#utility.yul\":7922:7928   */\n      dup5\n        /* \"#utility.yul\":7878:7949   */\n      tag_203\n      jump\t// in\n    tag_332:\n        /* \"#utility.yul\":7734:7956   */\n      swap3\n      swap2\n      pop\n      pop\n      jump\t// out\n        /* \"#utility.yul\":7962:8291   */\n    tag_48:\n        /* \"#utility.yul\":8021:8027   */\n      0x00\n        /* \"#utility.yul\":8070:8072   */\n      0x20\n        /* \"#utility.yul\":8058:8067   */\n      dup3\n        /* \"#utility.yul\":8049:8056   */\n      dup5\n        /* \"#utility.yul\":8045:8068   */\n      sub\n        /* \"#utility.yul\":8041:8073   */\n      slt\n        /* \"#utility.yul\":8038:8157   */\n      iszero\n      tag_334\n      jumpi\n        /* \"#utility.yul\":8076:8155   */\n      tag_335\n      tag_185\n      jump\t// in\n    tag_335:\n        /* \"#utility.yul\":8038:8157   */\n    tag_334:\n        /* \"#utility.yul\":8196:8197   */\n      0x00\n        /* \"#utility.yul\":8221:8274   */\n      tag_336\n        /* \"#utility.yul\":8266:8273   */\n      dup5\n        /* \"#utility.yul\":8257:8263   */\n      dup3\n        /* \"#utility.yul\":8246:8255   */\n      dup6\n        /* \"#utility.yul\":8242:8264   */\n      add\n        /* \"#utility.yul\":8221:8274   */\n      tag_189\n      jump\t// in\n    tag_336:\n        /* \"#utility.yul\":8211:8274   */\n      swap2\n      pop\n        /* \"#utility.yul\":8167:8284   */\n      pop\n        /* \"#utility.yul\":7962:8291   */\n      swap3\n      swap2\n      pop\n      pop\n      jump\t// out\n        /* \"#utility.yul\":8297:8629   */\n    tag_56:\n        /* \"#utility.yul\":8418:8422   */\n      0x00\n        /* \"#utility.yul\":8456:8458   */\n      0x40\n        /* \"#utility.yul\":8445:8454   */\n      dup3\n        /* \"#utility.yul\":8441:8459   */\n      add\n        /* \"#utility.yul\":8433:8459   */\n      swap1\n      pop\n        /* \"#utility.yul\":8469:8540   */\n      tag_338\n        /* \"#utility.yul\":8537:8538   */\n      0x00\n        /* \"#utility.yul\":8526:8535   */\n      dup4\n        /* \"#utility.yul\":8522:8539   */\n      add\n        /* \"#utility.yul\":8513:8519   */\n      dup6\n        /* \"#utility.yul\":8469:8540   */\n      tag_203\n      jump\t// in\n    tag_338:\n        /* \"#utility.yul\":8550:8622   */\n      tag_339\n        /* \"#utility.yul\":8618:8620   */\n      0x20\n        /* \"#utility.yul\":8607:8616   */\n      dup4\n        /* \"#utility.yul\":8603:8621   */\n      add\n        /* \"#utility.yul\":8594:8600   */\n      dup5\n        /* \"#utility.yul\":8550:8622   */\n      tag_200\n      jump\t// in\n    tag_339:\n        /* \"#utility.yul\":8297:8629   */\n      swap4\n      swap3\n      pop\n      pop\n      pop\n      jump\t// out\n        /* \"#utility.yul\":8635:8751   */\n    tag_204:\n        /* \"#utility.yul\":8705:8726   */\n      tag_341\n        /* \"#utility.yul\":8720:8725   */\n      dup2\n        /* \"#utility.yul\":8705:8726   */\n      tag_197\n      jump\t// in\n    tag_341:\n        /* \"#utility.yul\":8698:8703   */\n      dup2\n        /* \"#utility.yul\":8695:8727   */\n      eq\n        /* \"#utility.yul\":8685:8745   */\n      tag_342\n      jumpi\n        /* \"#utility.yul\":8741:8742   */\n      0x00\n        /* \"#utility.yul\":8738:8739   */\n      dup1\n        /* \"#utility.yul\":8731:8743   */\n      revert\n        /* \"#utility.yul\":8685:8745   */\n    tag_342:\n        /* \"#utility.yul\":8635:8751   */\n      pop\n      jump\t// out\n        /* \"#utility.yul\":8757:8894   */\n    tag_205:\n        /* \"#utility.yul\":8811:8816   */\n      0x00\n        /* \"#utility.yul\":8842:8848   */\n      dup2\n        /* \"#utility.yul\":8836:8849   */\n      mload\n        /* \"#utility.yul\":8827:8849   */\n      swap1\n      pop\n        /* \"#utility.yul\":8858:8888   */\n      tag_344\n        /* \"#utility.yul\":8882:8887   */\n      dup2\n        /* \"#utility.yul\":8858:8888   */\n      tag_204\n      jump\t// in\n    tag_344:\n        /* \"#utility.yul\":8757:8894   */\n      swap3\n      swap2\n      pop\n      pop\n      jump\t// out\n        /* \"#utility.yul\":8900:9245   */\n    tag_60:\n        /* \"#utility.yul\":8967:8973   */\n      0x00\n        /* \"#utility.yul\":9016:9018   */\n      0x20\n        /* \"#utility.yul\":9004:9013   */\n      dup3\n        /* \"#utility.yul\":8995:9002   */\n      dup5\n        /* \"#utility.yul\":8991:9014   */\n      sub\n        /* \"#utility.yul\":8987:9019   */\n      slt\n        /* \"#utility.yul\":8984:9103   */\n      iszero\n      tag_346\n      jumpi\n        /* \"#utility.yul\":9022:9101   */\n      tag_347\n      tag_185\n      jump\t// in\n    tag_347:\n        /* \"#utility.yul\":8984:9103   */\n    tag_346:\n        /* \"#utility.yul\":9142:9143   */\n      0x00\n        /* \"#utility.yul\":9167:9228   */\n      tag_348\n        /* \"#utility.yul\":9220:9227   */\n      dup5\n        /* \"#utility.yul\":9211:9217   */\n      dup3\n        /* \"#utility.yul\":9200:9209   */\n      dup6\n        /* \"#utility.yul\":9196:9218   */\n      add\n        /* \"#utility.yul\":9167:9228   */\n      tag_205\n      jump\t// in\n    tag_348:\n        /* \"#utility.yul\":9157:9228   */\n      swap2\n      pop\n        /* \"#utility.yul\":9113:9238   */\n      pop\n        /* \"#utility.yul\":8900:9245   */\n      swap3\n      swap2\n      pop\n      pop\n      jump\t// out\n        /* \"#utility.yul\":9251:9353   */\n    tag_206:\n        /* \"#utility.yul\":9292:9298   */\n      0x00\n        /* \"#utility.yul\":9343:9345   */\n      0x1f\n        /* \"#utility.yul\":9339:9346   */\n      not\n        /* \"#utility.yul\":9334:9336   */\n      0x1f\n        /* \"#utility.yul\":9327:9332   */\n      dup4\n        /* \"#utility.yul\":9323:9337   */\n      add\n        /* \"#utility.yul\":9319:9347   */\n      and\n        /* \"#utility.yul\":9309:9347   */\n      swap1\n      pop\n        /* \"#utility.yul\":9251:9353   */\n      swap2\n      swap1\n      pop\n      jump\t// out\n        /* \"#utility.yul\":9359:9539   */\n    tag_137:\n        /* \"#utility.yul\":9407:9484   */\n      0x4e487b7100000000000000000000000000000000000000000000000000000000\n        /* \"#utility.yul\":9404:9405   */\n      0x00\n        /* \"#utility.yul\":9397:9485   */\n      mstore\n        /* \"#utility.yul\":9504:9508   */\n      0x41\n        /* \"#utility.yul\":9501:9502   */\n      0x04\n        /* \"#utility.yul\":9494:9509   */\n      mstore\n        /* \"#utility.yul\":9528:9532   */\n      0x24\n        /* \"#utility.yul\":9525:9526   */\n      0x00\n        /* \"#utility.yul\":9518:9533   */\n      revert\n        /* \"#utility.yul\":9545:9826   */\n    tag_207:\n        /* \"#utility.yul\":9628:9655   */\n      tag_352\n        /* \"#utility.yul\":9650:9654   */\n      dup3\n        /* \"#utility.yul\":9628:9655   */\n      tag_206\n      jump\t// in\n    tag_352:\n        /* \"#utility.yul\":9620:9626   */\n      dup2\n        /* \"#utility.yul\":9616:9656   */\n      add\n        /* \"#utility.yul\":9758:9764   */\n      dup2\n        /* \"#utility.yul\":9746:9756   */\n      dup2\n        /* \"#utility.yul\":9743:9765   */\n      lt\n        /* \"#utility.yul\":9722:9740   */\n      0xffffffffffffffff\n        /* \"#utility.yul\":9710:9720   */\n      dup3\n        /* \"#utility.yul\":9707:9741   */\n      gt\n        /* \"#utility.yul\":9704:9766   */\n      or\n        /* \"#utility.yul\":9701:9789   */\n      iszero\n      tag_353\n      jumpi\n        /* \"#utility.yul\":9769:9787   */\n      tag_354\n      tag_137\n      jump\t// in\n    tag_354:\n        /* \"#utility.yul\":9701:9789   */\n    tag_353:\n        /* \"#utility.yul\":9809:9819   */\n      dup1\n        /* \"#utility.yul\":9805:9807   */\n      0x40\n        /* \"#utility.yul\":9798:9820   */\n      mstore\n        /* \"#utility.yul\":9588:9826   */\n      pop\n        /* \"#utility.yul\":9545:9826   */\n      pop\n      pop\n      jump\t// out\n        /* \"#utility.yul\":9832:9961   */\n    tag_208:\n        /* \"#utility.yul\":9866:9872   */\n      0x00\n        /* \"#utility.yul\":9893:9913   */\n      tag_356\n      tag_184\n      jump\t// in\n    tag_356:\n        /* \"#utility.yul\":9883:9913   */\n      swap1\n      pop\n        /* \"#utility.yul\":9922:9955   */\n      tag_357\n        /* \"#utility.yul\":9950:9954   */\n      dup3\n        /* \"#utility.yul\":9942:9948   */\n      dup3\n        /* \"#utility.yul\":9922:9955   */\n      tag_207\n      jump\t// in\n    tag_357:\n        /* \"#utility.yul\":9832:9961   */\n      swap2\n      swap1\n      pop\n      jump\t// out\n        /* \"#utility.yul\":9967:10278   */\n    tag_209:\n        /* \"#utility.yul\":10044:10048   */\n      0x00\n        /* \"#utility.yul\":10134:10152   */\n      0xffffffffffffffff\n        /* \"#utility.yul\":10126:10132   */\n      dup3\n        /* \"#utility.yul\":10123:10153   */\n      gt\n        /* \"#utility.yul\":10120:10176   */\n      iszero\n      tag_359\n      jumpi\n        /* \"#utility.yul\":10156:10174   */\n      tag_360\n      tag_137\n      jump\t// in\n    tag_360:\n        /* \"#utility.yul\":10120:10176   */\n    tag_359:\n        /* \"#utility.yul\":10206:10210   */\n      0x20\n        /* \"#utility.yul\":10198:10204   */\n      dup3\n        /* \"#utility.yul\":10194:10211   */\n      mul\n        /* \"#utility.yul\":10186:10211   */\n      swap1\n      pop\n        /* \"#utility.yul\":10266:10270   */\n      0x20\n        /* \"#utility.yul\":10260:10264   */\n      dup2\n        /* \"#utility.yul\":10256:10271   */\n      add\n        /* \"#utility.yul\":10248:10271   */\n      swap1\n      pop\n        /* \"#utility.yul\":9967:10278   */\n      swap2\n      swap1\n      pop\n      jump\t// out\n        /* \"#utility.yul\":10301:11011   */\n    tag_210:\n        /* \"#utility.yul\":10397:10402   */\n      0x00\n        /* \"#utility.yul\":10422:10503   */\n      tag_362\n        /* \"#utility.yul\":10438:10502   */\n      tag_363\n        /* \"#utility.yul\":10495:10501   */\n      dup5\n        /* \"#utility.yul\":10438:10502   */\n      tag_209\n      jump\t// in\n    tag_363:\n        /* \"#utility.yul\":10422:10503   */\n      tag_208\n      jump\t// in\n    tag_362:\n        /* \"#utility.yul\":10413:10503   */\n      swap1\n      pop\n        /* \"#utility.yul\":10523:10528   */\n      dup1\n        /* \"#utility.yul\":10552:10558   */\n      dup4\n        /* \"#utility.yul\":10545:10550   */\n      dup3\n        /* \"#utility.yul\":10538:10559   */\n      mstore\n        /* \"#utility.yul\":10586:10590   */\n      0x20\n        /* \"#utility.yul\":10579:10584   */\n      dup3\n        /* \"#utility.yul\":10575:10591   */\n      add\n        /* \"#utility.yul\":10568:10591   */\n      swap1\n      pop\n        /* \"#utility.yul\":10639:10643   */\n      0x20\n        /* \"#utility.yul\":10631:10637   */\n      dup5\n        /* \"#utility.yul\":10627:10644   */\n      mul\n        /* \"#utility.yul\":10619:10625   */\n      dup4\n        /* \"#utility.yul\":10615:10645   */\n      add\n        /* \"#utility.yul\":10668:10671   */\n      dup6\n        /* \"#utility.yul\":10660:10666   */\n      dup2\n        /* \"#utility.yul\":10657:10672   */\n      gt\n        /* \"#utility.yul\":10654:10776   */\n      iszero\n      tag_364\n      jumpi\n        /* \"#utility.yul\":10687:10766   */\n      tag_365\n      tag_195\n      jump\t// in\n    tag_365:\n        /* \"#utility.yul\":10654:10776   */\n    tag_364:\n        /* \"#utility.yul\":10802:10808   */\n      dup4\n        /* \"#utility.yul\":10785:11005   */\n    tag_366:\n        /* \"#utility.yul\":10819:10825   */\n      dup2\n        /* \"#utility.yul\":10814:10817   */\n      dup2\n        /* \"#utility.yul\":10811:10826   */\n      lt\n        /* \"#utility.yul\":10785:11005   */\n      iszero\n      tag_368\n      jumpi\n        /* \"#utility.yul\":10894:10897   */\n      dup1\n        /* \"#utility.yul\":10923:10960   */\n      tag_369\n        /* \"#utility.yul\":10956:10959   */\n      dup9\n        /* \"#utility.yul\":10944:10954   */\n      dup3\n        /* \"#utility.yul\":10923:10960   */\n      tag_189\n      jump\t// in\n    tag_369:\n        /* \"#utility.yul\":10918:10921   */\n      dup5\n        /* \"#utility.yul\":10911:10961   */\n      mstore\n        /* \"#utility.yul\":10990:10994   */\n      0x20\n        /* \"#utility.yul\":10985:10988   */\n      dup5\n        /* \"#utility.yul\":10981:10995   */\n      add\n        /* \"#utility.yul\":10974:10995   */\n      swap4\n      pop\n        /* \"#utility.yul\":10861:11005   */\n      pop\n        /* \"#utility.yul\":10845:10849   */\n      0x20\n        /* \"#utility.yul\":10840:10843   */\n      dup2\n        /* \"#utility.yul\":10836:10850   */\n      add\n        /* \"#utility.yul\":10829:10850   */\n      swap1\n      pop\n        /* \"#utility.yul\":10785:11005   */\n      jump(tag_366)\n    tag_368:\n        /* \"#utility.yul\":10789:10810   */\n      pop\n        /* \"#utility.yul\":10403:11011   */\n      pop\n      pop\n        /* \"#utility.yul\":10301:11011   */\n      swap4\n      swap3\n      pop\n      pop\n      pop\n      jump\t// out\n        /* \"#utility.yul\":11034:11404   */\n    tag_211:\n        /* \"#utility.yul\":11105:11110   */\n      0x00\n        /* \"#utility.yul\":11154:11157   */\n      dup3\n        /* \"#utility.yul\":11147:11151   */\n      0x1f\n        /* \"#utility.yul\":11139:11145   */\n      dup4\n        /* \"#utility.yul\":11135:11152   */\n      add\n        /* \"#utility.yul\":11131:11158   */\n      slt\n        /* \"#utility.yul\":11121:11243   */\n      tag_371\n      jumpi\n        /* \"#utility.yul\":11162:11241   */\n      tag_372\n      tag_193\n      jump\t// in\n    tag_372:\n        /* \"#utility.yul\":11121:11243   */\n    tag_371:\n        /* \"#utility.yul\":11279:11285   */\n      dup2\n        /* \"#utility.yul\":11266:11286   */\n      calldataload\n        /* \"#utility.yul\":11304:11398   */\n      tag_373\n        /* \"#utility.yul\":11394:11397   */\n      dup5\n        /* \"#utility.yul\":11386:11392   */\n      dup3\n        /* \"#utility.yul\":11379:11383   */\n      0x20\n        /* \"#utility.yul\":11371:11377   */\n      dup7\n        /* \"#utility.yul\":11367:11384   */\n      add\n        /* \"#utility.yul\":11304:11398   */\n      tag_210\n      jump\t// in\n    tag_373:\n        /* \"#utility.yul\":11295:11398   */\n      swap2\n      pop\n        /* \"#utility.yul\":11111:11404   */\n      pop\n        /* \"#utility.yul\":11034:11404   */\n      swap3\n      swap2\n      pop\n      pop\n      jump\t// out\n        /* \"#utility.yul\":11410:11949   */\n    tag_63:\n        /* \"#utility.yul\":11494:11500   */\n      0x00\n        /* \"#utility.yul\":11543:11545   */\n      0x20\n        /* \"#utility.yul\":11531:11540   */\n      dup3\n        /* \"#utility.yul\":11522:11529   */\n      dup5\n        /* \"#utility.yul\":11518:11541   */\n      sub\n        /* \"#utility.yul\":11514:11546   */\n      slt\n        /* \"#utility.yul\":11511:11630   */\n      iszero\n      tag_375\n      jumpi\n        /* \"#utility.yul\":11549:11628   */\n      tag_376\n      tag_185\n      jump\t// in\n    tag_376:\n        /* \"#utility.yul\":11511:11630   */\n    tag_375:\n        /* \"#utility.yul\":11697:11698   */\n      0x00\n        /* \"#utility.yul\":11686:11695   */\n      dup3\n        /* \"#utility.yul\":11682:11699   */\n      add\n        /* \"#utility.yul\":11669:11700   */\n      calldataload\n        /* \"#utility.yul\":11727:11745   */\n      0xffffffffffffffff\n        /* \"#utility.yul\":11719:11725   */\n      dup2\n        /* \"#utility.yul\":11716:11746   */\n      gt\n        /* \"#utility.yul\":11713:11830   */\n      iszero\n      tag_377\n      jumpi\n        /* \"#utility.yul\":11749:11828   */\n      tag_378\n      tag_186\n      jump\t// in\n    tag_378:\n        /* \"#utility.yul\":11713:11830   */\n    tag_377:\n        /* \"#utility.yul\":11854:11932   */\n      tag_379\n        /* \"#utility.yul\":11924:11931   */\n      dup5\n        /* \"#utility.yul\":11915:11921   */\n      dup3\n        /* \"#utility.yul\":11904:11913   */\n      dup6\n        /* \"#utility.yul\":11900:11922   */\n      add\n        /* \"#utility.yul\":11854:11932   */\n      tag_211\n      jump\t// in\n    tag_379:\n        /* \"#utility.yul\":11844:11932   */\n      swap2\n      pop\n        /* \"#utility.yul\":11640:11942   */\n      pop\n        /* \"#utility.yul\":11410:11949   */\n      swap3\n      swap2\n      pop\n      pop\n      jump\t// out\n        /* \"#utility.yul\":11955:12135   */\n    tag_212:\n        /* \"#utility.yul\":12003:12080   */\n      0x4e487b7100000000000000000000000000000000000000000000000000000000\n        /* \"#utility.yul\":12000:12001   */\n      0x00\n        /* \"#utility.yul\":11993:12081   */\n      mstore\n        /* \"#utility.yul\":12100:12104   */\n      0x11\n        /* \"#utility.yul\":12097:12098   */\n      0x04\n        /* \"#utility.yul\":12090:12105   */\n      mstore\n        /* \"#utility.yul\":12124:12128   */\n      0x24\n        /* \"#utility.yul\":12121:12122   */\n      0x00\n        /* \"#utility.yul\":12114:12129   */\n      revert\n        /* \"#utility.yul\":12141:12332   */\n    tag_65:\n        /* \"#utility.yul\":12181:12184   */\n      0x00\n        /* \"#utility.yul\":12200:12220   */\n      tag_382\n        /* \"#utility.yul\":12218:12219   */\n      dup3\n        /* \"#utility.yul\":12200:12220   */\n      tag_190\n      jump\t// in\n    tag_382:\n        /* \"#utility.yul\":12195:12220   */\n      swap2\n      pop\n        /* \"#utility.yul\":12234:12254   */\n      tag_383\n        /* \"#utility.yul\":12252:12253   */\n      dup4\n        /* \"#utility.yul\":12234:12254   */\n      tag_190\n      jump\t// in\n    tag_383:\n        /* \"#utility.yul\":12229:12254   */\n      swap3\n      pop\n        /* \"#utility.yul\":12277:12278   */\n      dup3\n        /* \"#utility.yul\":12274:12275   */\n      dup3\n        /* \"#utility.yul\":12270:12279   */\n      add\n        /* \"#utility.yul\":12263:12279   */\n      swap1\n      pop\n        /* \"#utility.yul\":12298:12301   */\n      dup1\n        /* \"#utility.yul\":12295:12296   */\n      dup3\n        /* \"#utility.yul\":12292:12302   */\n      gt\n        /* \"#utility.yul\":12289:12325   */\n      iszero\n      tag_384\n      jumpi\n        /* \"#utility.yul\":12305:12323   */\n      tag_385\n      tag_212\n      jump\t// in\n    tag_385:\n        /* \"#utility.yul\":12289:12325   */\n    tag_384:\n        /* \"#utility.yul\":12141:12332   */\n      swap3\n      swap2\n      pop\n      pop\n      jump\t// out\n        /* \"#utility.yul\":12338:12507   */\n    tag_213:\n        /* \"#utility.yul\":12422:12433   */\n      0x00\n        /* \"#utility.yul\":12456:12462   */\n      dup3\n        /* \"#utility.yul\":12451:12454   */\n      dup3\n        /* \"#utility.yul\":12444:12463   */\n      mstore\n        /* \"#utility.yul\":12496:12500   */\n      0x20\n        /* \"#utility.yul\":12491:12494   */\n      dup3\n        /* \"#utility.yul\":12487:12501   */\n      add\n        /* \"#utility.yul\":12472:12501   */\n      swap1\n      pop\n        /* \"#utility.yul\":12338:12507   */\n      swap3\n      swap2\n      pop\n      pop\n      jump\t// out\n        /* \"#utility.yul\":12513:12738   */\n    tag_214:\n        /* \"#utility.yul\":12653:12687   */\n      0x496e73756666696369656e742066756e647320746f20726570617920666c6173\n        /* \"#utility.yul\":12649:12650   */\n      0x00\n        /* \"#utility.yul\":12641:12647   */\n      dup3\n        /* \"#utility.yul\":12637:12651   */\n      add\n        /* \"#utility.yul\":12630:12688   */\n      mstore\n        /* \"#utility.yul\":12722:12730   */\n      0x68206c6f616e0000000000000000000000000000000000000000000000000000\n        /* \"#utility.yul\":12717:12719   */\n      0x20\n        /* \"#utility.yul\":12709:12715   */\n      dup3\n        /* \"#utility.yul\":12705:12720   */\n      add\n        /* \"#utility.yul\":12698:12731   */\n      mstore\n        /* \"#utility.yul\":12513:12738   */\n      pop\n      jump\t// out\n        /* \"#utility.yul\":12744:13110   */\n    tag_215:\n        /* \"#utility.yul\":12886:12889   */\n      0x00\n        /* \"#utility.yul\":12907:12974   */\n      tag_389\n        /* \"#utility.yul\":12971:12973   */\n      0x26\n        /* \"#utility.yul\":12966:12969   */\n      dup4\n        /* \"#utility.yul\":12907:12974   */\n      tag_213\n      jump\t// in\n    tag_389:\n        /* \"#utility.yul\":12900:12974   */\n      swap2\n      pop\n        /* \"#utility.yul\":12983:13076   */\n      tag_390\n        /* \"#utility.yul\":13072:13075   */\n      dup3\n        /* \"#utility.yul\":12983:13076   */\n      tag_214\n      jump\t// in\n    tag_390:\n        /* \"#utility.yul\":13101:13103   */\n      0x40\n        /* \"#utility.yul\":13096:13099   */\n      dup3\n        /* \"#utility.yul\":13092:13104   */\n      add\n        /* \"#utility.yul\":13085:13104   */\n      swap1\n      pop\n        /* \"#utility.yul\":12744:13110   */\n      swap2\n      swap1\n      pop\n      jump\t// out\n        /* \"#utility.yul\":13116:13535   */\n    tag_75:\n        /* \"#utility.yul\":13282:13286   */\n      0x00\n        /* \"#utility.yul\":13320:13322   */\n      0x20\n        /* \"#utility.yul\":13309:13318   */\n      dup3\n        /* \"#utility.yul\":13305:13323   */\n      add\n        /* \"#utility.yul\":13297:13323   */\n      swap1\n      pop\n        /* \"#utility.yul\":13369:13378   */\n      dup2\n        /* \"#utility.yul\":13363:13367   */\n      dup2\n        /* \"#utility.yul\":13359:13379   */\n      sub\n        /* \"#utility.yul\":13355:13356   */\n      0x00\n        /* \"#utility.yul\":13344:13353   */\n      dup4\n        /* \"#utility.yul\":13340:13357   */\n      add\n        /* \"#utility.yul\":13333:13380   */\n      mstore\n        /* \"#utility.yul\":13397:13528   */\n      tag_392\n        /* \"#utility.yul\":13523:13527   */\n      dup2\n        /* \"#utility.yul\":13397:13528   */\n      tag_215\n      jump\t// in\n    tag_392:\n        /* \"#utility.yul\":13389:13528   */\n      swap1\n      pop\n        /* \"#utility.yul\":13116:13535   */\n      swap2\n      swap1\n      pop\n      jump\t// out\n        /* \"#utility.yul\":13541:13951   */\n    tag_80:\n        /* \"#utility.yul\":13581:13588   */\n      0x00\n        /* \"#utility.yul\":13604:13624   */\n      tag_394\n        /* \"#utility.yul\":13622:13623   */\n      dup3\n        /* \"#utility.yul\":13604:13624   */\n      tag_190\n      jump\t// in\n    tag_394:\n        /* \"#utility.yul\":13599:13624   */\n      swap2\n      pop\n        /* \"#utility.yul\":13638:13658   */\n      tag_395\n        /* \"#utility.yul\":13656:13657   */\n      dup4\n        /* \"#utility.yul\":13638:13658   */\n      tag_190\n      jump\t// in\n    tag_395:\n        /* \"#utility.yul\":13633:13658   */\n      swap3\n      pop\n        /* \"#utility.yul\":13693:13694   */\n      dup3\n        /* \"#utility.yul\":13690:13691   */\n      dup3\n        /* \"#utility.yul\":13686:13695   */\n      mul\n        /* \"#utility.yul\":13715:13745   */\n      tag_396\n        /* \"#utility.yul\":13733:13744   */\n      dup2\n        /* \"#utility.yul\":13715:13745   */\n      tag_190\n      jump\t// in\n    tag_396:\n        /* \"#utility.yul\":13704:13745   */\n      swap2\n      pop\n        /* \"#utility.yul\":13894:13895   */\n      dup3\n        /* \"#utility.yul\":13885:13892   */\n      dup3\n        /* \"#utility.yul\":13881:13896   */\n      div\n        /* \"#utility.yul\":13878:13879   */\n      dup5\n        /* \"#utility.yul\":13875:13897   */\n      eq\n        /* \"#utility.yul\":13855:13856   */\n      dup4\n        /* \"#utility.yul\":13848:13857   */\n      iszero\n        /* \"#utility.yul\":13828:13911   */\n      or\n        /* \"#utility.yul\":13805:13944   */\n      tag_397\n      jumpi\n        /* \"#utility.yul\":13924:13942   */\n      tag_398\n      tag_212\n      jump\t// in\n    tag_398:\n        /* \"#utility.yul\":13805:13944   */\n    tag_397:\n        /* \"#utility.yul\":13589:13951   */\n      pop\n        /* \"#utility.yul\":13541:13951   */\n      swap3\n      swap2\n      pop\n      pop\n      jump\t// out\n        /* \"#utility.yul\":13957:14137   */\n    tag_216:\n        /* \"#utility.yul\":14005:14082   */\n      0x4e487b7100000000000000000000000000000000000000000000000000000000\n        /* \"#utility.yul\":14002:14003   */\n      0x00\n        /* \"#utility.yul\":13995:14083   */\n      mstore\n        /* \"#utility.yul\":14102:14106   */\n      0x12\n        /* \"#utility.yul\":14099:14100   */\n      0x04\n        /* \"#utility.yul\":14092:14107   */\n      mstore\n        /* \"#utility.yul\":14126:14130   */\n      0x24\n        /* \"#utility.yul\":14123:14124   */\n      0x00\n        /* \"#utility.yul\":14116:14131   */\n      revert\n        /* \"#utility.yul\":14143:14328   */\n    tag_82:\n        /* \"#utility.yul\":14183:14184   */\n      0x00\n        /* \"#utility.yul\":14200:14220   */\n      tag_401\n        /* \"#utility.yul\":14218:14219   */\n      dup3\n        /* \"#utility.yul\":14200:14220   */\n      tag_190\n      jump\t// in\n    tag_401:\n        /* \"#utility.yul\":14195:14220   */\n      swap2\n      pop\n        /* \"#utility.yul\":14234:14254   */\n      tag_402\n        /* \"#utility.yul\":14252:14253   */\n      dup4\n        /* \"#utility.yul\":14234:14254   */\n      tag_190\n      jump\t// in\n    tag_402:\n        /* \"#utility.yul\":14229:14254   */\n      swap3\n      pop\n        /* \"#utility.yul\":14273:14274   */\n      dup3\n        /* \"#utility.yul\":14263:14298   */\n      tag_403\n      jumpi\n        /* \"#utility.yul\":14278:14296   */\n      tag_404\n      tag_216\n      jump\t// in\n    tag_404:\n        /* \"#utility.yul\":14263:14298   */\n    tag_403:\n        /* \"#utility.yul\":14320:14321   */\n      dup3\n        /* \"#utility.yul\":14317:14318   */\n      dup3\n        /* \"#utility.yul\":14313:14322   */\n      div\n        /* \"#utility.yul\":14308:14322   */\n      swap1\n      pop\n        /* \"#utility.yul\":14143:14328   */\n      swap3\n      swap2\n      pop\n      pop\n      jump\t// out\n        /* \"#utility.yul\":14334:14518   */\n    tag_217:\n        /* \"#utility.yul\":14433:14444   */\n      0x00\n        /* \"#utility.yul\":14467:14473   */\n      dup3\n        /* \"#utility.yul\":14462:14465   */\n      dup3\n        /* \"#utility.yul\":14455:14474   */\n      mstore\n        /* \"#utility.yul\":14507:14511   */\n      0x20\n        /* \"#utility.yul\":14502:14505   */\n      dup3\n        /* \"#utility.yul\":14498:14512   */\n      add\n        /* \"#utility.yul\":14483:14512   */\n      swap1\n      pop\n        /* \"#utility.yul\":14334:14518   */\n      swap3\n      swap2\n      pop\n      pop\n      jump\t// out\n        /* \"#utility.yul\":14524:14626   */\n    tag_218:\n        /* \"#utility.yul\":14593:14597   */\n      0x00\n        /* \"#utility.yul\":14616:14619   */\n      dup2\n        /* \"#utility.yul\":14608:14619   */\n      swap1\n      pop\n        /* \"#utility.yul\":14524:14626   */\n      swap2\n      swap1\n      pop\n      jump\t// out\n        /* \"#utility.yul\":14632:14740   */\n    tag_219:\n        /* \"#utility.yul\":14709:14733   */\n      tag_408\n        /* \"#utility.yul\":14727:14732   */\n      dup2\n        /* \"#utility.yul\":14709:14733   */\n      tag_187\n      jump\t// in\n    tag_408:\n        /* \"#utility.yul\":14704:14707   */\n      dup3\n        /* \"#utility.yul\":14697:14734   */\n      mstore\n        /* \"#utility.yul\":14632:14740   */\n      pop\n      pop\n      jump\t// out\n        /* \"#utility.yul\":14746:14925   */\n    tag_220:\n        /* \"#utility.yul\":14815:14825   */\n      0x00\n        /* \"#utility.yul\":14836:14882   */\n      tag_410\n        /* \"#utility.yul\":14878:14881   */\n      dup4\n        /* \"#utility.yul\":14870:14876   */\n      dup4\n        /* \"#utility.yul\":14836:14882   */\n      tag_219\n      jump\t// in\n    tag_410:\n        /* \"#utility.yul\":14914:14918   */\n      0x20\n        /* \"#utility.yul\":14909:14912   */\n      dup4\n        /* \"#utility.yul\":14905:14919   */\n      add\n        /* \"#utility.yul\":14891:14919   */\n      swap1\n      pop\n        /* \"#utility.yul\":14746:14925   */\n      swap3\n      swap2\n      pop\n      pop\n      jump\t// out\n        /* \"#utility.yul\":14931:15053   */\n    tag_221:\n        /* \"#utility.yul\":14983:14988   */\n      0x00\n        /* \"#utility.yul\":15008:15047   */\n      tag_412\n        /* \"#utility.yul\":15043:15045   */\n      0x20\n        /* \"#utility.yul\":15038:15041   */\n      dup5\n        /* \"#utility.yul\":15034:15046   */\n      add\n        /* \"#utility.yul\":15029:15032   */\n      dup5\n        /* \"#utility.yul\":15008:15047   */\n      tag_189\n      jump\t// in\n    tag_412:\n        /* \"#utility.yul\":14999:15047   */\n      swap1\n      pop\n        /* \"#utility.yul\":14931:15053   */\n      swap3\n      swap2\n      pop\n      pop\n      jump\t// out\n        /* \"#utility.yul\":15059:15174   */\n    tag_222:\n        /* \"#utility.yul\":15131:15135   */\n      0x00\n        /* \"#utility.yul\":15163:15167   */\n      0x20\n        /* \"#utility.yul\":15158:15161   */\n      dup3\n        /* \"#utility.yul\":15154:15168   */\n      add\n        /* \"#utility.yul\":15146:15168   */\n      swap1\n      pop\n        /* \"#utility.yul\":15059:15174   */\n      swap2\n      swap1\n      pop\n      jump\t// out\n        /* \"#utility.yul\":15210:15909   */\n    tag_223:\n        /* \"#utility.yul\":15339:15342   */\n      0x00\n        /* \"#utility.yul\":15362:15448   */\n      tag_415\n        /* \"#utility.yul\":15441:15447   */\n      dup4\n        /* \"#utility.yul\":15436:15439   */\n      dup6\n        /* \"#utility.yul\":15362:15448   */\n      tag_217\n      jump\t// in\n    tag_415:\n        /* \"#utility.yul\":15355:15448   */\n      swap4\n      pop\n        /* \"#utility.yul\":15472:15530   */\n      tag_416\n        /* \"#utility.yul\":15524:15529   */\n      dup3\n        /* \"#utility.yul\":15472:15530   */\n      tag_218\n      jump\t// in\n    tag_416:\n        /* \"#utility.yul\":15553:15560   */\n      dup1\n        /* \"#utility.yul\":15584:15585   */\n      0x00\n        /* \"#utility.yul\":15569:15884   */\n    tag_417:\n        /* \"#utility.yul\":15594:15600   */\n      dup6\n        /* \"#utility.yul\":15591:15592   */\n      dup2\n        /* \"#utility.yul\":15588:15601   */\n      lt\n        /* \"#utility.yul\":15569:15884   */\n      iszero\n      tag_419\n      jumpi\n        /* \"#utility.yul\":15664:15706   */\n      tag_420\n        /* \"#utility.yul\":15699:15705   */\n      dup3\n        /* \"#utility.yul\":15690:15697   */\n      dup5\n        /* \"#utility.yul\":15664:15706   */\n      tag_221\n      jump\t// in\n    tag_420:\n        /* \"#utility.yul\":15726:15789   */\n      tag_421\n        /* \"#utility.yul\":15785:15788   */\n      dup9\n        /* \"#utility.yul\":15770:15783   */\n      dup3\n        /* \"#utility.yul\":15726:15789   */\n      tag_220\n      jump\t// in\n    tag_421:\n        /* \"#utility.yul\":15719:15789   */\n      swap8\n      pop\n        /* \"#utility.yul\":15812:15874   */\n      tag_422\n        /* \"#utility.yul\":15867:15873   */\n      dup4\n        /* \"#utility.yul\":15812:15874   */\n      tag_222\n      jump\t// in\n    tag_422:\n        /* \"#utility.yul\":15802:15874   */\n      swap3\n      pop\n        /* \"#utility.yul\":15629:15884   */\n      pop\n        /* \"#utility.yul\":15616:15617   */\n      0x01\n        /* \"#utility.yul\":15613:15614   */\n      dup2\n        /* \"#utility.yul\":15609:15618   */\n      add\n        /* \"#utility.yul\":15604:15618   */\n      swap1\n      pop\n        /* \"#utility.yul\":15569:15884   */\n      jump(tag_417)\n    tag_419:\n        /* \"#utility.yul\":15573:15587   */\n      pop\n        /* \"#utility.yul\":15900:15903   */\n      dup6\n        /* \"#utility.yul\":15893:15903   */\n      swap3\n      pop\n        /* \"#utility.yul\":15344:15909   */\n      pop\n      pop\n        /* \"#utility.yul\":15210:15909   */\n      swap4\n      swap3\n      pop\n      pop\n      pop\n      jump\t// out\n        /* \"#utility.yul\":15915:16308   */\n    tag_94:\n        /* \"#utility.yul\":16068:16072   */\n      0x00\n        /* \"#utility.yul\":16106:16108   */\n      0x20\n        /* \"#utility.yul\":16095:16104   */\n      dup3\n        /* \"#utility.yul\":16091:16109   */\n      add\n        /* \"#utility.yul\":16083:16109   */\n      swap1\n      pop\n        /* \"#utility.yul\":16155:16164   */\n      dup2\n        /* \"#utility.yul\":16149:16153   */\n      dup2\n        /* \"#utility.yul\":16145:16165   */\n      sub\n        /* \"#utility.yul\":16141:16142   */\n      0x00\n        /* \"#utility.yul\":16130:16139   */\n      dup4\n        /* \"#utility.yul\":16126:16143   */\n      add\n        /* \"#utility.yul\":16119:16166   */\n      mstore\n        /* \"#utility.yul\":16183:16301   */\n      tag_424\n        /* \"#utility.yul\":16296:16300   */\n      dup2\n        /* \"#utility.yul\":16287:16293   */\n      dup5\n        /* \"#utility.yul\":16279:16285   */\n      dup7\n        /* \"#utility.yul\":16183:16301   */\n      tag_223\n      jump\t// in\n    tag_424:\n        /* \"#utility.yul\":16175:16301   */\n      swap1\n      pop\n        /* \"#utility.yul\":15915:16308   */\n      swap4\n      swap3\n      pop\n      pop\n      pop\n      jump\t// out\n        /* \"#utility.yul\":16314:16412   */\n    tag_224:\n        /* \"#utility.yul\":16365:16371   */\n      0x00\n        /* \"#utility.yul\":16399:16404   */\n      dup2\n        /* \"#utility.yul\":16393:16405   */\n      mload\n        /* \"#utility.yul\":16383:16405   */\n      swap1\n      pop\n        /* \"#utility.yul\":16314:16412   */\n      swap2\n      swap1\n      pop\n      jump\t// out\n        /* \"#utility.yul\":16418:16586   */\n    tag_225:\n        /* \"#utility.yul\":16501:16512   */\n      0x00\n        /* \"#utility.yul\":16535:16541   */\n      dup3\n        /* \"#utility.yul\":16530:16533   */\n      dup3\n        /* \"#utility.yul\":16523:16542   */\n      mstore\n        /* \"#utility.yul\":16575:16579   */\n      0x20\n        /* \"#utility.yul\":16570:16573   */\n      dup3\n        /* \"#utility.yul\":16566:16580   */\n      add\n        /* \"#utility.yul\":16551:16580   */\n      swap1\n      pop\n        /* \"#utility.yul\":16418:16586   */\n      swap3\n      swap2\n      pop\n      pop\n      jump\t// out\n        /* \"#utility.yul\":16592:16731   */\n    tag_226:\n        /* \"#utility.yul\":16681:16687   */\n      dup3\n        /* \"#utility.yul\":16676:16679   */\n      dup2\n        /* \"#utility.yul\":16671:16674   */\n      dup4\n        /* \"#utility.yul\":16665:16688   */\n      mcopy\n        /* \"#utility.yul\":16722:16723   */\n      0x00\n        /* \"#utility.yul\":16713:16719   */\n      dup4\n        /* \"#utility.yul\":16708:16711   */\n      dup4\n        /* \"#utility.yul\":16704:16720   */\n      add\n        /* \"#utility.yul\":16697:16724   */\n      mstore\n        /* \"#utility.yul\":16592:16731   */\n      pop\n      pop\n      pop\n      jump\t// out\n        /* \"#utility.yul\":16737:17110   */\n    tag_227:\n        /* \"#utility.yul\":16823:16826   */\n      0x00\n        /* \"#utility.yul\":16851:16889   */\n      tag_429\n        /* \"#utility.yul\":16883:16888   */\n      dup3\n        /* \"#utility.yul\":16851:16889   */\n      tag_224\n      jump\t// in\n    tag_429:\n        /* \"#utility.yul\":16905:16975   */\n      tag_430\n        /* \"#utility.yul\":16968:16974   */\n      dup2\n        /* \"#utility.yul\":16963:16966   */\n      dup6\n        /* \"#utility.yul\":16905:16975   */\n      tag_225\n      jump\t// in\n    tag_430:\n        /* \"#utility.yul\":16898:16975   */\n      swap4\n      pop\n        /* \"#utility.yul\":16984:17049   */\n      tag_431\n        /* \"#utility.yul\":17042:17048   */\n      dup2\n        /* \"#utility.yul\":17037:17040   */\n      dup6\n        /* \"#utility.yul\":17030:17034   */\n      0x20\n        /* \"#utility.yul\":17023:17028   */\n      dup7\n        /* \"#utility.yul\":17019:17035   */\n      add\n        /* \"#utility.yul\":16984:17049   */\n      tag_226\n      jump\t// in\n    tag_431:\n        /* \"#utility.yul\":17074:17103   */\n      tag_432\n        /* \"#utility.yul\":17096:17102   */\n      dup2\n        /* \"#utility.yul\":17074:17103   */\n      tag_206\n      jump\t// in\n    tag_432:\n        /* \"#utility.yul\":17069:17072   */\n      dup5\n        /* \"#utility.yul\":17065:17104   */\n      add\n        /* \"#utility.yul\":17058:17104   */\n      swap2\n      pop\n        /* \"#utility.yul\":16827:17110   */\n      pop\n        /* \"#utility.yul\":16737:17110   */\n      swap3\n      swap2\n      pop\n      pop\n      jump\t// out\n        /* \"#utility.yul\":17116:17201   */\n    tag_228:\n        /* \"#utility.yul\":17161:17168   */\n      0x00\n        /* \"#utility.yul\":17190:17195   */\n      dup2\n        /* \"#utility.yul\":17179:17195   */\n      swap1\n      pop\n        /* \"#utility.yul\":17116:17201   */\n      swap2\n      swap1\n      pop\n      jump\t// out\n        /* \"#utility.yul\":17207:17296   */\n    tag_229:\n        /* \"#utility.yul\":17243:17250   */\n      0x00\n        /* \"#utility.yul\":17283:17289   */\n      0xffff\n        /* \"#utility.yul\":17276:17281   */\n      dup3\n        /* \"#utility.yul\":17272:17290   */\n      and\n        /* \"#utility.yul\":17261:17290   */\n      swap1\n      pop\n        /* \"#utility.yul\":17207:17296   */\n      swap2\n      swap1\n      pop\n      jump\t// out\n        /* \"#utility.yul\":17302:17458   */\n    tag_230:\n        /* \"#utility.yul\":17359:17368   */\n      0x00\n        /* \"#utility.yul\":17392:17452   */\n      tag_436\n        /* \"#utility.yul\":17409:17451   */\n      tag_437\n        /* \"#utility.yul\":17418:17450   */\n      tag_438\n        /* \"#utility.yul\":17444:17449   */\n      dup5\n        /* \"#utility.yul\":17418:17450   */\n      tag_228\n      jump\t// in\n    tag_438:\n        /* \"#utility.yul\":17409:17451   */\n      tag_179\n      jump\t// in\n    tag_437:\n        /* \"#utility.yul\":17392:17452   */\n      tag_229\n      jump\t// in\n    tag_436:\n        /* \"#utility.yul\":17379:17452   */\n      swap1\n      pop\n        /* \"#utility.yul\":17302:17458   */\n      swap2\n      swap1\n      pop\n      jump\t// out\n        /* \"#utility.yul\":17464:17609   */\n    tag_231:\n        /* \"#utility.yul\":17558:17602   */\n      tag_440\n        /* \"#utility.yul\":17596:17601   */\n      dup2\n        /* \"#utility.yul\":17558:17602   */\n      tag_230\n      jump\t// in\n    tag_440:\n        /* \"#utility.yul\":17553:17556   */\n      dup3\n        /* \"#utility.yul\":17546:17603   */\n      mstore\n        /* \"#utility.yul\":17464:17609   */\n      pop\n      pop\n      jump\t// out\n        /* \"#utility.yul\":17615:18380   */\n    tag_96:\n        /* \"#utility.yul\":17845:17849   */\n      0x00\n        /* \"#utility.yul\":17883:17886   */\n      0xa0\n        /* \"#utility.yul\":17872:17881   */\n      dup3\n        /* \"#utility.yul\":17868:17887   */\n      add\n        /* \"#utility.yul\":17860:17887   */\n      swap1\n      pop\n        /* \"#utility.yul\":17897:17968   */\n      tag_442\n        /* \"#utility.yul\":17965:17966   */\n      0x00\n        /* \"#utility.yul\":17954:17963   */\n      dup4\n        /* \"#utility.yul\":17950:17967   */\n      add\n        /* \"#utility.yul\":17941:17947   */\n      dup9\n        /* \"#utility.yul\":17897:17968   */\n      tag_203\n      jump\t// in\n    tag_442:\n        /* \"#utility.yul\":17978:18050   */\n      tag_443\n        /* \"#utility.yul\":18046:18048   */\n      0x20\n        /* \"#utility.yul\":18035:18044   */\n      dup4\n        /* \"#utility.yul\":18031:18049   */\n      add\n        /* \"#utility.yul\":18022:18028   */\n      dup8\n        /* \"#utility.yul\":17978:18050   */\n      tag_203\n      jump\t// in\n    tag_443:\n        /* \"#utility.yul\":18060:18132   */\n      tag_444\n        /* \"#utility.yul\":18128:18130   */\n      0x40\n        /* \"#utility.yul\":18117:18126   */\n      dup4\n        /* \"#utility.yul\":18113:18131   */\n      add\n        /* \"#utility.yul\":18104:18110   */\n      dup7\n        /* \"#utility.yul\":18060:18132   */\n      tag_200\n      jump\t// in\n    tag_444:\n        /* \"#utility.yul\":18179:18188   */\n      dup2\n        /* \"#utility.yul\":18173:18177   */\n      dup2\n        /* \"#utility.yul\":18169:18189   */\n      sub\n        /* \"#utility.yul\":18164:18166   */\n      0x60\n        /* \"#utility.yul\":18153:18162   */\n      dup4\n        /* \"#utility.yul\":18149:18167   */\n      add\n        /* \"#utility.yul\":18142:18190   */\n      mstore\n        /* \"#utility.yul\":18207:18283   */\n      tag_445\n        /* \"#utility.yul\":18278:18282   */\n      dup2\n        /* \"#utility.yul\":18269:18275   */\n      dup6\n        /* \"#utility.yul\":18207:18283   */\n      tag_227\n      jump\t// in\n    tag_445:\n        /* \"#utility.yul\":18199:18283   */\n      swap1\n      pop\n        /* \"#utility.yul\":18293:18373   */\n      tag_446\n        /* \"#utility.yul\":18368:18371   */\n      0x80\n        /* \"#utility.yul\":18357:18366   */\n      dup4\n        /* \"#utility.yul\":18353:18372   */\n      add\n        /* \"#utility.yul\":18344:18350   */\n      dup5\n        /* \"#utility.yul\":18293:18373   */\n      tag_231\n      jump\t// in\n    tag_446:\n        /* \"#utility.yul\":17615:18380   */\n      swap7\n      swap6\n      pop\n      pop\n      pop\n      pop\n      pop\n      pop\n      jump\t// out\n        /* \"#utility.yul\":18386:18529   */\n    tag_232:\n        /* \"#utility.yul\":18443:18448   */\n      0x00\n        /* \"#utility.yul\":18474:18480   */\n      dup2\n        /* \"#utility.yul\":18468:18481   */\n      mload\n        /* \"#utility.yul\":18459:18481   */\n      swap1\n      pop\n        /* \"#utility.yul\":18490:18523   */\n      tag_448\n        /* \"#utility.yul\":18517:18522   */\n      dup2\n        /* \"#utility.yul\":18490:18523   */\n      tag_191\n      jump\t// in\n    tag_448:\n        /* \"#utility.yul\":18386:18529   */\n      swap3\n      swap2\n      pop\n      pop\n      jump\t// out\n        /* \"#utility.yul\":18535:18886   */\n    tag_118:\n        /* \"#utility.yul\":18605:18611   */\n      0x00\n        /* \"#utility.yul\":18654:18656   */\n      0x20\n        /* \"#utility.yul\":18642:18651   */\n      dup3\n        /* \"#utility.yul\":18633:18640   */\n      dup5\n        /* \"#utility.yul\":18629:18652   */\n      sub\n        /* \"#utility.yul\":18625:18657   */\n      slt\n        /* \"#utility.yul\":18622:18741   */\n      iszero\n      tag_450\n      jumpi\n        /* \"#utility.yul\":18660:18739   */\n      tag_451\n      tag_185\n      jump\t// in\n    tag_451:\n        /* \"#utility.yul\":18622:18741   */\n    tag_450:\n        /* \"#utility.yul\":18780:18781   */\n      0x00\n        /* \"#utility.yul\":18805:18869   */\n      tag_452\n        /* \"#utility.yul\":18861:18868   */\n      dup5\n        /* \"#utility.yul\":18852:18858   */\n      dup3\n        /* \"#utility.yul\":18841:18850   */\n      dup6\n        /* \"#utility.yul\":18837:18859   */\n      add\n        /* \"#utility.yul\":18805:18869   */\n      tag_232\n      jump\t// in\n    tag_452:\n        /* \"#utility.yul\":18795:18869   */\n      swap2\n      pop\n        /* \"#utility.yul\":18751:18879   */\n      pop\n        /* \"#utility.yul\":18535:18886   */\n      swap3\n      swap2\n      pop\n      pop\n      jump\t// out\n        /* \"#utility.yul\":18892:19086   */\n    tag_123:\n        /* \"#utility.yul\":18932:18936   */\n      0x00\n        /* \"#utility.yul\":18952:18972   */\n      tag_454\n        /* \"#utility.yul\":18970:18971   */\n      dup3\n        /* \"#utility.yul\":18952:18972   */\n      tag_190\n      jump\t// in\n    tag_454:\n        /* \"#utility.yul\":18947:18972   */\n      swap2\n      pop\n        /* \"#utility.yul\":18986:19006   */\n      tag_455\n        /* \"#utility.yul\":19004:19005   */\n      dup4\n        /* \"#utility.yul\":18986:19006   */\n      tag_190\n      jump\t// in\n    tag_455:\n        /* \"#utility.yul\":18981:19006   */\n      swap3\n      pop\n        /* \"#utility.yul\":19030:19031   */\n      dup3\n        /* \"#utility.yul\":19027:19028   */\n      dup3\n        /* \"#utility.yul\":19023:19032   */\n      sub\n        /* \"#utility.yul\":19015:19032   */\n      swap1\n      pop\n        /* \"#utility.yul\":19054:19055   */\n      dup2\n        /* \"#utility.yul\":19048:19052   */\n      dup2\n        /* \"#utility.yul\":19045:19056   */\n      gt\n        /* \"#utility.yul\":19042:19079   */\n      iszero\n      tag_456\n      jumpi\n        /* \"#utility.yul\":19059:19077   */\n      tag_457\n      tag_212\n      jump\t// in\n    tag_457:\n        /* \"#utility.yul\":19042:19079   */\n    tag_456:\n        /* \"#utility.yul\":18892:19086   */\n      swap3\n      swap2\n      pop\n      pop\n      jump\t// out\n        /* \"#utility.yul\":19092:19272   */\n    tag_130:\n        /* \"#utility.yul\":19140:19217   */\n      0x4e487b7100000000000000000000000000000000000000000000000000000000\n        /* \"#utility.yul\":19137:19138   */\n      0x00\n        /* \"#utility.yul\":19130:19218   */\n      mstore\n        /* \"#utility.yul\":19237:19241   */\n      0x32\n        /* \"#utility.yul\":19234:19235   */\n      0x04\n        /* \"#utility.yul\":19227:19242   */\n      mstore\n        /* \"#utility.yul\":19261:19265   */\n      0x24\n        /* \"#utility.yul\":19258:19259   */\n      0x00\n        /* \"#utility.yul\":19251:19266   */\n      revert\n        /* \"#utility.yul\":19278:19436   */\n    tag_233:\n        /* \"#utility.yul\":19336:19345   */\n      0x00\n        /* \"#utility.yul\":19369:19430   */\n      tag_460\n        /* \"#utility.yul\":19387:19429   */\n      tag_461\n        /* \"#utility.yul\":19396:19428   */\n      tag_462\n        /* \"#utility.yul\":19422:19427   */\n      dup5\n        /* \"#utility.yul\":19396:19428   */\n      tag_228\n      jump\t// in\n    tag_462:\n        /* \"#utility.yul\":19387:19429   */\n      tag_179\n      jump\t// in\n    tag_461:\n        /* \"#utility.yul\":19369:19430   */\n      tag_190\n      jump\t// in\n    tag_460:\n        /* \"#utility.yul\":19356:19430   */\n      swap1\n      pop\n        /* \"#utility.yul\":19278:19436   */\n      swap2\n      swap1\n      pop\n      jump\t// out\n        /* \"#utility.yul\":19442:19589   */\n    tag_234:\n        /* \"#utility.yul\":19537:19582   */\n      tag_464\n        /* \"#utility.yul\":19576:19581   */\n      dup2\n        /* \"#utility.yul\":19537:19582   */\n      tag_233\n      jump\t// in\n    tag_464:\n        /* \"#utility.yul\":19532:19535   */\n      dup3\n        /* \"#utility.yul\":19525:19583   */\n      mstore\n        /* \"#utility.yul\":19442:19589   */\n      pop\n      pop\n      jump\t// out\n        /* \"#utility.yul\":19595:19709   */\n    tag_235:\n        /* \"#utility.yul\":19662:19668   */\n      0x00\n        /* \"#utility.yul\":19696:19701   */\n      dup2\n        /* \"#utility.yul\":19690:19702   */\n      mload\n        /* \"#utility.yul\":19680:19702   */\n      swap1\n      pop\n        /* \"#utility.yul\":19595:19709   */\n      swap2\n      swap1\n      pop\n      jump\t// out\n        /* \"#utility.yul\":19715:19847   */\n    tag_236:\n        /* \"#utility.yul\":19782:19786   */\n      0x00\n        /* \"#utility.yul\":19805:19808   */\n      dup2\n        /* \"#utility.yul\":19797:19808   */\n      swap1\n      pop\n        /* \"#utility.yul\":19835:19839   */\n      0x20\n        /* \"#utility.yul\":19830:19833   */\n      dup3\n        /* \"#utility.yul\":19826:19840   */\n      add\n        /* \"#utility.yul\":19818:19840   */\n      swap1\n      pop\n        /* \"#utility.yul\":19715:19847   */\n      swap2\n      swap1\n      pop\n      jump\t// out\n        /* \"#utility.yul\":19853:19966   */\n    tag_237:\n        /* \"#utility.yul\":19923:19927   */\n      0x00\n        /* \"#utility.yul\":19955:19959   */\n      0x20\n        /* \"#utility.yul\":19950:19953   */\n      dup3\n        /* \"#utility.yul\":19946:19960   */\n      add\n        /* \"#utility.yul\":19938:19960   */\n      swap1\n      pop\n        /* \"#utility.yul\":19853:19966   */\n      swap2\n      swap1\n      pop\n      jump\t// out\n        /* \"#utility.yul\":20002:20734   */\n    tag_238:\n        /* \"#utility.yul\":20121:20124   */\n      0x00\n        /* \"#utility.yul\":20150:20204   */\n      tag_469\n        /* \"#utility.yul\":20198:20203   */\n      dup3\n        /* \"#utility.yul\":20150:20204   */\n      tag_235\n      jump\t// in\n    tag_469:\n        /* \"#utility.yul\":20220:20306   */\n      tag_470\n        /* \"#utility.yul\":20299:20305   */\n      dup2\n        /* \"#utility.yul\":20294:20297   */\n      dup6\n        /* \"#utility.yul\":20220:20306   */\n      tag_217\n      jump\t// in\n    tag_470:\n        /* \"#utility.yul\":20213:20306   */\n      swap4\n      pop\n        /* \"#utility.yul\":20330:20386   */\n      tag_471\n        /* \"#utility.yul\":20380:20385   */\n      dup4\n        /* \"#utility.yul\":20330:20386   */\n      tag_236\n      jump\t// in\n    tag_471:\n        /* \"#utility.yul\":20409:20416   */\n      dup1\n        /* \"#utility.yul\":20440:20441   */\n      0x00\n        /* \"#utility.yul\":20425:20709   */\n    tag_472:\n        /* \"#utility.yul\":20450:20456   */\n      dup4\n        /* \"#utility.yul\":20447:20448   */\n      dup2\n        /* \"#utility.yul\":20444:20457   */\n      lt\n        /* \"#utility.yul\":20425:20709   */\n      iszero\n      tag_474\n      jumpi\n        /* \"#utility.yul\":20526:20532   */\n      dup2\n        /* \"#utility.yul\":20520:20533   */\n      mload\n        /* \"#utility.yul\":20553:20616   */\n      tag_475\n        /* \"#utility.yul\":20612:20615   */\n      dup9\n        /* \"#utility.yul\":20597:20610   */\n      dup3\n        /* \"#utility.yul\":20553:20616   */\n      tag_220\n      jump\t// in\n    tag_475:\n        /* \"#utility.yul\":20546:20616   */\n      swap8\n      pop\n        /* \"#utility.yul\":20639:20699   */\n      tag_476\n        /* \"#utility.yul\":20692:20698   */\n      dup4\n        /* \"#utility.yul\":20639:20699   */\n      tag_237\n      jump\t// in\n    tag_476:\n        /* \"#utility.yul\":20629:20699   */\n      swap3\n      pop\n        /* \"#utility.yul\":20485:20709   */\n      pop\n        /* \"#utility.yul\":20472:20473   */\n      0x01\n        /* \"#utility.yul\":20469:20470   */\n      dup2\n        /* \"#utility.yul\":20465:20474   */\n      add\n        /* \"#utility.yul\":20460:20474   */\n      swap1\n      pop\n        /* \"#utility.yul\":20425:20709   */\n      jump(tag_472)\n    tag_474:\n        /* \"#utility.yul\":20429:20443   */\n      pop\n        /* \"#utility.yul\":20725:20728   */\n      dup6\n        /* \"#utility.yul\":20718:20728   */\n      swap4\n      pop\n        /* \"#utility.yul\":20126:20734   */\n      pop\n      pop\n      pop\n        /* \"#utility.yul\":20002:20734   */\n      swap3\n      swap2\n      pop\n      pop\n      jump\t// out\n        /* \"#utility.yul\":20740:21571   */\n    tag_146:\n        /* \"#utility.yul\":21003:21007   */\n      0x00\n        /* \"#utility.yul\":21041:21044   */\n      0xa0\n        /* \"#utility.yul\":21030:21039   */\n      dup3\n        /* \"#utility.yul\":21026:21045   */\n      add\n        /* \"#utility.yul\":21018:21045   */\n      swap1\n      pop\n        /* \"#utility.yul\":21055:21126   */\n      tag_478\n        /* \"#utility.yul\":21123:21124   */\n      0x00\n        /* \"#utility.yul\":21112:21121   */\n      dup4\n        /* \"#utility.yul\":21108:21125   */\n      add\n        /* \"#utility.yul\":21099:21105   */\n      dup9\n        /* \"#utility.yul\":21055:21126   */\n      tag_200\n      jump\t// in\n    tag_478:\n        /* \"#utility.yul\":21136:21216   */\n      tag_479\n        /* \"#utility.yul\":21212:21214   */\n      0x20\n        /* \"#utility.yul\":21201:21210   */\n      dup4\n        /* \"#utility.yul\":21197:21215   */\n      add\n        /* \"#utility.yul\":21188:21194   */\n      dup8\n        /* \"#utility.yul\":21136:21216   */\n      tag_234\n      jump\t// in\n    tag_479:\n        /* \"#utility.yul\":21263:21272   */\n      dup2\n        /* \"#utility.yul\":21257:21261   */\n      dup2\n        /* \"#utility.yul\":21253:21273   */\n      sub\n        /* \"#utility.yul\":21248:21250   */\n      0x40\n        /* \"#utility.yul\":21237:21246   */\n      dup4\n        /* \"#utility.yul\":21233:21251   */\n      add\n        /* \"#utility.yul\":21226:21274   */\n      mstore\n        /* \"#utility.yul\":21291:21399   */\n      tag_480\n        /* \"#utility.yul\":21394:21398   */\n      dup2\n        /* \"#utility.yul\":21385:21391   */\n      dup7\n        /* \"#utility.yul\":21291:21399   */\n      tag_238\n      jump\t// in\n    tag_480:\n        /* \"#utility.yul\":21283:21399   */\n      swap1\n      pop\n        /* \"#utility.yul\":21409:21481   */\n      tag_481\n        /* \"#utility.yul\":21477:21479   */\n      0x60\n        /* \"#utility.yul\":21466:21475   */\n      dup4\n        /* \"#utility.yul\":21462:21480   */\n      add\n        /* \"#utility.yul\":21453:21459   */\n      dup6\n        /* \"#utility.yul\":21409:21481   */\n      tag_203\n      jump\t// in\n    tag_481:\n        /* \"#utility.yul\":21491:21564   */\n      tag_482\n        /* \"#utility.yul\":21559:21562   */\n      0x80\n        /* \"#utility.yul\":21548:21557   */\n      dup4\n        /* \"#utility.yul\":21544:21563   */\n      add\n        /* \"#utility.yul\":21535:21541   */\n      dup5\n        /* \"#utility.yul\":21491:21564   */\n      tag_200\n      jump\t// in\n    tag_482:\n        /* \"#utility.yul\":20740:21571   */\n      swap7\n      swap6\n      pop\n      pop\n      pop\n      pop\n      pop\n      pop\n      jump\t// out\n        /* \"#utility.yul\":21577:21888   */\n    tag_239:\n        /* \"#utility.yul\":21654:21658   */\n      0x00\n        /* \"#utility.yul\":21744:21762   */\n      0xffffffffffffffff\n        /* \"#utility.yul\":21736:21742   */\n      dup3\n        /* \"#utility.yul\":21733:21763   */\n      gt\n        /* \"#utility.yul\":21730:21786   */\n      iszero\n      tag_484\n      jumpi\n        /* \"#utility.yul\":21766:21784   */\n      tag_485\n      tag_137\n      jump\t// in\n    tag_485:\n        /* \"#utility.yul\":21730:21786   */\n    tag_484:\n        /* \"#utility.yul\":21816:21820   */\n      0x20\n        /* \"#utility.yul\":21808:21814   */\n      dup3\n        /* \"#utility.yul\":21804:21821   */\n      mul\n        /* \"#utility.yul\":21796:21821   */\n      swap1\n      pop\n        /* \"#utility.yul\":21876:21880   */\n      0x20\n        /* \"#utility.yul\":21870:21874   */\n      dup2\n        /* \"#utility.yul\":21866:21881   */\n      add\n        /* \"#utility.yul\":21858:21881   */\n      swap1\n      pop\n        /* \"#utility.yul\":21577:21888   */\n      swap2\n      swap1\n      pop\n      jump\t// out\n        /* \"#utility.yul\":21911:22643   */\n    tag_240:\n        /* \"#utility.yul\":22018:22023   */\n      0x00\n        /* \"#utility.yul\":22043:22124   */\n      tag_487\n        /* \"#utility.yul\":22059:22123   */\n      tag_488\n        /* \"#utility.yul\":22116:22122   */\n      dup5\n        /* \"#utility.yul\":22059:22123   */\n      tag_239\n      jump\t// in\n    tag_488:\n        /* \"#utility.yul\":22043:22124   */\n      tag_208\n      jump\t// in\n    tag_487:\n        /* \"#utility.yul\":22034:22124   */\n      swap1\n      pop\n        /* \"#utility.yul\":22144:22149   */\n      dup1\n        /* \"#utility.yul\":22173:22179   */\n      dup4\n        /* \"#utility.yul\":22166:22171   */\n      dup3\n        /* \"#utility.yul\":22159:22180   */\n      mstore\n        /* \"#utility.yul\":22207:22211   */\n      0x20\n        /* \"#utility.yul\":22200:22205   */\n      dup3\n        /* \"#utility.yul\":22196:22212   */\n      add\n        /* \"#utility.yul\":22189:22212   */\n      swap1\n      pop\n        /* \"#utility.yul\":22260:22264   */\n      0x20\n        /* \"#utility.yul\":22252:22258   */\n      dup5\n        /* \"#utility.yul\":22248:22265   */\n      mul\n        /* \"#utility.yul\":22240:22246   */\n      dup4\n        /* \"#utility.yul\":22236:22266   */\n      add\n        /* \"#utility.yul\":22289:22292   */\n      dup6\n        /* \"#utility.yul\":22281:22287   */\n      dup2\n        /* \"#utility.yul\":22278:22293   */\n      gt\n        /* \"#utility.yul\":22275:22397   */\n      iszero\n      tag_489\n      jumpi\n        /* \"#utility.yul\":22308:22387   */\n      tag_490\n      tag_195\n      jump\t// in\n    tag_490:\n        /* \"#utility.yul\":22275:22397   */\n    tag_489:\n        /* \"#utility.yul\":22423:22429   */\n      dup4\n        /* \"#utility.yul\":22406:22637   */\n    tag_491:\n        /* \"#utility.yul\":22440:22446   */\n      dup2\n        /* \"#utility.yul\":22435:22438   */\n      dup2\n        /* \"#utility.yul\":22432:22447   */\n      lt\n        /* \"#utility.yul\":22406:22637   */\n      iszero\n      tag_493\n      jumpi\n        /* \"#utility.yul\":22515:22518   */\n      dup1\n        /* \"#utility.yul\":22544:22592   */\n      tag_494\n        /* \"#utility.yul\":22588:22591   */\n      dup9\n        /* \"#utility.yul\":22576:22586   */\n      dup3\n        /* \"#utility.yul\":22544:22592   */\n      tag_232\n      jump\t// in\n    tag_494:\n        /* \"#utility.yul\":22539:22542   */\n      dup5\n        /* \"#utility.yul\":22532:22593   */\n      mstore\n        /* \"#utility.yul\":22622:22626   */\n      0x20\n        /* \"#utility.yul\":22617:22620   */\n      dup5\n        /* \"#utility.yul\":22613:22627   */\n      add\n        /* \"#utility.yul\":22606:22627   */\n      swap4\n      pop\n        /* \"#utility.yul\":22482:22637   */\n      pop\n        /* \"#utility.yul\":22466:22470   */\n      0x20\n        /* \"#utility.yul\":22461:22464   */\n      dup2\n        /* \"#utility.yul\":22457:22471   */\n      add\n        /* \"#utility.yul\":22450:22471   */\n      swap1\n      pop\n        /* \"#utility.yul\":22406:22637   */\n      jump(tag_491)\n    tag_493:\n        /* \"#utility.yul\":22410:22431   */\n      pop\n        /* \"#utility.yul\":22024:22643   */\n      pop\n      pop\n        /* \"#utility.yul\":21911:22643   */\n      swap4\n      swap3\n      pop\n      pop\n      pop\n      jump\t// out\n        /* \"#utility.yul\":22666:23051   */\n    tag_241:\n        /* \"#utility.yul\":22748:22753   */\n      0x00\n        /* \"#utility.yul\":22797:22800   */\n      dup3\n        /* \"#utility.yul\":22790:22794   */\n      0x1f\n        /* \"#utility.yul\":22782:22788   */\n      dup4\n        /* \"#utility.yul\":22778:22795   */\n      add\n        /* \"#utility.yul\":22774:22801   */\n      slt\n        /* \"#utility.yul\":22764:22886   */\n      tag_496\n      jumpi\n        /* \"#utility.yul\":22805:22884   */\n      tag_497\n      tag_193\n      jump\t// in\n    tag_497:\n        /* \"#utility.yul\":22764:22886   */\n    tag_496:\n        /* \"#utility.yul\":22915:22921   */\n      dup2\n        /* \"#utility.yul\":22909:22922   */\n      mload\n        /* \"#utility.yul\":22940:23045   */\n      tag_498\n        /* \"#utility.yul\":23041:23044   */\n      dup5\n        /* \"#utility.yul\":23033:23039   */\n      dup3\n        /* \"#utility.yul\":23026:23030   */\n      0x20\n        /* \"#utility.yul\":23018:23024   */\n      dup7\n        /* \"#utility.yul\":23014:23031   */\n      add\n        /* \"#utility.yul\":22940:23045   */\n      tag_240\n      jump\t// in\n    tag_498:\n        /* \"#utility.yul\":22931:23045   */\n      swap2\n      pop\n        /* \"#utility.yul\":22754:23051   */\n      pop\n        /* \"#utility.yul\":22666:23051   */\n      swap3\n      swap2\n      pop\n      pop\n      jump\t// out\n        /* \"#utility.yul\":23057:23611   */\n    tag_150:\n        /* \"#utility.yul\":23152:23158   */\n      0x00\n        /* \"#utility.yul\":23201:23203   */\n      0x20\n        /* \"#utility.yul\":23189:23198   */\n      dup3\n        /* \"#utility.yul\":23180:23187   */\n      dup5\n        /* \"#utility.yul\":23176:23199   */\n      sub\n        /* \"#utility.yul\":23172:23204   */\n      slt\n        /* \"#utility.yul\":23169:23288   */\n      iszero\n      tag_500\n      jumpi\n        /* \"#utility.yul\":23207:23286   */\n      tag_501\n      tag_185\n      jump\t// in\n    tag_501:\n        /* \"#utility.yul\":23169:23288   */\n    tag_500:\n        /* \"#utility.yul\":23348:23349   */\n      0x00\n        /* \"#utility.yul\":23337:23346   */\n      dup3\n        /* \"#utility.yul\":23333:23350   */\n      add\n        /* \"#utility.yul\":23327:23351   */\n      mload\n        /* \"#utility.yul\":23378:23396   */\n      0xffffffffffffffff\n        /* \"#utility.yul\":23370:23376   */\n      dup2\n        /* \"#utility.yul\":23367:23397   */\n      gt\n        /* \"#utility.yul\":23364:23481   */\n      iszero\n      tag_502\n      jumpi\n        /* \"#utility.yul\":23400:23479   */\n      tag_503\n      tag_186\n      jump\t// in\n    tag_503:\n        /* \"#utility.yul\":23364:23481   */\n    tag_502:\n        /* \"#utility.yul\":23505:23594   */\n      tag_504\n        /* \"#utility.yul\":23586:23593   */\n      dup5\n        /* \"#utility.yul\":23577:23583   */\n      dup3\n        /* \"#utility.yul\":23566:23575   */\n      dup6\n        /* \"#utility.yul\":23562:23584   */\n      add\n        /* \"#utility.yul\":23505:23594   */\n      tag_241\n      jump\t// in\n    tag_504:\n        /* \"#utility.yul\":23495:23594   */\n      swap2\n      pop\n        /* \"#utility.yul\":23298:23604   */\n      pop\n        /* \"#utility.yul\":23057:23611   */\n      swap3\n      swap2\n      pop\n      pop\n      jump\t// out\n        /* \"#utility.yul\":23617:24100   */\n    tag_170:\n        /* \"#utility.yul\":23788:23792   */\n      0x00\n        /* \"#utility.yul\":23826:23828   */\n      0x40\n        /* \"#utility.yul\":23815:23824   */\n      dup3\n        /* \"#utility.yul\":23811:23829   */\n      add\n        /* \"#utility.yul\":23803:23829   */\n      swap1\n      pop\n        /* \"#utility.yul\":23839:23910   */\n      tag_506\n        /* \"#utility.yul\":23907:23908   */\n      0x00\n        /* \"#utility.yul\":23896:23905   */\n      dup4\n        /* \"#utility.yul\":23892:23909   */\n      add\n        /* \"#utility.yul\":23883:23889   */\n      dup6\n        /* \"#utility.yul\":23839:23910   */\n      tag_200\n      jump\t// in\n    tag_506:\n        /* \"#utility.yul\":23957:23966   */\n      dup2\n        /* \"#utility.yul\":23951:23955   */\n      dup2\n        /* \"#utility.yul\":23947:23967   */\n      sub\n        /* \"#utility.yul\":23942:23944   */\n      0x20\n        /* \"#utility.yul\":23931:23940   */\n      dup4\n        /* \"#utility.yul\":23927:23945   */\n      add\n        /* \"#utility.yul\":23920:23968   */\n      mstore\n        /* \"#utility.yul\":23985:24093   */\n      tag_507\n        /* \"#utility.yul\":24088:24092   */\n      dup2\n        /* \"#utility.yul\":24079:24085   */\n      dup5\n        /* \"#utility.yul\":23985:24093   */\n      tag_238\n      jump\t// in\n    tag_507:\n        /* \"#utility.yul\":23977:24093   */\n      swap1\n      pop\n        /* \"#utility.yul\":23617:24100   */\n      swap4\n      swap3\n      pop\n      pop\n      pop\n      jump\t// out\n\n    auxdata: 0xa26469706673582212207bd25e0383c21fdf7039d97940bce9faaa7b04971b839d090766c0dbdd17486a64736f6c634300081a0033\n}\n",
				"bytecode": {
					"linkReferences": {},
					"object": "60c060405234801561000f575f80fd5b50604051611c51380380611c51833981810160405281019061003191906102ad565b33818073ffffffffffffffffffffffffffffffffffffffff1660808173ffffffffffffffffffffffffffffffffffffffff16815250508073ffffffffffffffffffffffffffffffffffffffff1663026b1d5f6040518163ffffffff1660e01b8152600401602060405180830381865afa1580156100b0573d5f803e3d5ffd5b505050506040513d601f19601f820116820180604052508101906100d491906102ad565b73ffffffffffffffffffffffffffffffffffffffff1660a08173ffffffffffffffffffffffffffffffffffffffff1681525050505f73ffffffffffffffffffffffffffffffffffffffff168173ffffffffffffffffffffffffffffffffffffffff1603610178575f6040517f1e4fbdf700000000000000000000000000000000000000000000000000000000815260040161016f91906102e7565b60405180910390fd5b6101878161018e60201b60201c565b5050610300565b5f805f9054906101000a900473ffffffffffffffffffffffffffffffffffffffff169050815f806101000a81548173ffffffffffffffffffffffffffffffffffffffff021916908373ffffffffffffffffffffffffffffffffffffffff1602179055508173ffffffffffffffffffffffffffffffffffffffff168173ffffffffffffffffffffffffffffffffffffffff167f8be0079c531659141344cd1fd0a4f28419497f9722a3daafe3b4186f6b6457e060405160405180910390a35050565b5f80fd5b5f73ffffffffffffffffffffffffffffffffffffffff82169050919050565b5f61027c82610253565b9050919050565b61028c81610272565b8114610296575f80fd5b50565b5f815190506102a781610283565b92915050565b5f602082840312156102c2576102c161024f565b5b5f6102cf84828501610299565b91505092915050565b6102e181610272565b82525050565b5f6020820190506102fa5f8301846102d8565b92915050565b60805160a05161192261032f5f395f8181610292015281816103e8015261046001525f6101b001526119225ff3fe608060405234801561000f575f80fd5b5060043610610091575f3560e01c8063715018a611610064578063715018a6146101305780637535d2461461013a5780638da5cb5b146101585780639cbf194d14610176578063f2fde38b1461019257610091565b80630542975c1461009557806306b091f9146100b35780631b11d0ff146100cf578063245c94d3146100ff575b5f80fd5b61009d6101ae565b6040516100aa9190610d04565b60405180910390f35b6100cd60048036038101906100c89190610d9c565b6101d2565b005b6100e960048036038101906100e49190610e3b565b610261565b6040516100f69190610eeb565b60405180910390f35b61011960048036038101906101149190610f59565b610387565b604051610127929190610fd9565b60405180910390f35b6101386103d3565b005b6101426103e6565b60405161014f9190611020565b60405180910390f35b61016061040a565b60405161016d9190611048565b60405180910390f35b610190600480360381019061018b9190610f59565b610431565b005b6101ac60048036038101906101a79190611061565b6104f3565b005b7f000000000000000000000000000000000000000000000000000000000000000081565b6101da610577565b8173ffffffffffffffffffffffffffffffffffffffff1663a9059cbb6101fe61040a565b836040518363ffffffff1660e01b815260040161021c92919061108c565b6020604051808303815f875af1158015610238573d5f803e3d5ffd5b505050506040513d601f19601f8201168201806040525081019061025c91906110dd565b505050565b5f8083838101906102729190611250565b90508773ffffffffffffffffffffffffffffffffffffffff1663095ea7b37f0000000000000000000000000000000000000000000000000000000000000000888a6102bd91906112c4565b6040518363ffffffff1660e01b81526004016102da92919061108c565b6020604051808303815f875af11580156102f6573d5f803e3d5ffd5b505050506040513d601f19601f8201168201806040525081019061031a91906110dd565b505f6103278989846105fe565b9050868861033591906112c4565b811015610377576040517f08c379a000000000000000000000000000000000000000000000000000000000815260040161036e90611377565b60405180910390fd5b6001925050509695505050505050565b5f805f610396878787876109d1565b90505f6127106009886103a99190611395565b6103b39190611403565b905080876103c191906112c4565b82118293509350505094509492505050565b6103db610577565b6103e45f610bc2565b565b7f000000000000000000000000000000000000000000000000000000000000000081565b5f805f9054906101000a900473ffffffffffffffffffffffffffffffffffffffff16905090565b610439610577565b5f828260405160200161044d9291906114ef565b60405160208183030381529060405290507f000000000000000000000000000000000000000000000000000000000000000073ffffffffffffffffffffffffffffffffffffffff166342b0b77c308787855f6040518663ffffffff1660e01b81526004016104bf9594939291906115b7565b5f604051808303815f87803b1580156104d6575f80fd5b505af11580156104e8573d5f803e3d5ffd5b505050505050505050565b6104fb610577565b5f73ffffffffffffffffffffffffffffffffffffffff168173ffffffffffffffffffffffffffffffffffffffff160361056b575f6040517f1e4fbdf70000000000000000000000000000000000000000000000000000000081526004016105629190611048565b60405180910390fd5b61057481610bc2565b50565b61057f610c83565b73ffffffffffffffffffffffffffffffffffffffff1661059d61040a565b73ffffffffffffffffffffffffffffffffffffffff16146105fc576105c0610c83565b6040517f118cdaa70000000000000000000000000000000000000000000000000000000081526004016105f39190611048565b60405180910390fd5b565b5f808473ffffffffffffffffffffffffffffffffffffffff166370a08231306040518263ffffffff1660e01b81526004016106399190611048565b602060405180830381865afa158015610654573d5f803e3d5ffd5b505050506040513d601f19601f820116820180604052508101906106789190611623565b90505f5b6001845161068a919061164e565b81101561094e575f8673ffffffffffffffffffffffffffffffffffffffff166370a08231306040518263ffffffff1660e01b81526004016106cb9190611048565b602060405180830381865afa1580156106e6573d5f803e3d5ffd5b505050506040513d601f19601f8201168201806040525081019061070a9190611623565b90508673ffffffffffffffffffffffffffffffffffffffff1663095ea7b386848151811061073b5761073a611681565b5b6020026020010151836040518363ffffffff1660e01b815260040161076192919061108c565b6020604051808303815f875af115801561077d573d5f803e3d5ffd5b505050506040513d601f19601f820116820180604052508101906107a191906110dd565b505f600267ffffffffffffffff8111156107be576107bd611118565b5b6040519080825280602002602001820160405280156107ec5781602001602082028036833780820191505090505b50905087815f8151811061080357610802611681565b5b602002602001019073ffffffffffffffffffffffffffffffffffffffff16908173ffffffffffffffffffffffffffffffffffffffff168152505073c02aaa39b223fe8d0a0e5c4f27ead9083c756cc28160018151811061086657610865611681565b5b602002602001019073ffffffffffffffffffffffffffffffffffffffff16908173ffffffffffffffffffffffffffffffffffffffff16815250508583815181106108b3576108b2611681565b5b602002602001015173ffffffffffffffffffffffffffffffffffffffff166338ed1739835f8430426040518663ffffffff1660e01b81526004016108fb95949392919061175f565b5f604051808303815f875af1158015610916573d5f803e3d5ffd5b505050506040513d5f823e3d601f19601f8201168201806040525081019061093e9190611877565b505050808060010191505061067c565b508473ffffffffffffffffffffffffffffffffffffffff166370a08231306040518263ffffffff1660e01b81526004016109889190611048565b602060405180830381865afa1580156109a3573d5f803e3d5ffd5b505050506040513d601f19601f820116820180604052508101906109c79190611623565b9150509392505050565b5f808490505f5b84849050811015610bb5575f600267ffffffffffffffff8111156109ff576109fe611118565b5b604051908082528060200260200182016040528015610a2d5781602001602082028036833780820191505090505b50905087815f81518110610a4457610a43611681565b5b602002602001019073ffffffffffffffffffffffffffffffffffffffff16908173ffffffffffffffffffffffffffffffffffffffff168152505073c02aaa39b223fe8d0a0e5c4f27ead9083c756cc281600181518110610aa757610aa6611681565b5b602002602001019073ffffffffffffffffffffffffffffffffffffffff16908173ffffffffffffffffffffffffffffffffffffffff16815250505f868684818110610af557610af4611681565b5b9050602002016020810190610b0a9190611061565b73ffffffffffffffffffffffffffffffffffffffff1663d06ca61f85846040518363ffffffff1660e01b8152600401610b449291906118be565b5f60405180830381865afa158015610b5e573d5f803e3d5ffd5b505050506040513d5f823e3d601f19601f82011682018060405250810190610b869190611877565b905080600181518110610b9c57610b9b611681565b5b60200260200101519350505080806001019150506109d8565b5080915050949350505050565b5f805f9054906101000a900473ffffffffffffffffffffffffffffffffffffffff169050815f806101000a81548173ffffffffffffffffffffffffffffffffffffffff021916908373ffffffffffffffffffffffffffffffffffffffff1602179055508173ffffffffffffffffffffffffffffffffffffffff168173ffffffffffffffffffffffffffffffffffffffff167f8be0079c531659141344cd1fd0a4f28419497f9722a3daafe3b4186f6b6457e060405160405180910390a35050565b5f33905090565b5f73ffffffffffffffffffffffffffffffffffffffff82169050919050565b5f819050919050565b5f610ccc610cc7610cc284610c8a565b610ca9565b610c8a565b9050919050565b5f610cdd82610cb2565b9050919050565b5f610cee82610cd3565b9050919050565b610cfe81610ce4565b82525050565b5f602082019050610d175f830184610cf5565b92915050565b5f604051905090565b5f80fd5b5f80fd5b5f610d3882610c8a565b9050919050565b610d4881610d2e565b8114610d52575f80fd5b50565b5f81359050610d6381610d3f565b92915050565b5f819050919050565b610d7b81610d69565b8114610d85575f80fd5b50565b5f81359050610d9681610d72565b92915050565b5f8060408385031215610db257610db1610d26565b5b5f610dbf85828601610d55565b9250506020610dd085828601610d88565b9150509250929050565b5f80fd5b5f80fd5b5f80fd5b5f8083601f840112610dfb57610dfa610dda565b5b8235905067ffffffffffffffff811115610e1857610e17610dde565b5b602083019150836001820283011115610e3457610e33610de2565b5b9250929050565b5f805f805f8060a08789031215610e5557610e54610d26565b5b5f610e6289828a01610d55565b9650506020610e7389828a01610d88565b9550506040610e8489828a01610d88565b9450506060610e9589828a01610d55565b935050608087013567ffffffffffffffff811115610eb657610eb5610d2a565b5b610ec289828a01610de6565b92509250509295509295509295565b5f8115159050919050565b610ee581610ed1565b82525050565b5f602082019050610efe5f830184610edc565b92915050565b5f8083601f840112610f1957610f18610dda565b5b8235905067ffffffffffffffff811115610f3657610f35610dde565b5b602083019150836020820283011115610f5257610f51610de2565b5b9250929050565b5f805f8060608587031215610f7157610f70610d26565b5b5f610f7e87828801610d55565b9450506020610f8f87828801610d88565b935050604085013567ffffffffffffffff811115610fb057610faf610d2a565b5b610fbc87828801610f04565b925092505092959194509250565b610fd381610d69565b82525050565b5f604082019050610fec5f830185610edc565b610ff96020830184610fca565b9392505050565b5f61100a82610cd3565b9050919050565b61101a81611000565b82525050565b5f6020820190506110335f830184611011565b92915050565b61104281610d2e565b82525050565b5f60208201905061105b5f830184611039565b92915050565b5f6020828403121561107657611075610d26565b5b5f61108384828501610d55565b91505092915050565b5f60408201905061109f5f830185611039565b6110ac6020830184610fca565b9392505050565b6110bc81610ed1565b81146110c6575f80fd5b50565b5f815190506110d7816110b3565b92915050565b5f602082840312156110f2576110f1610d26565b5b5f6110ff848285016110c9565b91505092915050565b5f601f19601f8301169050919050565b7f4e487b71000000000000000000000000000000000000000000000000000000005f52604160045260245ffd5b61114e82611108565b810181811067ffffffffffffffff8211171561116d5761116c611118565b5b80604052505050565b5f61117f610d1d565b905061118b8282611145565b919050565b5f67ffffffffffffffff8211156111aa576111a9611118565b5b602082029050602081019050919050565b5f6111cd6111c884611190565b611176565b905080838252602082019050602084028301858111156111f0576111ef610de2565b5b835b8181101561121957806112058882610d55565b8452602084019350506020810190506111f2565b5050509392505050565b5f82601f83011261123757611236610dda565b5b81356112478482602086016111bb565b91505092915050565b5f6020828403121561126557611264610d26565b5b5f82013567ffffffffffffffff81111561128257611281610d2a565b5b61128e84828501611223565b91505092915050565b7f4e487b71000000000000000000000000000000000000000000000000000000005f52601160045260245ffd5b5f6112ce82610d69565b91506112d983610d69565b92508282019050808211156112f1576112f0611297565b5b92915050565b5f82825260208201905092915050565b7f496e73756666696369656e742066756e647320746f20726570617920666c61735f8201527f68206c6f616e0000000000000000000000000000000000000000000000000000602082015250565b5f6113616026836112f7565b915061136c82611307565b604082019050919050565b5f6020820190508181035f83015261138e81611355565b9050919050565b5f61139f82610d69565b91506113aa83610d69565b92508282026113b881610d69565b915082820484148315176113cf576113ce611297565b5b5092915050565b7f4e487b71000000000000000000000000000000000000000000000000000000005f52601260045260245ffd5b5f61140d82610d69565b915061141883610d69565b925082611428576114276113d6565b5b828204905092915050565b5f82825260208201905092915050565b5f819050919050565b61145581610d2e565b82525050565b5f611466838361144c565b60208301905092915050565b5f6114806020840184610d55565b905092915050565b5f602082019050919050565b5f61149f8385611433565b93506114aa82611443565b805f5b858110156114e2576114bf8284611472565b6114c9888261145b565b97506114d483611488565b9250506001810190506114ad565b5085925050509392505050565b5f6020820190508181035f830152611508818486611494565b90509392505050565b5f81519050919050565b5f82825260208201905092915050565b8281835e5f83830152505050565b5f61154382611511565b61154d818561151b565b935061155d81856020860161152b565b61156681611108565b840191505092915050565b5f819050919050565b5f61ffff82169050919050565b5f6115a161159c61159784611571565b610ca9565b61157a565b9050919050565b6115b181611587565b82525050565b5f60a0820190506115ca5f830188611039565b6115d76020830187611039565b6115e46040830186610fca565b81810360608301526115f68185611539565b905061160560808301846115a8565b9695505050505050565b5f8151905061161d81610d72565b92915050565b5f6020828403121561163857611637610d26565b5b5f6116458482850161160f565b91505092915050565b5f61165882610d69565b915061166383610d69565b925082820390508181111561167b5761167a611297565b5b92915050565b7f4e487b71000000000000000000000000000000000000000000000000000000005f52603260045260245ffd5b5f6116c86116c36116be84611571565b610ca9565b610d69565b9050919050565b6116d8816116ae565b82525050565b5f81519050919050565b5f819050602082019050919050565b5f602082019050919050565b5f61170d826116de565b6117178185611433565b9350611722836116e8565b805f5b83811015611752578151611739888261145b565b9750611744836116f7565b925050600181019050611725565b5085935050505092915050565b5f60a0820190506117725f830188610fca565b61177f60208301876116cf565b81810360408301526117918186611703565b90506117a06060830185611039565b6117ad6080830184610fca565b9695505050505050565b5f67ffffffffffffffff8211156117d1576117d0611118565b5b602082029050602081019050919050565b5f6117f46117ef846117b7565b611176565b9050808382526020820190506020840283018581111561181757611816610de2565b5b835b81811015611840578061182c888261160f565b845260208401935050602081019050611819565b5050509392505050565b5f82601f83011261185e5761185d610dda565b5b815161186e8482602086016117e2565b91505092915050565b5f6020828403121561188c5761188b610d26565b5b5f82015167ffffffffffffffff8111156118a9576118a8610d2a565b5b6118b58482850161184a565b91505092915050565b5f6040820190506118d15f830185610fca565b81810360208301526118e38184611703565b9050939250505056fea26469706673582212207bd25e0383c21fdf7039d97940bce9faaa7b04971b839d090766c0dbdd17486a64736f6c634300081a0033",
					"opcodes": "PUSH1 0xC0 PUSH1 0x40 MSTORE CALLVALUE DUP1 ISZERO PUSH2 0xF JUMPI PUSH0 DUP1 REVERT JUMPDEST POP PUSH1 0x40 MLOAD PUSH2 0x1C51 CODESIZE SUB DUP1 PUSH2 0x1C51 DUP4 CODECOPY DUP2 DUP2 ADD PUSH1 0x40 MSTORE DUP2 ADD SWAP1 PUSH2 0x31 SWAP2 SWAP1 PUSH2 0x2AD JUMP JUMPDEST CALLER DUP2 DUP1 PUSH20 0xFFFFFFFFFFFFFFFFFFFFFFFFFFFFFFFFFFFFFFFF AND PUSH1 0x80 DUP2 PUSH20 0xFFFFFFFFFFFFFFFFFFFFFFFFFFFFFFFFFFFFFFFF AND DUP2 MSTORE POP POP DUP1 PUSH20 0xFFFFFFFFFFFFFFFFFFFFFFFFFFFFFFFFFFFFFFFF AND PUSH4 0x26B1D5F PUSH1 0x40 MLOAD DUP2 PUSH4 0xFFFFFFFF AND PUSH1 0xE0 SHL DUP2 MSTORE PUSH1 0x4 ADD PUSH1 0x20 PUSH1 0x40 MLOAD DUP1 DUP4 SUB DUP2 DUP7 GAS STATICCALL ISZERO DUP1 ISZERO PUSH2 0xB0 JUMPI RETURNDATASIZE PUSH0 DUP1 RETURNDATACOPY RETURNDATASIZE PUSH0 REVERT JUMPDEST POP POP POP POP PUSH1 0x40 MLOAD RETURNDATASIZE PUSH1 0x1F NOT PUSH1 0x1F DUP3 ADD AND DUP3 ADD DUP1 PUSH1 0x40 MSTORE POP DUP2 ADD SWAP1 PUSH2 0xD4 SWAP2 SWAP1 PUSH2 0x2AD JUMP JUMPDEST PUSH20 0xFFFFFFFFFFFFFFFFFFFFFFFFFFFFFFFFFFFFFFFF AND PUSH1 0xA0 DUP2 PUSH20 0xFFFFFFFFFFFFFFFFFFFFFFFFFFFFFFFFFFFFFFFF AND DUP2 MSTORE POP POP POP PUSH0 PUSH20 0xFFFFFFFFFFFFFFFFFFFFFFFFFFFFFFFFFFFFFFFF AND DUP2 PUSH20 0xFFFFFFFFFFFFFFFFFFFFFFFFFFFFFFFFFFFFFFFF AND SUB PUSH2 0x178 JUMPI PUSH0 PUSH1 0x40 MLOAD PUSH32 0x1E4FBDF700000000000000000000000000000000000000000000000000000000 DUP2 MSTORE PUSH1 0x4 ADD PUSH2 0x16F SWAP2 SWAP1 PUSH2 0x2E7 JUMP JUMPDEST PUSH1 0x40 MLOAD DUP1 SWAP2 SUB SWAP1 REVERT JUMPDEST PUSH2 0x187 DUP2 PUSH2 0x18E PUSH1 0x20 SHL PUSH1 0x20 SHR JUMP JUMPDEST POP POP PUSH2 0x300 JUMP JUMPDEST PUSH0 DUP1 PUSH0 SWAP1 SLOAD SWAP1 PUSH2 0x100 EXP SWAP1 DIV PUSH20 0xFFFFFFFFFFFFFFFFFFFFFFFFFFFFFFFFFFFFFFFF AND SWAP1 POP DUP2 PUSH0 DUP1 PUSH2 0x100 EXP DUP2 SLOAD DUP2 PUSH20 0xFFFFFFFFFFFFFFFFFFFFFFFFFFFFFFFFFFFFFFFF MUL NOT AND SWAP1 DUP4 PUSH20 0xFFFFFFFFFFFFFFFFFFFFFFFFFFFFFFFFFFFFFFFF AND MUL OR SWAP1 SSTORE POP DUP2 PUSH20 0xFFFFFFFFFFFFFFFFFFFFFFFFFFFFFFFFFFFFFFFF AND DUP2 PUSH20 0xFFFFFFFFFFFFFFFFFFFFFFFFFFFFFFFFFFFFFFFF AND PUSH32 0x8BE0079C531659141344CD1FD0A4F28419497F9722A3DAAFE3B4186F6B6457E0 PUSH1 0x40 MLOAD PUSH1 0x40 MLOAD DUP1 SWAP2 SUB SWAP1 LOG3 POP POP JUMP JUMPDEST PUSH0 DUP1 REVERT JUMPDEST PUSH0 PUSH20 0xFFFFFFFFFFFFFFFFFFFFFFFFFFFFFFFFFFFFFFFF DUP3 AND SWAP1 POP SWAP2 SWAP1 POP JUMP JUMPDEST PUSH0 PUSH2 0x27C DUP3 PUSH2 0x253 JUMP JUMPDEST SWAP1 POP SWAP2 SWAP1 POP JUMP JUMPDEST PUSH2 0x28C DUP2 PUSH2 0x272 JUMP JUMPDEST DUP2 EQ PUSH2 0x296 JUMPI PUSH0 DUP1 REVERT JUMPDEST POP JUMP JUMPDEST PUSH0 DUP2 MLOAD SWAP1 POP PUSH2 0x2A7 DUP2 PUSH2 0x283 JUMP JUMPDEST SWAP3 SWAP2 POP POP JUMP JUMPDEST PUSH0 PUSH1 0x20 DUP3 DUP5 SUB SLT ISZERO PUSH2 0x2C2 JUMPI PUSH2 0x2C1 PUSH2 0x24F JUMP JUMPDEST JUMPDEST PUSH0 PUSH2 0x2CF DUP5 DUP3 DUP6 ADD PUSH2 0x299 JUMP JUMPDEST SWAP2 POP POP SWAP3 SWAP2 POP POP JUMP JUMPDEST PUSH2 0x2E1 DUP2 PUSH2 0x272 JUMP JUMPDEST DUP3 MSTORE POP POP JUMP JUMPDEST PUSH0 PUSH1 0x20 DUP3 ADD SWAP1 POP PUSH2 0x2FA PUSH0 DUP4 ADD DUP5 PUSH2 0x2D8 JUMP JUMPDEST SWAP3 SWAP2 POP POP JUMP JUMPDEST PUSH1 0x80 MLOAD PUSH1 0xA0 MLOAD PUSH2 0x1922 PUSH2 0x32F PUSH0 CODECOPY PUSH0 DUP2 DUP2 PUSH2 0x292 ADD MSTORE DUP2 DUP2 PUSH2 0x3E8 ADD MSTORE PUSH2 0x460 ADD MSTORE PUSH0 PUSH2 0x1B0 ADD MSTORE PUSH2 0x1922 PUSH0 RETURN INVALID PUSH1 0x80 PUSH1 0x40 MSTORE CALLVALUE DUP1 ISZERO PUSH2 0xF JUMPI PUSH0 DUP1 REVERT JUMPDEST POP PUSH1 0x4 CALLDATASIZE LT PUSH2 0x91 JUMPI PUSH0 CALLDATALOAD PUSH1 0xE0 SHR DUP1 PUSH4 0x715018A6 GT PUSH2 0x64 JUMPI DUP1 PUSH4 0x715018A6 EQ PUSH2 0x130 JUMPI DUP1 PUSH4 0x7535D246 EQ PUSH2 0x13A JUMPI DUP1 PUSH4 0x8DA5CB5B EQ PUSH2 0x158 JUMPI DUP1 PUSH4 0x9CBF194D EQ PUSH2 0x176 JUMPI DUP1 PUSH4 0xF2FDE38B EQ PUSH2 0x192 JUMPI PUSH2 0x91 JUMP JUMPDEST DUP1 PUSH4 0x542975C EQ PUSH2 0x95 JUMPI DUP1 PUSH4 0x6B091F9 EQ PUSH2 0xB3 JUMPI DUP1 PUSH4 0x1B11D0FF EQ PUSH2 0xCF JUMPI DUP1 PUSH4 0x245C94D3 EQ PUSH2 0xFF JUMPI JUMPDEST PUSH0 DUP1 REVERT JUMPDEST PUSH2 0x9D PUSH2 0x1AE JUMP JUMPDEST PUSH1 0x40 MLOAD PUSH2 0xAA SWAP2 SWAP1 PUSH2 0xD04 JUMP JUMPDEST PUSH1 0x40 MLOAD DUP1 SWAP2 SUB SWAP1 RETURN JUMPDEST PUSH2 0xCD PUSH1 0x4 DUP1 CALLDATASIZE SUB DUP2 ADD SWAP1 PUSH2 0xC8 SWAP2 SWAP1 PUSH2 0xD9C JUMP JUMPDEST PUSH2 0x1D2 JUMP JUMPDEST STOP JUMPDEST PUSH2 0xE9 PUSH1 0x4 DUP1 CALLDATASIZE SUB DUP2 ADD SWAP1 PUSH2 0xE4 SWAP2 SWAP1 PUSH2 0xE3B JUMP JUMPDEST PUSH2 0x261 JUMP JUMPDEST PUSH1 0x40 MLOAD PUSH2 0xF6 SWAP2 SWAP1 PUSH2 0xEEB JUMP JUMPDEST PUSH1 0x40 MLOAD DUP1 SWAP2 SUB SWAP1 RETURN JUMPDEST PUSH2 0x119 PUSH1 0x4 DUP1 CALLDATASIZE SUB DUP2 ADD SWAP1 PUSH2 0x114 SWAP2 SWAP1 PUSH2 0xF59 JUMP JUMPDEST PUSH2 0x387 JUMP JUMPDEST PUSH1 0x40 MLOAD PUSH2 0x127 SWAP3 SWAP2 SWAP1 PUSH2 0xFD9 JUMP JUMPDEST PUSH1 0x40 MLOAD DUP1 SWAP2 SUB SWAP1 RETURN JUMPDEST PUSH2 0x138 PUSH2 0x3D3 JUMP JUMPDEST STOP JUMPDEST PUSH2 0x142 PUSH2 0x3E6 JUMP JUMPDEST PUSH1 0x40 MLOAD PUSH2 0x14F SWAP2 SWAP1 PUSH2 0x1020 JUMP JUMPDEST PUSH1 0x40 MLOAD DUP1 SWAP2 SUB SWAP1 RETURN JUMPDEST PUSH2 0x160 PUSH2 0x40A JUMP JUMPDEST PUSH1 0x40 MLOAD PUSH2 0x16D SWAP2 SWAP1 PUSH2 0x1048 JUMP JUMPDEST PUSH1 0x40 MLOAD DUP1 SWAP2 SUB SWAP1 RETURN JUMPDEST PUSH2 0x190 PUSH1 0x4 DUP1 CALLDATASIZE SUB DUP2 ADD SWAP1 PUSH2 0x18B SWAP2 SWAP1 PUSH2 0xF59 JUMP JUMPDEST PUSH2 0x431 JUMP JUMPDEST STOP JUMPDEST PUSH2 0x1AC PUSH1 0x4 DUP1 CALLDATASIZE SUB DUP2 ADD SWAP1 PUSH2 0x1A7 SWAP2 SWAP1 PUSH2 0x1061 JUMP JUMPDEST PUSH2 0x4F3 JUMP JUMPDEST STOP JUMPDEST PUSH32 0x0 DUP2 JUMP JUMPDEST PUSH2 0x1DA PUSH2 0x577 JUMP JUMPDEST DUP2 PUSH20 0xFFFFFFFFFFFFFFFFFFFFFFFFFFFFFFFFFFFFFFFF AND PUSH4 0xA9059CBB PUSH2 0x1FE PUSH2 0x40A JUMP JUMPDEST DUP4 PUSH1 0x40 MLOAD DUP4 PUSH4 0xFFFFFFFF AND PUSH1 0xE0 SHL DUP2 MSTORE PUSH1 0x4 ADD PUSH2 0x21C SWAP3 SWAP2 SWAP1 PUSH2 0x108C JUMP JUMPDEST PUSH1 0x20 PUSH1 0x40 MLOAD DUP1 DUP4 SUB DUP2 PUSH0 DUP8 GAS CALL ISZERO DUP1 ISZERO PUSH2 0x238 JUMPI RETURNDATASIZE PUSH0 DUP1 RETURNDATACOPY RETURNDATASIZE PUSH0 REVERT JUMPDEST POP POP POP POP PUSH1 0x40 MLOAD RETURNDATASIZE PUSH1 0x1F NOT PUSH1 0x1F DUP3 ADD AND DUP3 ADD DUP1 PUSH1 0x40 MSTORE POP DUP2 ADD SWAP1 PUSH2 0x25C SWAP2 SWAP1 PUSH2 0x10DD JUMP JUMPDEST POP POP POP JUMP JUMPDEST PUSH0 DUP1 DUP4 DUP4 DUP2 ADD SWAP1 PUSH2 0x272 SWAP2 SWAP1 PUSH2 0x1250 JUMP JUMPDEST SWAP1 POP DUP8 PUSH20 0xFFFFFFFFFFFFFFFFFFFFFFFFFFFFFFFFFFFFFFFF AND PUSH4 0x95EA7B3 PUSH32 0x0 DUP9 DUP11 PUSH2 0x2BD SWAP2 SWAP1 PUSH2 0x12C4 JUMP JUMPDEST PUSH1 0x40 MLOAD DUP4 PUSH4 0xFFFFFFFF AND PUSH1 0xE0 SHL DUP2 MSTORE PUSH1 0x4 ADD PUSH2 0x2DA SWAP3 SWAP2 SWAP1 PUSH2 0x108C JUMP JUMPDEST PUSH1 0x20 PUSH1 0x40 MLOAD DUP1 DUP4 SUB DUP2 PUSH0 DUP8 GAS CALL ISZERO DUP1 ISZERO PUSH2 0x2F6 JUMPI RETURNDATASIZE PUSH0 DUP1 RETURNDATACOPY RETURNDATASIZE PUSH0 REVERT JUMPDEST POP POP POP POP PUSH1 0x40 MLOAD RETURNDATASIZE PUSH1 0x1F NOT PUSH1 0x1F DUP3 ADD AND DUP3 ADD DUP1 PUSH1 0x40 MSTORE POP DUP2 ADD SWAP1 PUSH2 0x31A SWAP2 SWAP1 PUSH2 0x10DD JUMP JUMPDEST POP PUSH0 PUSH2 0x327 DUP10 DUP10 DUP5 PUSH2 0x5FE JUMP JUMPDEST SWAP1 POP DUP7 DUP9 PUSH2 0x335 SWAP2 SWAP1 PUSH2 0x12C4 JUMP JUMPDEST DUP2 LT ISZERO PUSH2 0x377 JUMPI PUSH1 0x40 MLOAD PUSH32 0x8C379A000000000000000000000000000000000000000000000000000000000 DUP2 MSTORE PUSH1 0x4 ADD PUSH2 0x36E SWAP1 PUSH2 0x1377 JUMP JUMPDEST PUSH1 0x40 MLOAD DUP1 SWAP2 SUB SWAP1 REVERT JUMPDEST PUSH1 0x1 SWAP3 POP POP POP SWAP7 SWAP6 POP POP POP POP POP POP JUMP JUMPDEST PUSH0 DUP1 PUSH0 PUSH2 0x396 DUP8 DUP8 DUP8 DUP8 PUSH2 0x9D1 JUMP JUMPDEST SWAP1 POP PUSH0 PUSH2 0x2710 PUSH1 0x9 DUP9 PUSH2 0x3A9 SWAP2 SWAP1 PUSH2 0x1395 JUMP JUMPDEST PUSH2 0x3B3 SWAP2 SWAP1 PUSH2 0x1403 JUMP JUMPDEST SWAP1 POP DUP1 DUP8 PUSH2 0x3C1 SWAP2 SWAP1 PUSH2 0x12C4 JUMP JUMPDEST DUP3 GT DUP3 SWAP4 POP SWAP4 POP POP POP SWAP5 POP SWAP5 SWAP3 POP POP POP JUMP JUMPDEST PUSH2 0x3DB PUSH2 0x577 JUMP JUMPDEST PUSH2 0x3E4 PUSH0 PUSH2 0xBC2 JUMP JUMPDEST JUMP JUMPDEST PUSH32 0x0 DUP2 JUMP JUMPDEST PUSH0 DUP1 PUSH0 SWAP1 SLOAD SWAP1 PUSH2 0x100 EXP SWAP1 DIV PUSH20 0xFFFFFFFFFFFFFFFFFFFFFFFFFFFFFFFFFFFFFFFF AND SWAP1 POP SWAP1 JUMP JUMPDEST PUSH2 0x439 PUSH2 0x577 JUMP JUMPDEST PUSH0 DUP3 DUP3 PUSH1 0x40 MLOAD PUSH1 0x20 ADD PUSH2 0x44D SWAP3 SWAP2 SWAP1 PUSH2 0x14EF JUMP JUMPDEST PUSH1 0x40 MLOAD PUSH1 0x20 DUP2 DUP4 SUB SUB DUP2 MSTORE SWAP1 PUSH1 0x40 MSTORE SWAP1 POP PUSH32 0x0 PUSH20 0xFFFFFFFFFFFFFFFFFFFFFFFFFFFFFFFFFFFFFFFF AND PUSH4 0x42B0B77C ADDRESS DUP8 DUP8 DUP6 PUSH0 PUSH1 0x40 MLOAD DUP7 PUSH4 0xFFFFFFFF AND PUSH1 0xE0 SHL DUP2 MSTORE PUSH1 0x4 ADD PUSH2 0x4BF SWAP6 SWAP5 SWAP4 SWAP3 SWAP2 SWAP1 PUSH2 0x15B7 JUMP JUMPDEST PUSH0 PUSH1 0x40 MLOAD DUP1 DUP4 SUB DUP2 PUSH0 DUP8 DUP1 EXTCODESIZE ISZERO DUP1 ISZERO PUSH2 0x4D6 JUMPI PUSH0 DUP1 REVERT JUMPDEST POP GAS CALL ISZERO DUP1 ISZERO PUSH2 0x4E8 JUMPI RETURNDATASIZE PUSH0 DUP1 RETURNDATACOPY RETURNDATASIZE PUSH0 REVERT JUMPDEST POP POP POP POP POP POP POP POP POP JUMP JUMPDEST PUSH2 0x4FB PUSH2 0x577 JUMP JUMPDEST PUSH0 PUSH20 0xFFFFFFFFFFFFFFFFFFFFFFFFFFFFFFFFFFFFFFFF AND DUP2 PUSH20 0xFFFFFFFFFFFFFFFFFFFFFFFFFFFFFFFFFFFFFFFF AND SUB PUSH2 0x56B JUMPI PUSH0 PUSH1 0x40 MLOAD PUSH32 0x1E4FBDF700000000000000000000000000000000000000000000000000000000 DUP2 MSTORE PUSH1 0x4 ADD PUSH2 0x562 SWAP2 SWAP1 PUSH2 0x1048 JUMP JUMPDEST PUSH1 0x40 MLOAD DUP1 SWAP2 SUB SWAP1 REVERT JUMPDEST PUSH2 0x574 DUP2 PUSH2 0xBC2 JUMP JUMPDEST POP JUMP JUMPDEST PUSH2 0x57F PUSH2 0xC83 JUMP JUMPDEST PUSH20 0xFFFFFFFFFFFFFFFFFFFFFFFFFFFFFFFFFFFFFFFF AND PUSH2 0x59D PUSH2 0x40A JUMP JUMPDEST PUSH20 0xFFFFFFFFFFFFFFFFFFFFFFFFFFFFFFFFFFFFFFFF AND EQ PUSH2 0x5FC JUMPI PUSH2 0x5C0 PUSH2 0xC83 JUMP JUMPDEST PUSH1 0x40 MLOAD PUSH32 0x118CDAA700000000000000000000000000000000000000000000000000000000 DUP2 MSTORE PUSH1 0x4 ADD PUSH2 0x5F3 SWAP2 SWAP1 PUSH2 0x1048 JUMP JUMPDEST PUSH1 0x40 MLOAD DUP1 SWAP2 SUB SWAP1 REVERT JUMPDEST JUMP JUMPDEST PUSH0 DUP1 DUP5 PUSH20 0xFFFFFFFFFFFFFFFFFFFFFFFFFFFFFFFFFFFFFFFF AND PUSH4 0x70A08231 ADDRESS PUSH1 0x40 MLOAD DUP3 PUSH4 0xFFFFFFFF AND PUSH1 0xE0 SHL DUP2 MSTORE PUSH1 0x4 ADD PUSH2 0x639 SWAP2 SWAP1 PUSH2 0x1048 JUMP JUMPDEST PUSH1 0x20 PUSH1 0x40 MLOAD DUP1 DUP4 SUB DUP2 DUP7 GAS STATICCALL ISZERO DUP1 ISZERO PUSH2 0x654 JUMPI RETURNDATASIZE PUSH0 DUP1 RETURNDATACOPY RETURNDATASIZE PUSH0 REVERT JUMPDEST POP POP POP POP PUSH1 0x40 MLOAD RETURNDATASIZE PUSH1 0x1F NOT PUSH1 0x1F DUP3 ADD AND DUP3 ADD DUP1 PUSH1 0x40 MSTORE POP DUP2 ADD SWAP1 PUSH2 0x678 SWAP2 SWAP1 PUSH2 0x1623 JUMP JUMPDEST SWAP1 POP PUSH0 JUMPDEST PUSH1 0x1 DUP5 MLOAD PUSH2 0x68A SWAP2 SWAP1 PUSH2 0x164E JUMP JUMPDEST DUP2 LT ISZERO PUSH2 0x94E JUMPI PUSH0 DUP7 PUSH20 0xFFFFFFFFFFFFFFFFFFFFFFFFFFFFFFFFFFFFFFFF AND PUSH4 0x70A08231 ADDRESS PUSH1 0x40 MLOAD DUP3 PUSH4 0xFFFFFFFF AND PUSH1 0xE0 SHL DUP2 MSTORE PUSH1 0x4 ADD PUSH2 0x6CB SWAP2 SWAP1 PUSH2 0x1048 JUMP JUMPDEST PUSH1 0x20 PUSH1 0x40 MLOAD DUP1 DUP4 SUB DUP2 DUP7 GAS STATICCALL ISZERO DUP1 ISZERO PUSH2 0x6E6 JUMPI RETURNDATASIZE PUSH0 DUP1 RETURNDATACOPY RETURNDATASIZE PUSH0 REVERT JUMPDEST POP POP POP POP PUSH1 0x40 MLOAD RETURNDATASIZE PUSH1 0x1F NOT PUSH1 0x1F DUP3 ADD AND DUP3 ADD DUP1 PUSH1 0x40 MSTORE POP DUP2 ADD SWAP1 PUSH2 0x70A SWAP2 SWAP1 PUSH2 0x1623 JUMP JUMPDEST SWAP1 POP DUP7 PUSH20 0xFFFFFFFFFFFFFFFFFFFFFFFFFFFFFFFFFFFFFFFF AND PUSH4 0x95EA7B3 DUP7 DUP5 DUP2 MLOAD DUP2 LT PUSH2 0x73B JUMPI PUSH2 0x73A PUSH2 0x1681 JUMP JUMPDEST JUMPDEST PUSH1 0x20 MUL PUSH1 0x20 ADD ADD MLOAD DUP4 PUSH1 0x40 MLOAD DUP4 PUSH4 0xFFFFFFFF AND PUSH1 0xE0 SHL DUP2 MSTORE PUSH1 0x4 ADD PUSH2 0x761 SWAP3 SWAP2 SWAP1 PUSH2 0x108C JUMP JUMPDEST PUSH1 0x20 PUSH1 0x40 MLOAD DUP1 DUP4 SUB DUP2 PUSH0 DUP8 GAS CALL ISZERO DUP1 ISZERO PUSH2 0x77D JUMPI RETURNDATASIZE PUSH0 DUP1 RETURNDATACOPY RETURNDATASIZE PUSH0 REVERT JUMPDEST POP POP POP POP PUSH1 0x40 MLOAD RETURNDATASIZE PUSH1 0x1F NOT PUSH1 0x1F DUP3 ADD AND DUP3 ADD DUP1 PUSH1 0x40 MSTORE POP DUP2 ADD SWAP1 PUSH2 0x7A1 SWAP2 SWAP1 PUSH2 0x10DD JUMP JUMPDEST POP PUSH0 PUSH1 0x2 PUSH8 0xFFFFFFFFFFFFFFFF DUP2 GT ISZERO PUSH2 0x7BE JUMPI PUSH2 0x7BD PUSH2 0x1118 JUMP JUMPDEST JUMPDEST PUSH1 0x40 MLOAD SWAP1 DUP1 DUP3 MSTORE DUP1 PUSH1 0x20 MUL PUSH1 0x20 ADD DUP3 ADD PUSH1 0x40 MSTORE DUP1 ISZERO PUSH2 0x7EC JUMPI DUP2 PUSH1 0x20 ADD PUSH1 0x20 DUP3 MUL DUP1 CALLDATASIZE DUP4 CALLDATACOPY DUP1 DUP3 ADD SWAP2 POP POP SWAP1 POP JUMPDEST POP SWAP1 POP DUP8 DUP2 PUSH0 DUP2 MLOAD DUP2 LT PUSH2 0x803 JUMPI PUSH2 0x802 PUSH2 0x1681 JUMP JUMPDEST JUMPDEST PUSH1 0x20 MUL PUSH1 0x20 ADD ADD SWAP1 PUSH20 0xFFFFFFFFFFFFFFFFFFFFFFFFFFFFFFFFFFFFFFFF AND SWAP1 DUP2 PUSH20 0xFFFFFFFFFFFFFFFFFFFFFFFFFFFFFFFFFFFFFFFF AND DUP2 MSTORE POP POP PUSH20 0xC02AAA39B223FE8D0A0E5C4F27EAD9083C756CC2 DUP2 PUSH1 0x1 DUP2 MLOAD DUP2 LT PUSH2 0x866 JUMPI PUSH2 0x865 PUSH2 0x1681 JUMP JUMPDEST JUMPDEST PUSH1 0x20 MUL PUSH1 0x20 ADD ADD SWAP1 PUSH20 0xFFFFFFFFFFFFFFFFFFFFFFFFFFFFFFFFFFFFFFFF AND SWAP1 DUP2 PUSH20 0xFFFFFFFFFFFFFFFFFFFFFFFFFFFFFFFFFFFFFFFF AND DUP2 MSTORE POP POP DUP6 DUP4 DUP2 MLOAD DUP2 LT PUSH2 0x8B3 JUMPI PUSH2 0x8B2 PUSH2 0x1681 JUMP JUMPDEST JUMPDEST PUSH1 0x20 MUL PUSH1 0x20 ADD ADD MLOAD PUSH20 0xFFFFFFFFFFFFFFFFFFFFFFFFFFFFFFFFFFFFFFFF AND PUSH4 0x38ED1739 DUP4 PUSH0 DUP5 ADDRESS TIMESTAMP PUSH1 0x40 MLOAD DUP7 PUSH4 0xFFFFFFFF AND PUSH1 0xE0 SHL DUP2 MSTORE PUSH1 0x4 ADD PUSH2 0x8FB SWAP6 SWAP5 SWAP4 SWAP3 SWAP2 SWAP1 PUSH2 0x175F JUMP JUMPDEST PUSH0 PUSH1 0x40 MLOAD DUP1 DUP4 SUB DUP2 PUSH0 DUP8 GAS CALL ISZERO DUP1 ISZERO PUSH2 0x916 JUMPI RETURNDATASIZE PUSH0 DUP1 RETURNDATACOPY RETURNDATASIZE PUSH0 REVERT JUMPDEST POP POP POP POP PUSH1 0x40 MLOAD RETURNDATASIZE PUSH0 DUP3 RETURNDATACOPY RETURNDATASIZE PUSH1 0x1F NOT PUSH1 0x1F DUP3 ADD AND DUP3 ADD DUP1 PUSH1 0x40 MSTORE POP DUP2 ADD SWAP1 PUSH2 0x93E SWAP2 SWAP1 PUSH2 0x1877 JUMP JUMPDEST POP POP POP DUP1 DUP1 PUSH1 0x1 ADD SWAP2 POP POP PUSH2 0x67C JUMP JUMPDEST POP DUP5 PUSH20 0xFFFFFFFFFFFFFFFFFFFFFFFFFFFFFFFFFFFFFFFF AND PUSH4 0x70A08231 ADDRESS PUSH1 0x40 MLOAD DUP3 PUSH4 0xFFFFFFFF AND PUSH1 0xE0 SHL DUP2 MSTORE PUSH1 0x4 ADD PUSH2 0x988 SWAP2 SWAP1 PUSH2 0x1048 JUMP JUMPDEST PUSH1 0x20 PUSH1 0x40 MLOAD DUP1 DUP4 SUB DUP2 DUP7 GAS STATICCALL ISZERO DUP1 ISZERO PUSH2 0x9A3 JUMPI RETURNDATASIZE PUSH0 DUP1 RETURNDATACOPY RETURNDATASIZE PUSH0 REVERT JUMPDEST POP POP POP POP PUSH1 0x40 MLOAD RETURNDATASIZE PUSH1 0x1F NOT PUSH1 0x1F DUP3 ADD AND DUP3 ADD DUP1 PUSH1 0x40 MSTORE POP DUP2 ADD SWAP1 PUSH2 0x9C7 SWAP2 SWAP1 PUSH2 0x1623 JUMP JUMPDEST SWAP2 POP POP SWAP4 SWAP3 POP POP POP JUMP JUMPDEST PUSH0 DUP1 DUP5 SWAP1 POP PUSH0 JUMPDEST DUP5 DUP5 SWAP1 POP DUP2 LT ISZERO PUSH2 0xBB5 JUMPI PUSH0 PUSH1 0x2 PUSH8 0xFFFFFFFFFFFFFFFF DUP2 GT ISZERO PUSH2 0x9FF JUMPI PUSH2 0x9FE PUSH2 0x1118 JUMP JUMPDEST JUMPDEST PUSH1 0x40 MLOAD SWAP1 DUP1 DUP3 MSTORE DUP1 PUSH1 0x20 MUL PUSH1 0x20 ADD DUP3 ADD PUSH1 0x40 MSTORE DUP1 ISZERO PUSH2 0xA2D JUMPI DUP2 PUSH1 0x20 ADD PUSH1 0x20 DUP3 MUL DUP1 CALLDATASIZE DUP4 CALLDATACOPY DUP1 DUP3 ADD SWAP2 POP POP SWAP1 POP JUMPDEST POP SWAP1 POP DUP8 DUP2 PUSH0 DUP2 MLOAD DUP2 LT PUSH2 0xA44 JUMPI PUSH2 0xA43 PUSH2 0x1681 JUMP JUMPDEST JUMPDEST PUSH1 0x20 MUL PUSH1 0x20 ADD ADD SWAP1 PUSH20 0xFFFFFFFFFFFFFFFFFFFFFFFFFFFFFFFFFFFFFFFF AND SWAP1 DUP2 PUSH20 0xFFFFFFFFFFFFFFFFFFFFFFFFFFFFFFFFFFFFFFFF AND DUP2 MSTORE POP POP PUSH20 0xC02AAA39B223FE8D0A0E5C4F27EAD9083C756CC2 DUP2 PUSH1 0x1 DUP2 MLOAD DUP2 LT PUSH2 0xAA7 JUMPI PUSH2 0xAA6 PUSH2 0x1681 JUMP JUMPDEST JUMPDEST PUSH1 0x20 MUL PUSH1 0x20 ADD ADD SWAP1 PUSH20 0xFFFFFFFFFFFFFFFFFFFFFFFFFFFFFFFFFFFFFFFF AND SWAP1 DUP2 PUSH20 0xFFFFFFFFFFFFFFFFFFFFFFFFFFFFFFFFFFFFFFFF AND DUP2 MSTORE POP POP PUSH0 DUP7 DUP7 DUP5 DUP2 DUP2 LT PUSH2 0xAF5 JUMPI PUSH2 0xAF4 PUSH2 0x1681 JUMP JUMPDEST JUMPDEST SWAP1 POP PUSH1 0x20 MUL ADD PUSH1 0x20 DUP2 ADD SWAP1 PUSH2 0xB0A SWAP2 SWAP1 PUSH2 0x1061 JUMP JUMPDEST PUSH20 0xFFFFFFFFFFFFFFFFFFFFFFFFFFFFFFFFFFFFFFFF AND PUSH4 0xD06CA61F DUP6 DUP5 PUSH1 0x40 MLOAD DUP4 PUSH4 0xFFFFFFFF AND PUSH1 0xE0 SHL DUP2 MSTORE PUSH1 0x4 ADD PUSH2 0xB44 SWAP3 SWAP2 SWAP1 PUSH2 0x18BE JUMP JUMPDEST PUSH0 PUSH1 0x40 MLOAD DUP1 DUP4 SUB DUP2 DUP7 GAS STATICCALL ISZERO DUP1 ISZERO PUSH2 0xB5E JUMPI RETURNDATASIZE PUSH0 DUP1 RETURNDATACOPY RETURNDATASIZE PUSH0 REVERT JUMPDEST POP POP POP POP PUSH1 0x40 MLOAD RETURNDATASIZE PUSH0 DUP3 RETURNDATACOPY RETURNDATASIZE PUSH1 0x1F NOT PUSH1 0x1F DUP3 ADD AND DUP3 ADD DUP1 PUSH1 0x40 MSTORE POP DUP2 ADD SWAP1 PUSH2 0xB86 SWAP2 SWAP1 PUSH2 0x1877 JUMP JUMPDEST SWAP1 POP DUP1 PUSH1 0x1 DUP2 MLOAD DUP2 LT PUSH2 0xB9C JUMPI PUSH2 0xB9B PUSH2 0x1681 JUMP JUMPDEST JUMPDEST PUSH1 0x20 MUL PUSH1 0x20 ADD ADD MLOAD SWAP4 POP POP POP DUP1 DUP1 PUSH1 0x1 ADD SWAP2 POP POP PUSH2 0x9D8 JUMP JUMPDEST POP DUP1 SWAP2 POP POP SWAP5 SWAP4 POP POP POP POP JUMP JUMPDEST PUSH0 DUP1 PUSH0 SWAP1 SLOAD SWAP1 PUSH2 0x100 EXP SWAP1 DIV PUSH20 0xFFFFFFFFFFFFFFFFFFFFFFFFFFFFFFFFFFFFFFFF AND SWAP1 POP DUP2 PUSH0 DUP1 PUSH2 0x100 EXP DUP2 SLOAD DUP2 PUSH20 0xFFFFFFFFFFFFFFFFFFFFFFFFFFFFFFFFFFFFFFFF MUL NOT AND SWAP1 DUP4 PUSH20 0xFFFFFFFFFFFFFFFFFFFFFFFFFFFFFFFFFFFFFFFF AND MUL OR SWAP1 SSTORE POP DUP2 PUSH20 0xFFFFFFFFFFFFFFFFFFFFFFFFFFFFFFFFFFFFFFFF AND DUP2 PUSH20 0xFFFFFFFFFFFFFFFFFFFFFFFFFFFFFFFFFFFFFFFF AND PUSH32 0x8BE0079C531659141344CD1FD0A4F28419497F9722A3DAAFE3B4186F6B6457E0 PUSH1 0x40 MLOAD PUSH1 0x40 MLOAD DUP1 SWAP2 SUB SWAP1 LOG3 POP POP JUMP JUMPDEST PUSH0 CALLER SWAP1 POP SWAP1 JUMP JUMPDEST PUSH0 PUSH20 0xFFFFFFFFFFFFFFFFFFFFFFFFFFFFFFFFFFFFFFFF DUP3 AND SWAP1 POP SWAP2 SWAP1 POP JUMP JUMPDEST PUSH0 DUP2 SWAP1 POP SWAP2 SWAP1 POP JUMP JUMPDEST PUSH0 PUSH2 0xCCC PUSH2 0xCC7 PUSH2 0xCC2 DUP5 PUSH2 0xC8A JUMP JUMPDEST PUSH2 0xCA9 JUMP JUMPDEST PUSH2 0xC8A JUMP JUMPDEST SWAP1 POP SWAP2 SWAP1 POP JUMP JUMPDEST PUSH0 PUSH2 0xCDD DUP3 PUSH2 0xCB2 JUMP JUMPDEST SWAP1 POP SWAP2 SWAP1 POP JUMP JUMPDEST PUSH0 PUSH2 0xCEE DUP3 PUSH2 0xCD3 JUMP JUMPDEST SWAP1 POP SWAP2 SWAP1 POP JUMP JUMPDEST PUSH2 0xCFE DUP2 PUSH2 0xCE4 JUMP JUMPDEST DUP3 MSTORE POP POP JUMP JUMPDEST PUSH0 PUSH1 0x20 DUP3 ADD SWAP1 POP PUSH2 0xD17 PUSH0 DUP4 ADD DUP5 PUSH2 0xCF5 JUMP JUMPDEST SWAP3 SWAP2 POP POP JUMP JUMPDEST PUSH0 PUSH1 0x40 MLOAD SWAP1 POP SWAP1 JUMP JUMPDEST PUSH0 DUP1 REVERT JUMPDEST PUSH0 DUP1 REVERT JUMPDEST PUSH0 PUSH2 0xD38 DUP3 PUSH2 0xC8A JUMP JUMPDEST SWAP1 POP SWAP2 SWAP1 POP JUMP JUMPDEST PUSH2 0xD48 DUP2 PUSH2 0xD2E JUMP JUMPDEST DUP2 EQ PUSH2 0xD52 JUMPI PUSH0 DUP1 REVERT JUMPDEST POP JUMP JUMPDEST PUSH0 DUP2 CALLDATALOAD SWAP1 POP PUSH2 0xD63 DUP2 PUSH2 0xD3F JUMP JUMPDEST SWAP3 SWAP2 POP POP JUMP JUMPDEST PUSH0 DUP2 SWAP1 POP SWAP2 SWAP1 POP JUMP JUMPDEST PUSH2 0xD7B DUP2 PUSH2 0xD69 JUMP JUMPDEST DUP2 EQ PUSH2 0xD85 JUMPI PUSH0 DUP1 REVERT JUMPDEST POP JUMP JUMPDEST PUSH0 DUP2 CALLDATALOAD SWAP1 POP PUSH2 0xD96 DUP2 PUSH2 0xD72 JUMP JUMPDEST SWAP3 SWAP2 POP POP JUMP JUMPDEST PUSH0 DUP1 PUSH1 0x40 DUP4 DUP6 SUB SLT ISZERO PUSH2 0xDB2 JUMPI PUSH2 0xDB1 PUSH2 0xD26 JUMP JUMPDEST JUMPDEST PUSH0 PUSH2 0xDBF DUP6 DUP3 DUP7 ADD PUSH2 0xD55 JUMP JUMPDEST SWAP3 POP POP PUSH1 0x20 PUSH2 0xDD0 DUP6 DUP3 DUP7 ADD PUSH2 0xD88 JUMP JUMPDEST SWAP2 POP POP SWAP3 POP SWAP3 SWAP1 POP JUMP JUMPDEST PUSH0 DUP1 REVERT JUMPDEST PUSH0 DUP1 REVERT JUMPDEST PUSH0 DUP1 REVERT JUMPDEST PUSH0 DUP1 DUP4 PUSH1 0x1F DUP5 ADD SLT PUSH2 0xDFB JUMPI PUSH2 0xDFA PUSH2 0xDDA JUMP JUMPDEST JUMPDEST DUP3 CALLDATALOAD SWAP1 POP PUSH8 0xFFFFFFFFFFFFFFFF DUP2 GT ISZERO PUSH2 0xE18 JUMPI PUSH2 0xE17 PUSH2 0xDDE JUMP JUMPDEST JUMPDEST PUSH1 0x20 DUP4 ADD SWAP2 POP DUP4 PUSH1 0x1 DUP3 MUL DUP4 ADD GT ISZERO PUSH2 0xE34 JUMPI PUSH2 0xE33 PUSH2 0xDE2 JUMP JUMPDEST JUMPDEST SWAP3 POP SWAP3 SWAP1 POP JUMP JUMPDEST PUSH0 DUP1 PUSH0 DUP1 PUSH0 DUP1 PUSH1 0xA0 DUP8 DUP10 SUB SLT ISZERO PUSH2 0xE55 JUMPI PUSH2 0xE54 PUSH2 0xD26 JUMP JUMPDEST JUMPDEST PUSH0 PUSH2 0xE62 DUP10 DUP3 DUP11 ADD PUSH2 0xD55 JUMP JUMPDEST SWAP7 POP POP PUSH1 0x20 PUSH2 0xE73 DUP10 DUP3 DUP11 ADD PUSH2 0xD88 JUMP JUMPDEST SWAP6 POP POP PUSH1 0x40 PUSH2 0xE84 DUP10 DUP3 DUP11 ADD PUSH2 0xD88 JUMP JUMPDEST SWAP5 POP POP PUSH1 0x60 PUSH2 0xE95 DUP10 DUP3 DUP11 ADD PUSH2 0xD55 JUMP JUMPDEST SWAP4 POP POP PUSH1 0x80 DUP8 ADD CALLDATALOAD PUSH8 0xFFFFFFFFFFFFFFFF DUP2 GT ISZERO PUSH2 0xEB6 JUMPI PUSH2 0xEB5 PUSH2 0xD2A JUMP JUMPDEST JUMPDEST PUSH2 0xEC2 DUP10 DUP3 DUP11 ADD PUSH2 0xDE6 JUMP JUMPDEST SWAP3 POP SWAP3 POP POP SWAP3 SWAP6 POP SWAP3 SWAP6 POP SWAP3 SWAP6 JUMP JUMPDEST PUSH0 DUP2 ISZERO ISZERO SWAP1 POP SWAP2 SWAP1 POP JUMP JUMPDEST PUSH2 0xEE5 DUP2 PUSH2 0xED1 JUMP JUMPDEST DUP3 MSTORE POP POP JUMP JUMPDEST PUSH0 PUSH1 0x20 DUP3 ADD SWAP1 POP PUSH2 0xEFE PUSH0 DUP4 ADD DUP5 PUSH2 0xEDC JUMP JUMPDEST SWAP3 SWAP2 POP POP JUMP JUMPDEST PUSH0 DUP1 DUP4 PUSH1 0x1F DUP5 ADD SLT PUSH2 0xF19 JUMPI PUSH2 0xF18 PUSH2 0xDDA JUMP JUMPDEST JUMPDEST DUP3 CALLDATALOAD SWAP1 POP PUSH8 0xFFFFFFFFFFFFFFFF DUP2 GT ISZERO PUSH2 0xF36 JUMPI PUSH2 0xF35 PUSH2 0xDDE JUMP JUMPDEST JUMPDEST PUSH1 0x20 DUP4 ADD SWAP2 POP DUP4 PUSH1 0x20 DUP3 MUL DUP4 ADD GT ISZERO PUSH2 0xF52 JUMPI PUSH2 0xF51 PUSH2 0xDE2 JUMP JUMPDEST JUMPDEST SWAP3 POP SWAP3 SWAP1 POP JUMP JUMPDEST PUSH0 DUP1 PUSH0 DUP1 PUSH1 0x60 DUP6 DUP8 SUB SLT ISZERO PUSH2 0xF71 JUMPI PUSH2 0xF70 PUSH2 0xD26 JUMP JUMPDEST JUMPDEST PUSH0 PUSH2 0xF7E DUP8 DUP3 DUP9 ADD PUSH2 0xD55 JUMP JUMPDEST SWAP5 POP POP PUSH1 0x20 PUSH2 0xF8F DUP8 DUP3 DUP9 ADD PUSH2 0xD88 JUMP JUMPDEST SWAP4 POP POP PUSH1 0x40 DUP6 ADD CALLDATALOAD PUSH8 0xFFFFFFFFFFFFFFFF DUP2 GT ISZERO PUSH2 0xFB0 JUMPI PUSH2 0xFAF PUSH2 0xD2A JUMP JUMPDEST JUMPDEST PUSH2 0xFBC DUP8 DUP3 DUP9 ADD PUSH2 0xF04 JUMP JUMPDEST SWAP3 POP SWAP3 POP POP SWAP3 SWAP6 SWAP2 SWAP5 POP SWAP3 POP JUMP JUMPDEST PUSH2 0xFD3 DUP2 PUSH2 0xD69 JUMP JUMPDEST DUP3 MSTORE POP POP JUMP JUMPDEST PUSH0 PUSH1 0x40 DUP3 ADD SWAP1 POP PUSH2 0xFEC PUSH0 DUP4 ADD DUP6 PUSH2 0xEDC JUMP JUMPDEST PUSH2 0xFF9 PUSH1 0x20 DUP4 ADD DUP5 PUSH2 0xFCA JUMP JUMPDEST SWAP4 SWAP3 POP POP POP JUMP JUMPDEST PUSH0 PUSH2 0x100A DUP3 PUSH2 0xCD3 JUMP JUMPDEST SWAP1 POP SWAP2 SWAP1 POP JUMP JUMPDEST PUSH2 0x101A DUP2 PUSH2 0x1000 JUMP JUMPDEST DUP3 MSTORE POP POP JUMP JUMPDEST PUSH0 PUSH1 0x20 DUP3 ADD SWAP1 POP PUSH2 0x1033 PUSH0 DUP4 ADD DUP5 PUSH2 0x1011 JUMP JUMPDEST SWAP3 SWAP2 POP POP JUMP JUMPDEST PUSH2 0x1042 DUP2 PUSH2 0xD2E JUMP JUMPDEST DUP3 MSTORE POP POP JUMP JUMPDEST PUSH0 PUSH1 0x20 DUP3 ADD SWAP1 POP PUSH2 0x105B PUSH0 DUP4 ADD DUP5 PUSH2 0x1039 JUMP JUMPDEST SWAP3 SWAP2 POP POP JUMP JUMPDEST PUSH0 PUSH1 0x20 DUP3 DUP5 SUB SLT ISZERO PUSH2 0x1076 JUMPI PUSH2 0x1075 PUSH2 0xD26 JUMP JUMPDEST JUMPDEST PUSH0 PUSH2 0x1083 DUP5 DUP3 DUP6 ADD PUSH2 0xD55 JUMP JUMPDEST SWAP2 POP POP SWAP3 SWAP2 POP POP JUMP JUMPDEST PUSH0 PUSH1 0x40 DUP3 ADD SWAP1 POP PUSH2 0x109F PUSH0 DUP4 ADD DUP6 PUSH2 0x1039 JUMP JUMPDEST PUSH2 0x10AC PUSH1 0x20 DUP4 ADD DUP5 PUSH2 0xFCA JUMP JUMPDEST SWAP4 SWAP3 POP POP POP JUMP JUMPDEST PUSH2 0x10BC DUP2 PUSH2 0xED1 JUMP JUMPDEST DUP2 EQ PUSH2 0x10C6 JUMPI PUSH0 DUP1 REVERT JUMPDEST POP JUMP JUMPDEST PUSH0 DUP2 MLOAD SWAP1 POP PUSH2 0x10D7 DUP2 PUSH2 0x10B3 JUMP JUMPDEST SWAP3 SWAP2 POP POP JUMP JUMPDEST PUSH0 PUSH1 0x20 DUP3 DUP5 SUB SLT ISZERO PUSH2 0x10F2 JUMPI PUSH2 0x10F1 PUSH2 0xD26 JUMP JUMPDEST JUMPDEST PUSH0 PUSH2 0x10FF DUP5 DUP3 DUP6 ADD PUSH2 0x10C9 JUMP JUMPDEST SWAP2 POP POP SWAP3 SWAP2 POP POP JUMP JUMPDEST PUSH0 PUSH1 0x1F NOT PUSH1 0x1F DUP4 ADD AND SWAP1 POP SWAP2 SWAP1 POP JUMP JUMPDEST PUSH32 0x4E487B7100000000000000000000000000000000000000000000000000000000 PUSH0 MSTORE PUSH1 0x41 PUSH1 0x4 MSTORE PUSH1 0x24 PUSH0 REVERT JUMPDEST PUSH2 0x114E DUP3 PUSH2 0x1108 JUMP JUMPDEST DUP2 ADD DUP2 DUP2 LT PUSH8 0xFFFFFFFFFFFFFFFF DUP3 GT OR ISZERO PUSH2 0x116D JUMPI PUSH2 0x116C PUSH2 0x1118 JUMP JUMPDEST JUMPDEST DUP1 PUSH1 0x40 MSTORE POP POP POP JUMP JUMPDEST PUSH0 PUSH2 0x117F PUSH2 0xD1D JUMP JUMPDEST SWAP1 POP PUSH2 0x118B DUP3 DUP3 PUSH2 0x1145 JUMP JUMPDEST SWAP2 SWAP1 POP JUMP JUMPDEST PUSH0 PUSH8 0xFFFFFFFFFFFFFFFF DUP3 GT ISZERO PUSH2 0x11AA JUMPI PUSH2 0x11A9 PUSH2 0x1118 JUMP JUMPDEST JUMPDEST PUSH1 0x20 DUP3 MUL SWAP1 POP PUSH1 0x20 DUP2 ADD SWAP1 POP SWAP2 SWAP1 POP JUMP JUMPDEST PUSH0 PUSH2 0x11CD PUSH2 0x11C8 DUP5 PUSH2 0x1190 JUMP JUMPDEST PUSH2 0x1176 JUMP JUMPDEST SWAP1 POP DUP1 DUP4 DUP3 MSTORE PUSH1 0x20 DUP3 ADD SWAP1 POP PUSH1 0x20 DUP5 MUL DUP4 ADD DUP6 DUP2 GT ISZERO PUSH2 0x11F0 JUMPI PUSH2 0x11EF PUSH2 0xDE2 JUMP JUMPDEST JUMPDEST DUP4 JUMPDEST DUP2 DUP2 LT ISZERO PUSH2 0x1219 JUMPI DUP1 PUSH2 0x1205 DUP9 DUP3 PUSH2 0xD55 JUMP JUMPDEST DUP5 MSTORE PUSH1 0x20 DUP5 ADD SWAP4 POP POP PUSH1 0x20 DUP2 ADD SWAP1 POP PUSH2 0x11F2 JUMP JUMPDEST POP POP POP SWAP4 SWAP3 POP POP POP JUMP JUMPDEST PUSH0 DUP3 PUSH1 0x1F DUP4 ADD SLT PUSH2 0x1237 JUMPI PUSH2 0x1236 PUSH2 0xDDA JUMP JUMPDEST JUMPDEST DUP2 CALLDATALOAD PUSH2 0x1247 DUP5 DUP3 PUSH1 0x20 DUP7 ADD PUSH2 0x11BB JUMP JUMPDEST SWAP2 POP POP SWAP3 SWAP2 POP POP JUMP JUMPDEST PUSH0 PUSH1 0x20 DUP3 DUP5 SUB SLT ISZERO PUSH2 0x1265 JUMPI PUSH2 0x1264 PUSH2 0xD26 JUMP JUMPDEST JUMPDEST PUSH0 DUP3 ADD CALLDATALOAD PUSH8 0xFFFFFFFFFFFFFFFF DUP2 GT ISZERO PUSH2 0x1282 JUMPI PUSH2 0x1281 PUSH2 0xD2A JUMP JUMPDEST JUMPDEST PUSH2 0x128E DUP5 DUP3 DUP6 ADD PUSH2 0x1223 JUMP JUMPDEST SWAP2 POP POP SWAP3 SWAP2 POP POP JUMP JUMPDEST PUSH32 0x4E487B7100000000000000000000000000000000000000000000000000000000 PUSH0 MSTORE PUSH1 0x11 PUSH1 0x4 MSTORE PUSH1 0x24 PUSH0 REVERT JUMPDEST PUSH0 PUSH2 0x12CE DUP3 PUSH2 0xD69 JUMP JUMPDEST SWAP2 POP PUSH2 0x12D9 DUP4 PUSH2 0xD69 JUMP JUMPDEST SWAP3 POP DUP3 DUP3 ADD SWAP1 POP DUP1 DUP3 GT ISZERO PUSH2 0x12F1 JUMPI PUSH2 0x12F0 PUSH2 0x1297 JUMP JUMPDEST JUMPDEST SWAP3 SWAP2 POP POP JUMP JUMPDEST PUSH0 DUP3 DUP3 MSTORE PUSH1 0x20 DUP3 ADD SWAP1 POP SWAP3 SWAP2 POP POP JUMP JUMPDEST PUSH32 0x496E73756666696369656E742066756E647320746F20726570617920666C6173 PUSH0 DUP3 ADD MSTORE PUSH32 0x68206C6F616E0000000000000000000000000000000000000000000000000000 PUSH1 0x20 DUP3 ADD MSTORE POP JUMP JUMPDEST PUSH0 PUSH2 0x1361 PUSH1 0x26 DUP4 PUSH2 0x12F7 JUMP JUMPDEST SWAP2 POP PUSH2 0x136C DUP3 PUSH2 0x1307 JUMP JUMPDEST PUSH1 0x40 DUP3 ADD SWAP1 POP SWAP2 SWAP1 POP JUMP JUMPDEST PUSH0 PUSH1 0x20 DUP3 ADD SWAP1 POP DUP2 DUP2 SUB PUSH0 DUP4 ADD MSTORE PUSH2 0x138E DUP2 PUSH2 0x1355 JUMP JUMPDEST SWAP1 POP SWAP2 SWAP1 POP JUMP JUMPDEST PUSH0 PUSH2 0x139F DUP3 PUSH2 0xD69 JUMP JUMPDEST SWAP2 POP PUSH2 0x13AA DUP4 PUSH2 0xD69 JUMP JUMPDEST SWAP3 POP DUP3 DUP3 MUL PUSH2 0x13B8 DUP2 PUSH2 0xD69 JUMP JUMPDEST SWAP2 POP DUP3 DUP3 DIV DUP5 EQ DUP4 ISZERO OR PUSH2 0x13CF JUMPI PUSH2 0x13CE PUSH2 0x1297 JUMP JUMPDEST JUMPDEST POP SWAP3 SWAP2 POP POP JUMP JUMPDEST PUSH32 0x4E487B7100000000000000000000000000000000000000000000000000000000 PUSH0 MSTORE PUSH1 0x12 PUSH1 0x4 MSTORE PUSH1 0x24 PUSH0 REVERT JUMPDEST PUSH0 PUSH2 0x140D DUP3 PUSH2 0xD69 JUMP JUMPDEST SWAP2 POP PUSH2 0x1418 DUP4 PUSH2 0xD69 JUMP JUMPDEST SWAP3 POP DUP3 PUSH2 0x1428 JUMPI PUSH2 0x1427 PUSH2 0x13D6 JUMP JUMPDEST JUMPDEST DUP3 DUP3 DIV SWAP1 POP SWAP3 SWAP2 POP POP JUMP JUMPDEST PUSH0 DUP3 DUP3 MSTORE PUSH1 0x20 DUP3 ADD SWAP1 POP SWAP3 SWAP2 POP POP JUMP JUMPDEST PUSH0 DUP2 SWAP1 POP SWAP2 SWAP1 POP JUMP JUMPDEST PUSH2 0x1455 DUP2 PUSH2 0xD2E JUMP JUMPDEST DUP3 MSTORE POP POP JUMP JUMPDEST PUSH0 PUSH2 0x1466 DUP4 DUP4 PUSH2 0x144C JUMP JUMPDEST PUSH1 0x20 DUP4 ADD SWAP1 POP SWAP3 SWAP2 POP POP JUMP JUMPDEST PUSH0 PUSH2 0x1480 PUSH1 0x20 DUP5 ADD DUP5 PUSH2 0xD55 JUMP JUMPDEST SWAP1 POP SWAP3 SWAP2 POP POP JUMP JUMPDEST PUSH0 PUSH1 0x20 DUP3 ADD SWAP1 POP SWAP2 SWAP1 POP JUMP JUMPDEST PUSH0 PUSH2 0x149F DUP4 DUP6 PUSH2 0x1433 JUMP JUMPDEST SWAP4 POP PUSH2 0x14AA DUP3 PUSH2 0x1443 JUMP JUMPDEST DUP1 PUSH0 JUMPDEST DUP6 DUP2 LT ISZERO PUSH2 0x14E2 JUMPI PUSH2 0x14BF DUP3 DUP5 PUSH2 0x1472 JUMP JUMPDEST PUSH2 0x14C9 DUP9 DUP3 PUSH2 0x145B JUMP JUMPDEST SWAP8 POP PUSH2 0x14D4 DUP4 PUSH2 0x1488 JUMP JUMPDEST SWAP3 POP POP PUSH1 0x1 DUP2 ADD SWAP1 POP PUSH2 0x14AD JUMP JUMPDEST POP DUP6 SWAP3 POP POP POP SWAP4 SWAP3 POP POP POP JUMP JUMPDEST PUSH0 PUSH1 0x20 DUP3 ADD SWAP1 POP DUP2 DUP2 SUB PUSH0 DUP4 ADD MSTORE PUSH2 0x1508 DUP2 DUP5 DUP7 PUSH2 0x1494 JUMP JUMPDEST SWAP1 POP SWAP4 SWAP3 POP POP POP JUMP JUMPDEST PUSH0 DUP2 MLOAD SWAP1 POP SWAP2 SWAP1 POP JUMP JUMPDEST PUSH0 DUP3 DUP3 MSTORE PUSH1 0x20 DUP3 ADD SWAP1 POP SWAP3 SWAP2 POP POP JUMP JUMPDEST DUP3 DUP2 DUP4 MCOPY PUSH0 DUP4 DUP4 ADD MSTORE POP POP POP JUMP JUMPDEST PUSH0 PUSH2 0x1543 DUP3 PUSH2 0x1511 JUMP JUMPDEST PUSH2 0x154D DUP2 DUP6 PUSH2 0x151B JUMP JUMPDEST SWAP4 POP PUSH2 0x155D DUP2 DUP6 PUSH1 0x20 DUP7 ADD PUSH2 0x152B JUMP JUMPDEST PUSH2 0x1566 DUP2 PUSH2 0x1108 JUMP JUMPDEST DUP5 ADD SWAP2 POP POP SWAP3 SWAP2 POP POP JUMP JUMPDEST PUSH0 DUP2 SWAP1 POP SWAP2 SWAP1 POP JUMP JUMPDEST PUSH0 PUSH2 0xFFFF DUP3 AND SWAP1 POP SWAP2 SWAP1 POP JUMP JUMPDEST PUSH0 PUSH2 0x15A1 PUSH2 0x159C PUSH2 0x1597 DUP5 PUSH2 0x1571 JUMP JUMPDEST PUSH2 0xCA9 JUMP JUMPDEST PUSH2 0x157A JUMP JUMPDEST SWAP1 POP SWAP2 SWAP1 POP JUMP JUMPDEST PUSH2 0x15B1 DUP2 PUSH2 0x1587 JUMP JUMPDEST DUP3 MSTORE POP POP JUMP JUMPDEST PUSH0 PUSH1 0xA0 DUP3 ADD SWAP1 POP PUSH2 0x15CA PUSH0 DUP4 ADD DUP9 PUSH2 0x1039 JUMP JUMPDEST PUSH2 0x15D7 PUSH1 0x20 DUP4 ADD DUP8 PUSH2 0x1039 JUMP JUMPDEST PUSH2 0x15E4 PUSH1 0x40 DUP4 ADD DUP7 PUSH2 0xFCA JUMP JUMPDEST DUP2 DUP2 SUB PUSH1 0x60 DUP4 ADD MSTORE PUSH2 0x15F6 DUP2 DUP6 PUSH2 0x1539 JUMP JUMPDEST SWAP1 POP PUSH2 0x1605 PUSH1 0x80 DUP4 ADD DUP5 PUSH2 0x15A8 JUMP JUMPDEST SWAP7 SWAP6 POP POP POP POP POP POP JUMP JUMPDEST PUSH0 DUP2 MLOAD SWAP1 POP PUSH2 0x161D DUP2 PUSH2 0xD72 JUMP JUMPDEST SWAP3 SWAP2 POP POP JUMP JUMPDEST PUSH0 PUSH1 0x20 DUP3 DUP5 SUB SLT ISZERO PUSH2 0x1638 JUMPI PUSH2 0x1637 PUSH2 0xD26 JUMP JUMPDEST JUMPDEST PUSH0 PUSH2 0x1645 DUP5 DUP3 DUP6 ADD PUSH2 0x160F JUMP JUMPDEST SWAP2 POP POP SWAP3 SWAP2 POP POP JUMP JUMPDEST PUSH0 PUSH2 0x1658 DUP3 PUSH2 0xD69 JUMP JUMPDEST SWAP2 POP PUSH2 0x1663 DUP4 PUSH2 0xD69 JUMP JUMPDEST SWAP3 POP DUP3 DUP3 SUB SWAP1 POP DUP2 DUP2 GT ISZERO PUSH2 0x167B JUMPI PUSH2 0x167A PUSH2 0x1297 JUMP JUMPDEST JUMPDEST SWAP3 SWAP2 POP POP JUMP JUMPDEST PUSH32 0x4E487B7100000000000000000000000000000000000000000000000000000000 PUSH0 MSTORE PUSH1 0x32 PUSH1 0x4 MSTORE PUSH1 0x24 PUSH0 REVERT JUMPDEST PUSH0 PUSH2 0x16C8 PUSH2 0x16C3 PUSH2 0x16BE DUP5 PUSH2 0x1571 JUMP JUMPDEST PUSH2 0xCA9 JUMP JUMPDEST PUSH2 0xD69 JUMP JUMPDEST SWAP1 POP SWAP2 SWAP1 POP JUMP JUMPDEST PUSH2 0x16D8 DUP2 PUSH2 0x16AE JUMP JUMPDEST DUP3 MSTORE POP POP JUMP JUMPDEST PUSH0 DUP2 MLOAD SWAP1 POP SWAP2 SWAP1 POP JUMP JUMPDEST PUSH0 DUP2 SWAP1 POP PUSH1 0x20 DUP3 ADD SWAP1 POP SWAP2 SWAP1 POP JUMP JUMPDEST PUSH0 PUSH1 0x20 DUP3 ADD SWAP1 POP SWAP2 SWAP1 POP JUMP JUMPDEST PUSH0 PUSH2 0x170D DUP3 PUSH2 0x16DE JUMP JUMPDEST PUSH2 0x1717 DUP2 DUP6 PUSH2 0x1433 JUMP JUMPDEST SWAP4 POP PUSH2 0x1722 DUP4 PUSH2 0x16E8 JUMP JUMPDEST DUP1 PUSH0 JUMPDEST DUP4 DUP2 LT ISZERO PUSH2 0x1752 JUMPI DUP2 MLOAD PUSH2 0x1739 DUP9 DUP3 PUSH2 0x145B JUMP JUMPDEST SWAP8 POP PUSH2 0x1744 DUP4 PUSH2 0x16F7 JUMP JUMPDEST SWAP3 POP POP PUSH1 0x1 DUP2 ADD SWAP1 POP PUSH2 0x1725 JUMP JUMPDEST POP DUP6 SWAP4 POP POP POP POP SWAP3 SWAP2 POP POP JUMP JUMPDEST PUSH0 PUSH1 0xA0 DUP3 ADD SWAP1 POP PUSH2 0x1772 PUSH0 DUP4 ADD DUP9 PUSH2 0xFCA JUMP JUMPDEST PUSH2 0x177F PUSH1 0x20 DUP4 ADD DUP8 PUSH2 0x16CF JUMP JUMPDEST DUP2 DUP2 SUB PUSH1 0x40 DUP4 ADD MSTORE PUSH2 0x1791 DUP2 DUP7 PUSH2 0x1703 JUMP JUMPDEST SWAP1 POP PUSH2 0x17A0 PUSH1 0x60 DUP4 ADD DUP6 PUSH2 0x1039 JUMP JUMPDEST PUSH2 0x17AD PUSH1 0x80 DUP4 ADD DUP5 PUSH2 0xFCA JUMP JUMPDEST SWAP7 SWAP6 POP POP POP POP POP POP JUMP JUMPDEST PUSH0 PUSH8 0xFFFFFFFFFFFFFFFF DUP3 GT ISZERO PUSH2 0x17D1 JUMPI PUSH2 0x17D0 PUSH2 0x1118 JUMP JUMPDEST JUMPDEST PUSH1 0x20 DUP3 MUL SWAP1 POP PUSH1 0x20 DUP2 ADD SWAP1 POP SWAP2 SWAP1 POP JUMP JUMPDEST PUSH0 PUSH2 0x17F4 PUSH2 0x17EF DUP5 PUSH2 0x17B7 JUMP JUMPDEST PUSH2 0x1176 JUMP JUMPDEST SWAP1 POP DUP1 DUP4 DUP3 MSTORE PUSH1 0x20 DUP3 ADD SWAP1 POP PUSH1 0x20 DUP5 MUL DUP4 ADD DUP6 DUP2 GT ISZERO PUSH2 0x1817 JUMPI PUSH2 0x1816 PUSH2 0xDE2 JUMP JUMPDEST JUMPDEST DUP4 JUMPDEST DUP2 DUP2 LT ISZERO PUSH2 0x1840 JUMPI DUP1 PUSH2 0x182C DUP9 DUP3 PUSH2 0x160F JUMP JUMPDEST DUP5 MSTORE PUSH1 0x20 DUP5 ADD SWAP4 POP POP PUSH1 0x20 DUP2 ADD SWAP1 POP PUSH2 0x1819 JUMP JUMPDEST POP POP POP SWAP4 SWAP3 POP POP POP JUMP JUMPDEST PUSH0 DUP3 PUSH1 0x1F DUP4 ADD SLT PUSH2 0x185E JUMPI PUSH2 0x185D PUSH2 0xDDA JUMP JUMPDEST JUMPDEST DUP2 MLOAD PUSH2 0x186E DUP5 DUP3 PUSH1 0x20 DUP7 ADD PUSH2 0x17E2 JUMP JUMPDEST SWAP2 POP POP SWAP3 SWAP2 POP POP JUMP JUMPDEST PUSH0 PUSH1 0x20 DUP3 DUP5 SUB SLT ISZERO PUSH2 0x188C JUMPI PUSH2 0x188B PUSH2 0xD26 JUMP JUMPDEST JUMPDEST PUSH0 DUP3 ADD MLOAD PUSH8 0xFFFFFFFFFFFFFFFF DUP2 GT ISZERO PUSH2 0x18A9 JUMPI PUSH2 0x18A8 PUSH2 0xD2A JUMP JUMPDEST JUMPDEST PUSH2 0x18B5 DUP5 DUP3 DUP6 ADD PUSH2 0x184A JUMP JUMPDEST SWAP2 POP POP SWAP3 SWAP2 POP POP JUMP JUMPDEST PUSH0 PUSH1 0x40 DUP3 ADD SWAP1 POP PUSH2 0x18D1 PUSH0 DUP4 ADD DUP6 PUSH2 0xFCA JUMP JUMPDEST DUP2 DUP2 SUB PUSH1 0x20 DUP4 ADD MSTORE PUSH2 0x18E3 DUP2 DUP5 PUSH2 0x1703 JUMP JUMPDEST SWAP1 POP SWAP4 SWAP3 POP POP POP JUMP INVALID LOG2 PUSH5 0x6970667358 0x22 SLT KECCAK256 PUSH28 0xD25E0383C21FDF7039D97940BCE9FAAA7B04971B839D090766C0DBDD OR BASEFEE PUSH11 0x64736F6C634300081A0033 "
				},
				"gasEstimates": {
					"creation": {
						"codeDepositCost": "1286800",
						"executionCost": "infinite",
						"totalCost": "infinite"
					},
					"external": {
						"ADDRESSES_PROVIDER()": "infinite",
						"POOL()": "infinite",
						"checkArbitrageProfitability(address,uint256,address[])": "infinite",
						"executeFlashLoan(address,uint256,address[])": "infinite",
						"executeOperation(address,uint256,uint256,address,bytes)": "infinite",
						"owner()": "2559",
						"renounceOwnership()": "infinite",
						"transferOwnership(address)": "infinite",
						"withdrawTokens(address,uint256)": "infinite"
					},
					"internal": {
						"executeArbitrage(address,uint256,address[] memory)": "infinite",
						"simulateArbitrage(address,uint256,address[] calldata)": "infinite"
					}
				},
				"methodIdentifiers": {
					"ADDRESSES_PROVIDER()": "0542975c",
					"POOL()": "7535d246",
					"checkArbitrageProfitability(address,uint256,address[])": "245c94d3",
					"executeFlashLoan(address,uint256,address[])": "9cbf194d",
					"executeOperation(address,uint256,uint256,address,bytes)": "1b11d0ff",
					"owner()": "8da5cb5b",
					"renounceOwnership()": "715018a6",
					"transferOwnership(address)": "f2fde38b",
					"withdrawTokens(address,uint256)": "06b091f9"
				}
			},
			"storageLayout": {
				"storage": [
					{
						"astId": 1283,
						"contract": "contracts/ArbitrageBot.sol:ArbitrageBot",
						"label": "_owner",
						"offset": 0,
						"slot": "0",
						"type": "t_address"
					}
				],
				"types": {
					"t_address": {
						"encoding": "inplace",
						"label": "address",
						"numberOfBytes": "20"
					}
				}
			},
			"userdoc": {
				"kind": "user",
				"methods": {
					"executeOperation(address,uint256,uint256,address,bytes)": {
						"notice": "Executes an operation after receiving the flash-borrowed asset"
					}
				},
				"version": 1
			}
		}
	}
}