{
	"contracts/core/logger.sol": {
		"FlexibleLogger": {
			"abi": [
				{
					"anonymous": false,
					"inputs": [
						{
							"indexed": false,
							"internalType": "string",
							"name": "message",
							"type": "string"
						},
						{
							"indexed": false,
							"internalType": "address",
							"name": "value",
							"type": "address"
						}
					],
					"name": "LogAddress",
					"type": "event"
				},
				{
					"anonymous": false,
					"inputs": [
						{
							"indexed": false,
							"internalType": "string",
							"name": "message",
							"type": "string"
						},
						{
							"indexed": false,
							"internalType": "bool",
							"name": "value",
							"type": "bool"
						}
					],
					"name": "LogBool",
					"type": "event"
				},
				{
					"anonymous": false,
					"inputs": [
						{
							"indexed": false,
							"internalType": "string",
							"name": "message",
							"type": "string"
						},
						{
							"indexed": false,
							"internalType": "bytes",
							"name": "value",
							"type": "bytes"
						}
					],
					"name": "LogBytes",
					"type": "event"
				},
				{
					"anonymous": false,
					"inputs": [
						{
							"indexed": false,
							"internalType": "string",
							"name": "message",
							"type": "string"
						},
						{
							"indexed": false,
							"internalType": "bytes32",
							"name": "value",
							"type": "bytes32"
						}
					],
					"name": "LogBytes32",
					"type": "event"
				},
				{
					"anonymous": false,
					"inputs": [
						{
							"indexed": false,
							"internalType": "string",
							"name": "message",
							"type": "string"
						},
						{
							"indexed": false,
							"internalType": "int256",
							"name": "value",
							"type": "int256"
						}
					],
					"name": "LogInt",
					"type": "event"
				},
				{
					"anonymous": false,
					"inputs": [
						{
							"indexed": false,
							"internalType": "string",
							"name": "message",
							"type": "string"
						},
						{
							"indexed": false,
							"internalType": "string",
							"name": "value",
							"type": "string"
						}
					],
					"name": "LogString",
					"type": "event"
				},
				{
					"anonymous": false,
					"inputs": [
						{
							"indexed": false,
							"internalType": "string",
							"name": "message",
							"type": "string"
						},
						{
							"indexed": false,
							"internalType": "uint256",
							"name": "value",
							"type": "uint256"
						}
					],
					"name": "LogUint",
					"type": "event"
				},
				{
					"inputs": [
						{
							"internalType": "string",
							"name": "message",
							"type": "string"
						},
						{
							"internalType": "bytes",
							"name": "value",
							"type": "bytes"
						}
					],
					"name": "log",
					"outputs": [],
					"stateMutability": "nonpayable",
					"type": "function"
				},
				{
					"inputs": [
						{
							"internalType": "string",
							"name": "message",
							"type": "string"
						},
						{
							"internalType": "address",
							"name": "value",
							"type": "address"
						}
					],
					"name": "log",
					"outputs": [],
					"stateMutability": "nonpayable",
					"type": "function"
				},
				{
					"inputs": [
						{
							"internalType": "string",
							"name": "message",
							"type": "string"
						},
						{
							"internalType": "bytes32",
							"name": "value",
							"type": "bytes32"
						}
					],
					"name": "log",
					"outputs": [],
					"stateMutability": "nonpayable",
					"type": "function"
				},
				{
					"inputs": [
						{
							"internalType": "string",
							"name": "message",
							"type": "string"
						},
						{
							"internalType": "int256",
							"name": "value",
							"type": "int256"
						}
					],
					"name": "log",
					"outputs": [],
					"stateMutability": "nonpayable",
					"type": "function"
				},
				{
					"inputs": [
						{
							"internalType": "string",
							"name": "message",
							"type": "string"
						}
					],
					"name": "log",
					"outputs": [],
					"stateMutability": "nonpayable",
					"type": "function"
				},
				{
					"inputs": [
						{
							"internalType": "string",
							"name": "message",
							"type": "string"
						},
						{
							"internalType": "string",
							"name": "value",
							"type": "string"
						}
					],
					"name": "log",
					"outputs": [],
					"stateMutability": "nonpayable",
					"type": "function"
				},
				{
					"inputs": [
						{
							"internalType": "string",
							"name": "message",
							"type": "string"
						},
						{
							"internalType": "uint256",
							"name": "value",
							"type": "uint256"
						}
					],
					"name": "log",
					"outputs": [],
					"stateMutability": "nonpayable",
					"type": "function"
				},
				{
					"inputs": [
						{
							"internalType": "string",
							"name": "message",
							"type": "string"
						},
						{
							"internalType": "bool",
							"name": "value",
							"type": "bool"
						}
					],
					"name": "log",
					"outputs": [],
					"stateMutability": "nonpayable",
					"type": "function"
				}
			],
			"devdoc": {
				"kind": "dev",
				"methods": {},
				"version": 1
			},
			"evm": {
				"assembly": "    /* \"contracts/core/logger.sol\":83:1395  contract FlexibleLogger {... */\n  mstore(0x40, 0x80)\n  callvalue\n  dup1\n  iszero\n  tag_1\n  jumpi\n  0x00\n  dup1\n  revert\ntag_1:\n  pop\n  dataSize(sub_0)\n  dup1\n  dataOffset(sub_0)\n  0x00\n  codecopy\n  0x00\n  return\nstop\n\nsub_0: assembly {\n        /* \"contracts/core/logger.sol\":83:1395  contract FlexibleLogger {... */\n      mstore(0x40, 0x80)\n      callvalue\n      dup1\n      iszero\n      tag_1\n      jumpi\n      0x00\n      dup1\n      revert\n    tag_1:\n      pop\n      jumpi(tag_2, lt(calldatasize, 0x04))\n      shr(0xe0, calldataload(0x00))\n      dup1\n      0x41304fac\n      gt\n      tag_11\n      jumpi\n      dup1\n      0x41304fac\n      eq\n      tag_7\n      jumpi\n      dup1\n      0x4b5c4277\n      eq\n      tag_8\n      jumpi\n      dup1\n      0xb60e72cc\n      eq\n      tag_9\n      jumpi\n      dup1\n      0xc3b55635\n      eq\n      tag_10\n      jumpi\n      jump(tag_2)\n    tag_11:\n      dup1\n      0x23cdd8e8\n      eq\n      tag_3\n      jumpi\n      dup1\n      0x319af333\n      eq\n      tag_4\n      jumpi\n      dup1\n      0x3692d61a\n      eq\n      tag_5\n      jumpi\n      dup1\n      0x3ca6268e\n      eq\n      tag_6\n      jumpi\n    tag_2:\n      0x00\n      dup1\n      revert\n        /* \"contracts/core/logger.sol\":1074:1183  function log(string memory message, bytes memory value) public {... */\n    tag_3:\n      tag_12\n      0x04\n      dup1\n      calldatasize\n      sub\n      dup2\n      add\n      swap1\n      tag_13\n      swap2\n      swap1\n      tag_14\n      jump\t// in\n    tag_13:\n      tag_15\n      jump\t// in\n    tag_12:\n      stop\n        /* \"contracts/core/logger.sol\":727:833  function log(string memory message, address value) public {... */\n    tag_4:\n      tag_16\n      0x04\n      dup1\n      calldatasize\n      sub\n      dup2\n      add\n      swap1\n      tag_17\n      swap2\n      swap1\n      tag_18\n      jump\t// in\n    tag_17:\n      tag_19\n      jump\t// in\n    tag_16:\n      stop\n        /* \"contracts/core/logger.sol\":1193:1299  function log(string memory message, bytes32 value) public {... */\n    tag_5:\n      tag_20\n      0x04\n      dup1\n      calldatasize\n      sub\n      dup2\n      add\n      swap1\n      tag_21\n      swap2\n      swap1\n      tag_22\n      jump\t// in\n    tag_21:\n      tag_23\n      jump\t// in\n    tag_20:\n      stop\n        /* \"contracts/core/logger.sol\":616:717  function log(string memory message, int256 value) public {... */\n    tag_6:\n      tag_24\n      0x04\n      dup1\n      calldatasize\n      sub\n      dup2\n      add\n      swap1\n      tag_25\n      swap2\n      swap1\n      tag_26\n      jump\t// in\n    tag_25:\n      tag_27\n      jump\t// in\n    tag_24:\n      stop\n        /* \"contracts/core/logger.sol\":1305:1393  function log(string memory message) public {... */\n    tag_7:\n      tag_28\n      0x04\n      dup1\n      calldatasize\n      sub\n      dup2\n      add\n      swap1\n      tag_29\n      swap2\n      swap1\n      tag_30\n      jump\t// in\n    tag_29:\n      tag_31\n      jump\t// in\n    tag_28:\n      stop\n        /* \"contracts/core/logger.sol\":953:1064  function log(string memory message, string memory value) public {... */\n    tag_8:\n      tag_32\n      0x04\n      dup1\n      calldatasize\n      sub\n      dup2\n      add\n      swap1\n      tag_33\n      swap2\n      swap1\n      tag_34\n      jump\t// in\n    tag_33:\n      tag_35\n      jump\t// in\n    tag_32:\n      stop\n        /* \"contracts/core/logger.sol\":503:606  function log(string memory message, uint256 value) public {... */\n    tag_9:\n      tag_36\n      0x04\n      dup1\n      calldatasize\n      sub\n      dup2\n      add\n      swap1\n      tag_37\n      swap2\n      swap1\n      tag_38\n      jump\t// in\n    tag_37:\n      tag_39\n      jump\t// in\n    tag_36:\n      stop\n        /* \"contracts/core/logger.sol\":843:943  function log(string memory message, bool value) public {... */\n    tag_10:\n      tag_40\n      0x04\n      dup1\n      calldatasize\n      sub\n      dup2\n      add\n      swap1\n      tag_41\n      swap2\n      swap1\n      tag_42\n      jump\t// in\n    tag_41:\n      tag_43\n      jump\t// in\n    tag_40:\n      stop\n        /* \"contracts/core/logger.sol\":1074:1183  function log(string memory message, bytes memory value) public {... */\n    tag_15:\n        /* \"contracts/core/logger.sol\":1152:1176  LogBytes(message, value) */\n      0xe8407a0209fa99ec3a7228aff140c3d3e68bd279391739c7e0b65cd406cc93b5\n        /* \"contracts/core/logger.sol\":1161:1168  message */\n      dup3\n        /* \"contracts/core/logger.sol\":1170:1175  value */\n      dup3\n        /* \"contracts/core/logger.sol\":1152:1176  LogBytes(message, value) */\n      mload(0x40)\n      tag_45\n      swap3\n      swap2\n      swap1\n      tag_46\n      jump\t// in\n    tag_45:\n      mload(0x40)\n      dup1\n      swap2\n      sub\n      swap1\n      log1\n        /* \"contracts/core/logger.sol\":1074:1183  function log(string memory message, bytes memory value) public {... */\n      pop\n      pop\n      jump\t// out\n        /* \"contracts/core/logger.sol\":727:833  function log(string memory message, address value) public {... */\n    tag_19:\n        /* \"contracts/core/logger.sol\":800:826  LogAddress(message, value) */\n      0x62ddffe5b5108385f7a590f100e1ee414ad9551a31f089e64e82998440785e1e\n        /* \"contracts/core/logger.sol\":811:818  message */\n      dup3\n        /* \"contracts/core/logger.sol\":820:825  value */\n      dup3\n        /* \"contracts/core/logger.sol\":800:826  LogAddress(message, value) */\n      mload(0x40)\n      tag_48\n      swap3\n      swap2\n      swap1\n      tag_49\n      jump\t// in\n    tag_48:\n      mload(0x40)\n      dup1\n      swap2\n      sub\n      swap1\n      log1\n        /* \"contracts/core/logger.sol\":727:833  function log(string memory message, address value) public {... */\n      pop\n      pop\n      jump\t// out\n        /* \"contracts/core/logger.sol\":1193:1299  function log(string memory message, bytes32 value) public {... */\n    tag_23:\n        /* \"contracts/core/logger.sol\":1266:1292  LogBytes32(message, value) */\n      0x02d93529bba9d141e5e06733c52c7e6fbcb1149586adb5c24064b522ab26f1d7\n        /* \"contracts/core/logger.sol\":1277:1284  message */\n      dup3\n        /* \"contracts/core/logger.sol\":1286:1291  value */\n      dup3\n        /* \"contracts/core/logger.sol\":1266:1292  LogBytes32(message, value) */\n      mload(0x40)\n      tag_51\n      swap3\n      swap2\n      swap1\n      tag_52\n      jump\t// in\n    tag_51:\n      mload(0x40)\n      dup1\n      swap2\n      sub\n      swap1\n      log1\n        /* \"contracts/core/logger.sol\":1193:1299  function log(string memory message, bytes32 value) public {... */\n      pop\n      pop\n      jump\t// out\n        /* \"contracts/core/logger.sol\":616:717  function log(string memory message, int256 value) public {... */\n    tag_27:\n        /* \"contracts/core/logger.sol\":688:710  LogInt(message, value) */\n      0x6a837ff3973aa4181e7b9f07756f8b7ee366dd85a36655d2cb42cd47f10b9638\n        /* \"contracts/core/logger.sol\":695:702  message */\n      dup3\n        /* \"contracts/core/logger.sol\":704:709  value */\n      dup3\n        /* \"contracts/core/logger.sol\":688:710  LogInt(message, value) */\n      mload(0x40)\n      tag_54\n      swap3\n      swap2\n      swap1\n      tag_55\n      jump\t// in\n    tag_54:\n      mload(0x40)\n      dup1\n      swap2\n      sub\n      swap1\n      log1\n        /* \"contracts/core/logger.sol\":616:717  function log(string memory message, int256 value) public {... */\n      pop\n      pop\n      jump\t// out\n        /* \"contracts/core/logger.sol\":1305:1393  function log(string memory message) public {... */\n    tag_31:\n        /* \"contracts/core/logger.sol\":1363:1386  LogBytes32(message, \"\") */\n      0x02d93529bba9d141e5e06733c52c7e6fbcb1149586adb5c24064b522ab26f1d7\n        /* \"contracts/core/logger.sol\":1374:1381  message */\n      dup2\n        /* \"contracts/core/logger.sol\":1363:1386  LogBytes32(message, \"\") */\n      mload(0x40)\n      tag_57\n      swap2\n      swap1\n      tag_58\n      jump\t// in\n    tag_57:\n      mload(0x40)\n      dup1\n      swap2\n      sub\n      swap1\n      log1\n        /* \"contracts/core/logger.sol\":1305:1393  function log(string memory message) public {... */\n      pop\n      jump\t// out\n        /* \"contracts/core/logger.sol\":953:1064  function log(string memory message, string memory value) public {... */\n    tag_35:\n        /* \"contracts/core/logger.sol\":1032:1057  LogString(message, value) */\n      0x27a8767ed172b48d7cf6dbb25d2840c5fa91ef78fa6e05c13c82763d099f03ca\n        /* \"contracts/core/logger.sol\":1042:1049  message */\n      dup3\n        /* \"contracts/core/logger.sol\":1051:1056  value */\n      dup3\n        /* \"contracts/core/logger.sol\":1032:1057  LogString(message, value) */\n      mload(0x40)\n      tag_60\n      swap3\n      swap2\n      swap1\n      tag_61\n      jump\t// in\n    tag_60:\n      mload(0x40)\n      dup1\n      swap2\n      sub\n      swap1\n      log1\n        /* \"contracts/core/logger.sol\":953:1064  function log(string memory message, string memory value) public {... */\n      pop\n      pop\n      jump\t// out\n        /* \"contracts/core/logger.sol\":503:606  function log(string memory message, uint256 value) public {... */\n    tag_39:\n        /* \"contracts/core/logger.sol\":576:599  LogUint(message, value) */\n      0x941296a39ea107bde685522318a4b6c2b544904a5dd82a512748ca2cf839bef7\n        /* \"contracts/core/logger.sol\":584:591  message */\n      dup3\n        /* \"contracts/core/logger.sol\":593:598  value */\n      dup3\n        /* \"contracts/core/logger.sol\":576:599  LogUint(message, value) */\n      mload(0x40)\n      tag_63\n      swap3\n      swap2\n      swap1\n      tag_64\n      jump\t// in\n    tag_63:\n      mload(0x40)\n      dup1\n      swap2\n      sub\n      swap1\n      log1\n        /* \"contracts/core/logger.sol\":503:606  function log(string memory message, uint256 value) public {... */\n      pop\n      pop\n      jump\t// out\n        /* \"contracts/core/logger.sol\":843:943  function log(string memory message, bool value) public {... */\n    tag_43:\n        /* \"contracts/core/logger.sol\":913:936  LogBool(message, value) */\n      0x4c34c2f9a78632f29fa59aaed5514cb742fd9fbcfd7ccc2c03c85f2bbc621c47\n        /* \"contracts/core/logger.sol\":921:928  message */\n      dup3\n        /* \"contracts/core/logger.sol\":930:935  value */\n      dup3\n        /* \"contracts/core/logger.sol\":913:936  LogBool(message, value) */\n      mload(0x40)\n      tag_66\n      swap3\n      swap2\n      swap1\n      tag_67\n      jump\t// in\n    tag_66:\n      mload(0x40)\n      dup1\n      swap2\n      sub\n      swap1\n      log1\n        /* \"contracts/core/logger.sol\":843:943  function log(string memory message, bool value) public {... */\n      pop\n      pop\n      jump\t// out\n        /* \"#utility.yul\":7:82   */\n    tag_68:\n        /* \"#utility.yul\":40:46   */\n      0x00\n        /* \"#utility.yul\":73:75   */\n      0x40\n        /* \"#utility.yul\":67:76   */\n      mload\n        /* \"#utility.yul\":57:76   */\n      swap1\n      pop\n        /* \"#utility.yul\":7:82   */\n      swap1\n      jump\t// out\n        /* \"#utility.yul\":88:205   */\n    tag_69:\n        /* \"#utility.yul\":197:198   */\n      0x00\n        /* \"#utility.yul\":194:195   */\n      dup1\n        /* \"#utility.yul\":187:199   */\n      revert\n        /* \"#utility.yul\":211:328   */\n    tag_70:\n        /* \"#utility.yul\":320:321   */\n      0x00\n        /* \"#utility.yul\":317:318   */\n      dup1\n        /* \"#utility.yul\":310:322   */\n      revert\n        /* \"#utility.yul\":334:451   */\n    tag_71:\n        /* \"#utility.yul\":443:444   */\n      0x00\n        /* \"#utility.yul\":440:441   */\n      dup1\n        /* \"#utility.yul\":433:445   */\n      revert\n        /* \"#utility.yul\":457:574   */\n    tag_72:\n        /* \"#utility.yul\":566:567   */\n      0x00\n        /* \"#utility.yul\":563:564   */\n      dup1\n        /* \"#utility.yul\":556:568   */\n      revert\n        /* \"#utility.yul\":580:682   */\n    tag_73:\n        /* \"#utility.yul\":621:627   */\n      0x00\n        /* \"#utility.yul\":672:674   */\n      0x1f\n        /* \"#utility.yul\":668:675   */\n      not\n        /* \"#utility.yul\":663:665   */\n      0x1f\n        /* \"#utility.yul\":656:661   */\n      dup4\n        /* \"#utility.yul\":652:666   */\n      add\n        /* \"#utility.yul\":648:676   */\n      and\n        /* \"#utility.yul\":638:676   */\n      swap1\n      pop\n        /* \"#utility.yul\":580:682   */\n      swap2\n      swap1\n      pop\n      jump\t// out\n        /* \"#utility.yul\":688:868   */\n    tag_74:\n        /* \"#utility.yul\":736:813   */\n      0x4e487b7100000000000000000000000000000000000000000000000000000000\n        /* \"#utility.yul\":733:734   */\n      0x00\n        /* \"#utility.yul\":726:814   */\n      mstore\n        /* \"#utility.yul\":833:837   */\n      0x41\n        /* \"#utility.yul\":830:831   */\n      0x04\n        /* \"#utility.yul\":823:838   */\n      mstore\n        /* \"#utility.yul\":857:861   */\n      0x24\n        /* \"#utility.yul\":854:855   */\n      0x00\n        /* \"#utility.yul\":847:862   */\n      revert\n        /* \"#utility.yul\":874:1155   */\n    tag_75:\n        /* \"#utility.yul\":957:984   */\n      tag_122\n        /* \"#utility.yul\":979:983   */\n      dup3\n        /* \"#utility.yul\":957:984   */\n      tag_73\n      jump\t// in\n    tag_122:\n        /* \"#utility.yul\":949:955   */\n      dup2\n        /* \"#utility.yul\":945:985   */\n      add\n        /* \"#utility.yul\":1087:1093   */\n      dup2\n        /* \"#utility.yul\":1075:1085   */\n      dup2\n        /* \"#utility.yul\":1072:1094   */\n      lt\n        /* \"#utility.yul\":1051:1069   */\n      0xffffffffffffffff\n        /* \"#utility.yul\":1039:1049   */\n      dup3\n        /* \"#utility.yul\":1036:1070   */\n      gt\n        /* \"#utility.yul\":1033:1095   */\n      or\n        /* \"#utility.yul\":1030:1118   */\n      iszero\n      tag_123\n      jumpi\n        /* \"#utility.yul\":1098:1116   */\n      tag_124\n      tag_74\n      jump\t// in\n    tag_124:\n        /* \"#utility.yul\":1030:1118   */\n    tag_123:\n        /* \"#utility.yul\":1138:1148   */\n      dup1\n        /* \"#utility.yul\":1134:1136   */\n      0x40\n        /* \"#utility.yul\":1127:1149   */\n      mstore\n        /* \"#utility.yul\":917:1155   */\n      pop\n        /* \"#utility.yul\":874:1155   */\n      pop\n      pop\n      jump\t// out\n        /* \"#utility.yul\":1161:1290   */\n    tag_76:\n        /* \"#utility.yul\":1195:1201   */\n      0x00\n        /* \"#utility.yul\":1222:1242   */\n      tag_126\n      tag_68\n      jump\t// in\n    tag_126:\n        /* \"#utility.yul\":1212:1242   */\n      swap1\n      pop\n        /* \"#utility.yul\":1251:1284   */\n      tag_127\n        /* \"#utility.yul\":1279:1283   */\n      dup3\n        /* \"#utility.yul\":1271:1277   */\n      dup3\n        /* \"#utility.yul\":1251:1284   */\n      tag_75\n      jump\t// in\n    tag_127:\n        /* \"#utility.yul\":1161:1290   */\n      swap2\n      swap1\n      pop\n      jump\t// out\n        /* \"#utility.yul\":1296:1604   */\n    tag_77:\n        /* \"#utility.yul\":1358:1362   */\n      0x00\n        /* \"#utility.yul\":1448:1466   */\n      0xffffffffffffffff\n        /* \"#utility.yul\":1440:1446   */\n      dup3\n        /* \"#utility.yul\":1437:1467   */\n      gt\n        /* \"#utility.yul\":1434:1490   */\n      iszero\n      tag_129\n      jumpi\n        /* \"#utility.yul\":1470:1488   */\n      tag_130\n      tag_74\n      jump\t// in\n    tag_130:\n        /* \"#utility.yul\":1434:1490   */\n    tag_129:\n        /* \"#utility.yul\":1508:1537   */\n      tag_131\n        /* \"#utility.yul\":1530:1536   */\n      dup3\n        /* \"#utility.yul\":1508:1537   */\n      tag_73\n      jump\t// in\n    tag_131:\n        /* \"#utility.yul\":1500:1537   */\n      swap1\n      pop\n        /* \"#utility.yul\":1592:1596   */\n      0x20\n        /* \"#utility.yul\":1586:1590   */\n      dup2\n        /* \"#utility.yul\":1582:1597   */\n      add\n        /* \"#utility.yul\":1574:1597   */\n      swap1\n      pop\n        /* \"#utility.yul\":1296:1604   */\n      swap2\n      swap1\n      pop\n      jump\t// out\n        /* \"#utility.yul\":1610:1758   */\n    tag_78:\n        /* \"#utility.yul\":1708:1714   */\n      dup3\n        /* \"#utility.yul\":1703:1706   */\n      dup2\n        /* \"#utility.yul\":1698:1701   */\n      dup4\n        /* \"#utility.yul\":1685:1715   */\n      calldatacopy\n        /* \"#utility.yul\":1749:1750   */\n      0x00\n        /* \"#utility.yul\":1740:1746   */\n      dup4\n        /* \"#utility.yul\":1735:1738   */\n      dup4\n        /* \"#utility.yul\":1731:1747   */\n      add\n        /* \"#utility.yul\":1724:1751   */\n      mstore\n        /* \"#utility.yul\":1610:1758   */\n      pop\n      pop\n      pop\n      jump\t// out\n        /* \"#utility.yul\":1764:2189   */\n    tag_79:\n        /* \"#utility.yul\":1842:1847   */\n      0x00\n        /* \"#utility.yul\":1867:1933   */\n      tag_134\n        /* \"#utility.yul\":1883:1932   */\n      tag_135\n        /* \"#utility.yul\":1925:1931   */\n      dup5\n        /* \"#utility.yul\":1883:1932   */\n      tag_77\n      jump\t// in\n    tag_135:\n        /* \"#utility.yul\":1867:1933   */\n      tag_76\n      jump\t// in\n    tag_134:\n        /* \"#utility.yul\":1858:1933   */\n      swap1\n      pop\n        /* \"#utility.yul\":1956:1962   */\n      dup3\n        /* \"#utility.yul\":1949:1954   */\n      dup2\n        /* \"#utility.yul\":1942:1963   */\n      mstore\n        /* \"#utility.yul\":1994:1998   */\n      0x20\n        /* \"#utility.yul\":1987:1992   */\n      dup2\n        /* \"#utility.yul\":1983:1999   */\n      add\n        /* \"#utility.yul\":2032:2035   */\n      dup5\n        /* \"#utility.yul\":2023:2029   */\n      dup5\n        /* \"#utility.yul\":2018:2021   */\n      dup5\n        /* \"#utility.yul\":2014:2030   */\n      add\n        /* \"#utility.yul\":2011:2036   */\n      gt\n        /* \"#utility.yul\":2008:2120   */\n      iszero\n      tag_136\n      jumpi\n        /* \"#utility.yul\":2039:2118   */\n      tag_137\n      tag_72\n      jump\t// in\n    tag_137:\n        /* \"#utility.yul\":2008:2120   */\n    tag_136:\n        /* \"#utility.yul\":2129:2183   */\n      tag_138\n        /* \"#utility.yul\":2176:2182   */\n      dup5\n        /* \"#utility.yul\":2171:2174   */\n      dup3\n        /* \"#utility.yul\":2166:2169   */\n      dup6\n        /* \"#utility.yul\":2129:2183   */\n      tag_78\n      jump\t// in\n    tag_138:\n        /* \"#utility.yul\":1848:2189   */\n      pop\n        /* \"#utility.yul\":1764:2189   */\n      swap4\n      swap3\n      pop\n      pop\n      pop\n      jump\t// out\n        /* \"#utility.yul\":2209:2549   */\n    tag_80:\n        /* \"#utility.yul\":2265:2270   */\n      0x00\n        /* \"#utility.yul\":2314:2317   */\n      dup3\n        /* \"#utility.yul\":2307:2311   */\n      0x1f\n        /* \"#utility.yul\":2299:2305   */\n      dup4\n        /* \"#utility.yul\":2295:2312   */\n      add\n        /* \"#utility.yul\":2291:2318   */\n      slt\n        /* \"#utility.yul\":2281:2403   */\n      tag_140\n      jumpi\n        /* \"#utility.yul\":2322:2401   */\n      tag_141\n      tag_71\n      jump\t// in\n    tag_141:\n        /* \"#utility.yul\":2281:2403   */\n    tag_140:\n        /* \"#utility.yul\":2439:2445   */\n      dup2\n        /* \"#utility.yul\":2426:2446   */\n      calldataload\n        /* \"#utility.yul\":2464:2543   */\n      tag_142\n        /* \"#utility.yul\":2539:2542   */\n      dup5\n        /* \"#utility.yul\":2531:2537   */\n      dup3\n        /* \"#utility.yul\":2524:2528   */\n      0x20\n        /* \"#utility.yul\":2516:2522   */\n      dup7\n        /* \"#utility.yul\":2512:2529   */\n      add\n        /* \"#utility.yul\":2464:2543   */\n      tag_79\n      jump\t// in\n    tag_142:\n        /* \"#utility.yul\":2455:2543   */\n      swap2\n      pop\n        /* \"#utility.yul\":2271:2549   */\n      pop\n        /* \"#utility.yul\":2209:2549   */\n      swap3\n      swap2\n      pop\n      pop\n      jump\t// out\n        /* \"#utility.yul\":2555:2862   */\n    tag_81:\n        /* \"#utility.yul\":2616:2620   */\n      0x00\n        /* \"#utility.yul\":2706:2724   */\n      0xffffffffffffffff\n        /* \"#utility.yul\":2698:2704   */\n      dup3\n        /* \"#utility.yul\":2695:2725   */\n      gt\n        /* \"#utility.yul\":2692:2748   */\n      iszero\n      tag_144\n      jumpi\n        /* \"#utility.yul\":2728:2746   */\n      tag_145\n      tag_74\n      jump\t// in\n    tag_145:\n        /* \"#utility.yul\":2692:2748   */\n    tag_144:\n        /* \"#utility.yul\":2766:2795   */\n      tag_146\n        /* \"#utility.yul\":2788:2794   */\n      dup3\n        /* \"#utility.yul\":2766:2795   */\n      tag_73\n      jump\t// in\n    tag_146:\n        /* \"#utility.yul\":2758:2795   */\n      swap1\n      pop\n        /* \"#utility.yul\":2850:2854   */\n      0x20\n        /* \"#utility.yul\":2844:2848   */\n      dup2\n        /* \"#utility.yul\":2840:2855   */\n      add\n        /* \"#utility.yul\":2832:2855   */\n      swap1\n      pop\n        /* \"#utility.yul\":2555:2862   */\n      swap2\n      swap1\n      pop\n      jump\t// out\n        /* \"#utility.yul\":2868:3291   */\n    tag_82:\n        /* \"#utility.yul\":2945:2950   */\n      0x00\n        /* \"#utility.yul\":2970:3035   */\n      tag_148\n        /* \"#utility.yul\":2986:3034   */\n      tag_149\n        /* \"#utility.yul\":3027:3033   */\n      dup5\n        /* \"#utility.yul\":2986:3034   */\n      tag_81\n      jump\t// in\n    tag_149:\n        /* \"#utility.yul\":2970:3035   */\n      tag_76\n      jump\t// in\n    tag_148:\n        /* \"#utility.yul\":2961:3035   */\n      swap1\n      pop\n        /* \"#utility.yul\":3058:3064   */\n      dup3\n        /* \"#utility.yul\":3051:3056   */\n      dup2\n        /* \"#utility.yul\":3044:3065   */\n      mstore\n        /* \"#utility.yul\":3096:3100   */\n      0x20\n        /* \"#utility.yul\":3089:3094   */\n      dup2\n        /* \"#utility.yul\":3085:3101   */\n      add\n        /* \"#utility.yul\":3134:3137   */\n      dup5\n        /* \"#utility.yul\":3125:3131   */\n      dup5\n        /* \"#utility.yul\":3120:3123   */\n      dup5\n        /* \"#utility.yul\":3116:3132   */\n      add\n        /* \"#utility.yul\":3113:3138   */\n      gt\n        /* \"#utility.yul\":3110:3222   */\n      iszero\n      tag_150\n      jumpi\n        /* \"#utility.yul\":3141:3220   */\n      tag_151\n      tag_72\n      jump\t// in\n    tag_151:\n        /* \"#utility.yul\":3110:3222   */\n    tag_150:\n        /* \"#utility.yul\":3231:3285   */\n      tag_152\n        /* \"#utility.yul\":3278:3284   */\n      dup5\n        /* \"#utility.yul\":3273:3276   */\n      dup3\n        /* \"#utility.yul\":3268:3271   */\n      dup6\n        /* \"#utility.yul\":3231:3285   */\n      tag_78\n      jump\t// in\n    tag_152:\n        /* \"#utility.yul\":2951:3291   */\n      pop\n        /* \"#utility.yul\":2868:3291   */\n      swap4\n      swap3\n      pop\n      pop\n      pop\n      jump\t// out\n        /* \"#utility.yul\":3310:3648   */\n    tag_83:\n        /* \"#utility.yul\":3365:3370   */\n      0x00\n        /* \"#utility.yul\":3414:3417   */\n      dup3\n        /* \"#utility.yul\":3407:3411   */\n      0x1f\n        /* \"#utility.yul\":3399:3405   */\n      dup4\n        /* \"#utility.yul\":3395:3412   */\n      add\n        /* \"#utility.yul\":3391:3418   */\n      slt\n        /* \"#utility.yul\":3381:3503   */\n      tag_154\n      jumpi\n        /* \"#utility.yul\":3422:3501   */\n      tag_155\n      tag_71\n      jump\t// in\n    tag_155:\n        /* \"#utility.yul\":3381:3503   */\n    tag_154:\n        /* \"#utility.yul\":3539:3545   */\n      dup2\n        /* \"#utility.yul\":3526:3546   */\n      calldataload\n        /* \"#utility.yul\":3564:3642   */\n      tag_156\n        /* \"#utility.yul\":3638:3641   */\n      dup5\n        /* \"#utility.yul\":3630:3636   */\n      dup3\n        /* \"#utility.yul\":3623:3627   */\n      0x20\n        /* \"#utility.yul\":3615:3621   */\n      dup7\n        /* \"#utility.yul\":3611:3628   */\n      add\n        /* \"#utility.yul\":3564:3642   */\n      tag_82\n      jump\t// in\n    tag_156:\n        /* \"#utility.yul\":3555:3642   */\n      swap2\n      pop\n        /* \"#utility.yul\":3371:3648   */\n      pop\n        /* \"#utility.yul\":3310:3648   */\n      swap3\n      swap2\n      pop\n      pop\n      jump\t// out\n        /* \"#utility.yul\":3654:4486   */\n    tag_14:\n        /* \"#utility.yul\":3741:3747   */\n      0x00\n        /* \"#utility.yul\":3749:3755   */\n      dup1\n        /* \"#utility.yul\":3798:3800   */\n      0x40\n        /* \"#utility.yul\":3786:3795   */\n      dup4\n        /* \"#utility.yul\":3777:3784   */\n      dup6\n        /* \"#utility.yul\":3773:3796   */\n      sub\n        /* \"#utility.yul\":3769:3801   */\n      slt\n        /* \"#utility.yul\":3766:3885   */\n      iszero\n      tag_158\n      jumpi\n        /* \"#utility.yul\":3804:3883   */\n      tag_159\n      tag_69\n      jump\t// in\n    tag_159:\n        /* \"#utility.yul\":3766:3885   */\n    tag_158:\n        /* \"#utility.yul\":3952:3953   */\n      0x00\n        /* \"#utility.yul\":3941:3950   */\n      dup4\n        /* \"#utility.yul\":3937:3954   */\n      add\n        /* \"#utility.yul\":3924:3955   */\n      calldataload\n        /* \"#utility.yul\":3982:4000   */\n      0xffffffffffffffff\n        /* \"#utility.yul\":3974:3980   */\n      dup2\n        /* \"#utility.yul\":3971:4001   */\n      gt\n        /* \"#utility.yul\":3968:4085   */\n      iszero\n      tag_160\n      jumpi\n        /* \"#utility.yul\":4004:4083   */\n      tag_161\n      tag_70\n      jump\t// in\n    tag_161:\n        /* \"#utility.yul\":3968:4085   */\n    tag_160:\n        /* \"#utility.yul\":4109:4172   */\n      tag_162\n        /* \"#utility.yul\":4164:4171   */\n      dup6\n        /* \"#utility.yul\":4155:4161   */\n      dup3\n        /* \"#utility.yul\":4144:4153   */\n      dup7\n        /* \"#utility.yul\":4140:4162   */\n      add\n        /* \"#utility.yul\":4109:4172   */\n      tag_80\n      jump\t// in\n    tag_162:\n        /* \"#utility.yul\":4099:4172   */\n      swap3\n      pop\n        /* \"#utility.yul\":3895:4182   */\n      pop\n        /* \"#utility.yul\":4249:4251   */\n      0x20\n        /* \"#utility.yul\":4238:4247   */\n      dup4\n        /* \"#utility.yul\":4234:4252   */\n      add\n        /* \"#utility.yul\":4221:4253   */\n      calldataload\n        /* \"#utility.yul\":4280:4298   */\n      0xffffffffffffffff\n        /* \"#utility.yul\":4272:4278   */\n      dup2\n        /* \"#utility.yul\":4269:4299   */\n      gt\n        /* \"#utility.yul\":4266:4383   */\n      iszero\n      tag_163\n      jumpi\n        /* \"#utility.yul\":4302:4381   */\n      tag_164\n      tag_70\n      jump\t// in\n    tag_164:\n        /* \"#utility.yul\":4266:4383   */\n    tag_163:\n        /* \"#utility.yul\":4407:4469   */\n      tag_165\n        /* \"#utility.yul\":4461:4468   */\n      dup6\n        /* \"#utility.yul\":4452:4458   */\n      dup3\n        /* \"#utility.yul\":4441:4450   */\n      dup7\n        /* \"#utility.yul\":4437:4459   */\n      add\n        /* \"#utility.yul\":4407:4469   */\n      tag_83\n      jump\t// in\n    tag_165:\n        /* \"#utility.yul\":4397:4469   */\n      swap2\n      pop\n        /* \"#utility.yul\":4192:4479   */\n      pop\n        /* \"#utility.yul\":3654:4486   */\n      swap3\n      pop\n      swap3\n      swap1\n      pop\n      jump\t// out\n        /* \"#utility.yul\":4492:4618   */\n    tag_84:\n        /* \"#utility.yul\":4529:4536   */\n      0x00\n        /* \"#utility.yul\":4569:4611   */\n      0xffffffffffffffffffffffffffffffffffffffff\n        /* \"#utility.yul\":4562:4567   */\n      dup3\n        /* \"#utility.yul\":4558:4612   */\n      and\n        /* \"#utility.yul\":4547:4612   */\n      swap1\n      pop\n        /* \"#utility.yul\":4492:4618   */\n      swap2\n      swap1\n      pop\n      jump\t// out\n        /* \"#utility.yul\":4624:4720   */\n    tag_85:\n        /* \"#utility.yul\":4661:4668   */\n      0x00\n        /* \"#utility.yul\":4690:4714   */\n      tag_168\n        /* \"#utility.yul\":4708:4713   */\n      dup3\n        /* \"#utility.yul\":4690:4714   */\n      tag_84\n      jump\t// in\n    tag_168:\n        /* \"#utility.yul\":4679:4714   */\n      swap1\n      pop\n        /* \"#utility.yul\":4624:4720   */\n      swap2\n      swap1\n      pop\n      jump\t// out\n        /* \"#utility.yul\":4726:4848   */\n    tag_86:\n        /* \"#utility.yul\":4799:4823   */\n      tag_170\n        /* \"#utility.yul\":4817:4822   */\n      dup2\n        /* \"#utility.yul\":4799:4823   */\n      tag_85\n      jump\t// in\n    tag_170:\n        /* \"#utility.yul\":4792:4797   */\n      dup2\n        /* \"#utility.yul\":4789:4824   */\n      eq\n        /* \"#utility.yul\":4779:4842   */\n      tag_171\n      jumpi\n        /* \"#utility.yul\":4838:4839   */\n      0x00\n        /* \"#utility.yul\":4835:4836   */\n      dup1\n        /* \"#utility.yul\":4828:4840   */\n      revert\n        /* \"#utility.yul\":4779:4842   */\n    tag_171:\n        /* \"#utility.yul\":4726:4848   */\n      pop\n      jump\t// out\n        /* \"#utility.yul\":4854:4993   */\n    tag_87:\n        /* \"#utility.yul\":4900:4905   */\n      0x00\n        /* \"#utility.yul\":4938:4944   */\n      dup2\n        /* \"#utility.yul\":4925:4945   */\n      calldataload\n        /* \"#utility.yul\":4916:4945   */\n      swap1\n      pop\n        /* \"#utility.yul\":4954:4987   */\n      tag_173\n        /* \"#utility.yul\":4981:4986   */\n      dup2\n        /* \"#utility.yul\":4954:4987   */\n      tag_86\n      jump\t// in\n    tag_173:\n        /* \"#utility.yul\":4854:4993   */\n      swap3\n      swap2\n      pop\n      pop\n      jump\t// out\n        /* \"#utility.yul\":4999:5653   */\n    tag_18:\n        /* \"#utility.yul\":5077:5083   */\n      0x00\n        /* \"#utility.yul\":5085:5091   */\n      dup1\n        /* \"#utility.yul\":5134:5136   */\n      0x40\n        /* \"#utility.yul\":5122:5131   */\n      dup4\n        /* \"#utility.yul\":5113:5120   */\n      dup6\n        /* \"#utility.yul\":5109:5132   */\n      sub\n        /* \"#utility.yul\":5105:5137   */\n      slt\n        /* \"#utility.yul\":5102:5221   */\n      iszero\n      tag_175\n      jumpi\n        /* \"#utility.yul\":5140:5219   */\n      tag_176\n      tag_69\n      jump\t// in\n    tag_176:\n        /* \"#utility.yul\":5102:5221   */\n    tag_175:\n        /* \"#utility.yul\":5288:5289   */\n      0x00\n        /* \"#utility.yul\":5277:5286   */\n      dup4\n        /* \"#utility.yul\":5273:5290   */\n      add\n        /* \"#utility.yul\":5260:5291   */\n      calldataload\n        /* \"#utility.yul\":5318:5336   */\n      0xffffffffffffffff\n        /* \"#utility.yul\":5310:5316   */\n      dup2\n        /* \"#utility.yul\":5307:5337   */\n      gt\n        /* \"#utility.yul\":5304:5421   */\n      iszero\n      tag_177\n      jumpi\n        /* \"#utility.yul\":5340:5419   */\n      tag_178\n      tag_70\n      jump\t// in\n    tag_178:\n        /* \"#utility.yul\":5304:5421   */\n    tag_177:\n        /* \"#utility.yul\":5445:5508   */\n      tag_179\n        /* \"#utility.yul\":5500:5507   */\n      dup6\n        /* \"#utility.yul\":5491:5497   */\n      dup3\n        /* \"#utility.yul\":5480:5489   */\n      dup7\n        /* \"#utility.yul\":5476:5498   */\n      add\n        /* \"#utility.yul\":5445:5508   */\n      tag_80\n      jump\t// in\n    tag_179:\n        /* \"#utility.yul\":5435:5508   */\n      swap3\n      pop\n        /* \"#utility.yul\":5231:5518   */\n      pop\n        /* \"#utility.yul\":5557:5559   */\n      0x20\n        /* \"#utility.yul\":5583:5636   */\n      tag_180\n        /* \"#utility.yul\":5628:5635   */\n      dup6\n        /* \"#utility.yul\":5619:5625   */\n      dup3\n        /* \"#utility.yul\":5608:5617   */\n      dup7\n        /* \"#utility.yul\":5604:5626   */\n      add\n        /* \"#utility.yul\":5583:5636   */\n      tag_87\n      jump\t// in\n    tag_180:\n        /* \"#utility.yul\":5573:5636   */\n      swap2\n      pop\n        /* \"#utility.yul\":5528:5646   */\n      pop\n        /* \"#utility.yul\":4999:5653   */\n      swap3\n      pop\n      swap3\n      swap1\n      pop\n      jump\t// out\n        /* \"#utility.yul\":5659:5736   */\n    tag_88:\n        /* \"#utility.yul\":5696:5703   */\n      0x00\n        /* \"#utility.yul\":5725:5730   */\n      dup2\n        /* \"#utility.yul\":5714:5730   */\n      swap1\n      pop\n        /* \"#utility.yul\":5659:5736   */\n      swap2\n      swap1\n      pop\n      jump\t// out\n        /* \"#utility.yul\":5742:5864   */\n    tag_89:\n        /* \"#utility.yul\":5815:5839   */\n      tag_183\n        /* \"#utility.yul\":5833:5838   */\n      dup2\n        /* \"#utility.yul\":5815:5839   */\n      tag_88\n      jump\t// in\n    tag_183:\n        /* \"#utility.yul\":5808:5813   */\n      dup2\n        /* \"#utility.yul\":5805:5840   */\n      eq\n        /* \"#utility.yul\":5795:5858   */\n      tag_184\n      jumpi\n        /* \"#utility.yul\":5854:5855   */\n      0x00\n        /* \"#utility.yul\":5851:5852   */\n      dup1\n        /* \"#utility.yul\":5844:5856   */\n      revert\n        /* \"#utility.yul\":5795:5858   */\n    tag_184:\n        /* \"#utility.yul\":5742:5864   */\n      pop\n      jump\t// out\n        /* \"#utility.yul\":5870:6009   */\n    tag_90:\n        /* \"#utility.yul\":5916:5921   */\n      0x00\n        /* \"#utility.yul\":5954:5960   */\n      dup2\n        /* \"#utility.yul\":5941:5961   */\n      calldataload\n        /* \"#utility.yul\":5932:5961   */\n      swap1\n      pop\n        /* \"#utility.yul\":5970:6003   */\n      tag_186\n        /* \"#utility.yul\":5997:6002   */\n      dup2\n        /* \"#utility.yul\":5970:6003   */\n      tag_89\n      jump\t// in\n    tag_186:\n        /* \"#utility.yul\":5870:6009   */\n      swap3\n      swap2\n      pop\n      pop\n      jump\t// out\n        /* \"#utility.yul\":6015:6669   */\n    tag_22:\n        /* \"#utility.yul\":6093:6099   */\n      0x00\n        /* \"#utility.yul\":6101:6107   */\n      dup1\n        /* \"#utility.yul\":6150:6152   */\n      0x40\n        /* \"#utility.yul\":6138:6147   */\n      dup4\n        /* \"#utility.yul\":6129:6136   */\n      dup6\n        /* \"#utility.yul\":6125:6148   */\n      sub\n        /* \"#utility.yul\":6121:6153   */\n      slt\n        /* \"#utility.yul\":6118:6237   */\n      iszero\n      tag_188\n      jumpi\n        /* \"#utility.yul\":6156:6235   */\n      tag_189\n      tag_69\n      jump\t// in\n    tag_189:\n        /* \"#utility.yul\":6118:6237   */\n    tag_188:\n        /* \"#utility.yul\":6304:6305   */\n      0x00\n        /* \"#utility.yul\":6293:6302   */\n      dup4\n        /* \"#utility.yul\":6289:6306   */\n      add\n        /* \"#utility.yul\":6276:6307   */\n      calldataload\n        /* \"#utility.yul\":6334:6352   */\n      0xffffffffffffffff\n        /* \"#utility.yul\":6326:6332   */\n      dup2\n        /* \"#utility.yul\":6323:6353   */\n      gt\n        /* \"#utility.yul\":6320:6437   */\n      iszero\n      tag_190\n      jumpi\n        /* \"#utility.yul\":6356:6435   */\n      tag_191\n      tag_70\n      jump\t// in\n    tag_191:\n        /* \"#utility.yul\":6320:6437   */\n    tag_190:\n        /* \"#utility.yul\":6461:6524   */\n      tag_192\n        /* \"#utility.yul\":6516:6523   */\n      dup6\n        /* \"#utility.yul\":6507:6513   */\n      dup3\n        /* \"#utility.yul\":6496:6505   */\n      dup7\n        /* \"#utility.yul\":6492:6514   */\n      add\n        /* \"#utility.yul\":6461:6524   */\n      tag_80\n      jump\t// in\n    tag_192:\n        /* \"#utility.yul\":6451:6524   */\n      swap3\n      pop\n        /* \"#utility.yul\":6247:6534   */\n      pop\n        /* \"#utility.yul\":6573:6575   */\n      0x20\n        /* \"#utility.yul\":6599:6652   */\n      tag_193\n        /* \"#utility.yul\":6644:6651   */\n      dup6\n        /* \"#utility.yul\":6635:6641   */\n      dup3\n        /* \"#utility.yul\":6624:6633   */\n      dup7\n        /* \"#utility.yul\":6620:6642   */\n      add\n        /* \"#utility.yul\":6599:6652   */\n      tag_90\n      jump\t// in\n    tag_193:\n        /* \"#utility.yul\":6589:6652   */\n      swap2\n      pop\n        /* \"#utility.yul\":6544:6662   */\n      pop\n        /* \"#utility.yul\":6015:6669   */\n      swap3\n      pop\n      swap3\n      swap1\n      pop\n      jump\t// out\n        /* \"#utility.yul\":6675:6751   */\n    tag_91:\n        /* \"#utility.yul\":6711:6718   */\n      0x00\n        /* \"#utility.yul\":6740:6745   */\n      dup2\n        /* \"#utility.yul\":6729:6745   */\n      swap1\n      pop\n        /* \"#utility.yul\":6675:6751   */\n      swap2\n      swap1\n      pop\n      jump\t// out\n        /* \"#utility.yul\":6757:6877   */\n    tag_92:\n        /* \"#utility.yul\":6829:6852   */\n      tag_196\n        /* \"#utility.yul\":6846:6851   */\n      dup2\n        /* \"#utility.yul\":6829:6852   */\n      tag_91\n      jump\t// in\n    tag_196:\n        /* \"#utility.yul\":6822:6827   */\n      dup2\n        /* \"#utility.yul\":6819:6853   */\n      eq\n        /* \"#utility.yul\":6809:6871   */\n      tag_197\n      jumpi\n        /* \"#utility.yul\":6867:6868   */\n      0x00\n        /* \"#utility.yul\":6864:6865   */\n      dup1\n        /* \"#utility.yul\":6857:6869   */\n      revert\n        /* \"#utility.yul\":6809:6871   */\n    tag_197:\n        /* \"#utility.yul\":6757:6877   */\n      pop\n      jump\t// out\n        /* \"#utility.yul\":6883:7020   */\n    tag_93:\n        /* \"#utility.yul\":6928:6933   */\n      0x00\n        /* \"#utility.yul\":6966:6972   */\n      dup2\n        /* \"#utility.yul\":6953:6973   */\n      calldataload\n        /* \"#utility.yul\":6944:6973   */\n      swap1\n      pop\n        /* \"#utility.yul\":6982:7014   */\n      tag_199\n        /* \"#utility.yul\":7008:7013   */\n      dup2\n        /* \"#utility.yul\":6982:7014   */\n      tag_92\n      jump\t// in\n    tag_199:\n        /* \"#utility.yul\":6883:7020   */\n      swap3\n      swap2\n      pop\n      pop\n      jump\t// out\n        /* \"#utility.yul\":7026:7678   */\n    tag_26:\n        /* \"#utility.yul\":7103:7109   */\n      0x00\n        /* \"#utility.yul\":7111:7117   */\n      dup1\n        /* \"#utility.yul\":7160:7162   */\n      0x40\n        /* \"#utility.yul\":7148:7157   */\n      dup4\n        /* \"#utility.yul\":7139:7146   */\n      dup6\n        /* \"#utility.yul\":7135:7158   */\n      sub\n        /* \"#utility.yul\":7131:7163   */\n      slt\n        /* \"#utility.yul\":7128:7247   */\n      iszero\n      tag_201\n      jumpi\n        /* \"#utility.yul\":7166:7245   */\n      tag_202\n      tag_69\n      jump\t// in\n    tag_202:\n        /* \"#utility.yul\":7128:7247   */\n    tag_201:\n        /* \"#utility.yul\":7314:7315   */\n      0x00\n        /* \"#utility.yul\":7303:7312   */\n      dup4\n        /* \"#utility.yul\":7299:7316   */\n      add\n        /* \"#utility.yul\":7286:7317   */\n      calldataload\n        /* \"#utility.yul\":7344:7362   */\n      0xffffffffffffffff\n        /* \"#utility.yul\":7336:7342   */\n      dup2\n        /* \"#utility.yul\":7333:7363   */\n      gt\n        /* \"#utility.yul\":7330:7447   */\n      iszero\n      tag_203\n      jumpi\n        /* \"#utility.yul\":7366:7445   */\n      tag_204\n      tag_70\n      jump\t// in\n    tag_204:\n        /* \"#utility.yul\":7330:7447   */\n    tag_203:\n        /* \"#utility.yul\":7471:7534   */\n      tag_205\n        /* \"#utility.yul\":7526:7533   */\n      dup6\n        /* \"#utility.yul\":7517:7523   */\n      dup3\n        /* \"#utility.yul\":7506:7515   */\n      dup7\n        /* \"#utility.yul\":7502:7524   */\n      add\n        /* \"#utility.yul\":7471:7534   */\n      tag_80\n      jump\t// in\n    tag_205:\n        /* \"#utility.yul\":7461:7534   */\n      swap3\n      pop\n        /* \"#utility.yul\":7257:7544   */\n      pop\n        /* \"#utility.yul\":7583:7585   */\n      0x20\n        /* \"#utility.yul\":7609:7661   */\n      tag_206\n        /* \"#utility.yul\":7653:7660   */\n      dup6\n        /* \"#utility.yul\":7644:7650   */\n      dup3\n        /* \"#utility.yul\":7633:7642   */\n      dup7\n        /* \"#utility.yul\":7629:7651   */\n      add\n        /* \"#utility.yul\":7609:7661   */\n      tag_93\n      jump\t// in\n    tag_206:\n        /* \"#utility.yul\":7599:7661   */\n      swap2\n      pop\n        /* \"#utility.yul\":7554:7671   */\n      pop\n        /* \"#utility.yul\":7026:7678   */\n      swap3\n      pop\n      swap3\n      swap1\n      pop\n      jump\t// out\n        /* \"#utility.yul\":7684:8193   */\n    tag_30:\n        /* \"#utility.yul\":7753:7759   */\n      0x00\n        /* \"#utility.yul\":7802:7804   */\n      0x20\n        /* \"#utility.yul\":7790:7799   */\n      dup3\n        /* \"#utility.yul\":7781:7788   */\n      dup5\n        /* \"#utility.yul\":7777:7800   */\n      sub\n        /* \"#utility.yul\":7773:7805   */\n      slt\n        /* \"#utility.yul\":7770:7889   */\n      iszero\n      tag_208\n      jumpi\n        /* \"#utility.yul\":7808:7887   */\n      tag_209\n      tag_69\n      jump\t// in\n    tag_209:\n        /* \"#utility.yul\":7770:7889   */\n    tag_208:\n        /* \"#utility.yul\":7956:7957   */\n      0x00\n        /* \"#utility.yul\":7945:7954   */\n      dup3\n        /* \"#utility.yul\":7941:7958   */\n      add\n        /* \"#utility.yul\":7928:7959   */\n      calldataload\n        /* \"#utility.yul\":7986:8004   */\n      0xffffffffffffffff\n        /* \"#utility.yul\":7978:7984   */\n      dup2\n        /* \"#utility.yul\":7975:8005   */\n      gt\n        /* \"#utility.yul\":7972:8089   */\n      iszero\n      tag_210\n      jumpi\n        /* \"#utility.yul\":8008:8087   */\n      tag_211\n      tag_70\n      jump\t// in\n    tag_211:\n        /* \"#utility.yul\":7972:8089   */\n    tag_210:\n        /* \"#utility.yul\":8113:8176   */\n      tag_212\n        /* \"#utility.yul\":8168:8175   */\n      dup5\n        /* \"#utility.yul\":8159:8165   */\n      dup3\n        /* \"#utility.yul\":8148:8157   */\n      dup6\n        /* \"#utility.yul\":8144:8166   */\n      add\n        /* \"#utility.yul\":8113:8176   */\n      tag_80\n      jump\t// in\n    tag_212:\n        /* \"#utility.yul\":8103:8176   */\n      swap2\n      pop\n        /* \"#utility.yul\":7899:8186   */\n      pop\n        /* \"#utility.yul\":7684:8193   */\n      swap3\n      swap2\n      pop\n      pop\n      jump\t// out\n        /* \"#utility.yul\":8199:9033   */\n    tag_34:\n        /* \"#utility.yul\":8287:8293   */\n      0x00\n        /* \"#utility.yul\":8295:8301   */\n      dup1\n        /* \"#utility.yul\":8344:8346   */\n      0x40\n        /* \"#utility.yul\":8332:8341   */\n      dup4\n        /* \"#utility.yul\":8323:8330   */\n      dup6\n        /* \"#utility.yul\":8319:8342   */\n      sub\n        /* \"#utility.yul\":8315:8347   */\n      slt\n        /* \"#utility.yul\":8312:8431   */\n      iszero\n      tag_214\n      jumpi\n        /* \"#utility.yul\":8350:8429   */\n      tag_215\n      tag_69\n      jump\t// in\n    tag_215:\n        /* \"#utility.yul\":8312:8431   */\n    tag_214:\n        /* \"#utility.yul\":8498:8499   */\n      0x00\n        /* \"#utility.yul\":8487:8496   */\n      dup4\n        /* \"#utility.yul\":8483:8500   */\n      add\n        /* \"#utility.yul\":8470:8501   */\n      calldataload\n        /* \"#utility.yul\":8528:8546   */\n      0xffffffffffffffff\n        /* \"#utility.yul\":8520:8526   */\n      dup2\n        /* \"#utility.yul\":8517:8547   */\n      gt\n        /* \"#utility.yul\":8514:8631   */\n      iszero\n      tag_216\n      jumpi\n        /* \"#utility.yul\":8550:8629   */\n      tag_217\n      tag_70\n      jump\t// in\n    tag_217:\n        /* \"#utility.yul\":8514:8631   */\n    tag_216:\n        /* \"#utility.yul\":8655:8718   */\n      tag_218\n        /* \"#utility.yul\":8710:8717   */\n      dup6\n        /* \"#utility.yul\":8701:8707   */\n      dup3\n        /* \"#utility.yul\":8690:8699   */\n      dup7\n        /* \"#utility.yul\":8686:8708   */\n      add\n        /* \"#utility.yul\":8655:8718   */\n      tag_80\n      jump\t// in\n    tag_218:\n        /* \"#utility.yul\":8645:8718   */\n      swap3\n      pop\n        /* \"#utility.yul\":8441:8728   */\n      pop\n        /* \"#utility.yul\":8795:8797   */\n      0x20\n        /* \"#utility.yul\":8784:8793   */\n      dup4\n        /* \"#utility.yul\":8780:8798   */\n      add\n        /* \"#utility.yul\":8767:8799   */\n      calldataload\n        /* \"#utility.yul\":8826:8844   */\n      0xffffffffffffffff\n        /* \"#utility.yul\":8818:8824   */\n      dup2\n        /* \"#utility.yul\":8815:8845   */\n      gt\n        /* \"#utility.yul\":8812:8929   */\n      iszero\n      tag_219\n      jumpi\n        /* \"#utility.yul\":8848:8927   */\n      tag_220\n      tag_70\n      jump\t// in\n    tag_220:\n        /* \"#utility.yul\":8812:8929   */\n    tag_219:\n        /* \"#utility.yul\":8953:9016   */\n      tag_221\n        /* \"#utility.yul\":9008:9015   */\n      dup6\n        /* \"#utility.yul\":8999:9005   */\n      dup3\n        /* \"#utility.yul\":8988:8997   */\n      dup7\n        /* \"#utility.yul\":8984:9006   */\n      add\n        /* \"#utility.yul\":8953:9016   */\n      tag_80\n      jump\t// in\n    tag_221:\n        /* \"#utility.yul\":8943:9016   */\n      swap2\n      pop\n        /* \"#utility.yul\":8738:9026   */\n      pop\n        /* \"#utility.yul\":8199:9033   */\n      swap3\n      pop\n      swap3\n      swap1\n      pop\n      jump\t// out\n        /* \"#utility.yul\":9039:9116   */\n    tag_94:\n        /* \"#utility.yul\":9076:9083   */\n      0x00\n        /* \"#utility.yul\":9105:9110   */\n      dup2\n        /* \"#utility.yul\":9094:9110   */\n      swap1\n      pop\n        /* \"#utility.yul\":9039:9116   */\n      swap2\n      swap1\n      pop\n      jump\t// out\n        /* \"#utility.yul\":9122:9244   */\n    tag_95:\n        /* \"#utility.yul\":9195:9219   */\n      tag_224\n        /* \"#utility.yul\":9213:9218   */\n      dup2\n        /* \"#utility.yul\":9195:9219   */\n      tag_94\n      jump\t// in\n    tag_224:\n        /* \"#utility.yul\":9188:9193   */\n      dup2\n        /* \"#utility.yul\":9185:9220   */\n      eq\n        /* \"#utility.yul\":9175:9238   */\n      tag_225\n      jumpi\n        /* \"#utility.yul\":9234:9235   */\n      0x00\n        /* \"#utility.yul\":9231:9232   */\n      dup1\n        /* \"#utility.yul\":9224:9236   */\n      revert\n        /* \"#utility.yul\":9175:9238   */\n    tag_225:\n        /* \"#utility.yul\":9122:9244   */\n      pop\n      jump\t// out\n        /* \"#utility.yul\":9250:9389   */\n    tag_96:\n        /* \"#utility.yul\":9296:9301   */\n      0x00\n        /* \"#utility.yul\":9334:9340   */\n      dup2\n        /* \"#utility.yul\":9321:9341   */\n      calldataload\n        /* \"#utility.yul\":9312:9341   */\n      swap1\n      pop\n        /* \"#utility.yul\":9350:9383   */\n      tag_227\n        /* \"#utility.yul\":9377:9382   */\n      dup2\n        /* \"#utility.yul\":9350:9383   */\n      tag_95\n      jump\t// in\n    tag_227:\n        /* \"#utility.yul\":9250:9389   */\n      swap3\n      swap2\n      pop\n      pop\n      jump\t// out\n        /* \"#utility.yul\":9395:10049   */\n    tag_38:\n        /* \"#utility.yul\":9473:9479   */\n      0x00\n        /* \"#utility.yul\":9481:9487   */\n      dup1\n        /* \"#utility.yul\":9530:9532   */\n      0x40\n        /* \"#utility.yul\":9518:9527   */\n      dup4\n        /* \"#utility.yul\":9509:9516   */\n      dup6\n        /* \"#utility.yul\":9505:9528   */\n      sub\n        /* \"#utility.yul\":9501:9533   */\n      slt\n        /* \"#utility.yul\":9498:9617   */\n      iszero\n      tag_229\n      jumpi\n        /* \"#utility.yul\":9536:9615   */\n      tag_230\n      tag_69\n      jump\t// in\n    tag_230:\n        /* \"#utility.yul\":9498:9617   */\n    tag_229:\n        /* \"#utility.yul\":9684:9685   */\n      0x00\n        /* \"#utility.yul\":9673:9682   */\n      dup4\n        /* \"#utility.yul\":9669:9686   */\n      add\n        /* \"#utility.yul\":9656:9687   */\n      calldataload\n        /* \"#utility.yul\":9714:9732   */\n      0xffffffffffffffff\n        /* \"#utility.yul\":9706:9712   */\n      dup2\n        /* \"#utility.yul\":9703:9733   */\n      gt\n        /* \"#utility.yul\":9700:9817   */\n      iszero\n      tag_231\n      jumpi\n        /* \"#utility.yul\":9736:9815   */\n      tag_232\n      tag_70\n      jump\t// in\n    tag_232:\n        /* \"#utility.yul\":9700:9817   */\n    tag_231:\n        /* \"#utility.yul\":9841:9904   */\n      tag_233\n        /* \"#utility.yul\":9896:9903   */\n      dup6\n        /* \"#utility.yul\":9887:9893   */\n      dup3\n        /* \"#utility.yul\":9876:9885   */\n      dup7\n        /* \"#utility.yul\":9872:9894   */\n      add\n        /* \"#utility.yul\":9841:9904   */\n      tag_80\n      jump\t// in\n    tag_233:\n        /* \"#utility.yul\":9831:9904   */\n      swap3\n      pop\n        /* \"#utility.yul\":9627:9914   */\n      pop\n        /* \"#utility.yul\":9953:9955   */\n      0x20\n        /* \"#utility.yul\":9979:10032   */\n      tag_234\n        /* \"#utility.yul\":10024:10031   */\n      dup6\n        /* \"#utility.yul\":10015:10021   */\n      dup3\n        /* \"#utility.yul\":10004:10013   */\n      dup7\n        /* \"#utility.yul\":10000:10022   */\n      add\n        /* \"#utility.yul\":9979:10032   */\n      tag_96\n      jump\t// in\n    tag_234:\n        /* \"#utility.yul\":9969:10032   */\n      swap2\n      pop\n        /* \"#utility.yul\":9924:10042   */\n      pop\n        /* \"#utility.yul\":9395:10049   */\n      swap3\n      pop\n      swap3\n      swap1\n      pop\n      jump\t// out\n        /* \"#utility.yul\":10055:10145   */\n    tag_97:\n        /* \"#utility.yul\":10089:10096   */\n      0x00\n        /* \"#utility.yul\":10132:10137   */\n      dup2\n        /* \"#utility.yul\":10125:10138   */\n      iszero\n        /* \"#utility.yul\":10118:10139   */\n      iszero\n        /* \"#utility.yul\":10107:10139   */\n      swap1\n      pop\n        /* \"#utility.yul\":10055:10145   */\n      swap2\n      swap1\n      pop\n      jump\t// out\n        /* \"#utility.yul\":10151:10267   */\n    tag_98:\n        /* \"#utility.yul\":10221:10242   */\n      tag_237\n        /* \"#utility.yul\":10236:10241   */\n      dup2\n        /* \"#utility.yul\":10221:10242   */\n      tag_97\n      jump\t// in\n    tag_237:\n        /* \"#utility.yul\":10214:10219   */\n      dup2\n        /* \"#utility.yul\":10211:10243   */\n      eq\n        /* \"#utility.yul\":10201:10261   */\n      tag_238\n      jumpi\n        /* \"#utility.yul\":10257:10258   */\n      0x00\n        /* \"#utility.yul\":10254:10255   */\n      dup1\n        /* \"#utility.yul\":10247:10259   */\n      revert\n        /* \"#utility.yul\":10201:10261   */\n    tag_238:\n        /* \"#utility.yul\":10151:10267   */\n      pop\n      jump\t// out\n        /* \"#utility.yul\":10273:10406   */\n    tag_99:\n        /* \"#utility.yul\":10316:10321   */\n      0x00\n        /* \"#utility.yul\":10354:10360   */\n      dup2\n        /* \"#utility.yul\":10341:10361   */\n      calldataload\n        /* \"#utility.yul\":10332:10361   */\n      swap1\n      pop\n        /* \"#utility.yul\":10370:10400   */\n      tag_240\n        /* \"#utility.yul\":10394:10399   */\n      dup2\n        /* \"#utility.yul\":10370:10400   */\n      tag_98\n      jump\t// in\n    tag_240:\n        /* \"#utility.yul\":10273:10406   */\n      swap3\n      swap2\n      pop\n      pop\n      jump\t// out\n        /* \"#utility.yul\":10412:11060   */\n    tag_42:\n        /* \"#utility.yul\":10487:10493   */\n      0x00\n        /* \"#utility.yul\":10495:10501   */\n      dup1\n        /* \"#utility.yul\":10544:10546   */\n      0x40\n        /* \"#utility.yul\":10532:10541   */\n      dup4\n        /* \"#utility.yul\":10523:10530   */\n      dup6\n        /* \"#utility.yul\":10519:10542   */\n      sub\n        /* \"#utility.yul\":10515:10547   */\n      slt\n        /* \"#utility.yul\":10512:10631   */\n      iszero\n      tag_242\n      jumpi\n        /* \"#utility.yul\":10550:10629   */\n      tag_243\n      tag_69\n      jump\t// in\n    tag_243:\n        /* \"#utility.yul\":10512:10631   */\n    tag_242:\n        /* \"#utility.yul\":10698:10699   */\n      0x00\n        /* \"#utility.yul\":10687:10696   */\n      dup4\n        /* \"#utility.yul\":10683:10700   */\n      add\n        /* \"#utility.yul\":10670:10701   */\n      calldataload\n        /* \"#utility.yul\":10728:10746   */\n      0xffffffffffffffff\n        /* \"#utility.yul\":10720:10726   */\n      dup2\n        /* \"#utility.yul\":10717:10747   */\n      gt\n        /* \"#utility.yul\":10714:10831   */\n      iszero\n      tag_244\n      jumpi\n        /* \"#utility.yul\":10750:10829   */\n      tag_245\n      tag_70\n      jump\t// in\n    tag_245:\n        /* \"#utility.yul\":10714:10831   */\n    tag_244:\n        /* \"#utility.yul\":10855:10918   */\n      tag_246\n        /* \"#utility.yul\":10910:10917   */\n      dup6\n        /* \"#utility.yul\":10901:10907   */\n      dup3\n        /* \"#utility.yul\":10890:10899   */\n      dup7\n        /* \"#utility.yul\":10886:10908   */\n      add\n        /* \"#utility.yul\":10855:10918   */\n      tag_80\n      jump\t// in\n    tag_246:\n        /* \"#utility.yul\":10845:10918   */\n      swap3\n      pop\n        /* \"#utility.yul\":10641:10928   */\n      pop\n        /* \"#utility.yul\":10967:10969   */\n      0x20\n        /* \"#utility.yul\":10993:11043   */\n      tag_247\n        /* \"#utility.yul\":11035:11042   */\n      dup6\n        /* \"#utility.yul\":11026:11032   */\n      dup3\n        /* \"#utility.yul\":11015:11024   */\n      dup7\n        /* \"#utility.yul\":11011:11033   */\n      add\n        /* \"#utility.yul\":10993:11043   */\n      tag_99\n      jump\t// in\n    tag_247:\n        /* \"#utility.yul\":10983:11043   */\n      swap2\n      pop\n        /* \"#utility.yul\":10938:11053   */\n      pop\n        /* \"#utility.yul\":10412:11060   */\n      swap3\n      pop\n      swap3\n      swap1\n      pop\n      jump\t// out\n        /* \"#utility.yul\":11066:11165   */\n    tag_100:\n        /* \"#utility.yul\":11118:11124   */\n      0x00\n        /* \"#utility.yul\":11152:11157   */\n      dup2\n        /* \"#utility.yul\":11146:11158   */\n      mload\n        /* \"#utility.yul\":11136:11158   */\n      swap1\n      pop\n        /* \"#utility.yul\":11066:11165   */\n      swap2\n      swap1\n      pop\n      jump\t// out\n        /* \"#utility.yul\":11171:11340   */\n    tag_101:\n        /* \"#utility.yul\":11255:11266   */\n      0x00\n        /* \"#utility.yul\":11289:11295   */\n      dup3\n        /* \"#utility.yul\":11284:11287   */\n      dup3\n        /* \"#utility.yul\":11277:11296   */\n      mstore\n        /* \"#utility.yul\":11329:11333   */\n      0x20\n        /* \"#utility.yul\":11324:11327   */\n      dup3\n        /* \"#utility.yul\":11320:11334   */\n      add\n        /* \"#utility.yul\":11305:11334   */\n      swap1\n      pop\n        /* \"#utility.yul\":11171:11340   */\n      swap3\n      swap2\n      pop\n      pop\n      jump\t// out\n        /* \"#utility.yul\":11346:11485   */\n    tag_102:\n        /* \"#utility.yul\":11435:11441   */\n      dup3\n        /* \"#utility.yul\":11430:11433   */\n      dup2\n        /* \"#utility.yul\":11425:11428   */\n      dup4\n        /* \"#utility.yul\":11419:11442   */\n      mcopy\n        /* \"#utility.yul\":11476:11477   */\n      0x00\n        /* \"#utility.yul\":11467:11473   */\n      dup4\n        /* \"#utility.yul\":11462:11465   */\n      dup4\n        /* \"#utility.yul\":11458:11474   */\n      add\n        /* \"#utility.yul\":11451:11478   */\n      mstore\n        /* \"#utility.yul\":11346:11485   */\n      pop\n      pop\n      pop\n      jump\t// out\n        /* \"#utility.yul\":11491:11868   */\n    tag_103:\n        /* \"#utility.yul\":11579:11582   */\n      0x00\n        /* \"#utility.yul\":11607:11646   */\n      tag_252\n        /* \"#utility.yul\":11640:11645   */\n      dup3\n        /* \"#utility.yul\":11607:11646   */\n      tag_100\n      jump\t// in\n    tag_252:\n        /* \"#utility.yul\":11662:11733   */\n      tag_253\n        /* \"#utility.yul\":11726:11732   */\n      dup2\n        /* \"#utility.yul\":11721:11724   */\n      dup6\n        /* \"#utility.yul\":11662:11733   */\n      tag_101\n      jump\t// in\n    tag_253:\n        /* \"#utility.yul\":11655:11733   */\n      swap4\n      pop\n        /* \"#utility.yul\":11742:11807   */\n      tag_254\n        /* \"#utility.yul\":11800:11806   */\n      dup2\n        /* \"#utility.yul\":11795:11798   */\n      dup6\n        /* \"#utility.yul\":11788:11792   */\n      0x20\n        /* \"#utility.yul\":11781:11786   */\n      dup7\n        /* \"#utility.yul\":11777:11793   */\n      add\n        /* \"#utility.yul\":11742:11807   */\n      tag_102\n      jump\t// in\n    tag_254:\n        /* \"#utility.yul\":11832:11861   */\n      tag_255\n        /* \"#utility.yul\":11854:11860   */\n      dup2\n        /* \"#utility.yul\":11832:11861   */\n      tag_73\n      jump\t// in\n    tag_255:\n        /* \"#utility.yul\":11827:11830   */\n      dup5\n        /* \"#utility.yul\":11823:11862   */\n      add\n        /* \"#utility.yul\":11816:11862   */\n      swap2\n      pop\n        /* \"#utility.yul\":11583:11868   */\n      pop\n        /* \"#utility.yul\":11491:11868   */\n      swap3\n      swap2\n      pop\n      pop\n      jump\t// out\n        /* \"#utility.yul\":11874:11972   */\n    tag_104:\n        /* \"#utility.yul\":11925:11931   */\n      0x00\n        /* \"#utility.yul\":11959:11964   */\n      dup2\n        /* \"#utility.yul\":11953:11965   */\n      mload\n        /* \"#utility.yul\":11943:11965   */\n      swap1\n      pop\n        /* \"#utility.yul\":11874:11972   */\n      swap2\n      swap1\n      pop\n      jump\t// out\n        /* \"#utility.yul\":11978:12146   */\n    tag_105:\n        /* \"#utility.yul\":12061:12072   */\n      0x00\n        /* \"#utility.yul\":12095:12101   */\n      dup3\n        /* \"#utility.yul\":12090:12093   */\n      dup3\n        /* \"#utility.yul\":12083:12102   */\n      mstore\n        /* \"#utility.yul\":12135:12139   */\n      0x20\n        /* \"#utility.yul\":12130:12133   */\n      dup3\n        /* \"#utility.yul\":12126:12140   */\n      add\n        /* \"#utility.yul\":12111:12140   */\n      swap1\n      pop\n        /* \"#utility.yul\":11978:12146   */\n      swap3\n      swap2\n      pop\n      pop\n      jump\t// out\n        /* \"#utility.yul\":12152:12525   */\n    tag_106:\n        /* \"#utility.yul\":12238:12241   */\n      0x00\n        /* \"#utility.yul\":12266:12304   */\n      tag_259\n        /* \"#utility.yul\":12298:12303   */\n      dup3\n        /* \"#utility.yul\":12266:12304   */\n      tag_104\n      jump\t// in\n    tag_259:\n        /* \"#utility.yul\":12320:12390   */\n      tag_260\n        /* \"#utility.yul\":12383:12389   */\n      dup2\n        /* \"#utility.yul\":12378:12381   */\n      dup6\n        /* \"#utility.yul\":12320:12390   */\n      tag_105\n      jump\t// in\n    tag_260:\n        /* \"#utility.yul\":12313:12390   */\n      swap4\n      pop\n        /* \"#utility.yul\":12399:12464   */\n      tag_261\n        /* \"#utility.yul\":12457:12463   */\n      dup2\n        /* \"#utility.yul\":12452:12455   */\n      dup6\n        /* \"#utility.yul\":12445:12449   */\n      0x20\n        /* \"#utility.yul\":12438:12443   */\n      dup7\n        /* \"#utility.yul\":12434:12450   */\n      add\n        /* \"#utility.yul\":12399:12464   */\n      tag_102\n      jump\t// in\n    tag_261:\n        /* \"#utility.yul\":12489:12518   */\n      tag_262\n        /* \"#utility.yul\":12511:12517   */\n      dup2\n        /* \"#utility.yul\":12489:12518   */\n      tag_73\n      jump\t// in\n    tag_262:\n        /* \"#utility.yul\":12484:12487   */\n      dup5\n        /* \"#utility.yul\":12480:12519   */\n      add\n        /* \"#utility.yul\":12473:12519   */\n      swap2\n      pop\n        /* \"#utility.yul\":12242:12525   */\n      pop\n        /* \"#utility.yul\":12152:12525   */\n      swap3\n      swap2\n      pop\n      pop\n      jump\t// out\n        /* \"#utility.yul\":12531:13041   */\n    tag_46:\n        /* \"#utility.yul\":12690:12694   */\n      0x00\n        /* \"#utility.yul\":12728:12730   */\n      0x40\n        /* \"#utility.yul\":12717:12726   */\n      dup3\n        /* \"#utility.yul\":12713:12731   */\n      add\n        /* \"#utility.yul\":12705:12731   */\n      swap1\n      pop\n        /* \"#utility.yul\":12777:12786   */\n      dup2\n        /* \"#utility.yul\":12771:12775   */\n      dup2\n        /* \"#utility.yul\":12767:12787   */\n      sub\n        /* \"#utility.yul\":12763:12764   */\n      0x00\n        /* \"#utility.yul\":12752:12761   */\n      dup4\n        /* \"#utility.yul\":12748:12765   */\n      add\n        /* \"#utility.yul\":12741:12788   */\n      mstore\n        /* \"#utility.yul\":12805:12883   */\n      tag_264\n        /* \"#utility.yul\":12878:12882   */\n      dup2\n        /* \"#utility.yul\":12869:12875   */\n      dup6\n        /* \"#utility.yul\":12805:12883   */\n      tag_103\n      jump\t// in\n    tag_264:\n        /* \"#utility.yul\":12797:12883   */\n      swap1\n      pop\n        /* \"#utility.yul\":12930:12939   */\n      dup2\n        /* \"#utility.yul\":12924:12928   */\n      dup2\n        /* \"#utility.yul\":12920:12940   */\n      sub\n        /* \"#utility.yul\":12915:12917   */\n      0x20\n        /* \"#utility.yul\":12904:12913   */\n      dup4\n        /* \"#utility.yul\":12900:12918   */\n      add\n        /* \"#utility.yul\":12893:12941   */\n      mstore\n        /* \"#utility.yul\":12958:13034   */\n      tag_265\n        /* \"#utility.yul\":13029:13033   */\n      dup2\n        /* \"#utility.yul\":13020:13026   */\n      dup5\n        /* \"#utility.yul\":12958:13034   */\n      tag_106\n      jump\t// in\n    tag_265:\n        /* \"#utility.yul\":12950:13034   */\n      swap1\n      pop\n        /* \"#utility.yul\":12531:13041   */\n      swap4\n      swap3\n      pop\n      pop\n      pop\n      jump\t// out\n        /* \"#utility.yul\":13047:13165   */\n    tag_107:\n        /* \"#utility.yul\":13134:13158   */\n      tag_267\n        /* \"#utility.yul\":13152:13157   */\n      dup2\n        /* \"#utility.yul\":13134:13158   */\n      tag_85\n      jump\t// in\n    tag_267:\n        /* \"#utility.yul\":13129:13132   */\n      dup3\n        /* \"#utility.yul\":13122:13159   */\n      mstore\n        /* \"#utility.yul\":13047:13165   */\n      pop\n      pop\n      jump\t// out\n        /* \"#utility.yul\":13171:13594   */\n    tag_49:\n        /* \"#utility.yul\":13312:13316   */\n      0x00\n        /* \"#utility.yul\":13350:13352   */\n      0x40\n        /* \"#utility.yul\":13339:13348   */\n      dup3\n        /* \"#utility.yul\":13335:13353   */\n      add\n        /* \"#utility.yul\":13327:13353   */\n      swap1\n      pop\n        /* \"#utility.yul\":13399:13408   */\n      dup2\n        /* \"#utility.yul\":13393:13397   */\n      dup2\n        /* \"#utility.yul\":13389:13409   */\n      sub\n        /* \"#utility.yul\":13385:13386   */\n      0x00\n        /* \"#utility.yul\":13374:13383   */\n      dup4\n        /* \"#utility.yul\":13370:13387   */\n      add\n        /* \"#utility.yul\":13363:13410   */\n      mstore\n        /* \"#utility.yul\":13427:13505   */\n      tag_269\n        /* \"#utility.yul\":13500:13504   */\n      dup2\n        /* \"#utility.yul\":13491:13497   */\n      dup6\n        /* \"#utility.yul\":13427:13505   */\n      tag_103\n      jump\t// in\n    tag_269:\n        /* \"#utility.yul\":13419:13505   */\n      swap1\n      pop\n        /* \"#utility.yul\":13515:13587   */\n      tag_270\n        /* \"#utility.yul\":13583:13585   */\n      0x20\n        /* \"#utility.yul\":13572:13581   */\n      dup4\n        /* \"#utility.yul\":13568:13586   */\n      add\n        /* \"#utility.yul\":13559:13565   */\n      dup5\n        /* \"#utility.yul\":13515:13587   */\n      tag_107\n      jump\t// in\n    tag_270:\n        /* \"#utility.yul\":13171:13594   */\n      swap4\n      swap3\n      pop\n      pop\n      pop\n      jump\t// out\n        /* \"#utility.yul\":13600:13718   */\n    tag_108:\n        /* \"#utility.yul\":13687:13711   */\n      tag_272\n        /* \"#utility.yul\":13705:13710   */\n      dup2\n        /* \"#utility.yul\":13687:13711   */\n      tag_88\n      jump\t// in\n    tag_272:\n        /* \"#utility.yul\":13682:13685   */\n      dup3\n        /* \"#utility.yul\":13675:13712   */\n      mstore\n        /* \"#utility.yul\":13600:13718   */\n      pop\n      pop\n      jump\t// out\n        /* \"#utility.yul\":13724:14147   */\n    tag_52:\n        /* \"#utility.yul\":13865:13869   */\n      0x00\n        /* \"#utility.yul\":13903:13905   */\n      0x40\n        /* \"#utility.yul\":13892:13901   */\n      dup3\n        /* \"#utility.yul\":13888:13906   */\n      add\n        /* \"#utility.yul\":13880:13906   */\n      swap1\n      pop\n        /* \"#utility.yul\":13952:13961   */\n      dup2\n        /* \"#utility.yul\":13946:13950   */\n      dup2\n        /* \"#utility.yul\":13942:13962   */\n      sub\n        /* \"#utility.yul\":13938:13939   */\n      0x00\n        /* \"#utility.yul\":13927:13936   */\n      dup4\n        /* \"#utility.yul\":13923:13940   */\n      add\n        /* \"#utility.yul\":13916:13963   */\n      mstore\n        /* \"#utility.yul\":13980:14058   */\n      tag_274\n        /* \"#utility.yul\":14053:14057   */\n      dup2\n        /* \"#utility.yul\":14044:14050   */\n      dup6\n        /* \"#utility.yul\":13980:14058   */\n      tag_103\n      jump\t// in\n    tag_274:\n        /* \"#utility.yul\":13972:14058   */\n      swap1\n      pop\n        /* \"#utility.yul\":14068:14140   */\n      tag_275\n        /* \"#utility.yul\":14136:14138   */\n      0x20\n        /* \"#utility.yul\":14125:14134   */\n      dup4\n        /* \"#utility.yul\":14121:14139   */\n      add\n        /* \"#utility.yul\":14112:14118   */\n      dup5\n        /* \"#utility.yul\":14068:14140   */\n      tag_108\n      jump\t// in\n    tag_275:\n        /* \"#utility.yul\":13724:14147   */\n      swap4\n      swap3\n      pop\n      pop\n      pop\n      jump\t// out\n        /* \"#utility.yul\":14153:14268   */\n    tag_109:\n        /* \"#utility.yul\":14238:14261   */\n      tag_277\n        /* \"#utility.yul\":14255:14260   */\n      dup2\n        /* \"#utility.yul\":14238:14261   */\n      tag_91\n      jump\t// in\n    tag_277:\n        /* \"#utility.yul\":14233:14236   */\n      dup3\n        /* \"#utility.yul\":14226:14262   */\n      mstore\n        /* \"#utility.yul\":14153:14268   */\n      pop\n      pop\n      jump\t// out\n        /* \"#utility.yul\":14274:14693   */\n    tag_55:\n        /* \"#utility.yul\":14413:14417   */\n      0x00\n        /* \"#utility.yul\":14451:14453   */\n      0x40\n        /* \"#utility.yul\":14440:14449   */\n      dup3\n        /* \"#utility.yul\":14436:14454   */\n      add\n        /* \"#utility.yul\":14428:14454   */\n      swap1\n      pop\n        /* \"#utility.yul\":14500:14509   */\n      dup2\n        /* \"#utility.yul\":14494:14498   */\n      dup2\n        /* \"#utility.yul\":14490:14510   */\n      sub\n        /* \"#utility.yul\":14486:14487   */\n      0x00\n        /* \"#utility.yul\":14475:14484   */\n      dup4\n        /* \"#utility.yul\":14471:14488   */\n      add\n        /* \"#utility.yul\":14464:14511   */\n      mstore\n        /* \"#utility.yul\":14528:14606   */\n      tag_279\n        /* \"#utility.yul\":14601:14605   */\n      dup2\n        /* \"#utility.yul\":14592:14598   */\n      dup6\n        /* \"#utility.yul\":14528:14606   */\n      tag_103\n      jump\t// in\n    tag_279:\n        /* \"#utility.yul\":14520:14606   */\n      swap1\n      pop\n        /* \"#utility.yul\":14616:14686   */\n      tag_280\n        /* \"#utility.yul\":14682:14684   */\n      0x20\n        /* \"#utility.yul\":14671:14680   */\n      dup4\n        /* \"#utility.yul\":14667:14685   */\n      add\n        /* \"#utility.yul\":14658:14664   */\n      dup5\n        /* \"#utility.yul\":14616:14686   */\n      tag_109\n      jump\t// in\n    tag_280:\n        /* \"#utility.yul\":14274:14693   */\n      swap4\n      swap3\n      pop\n      pop\n      pop\n      jump\t// out\n        /* \"#utility.yul\":14699:14859   */\n    tag_110:\n        /* \"#utility.yul\":14850:14852   */\n      0x00\n        /* \"#utility.yul\":14845:14848   */\n      dup2\n        /* \"#utility.yul\":14838:14853   */\n      mstore\n        /* \"#utility.yul\":14699:14859   */\n      pop\n      jump\t// out\n        /* \"#utility.yul\":14865:15414   */\n    tag_58:\n        /* \"#utility.yul\":15069:15073   */\n      0x00\n        /* \"#utility.yul\":15107:15109   */\n      0x40\n        /* \"#utility.yul\":15096:15105   */\n      dup3\n        /* \"#utility.yul\":15092:15110   */\n      add\n        /* \"#utility.yul\":15084:15110   */\n      swap1\n      pop\n        /* \"#utility.yul\":15156:15165   */\n      dup2\n        /* \"#utility.yul\":15150:15154   */\n      dup2\n        /* \"#utility.yul\":15146:15166   */\n      sub\n        /* \"#utility.yul\":15142:15143   */\n      0x00\n        /* \"#utility.yul\":15131:15140   */\n      dup4\n        /* \"#utility.yul\":15127:15144   */\n      add\n        /* \"#utility.yul\":15120:15167   */\n      mstore\n        /* \"#utility.yul\":15184:15262   */\n      tag_283\n        /* \"#utility.yul\":15257:15261   */\n      dup2\n        /* \"#utility.yul\":15248:15254   */\n      dup5\n        /* \"#utility.yul\":15184:15262   */\n      tag_103\n      jump\t// in\n    tag_283:\n        /* \"#utility.yul\":15176:15262   */\n      swap1\n      pop\n        /* \"#utility.yul\":15272:15407   */\n      tag_284\n        /* \"#utility.yul\":15403:15405   */\n      0x20\n        /* \"#utility.yul\":15392:15401   */\n      dup4\n        /* \"#utility.yul\":15388:15406   */\n      add\n        /* \"#utility.yul\":15272:15407   */\n      tag_110\n      jump\t// in\n    tag_284:\n        /* \"#utility.yul\":14865:15414   */\n      swap3\n      swap2\n      pop\n      pop\n      jump\t// out\n        /* \"#utility.yul\":15420:15934   */\n    tag_61:\n        /* \"#utility.yul\":15581:15585   */\n      0x00\n        /* \"#utility.yul\":15619:15621   */\n      0x40\n        /* \"#utility.yul\":15608:15617   */\n      dup3\n        /* \"#utility.yul\":15604:15622   */\n      add\n        /* \"#utility.yul\":15596:15622   */\n      swap1\n      pop\n        /* \"#utility.yul\":15668:15677   */\n      dup2\n        /* \"#utility.yul\":15662:15666   */\n      dup2\n        /* \"#utility.yul\":15658:15678   */\n      sub\n        /* \"#utility.yul\":15654:15655   */\n      0x00\n        /* \"#utility.yul\":15643:15652   */\n      dup4\n        /* \"#utility.yul\":15639:15656   */\n      add\n        /* \"#utility.yul\":15632:15679   */\n      mstore\n        /* \"#utility.yul\":15696:15774   */\n      tag_286\n        /* \"#utility.yul\":15769:15773   */\n      dup2\n        /* \"#utility.yul\":15760:15766   */\n      dup6\n        /* \"#utility.yul\":15696:15774   */\n      tag_103\n      jump\t// in\n    tag_286:\n        /* \"#utility.yul\":15688:15774   */\n      swap1\n      pop\n        /* \"#utility.yul\":15821:15830   */\n      dup2\n        /* \"#utility.yul\":15815:15819   */\n      dup2\n        /* \"#utility.yul\":15811:15831   */\n      sub\n        /* \"#utility.yul\":15806:15808   */\n      0x20\n        /* \"#utility.yul\":15795:15804   */\n      dup4\n        /* \"#utility.yul\":15791:15809   */\n      add\n        /* \"#utility.yul\":15784:15832   */\n      mstore\n        /* \"#utility.yul\":15849:15927   */\n      tag_287\n        /* \"#utility.yul\":15922:15926   */\n      dup2\n        /* \"#utility.yul\":15913:15919   */\n      dup5\n        /* \"#utility.yul\":15849:15927   */\n      tag_103\n      jump\t// in\n    tag_287:\n        /* \"#utility.yul\":15841:15927   */\n      swap1\n      pop\n        /* \"#utility.yul\":15420:15934   */\n      swap4\n      swap3\n      pop\n      pop\n      pop\n      jump\t// out\n        /* \"#utility.yul\":15940:16058   */\n    tag_111:\n        /* \"#utility.yul\":16027:16051   */\n      tag_289\n        /* \"#utility.yul\":16045:16050   */\n      dup2\n        /* \"#utility.yul\":16027:16051   */\n      tag_94\n      jump\t// in\n    tag_289:\n        /* \"#utility.yul\":16022:16025   */\n      dup3\n        /* \"#utility.yul\":16015:16052   */\n      mstore\n        /* \"#utility.yul\":15940:16058   */\n      pop\n      pop\n      jump\t// out\n        /* \"#utility.yul\":16064:16487   */\n    tag_64:\n        /* \"#utility.yul\":16205:16209   */\n      0x00\n        /* \"#utility.yul\":16243:16245   */\n      0x40\n        /* \"#utility.yul\":16232:16241   */\n      dup3\n        /* \"#utility.yul\":16228:16246   */\n      add\n        /* \"#utility.yul\":16220:16246   */\n      swap1\n      pop\n        /* \"#utility.yul\":16292:16301   */\n      dup2\n        /* \"#utility.yul\":16286:16290   */\n      dup2\n        /* \"#utility.yul\":16282:16302   */\n      sub\n        /* \"#utility.yul\":16278:16279   */\n      0x00\n        /* \"#utility.yul\":16267:16276   */\n      dup4\n        /* \"#utility.yul\":16263:16280   */\n      add\n        /* \"#utility.yul\":16256:16303   */\n      mstore\n        /* \"#utility.yul\":16320:16398   */\n      tag_291\n        /* \"#utility.yul\":16393:16397   */\n      dup2\n        /* \"#utility.yul\":16384:16390   */\n      dup6\n        /* \"#utility.yul\":16320:16398   */\n      tag_103\n      jump\t// in\n    tag_291:\n        /* \"#utility.yul\":16312:16398   */\n      swap1\n      pop\n        /* \"#utility.yul\":16408:16480   */\n      tag_292\n        /* \"#utility.yul\":16476:16478   */\n      0x20\n        /* \"#utility.yul\":16465:16474   */\n      dup4\n        /* \"#utility.yul\":16461:16479   */\n      add\n        /* \"#utility.yul\":16452:16458   */\n      dup5\n        /* \"#utility.yul\":16408:16480   */\n      tag_111\n      jump\t// in\n    tag_292:\n        /* \"#utility.yul\":16064:16487   */\n      swap4\n      swap3\n      pop\n      pop\n      pop\n      jump\t// out\n        /* \"#utility.yul\":16493:16602   */\n    tag_112:\n        /* \"#utility.yul\":16574:16595   */\n      tag_294\n        /* \"#utility.yul\":16589:16594   */\n      dup2\n        /* \"#utility.yul\":16574:16595   */\n      tag_97\n      jump\t// in\n    tag_294:\n        /* \"#utility.yul\":16569:16572   */\n      dup3\n        /* \"#utility.yul\":16562:16596   */\n      mstore\n        /* \"#utility.yul\":16493:16602   */\n      pop\n      pop\n      jump\t// out\n        /* \"#utility.yul\":16608:17019   */\n    tag_67:\n        /* \"#utility.yul\":16743:16747   */\n      0x00\n        /* \"#utility.yul\":16781:16783   */\n      0x40\n        /* \"#utility.yul\":16770:16779   */\n      dup3\n        /* \"#utility.yul\":16766:16784   */\n      add\n        /* \"#utility.yul\":16758:16784   */\n      swap1\n      pop\n        /* \"#utility.yul\":16830:16839   */\n      dup2\n        /* \"#utility.yul\":16824:16828   */\n      dup2\n        /* \"#utility.yul\":16820:16840   */\n      sub\n        /* \"#utility.yul\":16816:16817   */\n      0x00\n        /* \"#utility.yul\":16805:16814   */\n      dup4\n        /* \"#utility.yul\":16801:16818   */\n      add\n        /* \"#utility.yul\":16794:16841   */\n      mstore\n        /* \"#utility.yul\":16858:16936   */\n      tag_296\n        /* \"#utility.yul\":16931:16935   */\n      dup2\n        /* \"#utility.yul\":16922:16928   */\n      dup6\n        /* \"#utility.yul\":16858:16936   */\n      tag_103\n      jump\t// in\n    tag_296:\n        /* \"#utility.yul\":16850:16936   */\n      swap1\n      pop\n        /* \"#utility.yul\":16946:17012   */\n      tag_297\n        /* \"#utility.yul\":17008:17010   */\n      0x20\n        /* \"#utility.yul\":16997:17006   */\n      dup4\n        /* \"#utility.yul\":16993:17011   */\n      add\n        /* \"#utility.yul\":16984:16990   */\n      dup5\n        /* \"#utility.yul\":16946:17012   */\n      tag_112\n      jump\t// in\n    tag_297:\n        /* \"#utility.yul\":16608:17019   */\n      swap4\n      swap3\n      pop\n      pop\n      pop\n      jump\t// out\n\n    auxdata: 0xa2646970667358221220a26c3b2f7ed8367b4e81ad1f5a16bad6462b67a1cd918ec6ced5a0b8b663552164736f6c634300081a0033\n}\n",
				"bytecode": {
					"linkReferences": {},
					"object": "6080604052348015600e575f80fd5b50610c0c8061001c5f395ff3fe608060405234801561000f575f80fd5b5060043610610086575f3560e01c806341304fac1161005957806341304fac146100fa5780634b5c427714610116578063b60e72cc14610132578063c3b556351461014e57610086565b806323cdd8e81461008a578063319af333146100a65780633692d61a146100c25780633ca6268e146100de575b5f80fd5b6100a4600480360381019061009f919061053a565b61016a565b005b6100c060048036038101906100bb919061060a565b6101a7565b005b6100dc60048036038101906100d79190610697565b6101e4565b005b6100f860048036038101906100f39190610724565b610221565b005b610114600480360381019061010f919061077e565b61025e565b005b610130600480360381019061012b91906107c5565b610298565b005b61014c6004803603810190610147919061086e565b6102d5565b005b610168600480360381019061016391906108fd565b610312565b005b7fe8407a0209fa99ec3a7228aff140c3d3e68bd279391739c7e0b65cd406cc93b5828260405161019b929190610a09565b60405180910390a15050565b7f62ddffe5b5108385f7a590f100e1ee414ad9551a31f089e64e82998440785e1e82826040516101d8929190610a4d565b60405180910390a15050565b7f02d93529bba9d141e5e06733c52c7e6fbcb1149586adb5c24064b522ab26f1d78282604051610215929190610a8a565b60405180910390a15050565b7f6a837ff3973aa4181e7b9f07756f8b7ee366dd85a36655d2cb42cd47f10b96388282604051610252929190610ac7565b60405180910390a15050565b7f02d93529bba9d141e5e06733c52c7e6fbcb1149586adb5c24064b522ab26f1d78160405161028d9190610afb565b60405180910390a150565b7f27a8767ed172b48d7cf6dbb25d2840c5fa91ef78fa6e05c13c82763d099f03ca82826040516102c9929190610b27565b60405180910390a15050565b7f941296a39ea107bde685522318a4b6c2b544904a5dd82a512748ca2cf839bef78282604051610306929190610b6b565b60405180910390a15050565b7f4c34c2f9a78632f29fa59aaed5514cb742fd9fbcfd7ccc2c03c85f2bbc621c478282604051610343929190610ba8565b60405180910390a15050565b5f604051905090565b5f80fd5b5f80fd5b5f80fd5b5f80fd5b5f601f19601f8301169050919050565b7f4e487b71000000000000000000000000000000000000000000000000000000005f52604160045260245ffd5b6103ae82610368565b810181811067ffffffffffffffff821117156103cd576103cc610378565b5b80604052505050565b5f6103df61034f565b90506103eb82826103a5565b919050565b5f67ffffffffffffffff82111561040a57610409610378565b5b61041382610368565b9050602081019050919050565b828183375f83830152505050565b5f61044061043b846103f0565b6103d6565b90508281526020810184848401111561045c5761045b610364565b5b610467848285610420565b509392505050565b5f82601f83011261048357610482610360565b5b813561049384826020860161042e565b91505092915050565b5f67ffffffffffffffff8211156104b6576104b5610378565b5b6104bf82610368565b9050602081019050919050565b5f6104de6104d98461049c565b6103d6565b9050828152602081018484840111156104fa576104f9610364565b5b610505848285610420565b509392505050565b5f82601f83011261052157610520610360565b5b81356105318482602086016104cc565b91505092915050565b5f80604083850312156105505761054f610358565b5b5f83013567ffffffffffffffff81111561056d5761056c61035c565b5b6105798582860161046f565b925050602083013567ffffffffffffffff81111561059a5761059961035c565b5b6105a68582860161050d565b9150509250929050565b5f73ffffffffffffffffffffffffffffffffffffffff82169050919050565b5f6105d9826105b0565b9050919050565b6105e9816105cf565b81146105f3575f80fd5b50565b5f81359050610604816105e0565b92915050565b5f80604083850312156106205761061f610358565b5b5f83013567ffffffffffffffff81111561063d5761063c61035c565b5b6106498582860161046f565b925050602061065a858286016105f6565b9150509250929050565b5f819050919050565b61067681610664565b8114610680575f80fd5b50565b5f813590506106918161066d565b92915050565b5f80604083850312156106ad576106ac610358565b5b5f83013567ffffffffffffffff8111156106ca576106c961035c565b5b6106d68582860161046f565b92505060206106e785828601610683565b9150509250929050565b5f819050919050565b610703816106f1565b811461070d575f80fd5b50565b5f8135905061071e816106fa565b92915050565b5f806040838503121561073a57610739610358565b5b5f83013567ffffffffffffffff8111156107575761075661035c565b5b6107638582860161046f565b925050602061077485828601610710565b9150509250929050565b5f6020828403121561079357610792610358565b5b5f82013567ffffffffffffffff8111156107b0576107af61035c565b5b6107bc8482850161046f565b91505092915050565b5f80604083850312156107db576107da610358565b5b5f83013567ffffffffffffffff8111156107f8576107f761035c565b5b6108048582860161046f565b925050602083013567ffffffffffffffff8111156108255761082461035c565b5b6108318582860161046f565b9150509250929050565b5f819050919050565b61084d8161083b565b8114610857575f80fd5b50565b5f8135905061086881610844565b92915050565b5f806040838503121561088457610883610358565b5b5f83013567ffffffffffffffff8111156108a1576108a061035c565b5b6108ad8582860161046f565b92505060206108be8582860161085a565b9150509250929050565b5f8115159050919050565b6108dc816108c8565b81146108e6575f80fd5b50565b5f813590506108f7816108d3565b92915050565b5f806040838503121561091357610912610358565b5b5f83013567ffffffffffffffff8111156109305761092f61035c565b5b61093c8582860161046f565b925050602061094d858286016108e9565b9150509250929050565b5f81519050919050565b5f82825260208201905092915050565b8281835e5f83830152505050565b5f61098982610957565b6109938185610961565b93506109a3818560208601610971565b6109ac81610368565b840191505092915050565b5f81519050919050565b5f82825260208201905092915050565b5f6109db826109b7565b6109e581856109c1565b93506109f5818560208601610971565b6109fe81610368565b840191505092915050565b5f6040820190508181035f830152610a21818561097f565b90508181036020830152610a3581846109d1565b90509392505050565b610a47816105cf565b82525050565b5f6040820190508181035f830152610a65818561097f565b9050610a746020830184610a3e565b9392505050565b610a8481610664565b82525050565b5f6040820190508181035f830152610aa2818561097f565b9050610ab16020830184610a7b565b9392505050565b610ac1816106f1565b82525050565b5f6040820190508181035f830152610adf818561097f565b9050610aee6020830184610ab8565b9392505050565b5f815250565b5f6040820190508181035f830152610b13818461097f565b9050610b2160208301610af5565b92915050565b5f6040820190508181035f830152610b3f818561097f565b90508181036020830152610b53818461097f565b90509392505050565b610b658161083b565b82525050565b5f6040820190508181035f830152610b83818561097f565b9050610b926020830184610b5c565b9392505050565b610ba2816108c8565b82525050565b5f6040820190508181035f830152610bc0818561097f565b9050610bcf6020830184610b99565b939250505056fea2646970667358221220a26c3b2f7ed8367b4e81ad1f5a16bad6462b67a1cd918ec6ced5a0b8b663552164736f6c634300081a0033",
					"opcodes": "PUSH1 0x80 PUSH1 0x40 MSTORE CALLVALUE DUP1 ISZERO PUSH1 0xE JUMPI PUSH0 DUP1 REVERT JUMPDEST POP PUSH2 0xC0C DUP1 PUSH2 0x1C PUSH0 CODECOPY PUSH0 RETURN INVALID PUSH1 0x80 PUSH1 0x40 MSTORE CALLVALUE DUP1 ISZERO PUSH2 0xF JUMPI PUSH0 DUP1 REVERT JUMPDEST POP PUSH1 0x4 CALLDATASIZE LT PUSH2 0x86 JUMPI PUSH0 CALLDATALOAD PUSH1 0xE0 SHR DUP1 PUSH4 0x41304FAC GT PUSH2 0x59 JUMPI DUP1 PUSH4 0x41304FAC EQ PUSH2 0xFA JUMPI DUP1 PUSH4 0x4B5C4277 EQ PUSH2 0x116 JUMPI DUP1 PUSH4 0xB60E72CC EQ PUSH2 0x132 JUMPI DUP1 PUSH4 0xC3B55635 EQ PUSH2 0x14E JUMPI PUSH2 0x86 JUMP JUMPDEST DUP1 PUSH4 0x23CDD8E8 EQ PUSH2 0x8A JUMPI DUP1 PUSH4 0x319AF333 EQ PUSH2 0xA6 JUMPI DUP1 PUSH4 0x3692D61A EQ PUSH2 0xC2 JUMPI DUP1 PUSH4 0x3CA6268E EQ PUSH2 0xDE JUMPI JUMPDEST PUSH0 DUP1 REVERT JUMPDEST PUSH2 0xA4 PUSH1 0x4 DUP1 CALLDATASIZE SUB DUP2 ADD SWAP1 PUSH2 0x9F SWAP2 SWAP1 PUSH2 0x53A JUMP JUMPDEST PUSH2 0x16A JUMP JUMPDEST STOP JUMPDEST PUSH2 0xC0 PUSH1 0x4 DUP1 CALLDATASIZE SUB DUP2 ADD SWAP1 PUSH2 0xBB SWAP2 SWAP1 PUSH2 0x60A JUMP JUMPDEST PUSH2 0x1A7 JUMP JUMPDEST STOP JUMPDEST PUSH2 0xDC PUSH1 0x4 DUP1 CALLDATASIZE SUB DUP2 ADD SWAP1 PUSH2 0xD7 SWAP2 SWAP1 PUSH2 0x697 JUMP JUMPDEST PUSH2 0x1E4 JUMP JUMPDEST STOP JUMPDEST PUSH2 0xF8 PUSH1 0x4 DUP1 CALLDATASIZE SUB DUP2 ADD SWAP1 PUSH2 0xF3 SWAP2 SWAP1 PUSH2 0x724 JUMP JUMPDEST PUSH2 0x221 JUMP JUMPDEST STOP JUMPDEST PUSH2 0x114 PUSH1 0x4 DUP1 CALLDATASIZE SUB DUP2 ADD SWAP1 PUSH2 0x10F SWAP2 SWAP1 PUSH2 0x77E JUMP JUMPDEST PUSH2 0x25E JUMP JUMPDEST STOP JUMPDEST PUSH2 0x130 PUSH1 0x4 DUP1 CALLDATASIZE SUB DUP2 ADD SWAP1 PUSH2 0x12B SWAP2 SWAP1 PUSH2 0x7C5 JUMP JUMPDEST PUSH2 0x298 JUMP JUMPDEST STOP JUMPDEST PUSH2 0x14C PUSH1 0x4 DUP1 CALLDATASIZE SUB DUP2 ADD SWAP1 PUSH2 0x147 SWAP2 SWAP1 PUSH2 0x86E JUMP JUMPDEST PUSH2 0x2D5 JUMP JUMPDEST STOP JUMPDEST PUSH2 0x168 PUSH1 0x4 DUP1 CALLDATASIZE SUB DUP2 ADD SWAP1 PUSH2 0x163 SWAP2 SWAP1 PUSH2 0x8FD JUMP JUMPDEST PUSH2 0x312 JUMP JUMPDEST STOP JUMPDEST PUSH32 0xE8407A0209FA99EC3A7228AFF140C3D3E68BD279391739C7E0B65CD406CC93B5 DUP3 DUP3 PUSH1 0x40 MLOAD PUSH2 0x19B SWAP3 SWAP2 SWAP1 PUSH2 0xA09 JUMP JUMPDEST PUSH1 0x40 MLOAD DUP1 SWAP2 SUB SWAP1 LOG1 POP POP JUMP JUMPDEST PUSH32 0x62DDFFE5B5108385F7A590F100E1EE414AD9551A31F089E64E82998440785E1E DUP3 DUP3 PUSH1 0x40 MLOAD PUSH2 0x1D8 SWAP3 SWAP2 SWAP1 PUSH2 0xA4D JUMP JUMPDEST PUSH1 0x40 MLOAD DUP1 SWAP2 SUB SWAP1 LOG1 POP POP JUMP JUMPDEST PUSH32 0x2D93529BBA9D141E5E06733C52C7E6FBCB1149586ADB5C24064B522AB26F1D7 DUP3 DUP3 PUSH1 0x40 MLOAD PUSH2 0x215 SWAP3 SWAP2 SWAP1 PUSH2 0xA8A JUMP JUMPDEST PUSH1 0x40 MLOAD DUP1 SWAP2 SUB SWAP1 LOG1 POP POP JUMP JUMPDEST PUSH32 0x6A837FF3973AA4181E7B9F07756F8B7EE366DD85A36655D2CB42CD47F10B9638 DUP3 DUP3 PUSH1 0x40 MLOAD PUSH2 0x252 SWAP3 SWAP2 SWAP1 PUSH2 0xAC7 JUMP JUMPDEST PUSH1 0x40 MLOAD DUP1 SWAP2 SUB SWAP1 LOG1 POP POP JUMP JUMPDEST PUSH32 0x2D93529BBA9D141E5E06733C52C7E6FBCB1149586ADB5C24064B522AB26F1D7 DUP2 PUSH1 0x40 MLOAD PUSH2 0x28D SWAP2 SWAP1 PUSH2 0xAFB JUMP JUMPDEST PUSH1 0x40 MLOAD DUP1 SWAP2 SUB SWAP1 LOG1 POP JUMP JUMPDEST PUSH32 0x27A8767ED172B48D7CF6DBB25D2840C5FA91EF78FA6E05C13C82763D099F03CA DUP3 DUP3 PUSH1 0x40 MLOAD PUSH2 0x2C9 SWAP3 SWAP2 SWAP1 PUSH2 0xB27 JUMP JUMPDEST PUSH1 0x40 MLOAD DUP1 SWAP2 SUB SWAP1 LOG1 POP POP JUMP JUMPDEST PUSH32 0x941296A39EA107BDE685522318A4B6C2B544904A5DD82A512748CA2CF839BEF7 DUP3 DUP3 PUSH1 0x40 MLOAD PUSH2 0x306 SWAP3 SWAP2 SWAP1 PUSH2 0xB6B JUMP JUMPDEST PUSH1 0x40 MLOAD DUP1 SWAP2 SUB SWAP1 LOG1 POP POP JUMP JUMPDEST PUSH32 0x4C34C2F9A78632F29FA59AAED5514CB742FD9FBCFD7CCC2C03C85F2BBC621C47 DUP3 DUP3 PUSH1 0x40 MLOAD PUSH2 0x343 SWAP3 SWAP2 SWAP1 PUSH2 0xBA8 JUMP JUMPDEST PUSH1 0x40 MLOAD DUP1 SWAP2 SUB SWAP1 LOG1 POP POP JUMP JUMPDEST PUSH0 PUSH1 0x40 MLOAD SWAP1 POP SWAP1 JUMP JUMPDEST PUSH0 DUP1 REVERT JUMPDEST PUSH0 DUP1 REVERT JUMPDEST PUSH0 DUP1 REVERT JUMPDEST PUSH0 DUP1 REVERT JUMPDEST PUSH0 PUSH1 0x1F NOT PUSH1 0x1F DUP4 ADD AND SWAP1 POP SWAP2 SWAP1 POP JUMP JUMPDEST PUSH32 0x4E487B7100000000000000000000000000000000000000000000000000000000 PUSH0 MSTORE PUSH1 0x41 PUSH1 0x4 MSTORE PUSH1 0x24 PUSH0 REVERT JUMPDEST PUSH2 0x3AE DUP3 PUSH2 0x368 JUMP JUMPDEST DUP2 ADD DUP2 DUP2 LT PUSH8 0xFFFFFFFFFFFFFFFF DUP3 GT OR ISZERO PUSH2 0x3CD JUMPI PUSH2 0x3CC PUSH2 0x378 JUMP JUMPDEST JUMPDEST DUP1 PUSH1 0x40 MSTORE POP POP POP JUMP JUMPDEST PUSH0 PUSH2 0x3DF PUSH2 0x34F JUMP JUMPDEST SWAP1 POP PUSH2 0x3EB DUP3 DUP3 PUSH2 0x3A5 JUMP JUMPDEST SWAP2 SWAP1 POP JUMP JUMPDEST PUSH0 PUSH8 0xFFFFFFFFFFFFFFFF DUP3 GT ISZERO PUSH2 0x40A JUMPI PUSH2 0x409 PUSH2 0x378 JUMP JUMPDEST JUMPDEST PUSH2 0x413 DUP3 PUSH2 0x368 JUMP JUMPDEST SWAP1 POP PUSH1 0x20 DUP2 ADD SWAP1 POP SWAP2 SWAP1 POP JUMP JUMPDEST DUP3 DUP2 DUP4 CALLDATACOPY PUSH0 DUP4 DUP4 ADD MSTORE POP POP POP JUMP JUMPDEST PUSH0 PUSH2 0x440 PUSH2 0x43B DUP5 PUSH2 0x3F0 JUMP JUMPDEST PUSH2 0x3D6 JUMP JUMPDEST SWAP1 POP DUP3 DUP2 MSTORE PUSH1 0x20 DUP2 ADD DUP5 DUP5 DUP5 ADD GT ISZERO PUSH2 0x45C JUMPI PUSH2 0x45B PUSH2 0x364 JUMP JUMPDEST JUMPDEST PUSH2 0x467 DUP5 DUP3 DUP6 PUSH2 0x420 JUMP JUMPDEST POP SWAP4 SWAP3 POP POP POP JUMP JUMPDEST PUSH0 DUP3 PUSH1 0x1F DUP4 ADD SLT PUSH2 0x483 JUMPI PUSH2 0x482 PUSH2 0x360 JUMP JUMPDEST JUMPDEST DUP2 CALLDATALOAD PUSH2 0x493 DUP5 DUP3 PUSH1 0x20 DUP7 ADD PUSH2 0x42E JUMP JUMPDEST SWAP2 POP POP SWAP3 SWAP2 POP POP JUMP JUMPDEST PUSH0 PUSH8 0xFFFFFFFFFFFFFFFF DUP3 GT ISZERO PUSH2 0x4B6 JUMPI PUSH2 0x4B5 PUSH2 0x378 JUMP JUMPDEST JUMPDEST PUSH2 0x4BF DUP3 PUSH2 0x368 JUMP JUMPDEST SWAP1 POP PUSH1 0x20 DUP2 ADD SWAP1 POP SWAP2 SWAP1 POP JUMP JUMPDEST PUSH0 PUSH2 0x4DE PUSH2 0x4D9 DUP5 PUSH2 0x49C JUMP JUMPDEST PUSH2 0x3D6 JUMP JUMPDEST SWAP1 POP DUP3 DUP2 MSTORE PUSH1 0x20 DUP2 ADD DUP5 DUP5 DUP5 ADD GT ISZERO PUSH2 0x4FA JUMPI PUSH2 0x4F9 PUSH2 0x364 JUMP JUMPDEST JUMPDEST PUSH2 0x505 DUP5 DUP3 DUP6 PUSH2 0x420 JUMP JUMPDEST POP SWAP4 SWAP3 POP POP POP JUMP JUMPDEST PUSH0 DUP3 PUSH1 0x1F DUP4 ADD SLT PUSH2 0x521 JUMPI PUSH2 0x520 PUSH2 0x360 JUMP JUMPDEST JUMPDEST DUP2 CALLDATALOAD PUSH2 0x531 DUP5 DUP3 PUSH1 0x20 DUP7 ADD PUSH2 0x4CC JUMP JUMPDEST SWAP2 POP POP SWAP3 SWAP2 POP POP JUMP JUMPDEST PUSH0 DUP1 PUSH1 0x40 DUP4 DUP6 SUB SLT ISZERO PUSH2 0x550 JUMPI PUSH2 0x54F PUSH2 0x358 JUMP JUMPDEST JUMPDEST PUSH0 DUP4 ADD CALLDATALOAD PUSH8 0xFFFFFFFFFFFFFFFF DUP2 GT ISZERO PUSH2 0x56D JUMPI PUSH2 0x56C PUSH2 0x35C JUMP JUMPDEST JUMPDEST PUSH2 0x579 DUP6 DUP3 DUP7 ADD PUSH2 0x46F JUMP JUMPDEST SWAP3 POP POP PUSH1 0x20 DUP4 ADD CALLDATALOAD PUSH8 0xFFFFFFFFFFFFFFFF DUP2 GT ISZERO PUSH2 0x59A JUMPI PUSH2 0x599 PUSH2 0x35C JUMP JUMPDEST JUMPDEST PUSH2 0x5A6 DUP6 DUP3 DUP7 ADD PUSH2 0x50D JUMP JUMPDEST SWAP2 POP POP SWAP3 POP SWAP3 SWAP1 POP JUMP JUMPDEST PUSH0 PUSH20 0xFFFFFFFFFFFFFFFFFFFFFFFFFFFFFFFFFFFFFFFF DUP3 AND SWAP1 POP SWAP2 SWAP1 POP JUMP JUMPDEST PUSH0 PUSH2 0x5D9 DUP3 PUSH2 0x5B0 JUMP JUMPDEST SWAP1 POP SWAP2 SWAP1 POP JUMP JUMPDEST PUSH2 0x5E9 DUP2 PUSH2 0x5CF JUMP JUMPDEST DUP2 EQ PUSH2 0x5F3 JUMPI PUSH0 DUP1 REVERT JUMPDEST POP JUMP JUMPDEST PUSH0 DUP2 CALLDATALOAD SWAP1 POP PUSH2 0x604 DUP2 PUSH2 0x5E0 JUMP JUMPDEST SWAP3 SWAP2 POP POP JUMP JUMPDEST PUSH0 DUP1 PUSH1 0x40 DUP4 DUP6 SUB SLT ISZERO PUSH2 0x620 JUMPI PUSH2 0x61F PUSH2 0x358 JUMP JUMPDEST JUMPDEST PUSH0 DUP4 ADD CALLDATALOAD PUSH8 0xFFFFFFFFFFFFFFFF DUP2 GT ISZERO PUSH2 0x63D JUMPI PUSH2 0x63C PUSH2 0x35C JUMP JUMPDEST JUMPDEST PUSH2 0x649 DUP6 DUP3 DUP7 ADD PUSH2 0x46F JUMP JUMPDEST SWAP3 POP POP PUSH1 0x20 PUSH2 0x65A DUP6 DUP3 DUP7 ADD PUSH2 0x5F6 JUMP JUMPDEST SWAP2 POP POP SWAP3 POP SWAP3 SWAP1 POP JUMP JUMPDEST PUSH0 DUP2 SWAP1 POP SWAP2 SWAP1 POP JUMP JUMPDEST PUSH2 0x676 DUP2 PUSH2 0x664 JUMP JUMPDEST DUP2 EQ PUSH2 0x680 JUMPI PUSH0 DUP1 REVERT JUMPDEST POP JUMP JUMPDEST PUSH0 DUP2 CALLDATALOAD SWAP1 POP PUSH2 0x691 DUP2 PUSH2 0x66D JUMP JUMPDEST SWAP3 SWAP2 POP POP JUMP JUMPDEST PUSH0 DUP1 PUSH1 0x40 DUP4 DUP6 SUB SLT ISZERO PUSH2 0x6AD JUMPI PUSH2 0x6AC PUSH2 0x358 JUMP JUMPDEST JUMPDEST PUSH0 DUP4 ADD CALLDATALOAD PUSH8 0xFFFFFFFFFFFFFFFF DUP2 GT ISZERO PUSH2 0x6CA JUMPI PUSH2 0x6C9 PUSH2 0x35C JUMP JUMPDEST JUMPDEST PUSH2 0x6D6 DUP6 DUP3 DUP7 ADD PUSH2 0x46F JUMP JUMPDEST SWAP3 POP POP PUSH1 0x20 PUSH2 0x6E7 DUP6 DUP3 DUP7 ADD PUSH2 0x683 JUMP JUMPDEST SWAP2 POP POP SWAP3 POP SWAP3 SWAP1 POP JUMP JUMPDEST PUSH0 DUP2 SWAP1 POP SWAP2 SWAP1 POP JUMP JUMPDEST PUSH2 0x703 DUP2 PUSH2 0x6F1 JUMP JUMPDEST DUP2 EQ PUSH2 0x70D JUMPI PUSH0 DUP1 REVERT JUMPDEST POP JUMP JUMPDEST PUSH0 DUP2 CALLDATALOAD SWAP1 POP PUSH2 0x71E DUP2 PUSH2 0x6FA JUMP JUMPDEST SWAP3 SWAP2 POP POP JUMP JUMPDEST PUSH0 DUP1 PUSH1 0x40 DUP4 DUP6 SUB SLT ISZERO PUSH2 0x73A JUMPI PUSH2 0x739 PUSH2 0x358 JUMP JUMPDEST JUMPDEST PUSH0 DUP4 ADD CALLDATALOAD PUSH8 0xFFFFFFFFFFFFFFFF DUP2 GT ISZERO PUSH2 0x757 JUMPI PUSH2 0x756 PUSH2 0x35C JUMP JUMPDEST JUMPDEST PUSH2 0x763 DUP6 DUP3 DUP7 ADD PUSH2 0x46F JUMP JUMPDEST SWAP3 POP POP PUSH1 0x20 PUSH2 0x774 DUP6 DUP3 DUP7 ADD PUSH2 0x710 JUMP JUMPDEST SWAP2 POP POP SWAP3 POP SWAP3 SWAP1 POP JUMP JUMPDEST PUSH0 PUSH1 0x20 DUP3 DUP5 SUB SLT ISZERO PUSH2 0x793 JUMPI PUSH2 0x792 PUSH2 0x358 JUMP JUMPDEST JUMPDEST PUSH0 DUP3 ADD CALLDATALOAD PUSH8 0xFFFFFFFFFFFFFFFF DUP2 GT ISZERO PUSH2 0x7B0 JUMPI PUSH2 0x7AF PUSH2 0x35C JUMP JUMPDEST JUMPDEST PUSH2 0x7BC DUP5 DUP3 DUP6 ADD PUSH2 0x46F JUMP JUMPDEST SWAP2 POP POP SWAP3 SWAP2 POP POP JUMP JUMPDEST PUSH0 DUP1 PUSH1 0x40 DUP4 DUP6 SUB SLT ISZERO PUSH2 0x7DB JUMPI PUSH2 0x7DA PUSH2 0x358 JUMP JUMPDEST JUMPDEST PUSH0 DUP4 ADD CALLDATALOAD PUSH8 0xFFFFFFFFFFFFFFFF DUP2 GT ISZERO PUSH2 0x7F8 JUMPI PUSH2 0x7F7 PUSH2 0x35C JUMP JUMPDEST JUMPDEST PUSH2 0x804 DUP6 DUP3 DUP7 ADD PUSH2 0x46F JUMP JUMPDEST SWAP3 POP POP PUSH1 0x20 DUP4 ADD CALLDATALOAD PUSH8 0xFFFFFFFFFFFFFFFF DUP2 GT ISZERO PUSH2 0x825 JUMPI PUSH2 0x824 PUSH2 0x35C JUMP JUMPDEST JUMPDEST PUSH2 0x831 DUP6 DUP3 DUP7 ADD PUSH2 0x46F JUMP JUMPDEST SWAP2 POP POP SWAP3 POP SWAP3 SWAP1 POP JUMP JUMPDEST PUSH0 DUP2 SWAP1 POP SWAP2 SWAP1 POP JUMP JUMPDEST PUSH2 0x84D DUP2 PUSH2 0x83B JUMP JUMPDEST DUP2 EQ PUSH2 0x857 JUMPI PUSH0 DUP1 REVERT JUMPDEST POP JUMP JUMPDEST PUSH0 DUP2 CALLDATALOAD SWAP1 POP PUSH2 0x868 DUP2 PUSH2 0x844 JUMP JUMPDEST SWAP3 SWAP2 POP POP JUMP JUMPDEST PUSH0 DUP1 PUSH1 0x40 DUP4 DUP6 SUB SLT ISZERO PUSH2 0x884 JUMPI PUSH2 0x883 PUSH2 0x358 JUMP JUMPDEST JUMPDEST PUSH0 DUP4 ADD CALLDATALOAD PUSH8 0xFFFFFFFFFFFFFFFF DUP2 GT ISZERO PUSH2 0x8A1 JUMPI PUSH2 0x8A0 PUSH2 0x35C JUMP JUMPDEST JUMPDEST PUSH2 0x8AD DUP6 DUP3 DUP7 ADD PUSH2 0x46F JUMP JUMPDEST SWAP3 POP POP PUSH1 0x20 PUSH2 0x8BE DUP6 DUP3 DUP7 ADD PUSH2 0x85A JUMP JUMPDEST SWAP2 POP POP SWAP3 POP SWAP3 SWAP1 POP JUMP JUMPDEST PUSH0 DUP2 ISZERO ISZERO SWAP1 POP SWAP2 SWAP1 POP JUMP JUMPDEST PUSH2 0x8DC DUP2 PUSH2 0x8C8 JUMP JUMPDEST DUP2 EQ PUSH2 0x8E6 JUMPI PUSH0 DUP1 REVERT JUMPDEST POP JUMP JUMPDEST PUSH0 DUP2 CALLDATALOAD SWAP1 POP PUSH2 0x8F7 DUP2 PUSH2 0x8D3 JUMP JUMPDEST SWAP3 SWAP2 POP POP JUMP JUMPDEST PUSH0 DUP1 PUSH1 0x40 DUP4 DUP6 SUB SLT ISZERO PUSH2 0x913 JUMPI PUSH2 0x912 PUSH2 0x358 JUMP JUMPDEST JUMPDEST PUSH0 DUP4 ADD CALLDATALOAD PUSH8 0xFFFFFFFFFFFFFFFF DUP2 GT ISZERO PUSH2 0x930 JUMPI PUSH2 0x92F PUSH2 0x35C JUMP JUMPDEST JUMPDEST PUSH2 0x93C DUP6 DUP3 DUP7 ADD PUSH2 0x46F JUMP JUMPDEST SWAP3 POP POP PUSH1 0x20 PUSH2 0x94D DUP6 DUP3 DUP7 ADD PUSH2 0x8E9 JUMP JUMPDEST SWAP2 POP POP SWAP3 POP SWAP3 SWAP1 POP JUMP JUMPDEST PUSH0 DUP2 MLOAD SWAP1 POP SWAP2 SWAP1 POP JUMP JUMPDEST PUSH0 DUP3 DUP3 MSTORE PUSH1 0x20 DUP3 ADD SWAP1 POP SWAP3 SWAP2 POP POP JUMP JUMPDEST DUP3 DUP2 DUP4 MCOPY PUSH0 DUP4 DUP4 ADD MSTORE POP POP POP JUMP JUMPDEST PUSH0 PUSH2 0x989 DUP3 PUSH2 0x957 JUMP JUMPDEST PUSH2 0x993 DUP2 DUP6 PUSH2 0x961 JUMP JUMPDEST SWAP4 POP PUSH2 0x9A3 DUP2 DUP6 PUSH1 0x20 DUP7 ADD PUSH2 0x971 JUMP JUMPDEST PUSH2 0x9AC DUP2 PUSH2 0x368 JUMP JUMPDEST DUP5 ADD SWAP2 POP POP SWAP3 SWAP2 POP POP JUMP JUMPDEST PUSH0 DUP2 MLOAD SWAP1 POP SWAP2 SWAP1 POP JUMP JUMPDEST PUSH0 DUP3 DUP3 MSTORE PUSH1 0x20 DUP3 ADD SWAP1 POP SWAP3 SWAP2 POP POP JUMP JUMPDEST PUSH0 PUSH2 0x9DB DUP3 PUSH2 0x9B7 JUMP JUMPDEST PUSH2 0x9E5 DUP2 DUP6 PUSH2 0x9C1 JUMP JUMPDEST SWAP4 POP PUSH2 0x9F5 DUP2 DUP6 PUSH1 0x20 DUP7 ADD PUSH2 0x971 JUMP JUMPDEST PUSH2 0x9FE DUP2 PUSH2 0x368 JUMP JUMPDEST DUP5 ADD SWAP2 POP POP SWAP3 SWAP2 POP POP JUMP JUMPDEST PUSH0 PUSH1 0x40 DUP3 ADD SWAP1 POP DUP2 DUP2 SUB PUSH0 DUP4 ADD MSTORE PUSH2 0xA21 DUP2 DUP6 PUSH2 0x97F JUMP JUMPDEST SWAP1 POP DUP2 DUP2 SUB PUSH1 0x20 DUP4 ADD MSTORE PUSH2 0xA35 DUP2 DUP5 PUSH2 0x9D1 JUMP JUMPDEST SWAP1 POP SWAP4 SWAP3 POP POP POP JUMP JUMPDEST PUSH2 0xA47 DUP2 PUSH2 0x5CF JUMP JUMPDEST DUP3 MSTORE POP POP JUMP JUMPDEST PUSH0 PUSH1 0x40 DUP3 ADD SWAP1 POP DUP2 DUP2 SUB PUSH0 DUP4 ADD MSTORE PUSH2 0xA65 DUP2 DUP6 PUSH2 0x97F JUMP JUMPDEST SWAP1 POP PUSH2 0xA74 PUSH1 0x20 DUP4 ADD DUP5 PUSH2 0xA3E JUMP JUMPDEST SWAP4 SWAP3 POP POP POP JUMP JUMPDEST PUSH2 0xA84 DUP2 PUSH2 0x664 JUMP JUMPDEST DUP3 MSTORE POP POP JUMP JUMPDEST PUSH0 PUSH1 0x40 DUP3 ADD SWAP1 POP DUP2 DUP2 SUB PUSH0 DUP4 ADD MSTORE PUSH2 0xAA2 DUP2 DUP6 PUSH2 0x97F JUMP JUMPDEST SWAP1 POP PUSH2 0xAB1 PUSH1 0x20 DUP4 ADD DUP5 PUSH2 0xA7B JUMP JUMPDEST SWAP4 SWAP3 POP POP POP JUMP JUMPDEST PUSH2 0xAC1 DUP2 PUSH2 0x6F1 JUMP JUMPDEST DUP3 MSTORE POP POP JUMP JUMPDEST PUSH0 PUSH1 0x40 DUP3 ADD SWAP1 POP DUP2 DUP2 SUB PUSH0 DUP4 ADD MSTORE PUSH2 0xADF DUP2 DUP6 PUSH2 0x97F JUMP JUMPDEST SWAP1 POP PUSH2 0xAEE PUSH1 0x20 DUP4 ADD DUP5 PUSH2 0xAB8 JUMP JUMPDEST SWAP4 SWAP3 POP POP POP JUMP JUMPDEST PUSH0 DUP2 MSTORE POP JUMP JUMPDEST PUSH0 PUSH1 0x40 DUP3 ADD SWAP1 POP DUP2 DUP2 SUB PUSH0 DUP4 ADD MSTORE PUSH2 0xB13 DUP2 DUP5 PUSH2 0x97F JUMP JUMPDEST SWAP1 POP PUSH2 0xB21 PUSH1 0x20 DUP4 ADD PUSH2 0xAF5 JUMP JUMPDEST SWAP3 SWAP2 POP POP JUMP JUMPDEST PUSH0 PUSH1 0x40 DUP3 ADD SWAP1 POP DUP2 DUP2 SUB PUSH0 DUP4 ADD MSTORE PUSH2 0xB3F DUP2 DUP6 PUSH2 0x97F JUMP JUMPDEST SWAP1 POP DUP2 DUP2 SUB PUSH1 0x20 DUP4 ADD MSTORE PUSH2 0xB53 DUP2 DUP5 PUSH2 0x97F JUMP JUMPDEST SWAP1 POP SWAP4 SWAP3 POP POP POP JUMP JUMPDEST PUSH2 0xB65 DUP2 PUSH2 0x83B JUMP JUMPDEST DUP3 MSTORE POP POP JUMP JUMPDEST PUSH0 PUSH1 0x40 DUP3 ADD SWAP1 POP DUP2 DUP2 SUB PUSH0 DUP4 ADD MSTORE PUSH2 0xB83 DUP2 DUP6 PUSH2 0x97F JUMP JUMPDEST SWAP1 POP PUSH2 0xB92 PUSH1 0x20 DUP4 ADD DUP5 PUSH2 0xB5C JUMP JUMPDEST SWAP4 SWAP3 POP POP POP JUMP JUMPDEST PUSH2 0xBA2 DUP2 PUSH2 0x8C8 JUMP JUMPDEST DUP3 MSTORE POP POP JUMP JUMPDEST PUSH0 PUSH1 0x40 DUP3 ADD SWAP1 POP DUP2 DUP2 SUB PUSH0 DUP4 ADD MSTORE PUSH2 0xBC0 DUP2 DUP6 PUSH2 0x97F JUMP JUMPDEST SWAP1 POP PUSH2 0xBCF PUSH1 0x20 DUP4 ADD DUP5 PUSH2 0xB99 JUMP JUMPDEST SWAP4 SWAP3 POP POP POP JUMP INVALID LOG2 PUSH5 0x6970667358 0x22 SLT KECCAK256 LOG2 PUSH13 0x3B2F7ED8367B4E81AD1F5A16BA 0xD6 CHAINID 0x2B PUSH8 0xA1CD918EC6CED5A0 0xB8 0xB6 PUSH4 0x55216473 PUSH16 0x6C634300081A00330000000000000000 "
				},
				"gasEstimates": {
					"creation": {
						"codeDepositCost": "616800",
						"executionCost": "649",
						"totalCost": "617449"
					},
					"external": {
						"log(string)": "infinite",
						"log(string,address)": "infinite",
						"log(string,bool)": "infinite",
						"log(string,bytes)": "infinite",
						"log(string,bytes32)": "infinite",
						"log(string,int256)": "infinite",
						"log(string,string)": "infinite",
						"log(string,uint256)": "infinite"
					}
				},
				"methodIdentifiers": {
					"log(string)": "41304fac",
					"log(string,address)": "319af333",
					"log(string,bool)": "c3b55635",
					"log(string,bytes)": "23cdd8e8",
					"log(string,bytes32)": "3692d61a",
					"log(string,int256)": "3ca6268e",
					"log(string,string)": "4b5c4277",
					"log(string,uint256)": "b60e72cc"
				}
			},
			"storageLayout": {
				"storage": [],
				"types": null
			},
			"userdoc": {
				"kind": "user",
				"methods": {},
				"version": 1
			}
		}
	}
}