{
	"data": {
		"bytecode": {
			"linkReferences": {},
			"object": "60c060405234801561000f575f80fd5b5060405161361e38038061361e833981810160405281019061003191906102ad565b33818073ffffffffffffffffffffffffffffffffffffffff1660808173ffffffffffffffffffffffffffffffffffffffff16815250508073ffffffffffffffffffffffffffffffffffffffff1663026b1d5f6040518163ffffffff1660e01b8152600401602060405180830381865afa1580156100b0573d5f803e3d5ffd5b505050506040513d601f19601f820116820180604052508101906100d491906102ad565b73ffffffffffffffffffffffffffffffffffffffff1660a08173ffffffffffffffffffffffffffffffffffffffff1681525050505f73ffffffffffffffffffffffffffffffffffffffff168173ffffffffffffffffffffffffffffffffffffffff1603610178575f6040517f1e4fbdf700000000000000000000000000000000000000000000000000000000815260040161016f91906102e7565b60405180910390fd5b6101878161018e60201b60201c565b5050610300565b5f805f9054906101000a900473ffffffffffffffffffffffffffffffffffffffff169050815f806101000a81548173ffffffffffffffffffffffffffffffffffffffff021916908373ffffffffffffffffffffffffffffffffffffffff1602179055508173ffffffffffffffffffffffffffffffffffffffff168173ffffffffffffffffffffffffffffffffffffffff167f8be0079c531659141344cd1fd0a4f28419497f9722a3daafe3b4186f6b6457e060405160405180910390a35050565b5f80fd5b5f73ffffffffffffffffffffffffffffffffffffffff82169050919050565b5f61027c82610253565b9050919050565b61028c81610272565b8114610296575f80fd5b50565b5f815190506102a781610283565b92915050565b5f602082840312156102c2576102c161024f565b5b5f6102cf84828501610299565b91505092915050565b6102e181610272565b82525050565b5f6020820190506102fa5f8301846102d8565b92915050565b60805160a0516132e86103365f395f81816107fd01528181610cfb01528181610f90015261102701525f6102e601526132e85ff3fe608060405234801561000f575f80fd5b50600436106100b2575f3560e01c8063715018a61161006f578063715018a61461019f5780637535d246146101a95780638da5cb5b146101c75780639cbf194d146101e5578063cb42019c14610201578063f2fde38b14610231576100b2565b806303d911d9146100b65780630542975c146100e657806306b091f9146101045780631b11d0ff14610120578063245c94d3146101505780634318383414610181575b5f80fd5b6100d060048036038101906100cb9190611d04565b61024d565b6040516100dd9190611d3e565b60405180910390f35b6100ee6102e4565b6040516100fb9190611dd1565b60405180910390f35b61011e60048036038101906101199190611e25565b610308565b005b61013a60048036038101906101359190611ec4565b61052a565b6040516101479190611f74565b60405180910390f35b61016a60048036038101906101659190611fe2565b610979565b604051610178929190612053565b60405180910390f35b610189610ce0565b6040516101969190611d3e565b60405180910390f35b6101a7610ce6565b005b6101b1610cf9565b6040516101be919061209a565b60405180910390f35b6101cf610d1d565b6040516101dc91906120c2565b60405180910390f35b6101ff60048036038101906101fa9190611fe2565b610d44565b005b61021b60048036038101906102169190611e25565b611023565b6040516102289190611d3e565b60405180910390f35b61024b600480360381019061024691906120db565b6110ed565b005b5f8160028190555060015f9054906101000a900473ffffffffffffffffffffffffffffffffffffffff1673ffffffffffffffffffffffffffffffffffffffff1663b60e72cc836040518263ffffffff1660e01b81526004016102af9190612160565b5f604051808303815f87803b1580156102c6575f80fd5b505af11580156102d8573d5f803e3d5ffd5b50505050819050919050565b7f000000000000000000000000000000000000000000000000000000000000000081565b610310611171565b60015f9054906101000a900473ffffffffffffffffffffffffffffffffffffffff1673ffffffffffffffffffffffffffffffffffffffff166341304fac6040518163ffffffff1660e01b8152600401610368906121fc565b5f604051808303815f87803b15801561037f575f80fd5b505af1158015610391573d5f803e3d5ffd5b5050505060015f9054906101000a900473ffffffffffffffffffffffffffffffffffffffff1673ffffffffffffffffffffffffffffffffffffffff1663319af333836040518263ffffffff1660e01b81526004016103ef9190612264565b5f604051808303815f87803b158015610406575f80fd5b505af1158015610418573d5f803e3d5ffd5b5050505060015f9054906101000a900473ffffffffffffffffffffffffffffffffffffffff1673ffffffffffffffffffffffffffffffffffffffff1663b60e72cc826040518263ffffffff1660e01b815260040161047691906122da565b5f604051808303815f87803b15801561048d575f80fd5b505af115801561049f573d5f803e3d5ffd5b505050508173ffffffffffffffffffffffffffffffffffffffff1663a9059cbb6104c7610d1d565b836040518363ffffffff1660e01b81526004016104e5929190612306565b6020604051808303815f875af1158015610501573d5f803e3d5ffd5b505050506040513d601f19601f820116820180604052508101906105259190612357565b505050565b5f60015f9054906101000a900473ffffffffffffffffffffffffffffffffffffffff1673ffffffffffffffffffffffffffffffffffffffff166341304fac6040518163ffffffff1660e01b8152600401610583906123f2565b5f604051808303815f87803b15801561059a575f80fd5b505af11580156105ac573d5f803e3d5ffd5b5050505060015f9054906101000a900473ffffffffffffffffffffffffffffffffffffffff1673ffffffffffffffffffffffffffffffffffffffff1663319af333886040518263ffffffff1660e01b815260040161060a919061245a565b5f604051808303815f87803b158015610621575f80fd5b505af1158015610633573d5f803e3d5ffd5b5050505060015f9054906101000a900473ffffffffffffffffffffffffffffffffffffffff1673ffffffffffffffffffffffffffffffffffffffff1663b60e72cc876040518263ffffffff1660e01b815260040161069191906122da565b5f604051808303815f87803b1580156106a8575f80fd5b505af11580156106ba573d5f803e3d5ffd5b5050505060015f9054906101000a900473ffffffffffffffffffffffffffffffffffffffff1673ffffffffffffffffffffffffffffffffffffffff1663b60e72cc866040518263ffffffff1660e01b815260040161071891906124d0565b5f604051808303815f87803b15801561072f575f80fd5b505af1158015610741573d5f803e3d5ffd5b505050505f83838101906107559190612644565b905060015f9054906101000a900473ffffffffffffffffffffffffffffffffffffffff1673ffffffffffffffffffffffffffffffffffffffff1663b60e72cc82516040518263ffffffff1660e01b81526004016107b291906126d5565b5f604051808303815f87803b1580156107c9575f80fd5b505af11580156107db573d5f803e3d5ffd5b505050508773ffffffffffffffffffffffffffffffffffffffff1663095ea7b37f0000000000000000000000000000000000000000000000000000000000000000888a610828919061272e565b6040518363ffffffff1660e01b8152600401610845929190612306565b6020604051808303815f875af1158015610861573d5f803e3d5ffd5b505050506040513d601f19601f820116820180604052508101906108859190612357565b505f6108928989846111f8565b905086886108a0919061272e565b8110156108e2576040517f08c379a00000000000000000000000000000000000000000000000000000000081526004016108d9906127d1565b60405180910390fd5b60015f9054906101000a900473ffffffffffffffffffffffffffffffffffffffff1673ffffffffffffffffffffffffffffffffffffffff1663b60e72cc886040518263ffffffff1660e01b815260040161093c9190612839565b5f604051808303815f87803b158015610953575f80fd5b505af1158015610965573d5f803e3d5ffd5b505050506001925050509695505050505050565b5f8060015f9054906101000a900473ffffffffffffffffffffffffffffffffffffffff1673ffffffffffffffffffffffffffffffffffffffff166341304fac6040518163ffffffff1660e01b81526004016109d3906128d5565b5f604051808303815f87803b1580156109ea575f80fd5b505af11580156109fc573d5f803e3d5ffd5b5050505060015f9054906101000a900473ffffffffffffffffffffffffffffffffffffffff1673ffffffffffffffffffffffffffffffffffffffff1663319af333876040518263ffffffff1660e01b8152600401610a5a919061245a565b5f604051808303815f87803b158015610a71575f80fd5b505af1158015610a83573d5f803e3d5ffd5b5050505060015f9054906101000a900473ffffffffffffffffffffffffffffffffffffffff1673ffffffffffffffffffffffffffffffffffffffff1663b60e72cc866040518263ffffffff1660e01b8152600401610ae191906122da565b5f604051808303815f87803b158015610af8575f80fd5b505af1158015610b0a573d5f803e3d5ffd5b5050505060015f9054906101000a900473ffffffffffffffffffffffffffffffffffffffff1673ffffffffffffffffffffffffffffffffffffffff1663b60e72cc858590506040518263ffffffff1660e01b8152600401610b6b91906126d5565b5f604051808303815f87803b158015610b82575f80fd5b505af1158015610b94573d5f803e3d5ffd5b505050505f610ba587878787611763565b90505f610bb28888611023565b905060015f9054906101000a900473ffffffffffffffffffffffffffffffffffffffff1673ffffffffffffffffffffffffffffffffffffffff1663b60e72cc826040518263ffffffff1660e01b8152600401610c0e919061293d565b5f604051808303815f87803b158015610c25575f80fd5b505af1158015610c37573d5f803e3d5ffd5b5050505060015f9054906101000a900473ffffffffffffffffffffffffffffffffffffffff1673ffffffffffffffffffffffffffffffffffffffff1663b60e72cc836040518263ffffffff1660e01b8152600401610c9591906129b3565b5f604051808303815f87803b158015610cac575f80fd5b505af1158015610cbe573d5f803e3d5ffd5b505050508087610cce919061272e565b82118293509350505094509492505050565b60025481565b610cee611171565b610cf75f611bf8565b565b7f000000000000000000000000000000000000000000000000000000000000000081565b5f805f9054906101000a900473ffffffffffffffffffffffffffffffffffffffff16905090565b610d4c611171565b60015f9054906101000a900473ffffffffffffffffffffffffffffffffffffffff1673ffffffffffffffffffffffffffffffffffffffff166341304fac6040518163ffffffff1660e01b8152600401610da490612a4f565b5f604051808303815f87803b158015610dbb575f80fd5b505af1158015610dcd573d5f803e3d5ffd5b5050505060015f9054906101000a900473ffffffffffffffffffffffffffffffffffffffff1673ffffffffffffffffffffffffffffffffffffffff1663319af333856040518263ffffffff1660e01b8152600401610e2b919061245a565b5f604051808303815f87803b158015610e42575f80fd5b505af1158015610e54573d5f803e3d5ffd5b5050505060015f9054906101000a900473ffffffffffffffffffffffffffffffffffffffff1673ffffffffffffffffffffffffffffffffffffffff1663b60e72cc846040518263ffffffff1660e01b8152600401610eb291906122da565b5f604051808303815f87803b158015610ec9575f80fd5b505af1158015610edb573d5f803e3d5ffd5b5050505060015f9054906101000a900473ffffffffffffffffffffffffffffffffffffffff1673ffffffffffffffffffffffffffffffffffffffff1663b60e72cc838390506040518263ffffffff1660e01b8152600401610f3c91906126d5565b5f604051808303815f87803b158015610f53575f80fd5b505af1158015610f65573d5f803e3d5ffd5b505050505f8282604051602001610f7d929190612b29565b60405160208183030381529060405290507f000000000000000000000000000000000000000000000000000000000000000073ffffffffffffffffffffffffffffffffffffffff166342b0b77c308787855f6040518663ffffffff1660e01b8152600401610fef959493929190612bf1565b5f604051808303815f87803b158015611006575f80fd5b505af1158015611018573d5f803e3d5ffd5b505050505050505050565b5f807f000000000000000000000000000000000000000000000000000000000000000073ffffffffffffffffffffffffffffffffffffffff1663074b2e436040518163ffffffff1660e01b8152600401602060405180830381865afa15801561108e573d5f803e3d5ffd5b505050506040513d601f19601f820116820180604052508101906110b29190612c8e565b6fffffffffffffffffffffffffffffffff1690505f61271082856110d69190612cb9565b6110e09190612d27565b9050809250505092915050565b6110f5611171565b5f73ffffffffffffffffffffffffffffffffffffffff168173ffffffffffffffffffffffffffffffffffffffff1603611165575f6040517f1e4fbdf700000000000000000000000000000000000000000000000000000000815260040161115c91906120c2565b60405180910390fd5b61116e81611bf8565b50565b611179611cb9565b73ffffffffffffffffffffffffffffffffffffffff16611197610d1d565b73ffffffffffffffffffffffffffffffffffffffff16146111f6576111ba611cb9565b6040517f118cdaa70000000000000000000000000000000000000000000000000000000081526004016111ed91906120c2565b60405180910390fd5b565b5f60015f9054906101000a900473ffffffffffffffffffffffffffffffffffffffff1673ffffffffffffffffffffffffffffffffffffffff166341304fac6040518163ffffffff1660e01b815260040161125190612dc7565b5f604051808303815f87803b158015611268575f80fd5b505af115801561127a573d5f803e3d5ffd5b505050505f8473ffffffffffffffffffffffffffffffffffffffff166370a08231306040518263ffffffff1660e01b81526004016112b891906120c2565b602060405180830381865afa1580156112d3573d5f803e3d5ffd5b505050506040513d601f19601f820116820180604052508101906112f79190612df9565b905060015f9054906101000a900473ffffffffffffffffffffffffffffffffffffffff1673ffffffffffffffffffffffffffffffffffffffff1663b60e72cc826040518263ffffffff1660e01b81526004016113539190612e6e565b5f604051808303815f87803b15801561136a575f80fd5b505af115801561137c573d5f803e3d5ffd5b505050505f5b600184516113909190612e9a565b811015611654575f8673ffffffffffffffffffffffffffffffffffffffff166370a08231306040518263ffffffff1660e01b81526004016113d191906120c2565b602060405180830381865afa1580156113ec573d5f803e3d5ffd5b505050506040513d601f19601f820116820180604052508101906114109190612df9565b90508673ffffffffffffffffffffffffffffffffffffffff1663095ea7b386848151811061144157611440612ecd565b5b6020026020010151836040518363ffffffff1660e01b8152600401611467929190612306565b6020604051808303815f875af1158015611483573d5f803e3d5ffd5b505050506040513d601f19601f820116820180604052508101906114a79190612357565b505f600267ffffffffffffffff8111156114c4576114c361250c565b5b6040519080825280602002602001820160405280156114f25781602001602082028036833780820191505090505b50905087815f8151811061150957611508612ecd565b5b602002602001019073ffffffffffffffffffffffffffffffffffffffff16908173ffffffffffffffffffffffffffffffffffffffff168152505073c02aaa39b223fe8d0a0e5c4f27ead9083c756cc28160018151811061156c5761156b612ecd565b5b602002602001019073ffffffffffffffffffffffffffffffffffffffff16908173ffffffffffffffffffffffffffffffffffffffff16815250508583815181106115b9576115b8612ecd565b5b602002602001015173ffffffffffffffffffffffffffffffffffffffff166338ed1739835f8430426040518663ffffffff1660e01b8152600401611601959493929190612fab565b5f604051808303815f875af115801561161c573d5f803e3d5ffd5b505050506040513d5f823e3d601f19601f8201168201806040525081019061164491906130c3565b5050508080600101915050611382565b505f8573ffffffffffffffffffffffffffffffffffffffff166370a08231306040518263ffffffff1660e01b815260040161168f91906120c2565b602060405180830381865afa1580156116aa573d5f803e3d5ffd5b505050506040513d601f19601f820116820180604052508101906116ce9190612df9565b905060015f9054906101000a900473ffffffffffffffffffffffffffffffffffffffff1673ffffffffffffffffffffffffffffffffffffffff1663b60e72cc826040518263ffffffff1660e01b815260040161172a9190613154565b5f604051808303815f87803b158015611741575f80fd5b505af1158015611753573d5f803e3d5ffd5b5050505080925050509392505050565b5f60015f9054906101000a900473ffffffffffffffffffffffffffffffffffffffff1673ffffffffffffffffffffffffffffffffffffffff166341304fac6040518163ffffffff1660e01b81526004016117bc906131f0565b5f604051808303815f87803b1580156117d3575f80fd5b505af11580156117e5573d5f803e3d5ffd5b5050505060015f9054906101000a900473ffffffffffffffffffffffffffffffffffffffff1673ffffffffffffffffffffffffffffffffffffffff1663319af333866040518263ffffffff1660e01b8152600401611843919061245a565b5f604051808303815f87803b15801561185a575f80fd5b505af115801561186c573d5f803e3d5ffd5b5050505060015f9054906101000a900473ffffffffffffffffffffffffffffffffffffffff1673ffffffffffffffffffffffffffffffffffffffff1663b60e72cc856040518263ffffffff1660e01b81526004016118ca91906122da565b5f604051808303815f87803b1580156118e1575f80fd5b505af11580156118f3573d5f803e3d5ffd5b5050505060015f9054906101000a900473ffffffffffffffffffffffffffffffffffffffff1673ffffffffffffffffffffffffffffffffffffffff1663b60e72cc848490506040518263ffffffff1660e01b815260040161195491906126d5565b5f604051808303815f87803b15801561196b575f80fd5b505af115801561197d573d5f803e3d5ffd5b505050505f8490505f5b84849050811015611b64575f600267ffffffffffffffff8111156119ae576119ad61250c565b5b6040519080825280602002602001820160405280156119dc5781602001602082028036833780820191505090505b50905087815f815181106119f3576119f2612ecd565b5b602002602001019073ffffffffffffffffffffffffffffffffffffffff16908173ffffffffffffffffffffffffffffffffffffffff168152505073c02aaa39b223fe8d0a0e5c4f27ead9083c756cc281600181518110611a5657611a55612ecd565b5b602002602001019073ffffffffffffffffffffffffffffffffffffffff16908173ffffffffffffffffffffffffffffffffffffffff16815250505f868684818110611aa457611aa3612ecd565b5b9050602002016020810190611ab991906120db565b73ffffffffffffffffffffffffffffffffffffffff1663d06ca61f85846040518363ffffffff1660e01b8152600401611af392919061320e565b5f60405180830381865afa158015611b0d573d5f803e3d5ffd5b505050506040513d5f823e3d601f19601f82011682018060405250810190611b3591906130c3565b905080600181518110611b4b57611b4a612ecd565b5b6020026020010151935050508080600101915050611987565b5060015f9054906101000a900473ffffffffffffffffffffffffffffffffffffffff1673ffffffffffffffffffffffffffffffffffffffff1663b60e72cc826040518263ffffffff1660e01b8152600401611bbf9190613286565b5f604051808303815f87803b158015611bd6575f80fd5b505af1158015611be8573d5f803e3d5ffd5b5050505080915050949350505050565b5f805f9054906101000a900473ffffffffffffffffffffffffffffffffffffffff169050815f806101000a81548173ffffffffffffffffffffffffffffffffffffffff021916908373ffffffffffffffffffffffffffffffffffffffff1602179055508173ffffffffffffffffffffffffffffffffffffffff168173ffffffffffffffffffffffffffffffffffffffff167f8be0079c531659141344cd1fd0a4f28419497f9722a3daafe3b4186f6b6457e060405160405180910390a35050565b5f33905090565b5f604051905090565b5f80fd5b5f80fd5b5f819050919050565b611ce381611cd1565b8114611ced575f80fd5b50565b5f81359050611cfe81611cda565b92915050565b5f60208284031215611d1957611d18611cc9565b5b5f611d2684828501611cf0565b91505092915050565b611d3881611cd1565b82525050565b5f602082019050611d515f830184611d2f565b92915050565b5f73ffffffffffffffffffffffffffffffffffffffff82169050919050565b5f819050919050565b5f611d99611d94611d8f84611d57565b611d76565b611d57565b9050919050565b5f611daa82611d7f565b9050919050565b5f611dbb82611da0565b9050919050565b611dcb81611db1565b82525050565b5f602082019050611de45f830184611dc2565b92915050565b5f611df482611d57565b9050919050565b611e0481611dea565b8114611e0e575f80fd5b50565b5f81359050611e1f81611dfb565b92915050565b5f8060408385031215611e3b57611e3a611cc9565b5b5f611e4885828601611e11565b9250506020611e5985828601611cf0565b9150509250929050565b5f80fd5b5f80fd5b5f80fd5b5f8083601f840112611e8457611e83611e63565b5b8235905067ffffffffffffffff811115611ea157611ea0611e67565b5b602083019150836001820283011115611ebd57611ebc611e6b565b5b9250929050565b5f805f805f8060a08789031215611ede57611edd611cc9565b5b5f611eeb89828a01611e11565b9650506020611efc89828a01611cf0565b9550506040611f0d89828a01611cf0565b9450506060611f1e89828a01611e11565b935050608087013567ffffffffffffffff811115611f3f57611f3e611ccd565b5b611f4b89828a01611e6f565b92509250509295509295509295565b5f8115159050919050565b611f6e81611f5a565b82525050565b5f602082019050611f875f830184611f65565b92915050565b5f8083601f840112611fa257611fa1611e63565b5b8235905067ffffffffffffffff811115611fbf57611fbe611e67565b5b602083019150836020820283011115611fdb57611fda611e6b565b5b9250929050565b5f805f8060608587031215611ffa57611ff9611cc9565b5b5f61200787828801611e11565b945050602061201887828801611cf0565b935050604085013567ffffffffffffffff81111561203957612038611ccd565b5b61204587828801611f8d565b925092505092959194509250565b5f6040820190506120665f830185611f65565b6120736020830184611d2f565b9392505050565b5f61208482611da0565b9050919050565b6120948161207a565b82525050565b5f6020820190506120ad5f83018461208b565b92915050565b6120bc81611dea565b82525050565b5f6020820190506120d55f8301846120b3565b92915050565b5f602082840312156120f0576120ef611cc9565b5b5f6120fd84828501611e11565b91505092915050565b5f82825260208201905092915050565b7f76616c7565206368616e6765643a0000000000000000000000000000000000005f82015250565b5f61214a600e83612106565b915061215582612116565b602082019050919050565b5f6040820190508181035f8301526121778161213e565b90506121866020830184611d2f565b92915050565b7f2a2a2a2a2a2a2a2a2a207769746864726177546f6b656e73202a2a2a2a2a2a2a5f8201527f2a2a2a2a2a000000000000000000000000000000000000000000000000000000602082015250565b5f6121e6602583612106565b91506121f18261218c565b604082019050919050565b5f6020820190508181035f830152612213816121da565b9050919050565b7f546f6b656e3a00000000000000000000000000000000000000000000000000005f82015250565b5f61224e600683612106565b91506122598261221a565b602082019050919050565b5f6040820190508181035f83015261227b81612242565b905061228a60208301846120b3565b92915050565b7f416d6f756e743a000000000000000000000000000000000000000000000000005f82015250565b5f6122c4600783612106565b91506122cf82612290565b602082019050919050565b5f6040820190508181035f8301526122f1816122b8565b90506123006020830184611d2f565b92915050565b5f6040820190506123195f8301856120b3565b6123266020830184611d2f565b9392505050565b61233681611f5a565b8114612340575f80fd5b50565b5f815190506123518161232d565b92915050565b5f6020828403121561236c5761236b611cc9565b5b5f61237984828501612343565b91505092915050565b7f2a2a2a2a2a2a2a2a2a20657865637574654f7065726174696f6e202a2a2a2a2a5f8201527f2a2a2a2a2a2a2a00000000000000000000000000000000000000000000000000602082015250565b5f6123dc602783612106565b91506123e782612382565b604082019050919050565b5f6020820190508181035f830152612409816123d0565b9050919050565b7f41737365743a00000000000000000000000000000000000000000000000000005f82015250565b5f612444600683612106565b915061244f82612410565b602082019050919050565b5f6040820190508181035f83015261247181612438565b905061248060208301846120b3565b92915050565b7f7072656d69756d3a0000000000000000000000000000000000000000000000005f82015250565b5f6124ba600883612106565b91506124c582612486565b602082019050919050565b5f6040820190508181035f8301526124e7816124ae565b90506124f66020830184611d2f565b92915050565b5f601f19601f8301169050919050565b7f4e487b71000000000000000000000000000000000000000000000000000000005f52604160045260245ffd5b612542826124fc565b810181811067ffffffffffffffff821117156125615761256061250c565b5b80604052505050565b5f612573611cc0565b905061257f8282612539565b919050565b5f67ffffffffffffffff82111561259e5761259d61250c565b5b602082029050602081019050919050565b5f6125c16125bc84612584565b61256a565b905080838252602082019050602084028301858111156125e4576125e3611e6b565b5b835b8181101561260d57806125f98882611e11565b8452602084019350506020810190506125e6565b5050509392505050565b5f82601f83011261262b5761262a611e63565b5b813561263b8482602086016125af565b91505092915050565b5f6020828403121561265957612658611cc9565b5b5f82013567ffffffffffffffff81111561267657612675611ccd565b5b61268284828501612617565b91505092915050565b7f4e756d626572206f662044455865733a000000000000000000000000000000005f82015250565b5f6126bf601083612106565b91506126ca8261268b565b602082019050919050565b5f6040820190508181035f8301526126ec816126b3565b90506126fb6020830184611d2f565b92915050565b7f4e487b71000000000000000000000000000000000000000000000000000000005f52601160045260245ffd5b5f61273882611cd1565b915061274383611cd1565b925082820190508082111561275b5761275a612701565b5b92915050565b7f496e73756666696369656e742066756e647320746f20726570617920666c61735f8201527f68206c6f616e0000000000000000000000000000000000000000000000000000602082015250565b5f6127bb602683612106565b91506127c682612761565b604082019050919050565b5f6020820190508181035f8301526127e8816127af565b9050919050565b7f616d6f756e7452656365697665643a00000000000000000000000000000000005f82015250565b5f612823600f83612106565b915061282e826127ef565b602082019050919050565b5f6040820190508181035f83015261285081612817565b905061285f6020830184611d2f565b92915050565b7f2a2a2a2a2a2a2a2a2a20636865636b41726269747261676550726f66697461625f8201527f696c697479202a2a2a2a2a2a2a2a2a2a2a2a0000000000000000000000000000602082015250565b5f6128bf603283612106565b91506128ca82612865565b604082019050919050565b5f6020820190508181035f8301526128ec816128b3565b9050919050565b7f466c617368206c6f616e207072656d69756d3a000000000000000000000000005f82015250565b5f612927601383612106565b9150612932826128f3565b602082019050919050565b5f6040820190508181035f8301526129548161291b565b90506129636020830184611d2f565b92915050565b7f457374696d617465642072657475726e3a0000000000000000000000000000005f82015250565b5f61299d601183612106565b91506129a882612969565b602082019050919050565b5f6040820190508181035f8301526129ca81612991565b90506129d96020830184611d2f565b92915050565b7f2a2a2a2a2a2a2a2a2a2065786563757465466c6173684c6f616e202a2a2a2a2a5f8201527f2a2a2a2a2a2a2a00000000000000000000000000000000000000000000000000602082015250565b5f612a39602783612106565b9150612a44826129df565b604082019050919050565b5f6020820190508181035f830152612a6681612a2d565b9050919050565b5f82825260208201905092915050565b5f819050919050565b612a8f81611dea565b82525050565b5f612aa08383612a86565b60208301905092915050565b5f612aba6020840184611e11565b905092915050565b5f602082019050919050565b5f612ad98385612a6d565b9350612ae482612a7d565b805f5b85811015612b1c57612af98284612aac565b612b038882612a95565b9750612b0e83612ac2565b925050600181019050612ae7565b5085925050509392505050565b5f6020820190508181035f830152612b42818486612ace565b90509392505050565b5f81519050919050565b5f82825260208201905092915050565b8281835e5f83830152505050565b5f612b7d82612b4b565b612b878185612b55565b9350612b97818560208601612b65565b612ba0816124fc565b840191505092915050565b5f819050919050565b5f61ffff82169050919050565b5f612bdb612bd6612bd184612bab565b611d76565b612bb4565b9050919050565b612beb81612bc1565b82525050565b5f60a082019050612c045f8301886120b3565b612c1160208301876120b3565b612c1e6040830186611d2f565b8181036060830152612c308185612b73565b9050612c3f6080830184612be2565b9695505050505050565b5f6fffffffffffffffffffffffffffffffff82169050919050565b612c6d81612c49565b8114612c77575f80fd5b50565b5f81519050612c8881612c64565b92915050565b5f60208284031215612ca357612ca2611cc9565b5b5f612cb084828501612c7a565b91505092915050565b5f612cc382611cd1565b9150612cce83611cd1565b9250828202612cdc81611cd1565b91508282048414831517612cf357612cf2612701565b5b5092915050565b7f4e487b71000000000000000000000000000000000000000000000000000000005f52601260045260245ffd5b5f612d3182611cd1565b9150612d3c83611cd1565b925082612d4c57612d4b612cfa565b5b828204905092915050565b7f2a2a2a2a2a2a2a2a2a2065786563757465417262697472616765202a2a2a2a2a5f8201527f2a2a2a2a2a2a2a00000000000000000000000000000000000000000000000000602082015250565b5f612db1602783612106565b9150612dbc82612d57565b604082019050919050565b5f6020820190508181035f830152612dde81612da5565b9050919050565b5f81519050612df381611cda565b92915050565b5f60208284031215612e0e57612e0d611cc9565b5b5f612e1b84828501612de5565b91505092915050565b7f537461727442616c616e63653a000000000000000000000000000000000000005f82015250565b5f612e58600d83612106565b9150612e6382612e24565b602082019050919050565b5f6040820190508181035f830152612e8581612e4c565b9050612e946020830184611d2f565b92915050565b5f612ea482611cd1565b9150612eaf83611cd1565b9250828203905081811115612ec757612ec6612701565b5b92915050565b7f4e487b71000000000000000000000000000000000000000000000000000000005f52603260045260245ffd5b5f612f14612f0f612f0a84612bab565b611d76565b611cd1565b9050919050565b612f2481612efa565b82525050565b5f81519050919050565b5f819050602082019050919050565b5f602082019050919050565b5f612f5982612f2a565b612f638185612a6d565b9350612f6e83612f34565b805f5b83811015612f9e578151612f858882612a95565b9750612f9083612f43565b925050600181019050612f71565b5085935050505092915050565b5f60a082019050612fbe5f830188611d2f565b612fcb6020830187612f1b565b8181036040830152612fdd8186612f4f565b9050612fec60608301856120b3565b612ff96080830184611d2f565b9695505050505050565b5f67ffffffffffffffff82111561301d5761301c61250c565b5b602082029050602081019050919050565b5f61304061303b84613003565b61256a565b9050808382526020820190506020840283018581111561306357613062611e6b565b5b835b8181101561308c57806130788882612de5565b845260208401935050602081019050613065565b5050509392505050565b5f82601f8301126130aa576130a9611e63565b5b81516130ba84826020860161302e565b91505092915050565b5f602082840312156130d8576130d7611cc9565b5b5f82015167ffffffffffffffff8111156130f5576130f4611ccd565b5b61310184828501613096565b91505092915050565b7f46696e616c2042616c616e63653a0000000000000000000000000000000000005f82015250565b5f61313e600e83612106565b91506131498261310a565b602082019050919050565b5f6040820190508181035f83015261316b81613132565b905061317a6020830184611d2f565b92915050565b7f2a2a2a2a2a2a2a2a2a2073696d756c617465417262697472616765202a2a2a2a5f8201527f2a2a2a2a2a2a2a2a000000000000000000000000000000000000000000000000602082015250565b5f6131da602883612106565b91506131e582613180565b604082019050919050565b5f6020820190508181035f830152613207816131ce565b9050919050565b5f6040820190506132215f830185611d2f565b81810360208301526132338184612f4f565b90509392505050565b7f43757272656e7420416d6f756e743a00000000000000000000000000000000005f82015250565b5f613270600f83612106565b915061327b8261323c565b602082019050919050565b5f6040820190508181035f83015261329d81613264565b90506132ac6020830184611d2f565b9291505056fea264697066735822122002be88c30d08b9c537b9c87d8d012ca8bb54481f0f7040b2fae79311cc806cf364736f6c634300081a0033",
			"opcodes": "PUSH1 0xC0 PUSH1 0x40 MSTORE CALLVALUE DUP1 ISZERO PUSH2 0xF JUMPI PUSH0 DUP1 REVERT JUMPDEST POP PUSH1 0x40 MLOAD PUSH2 0x361E CODESIZE SUB DUP1 PUSH2 0x361E DUP4 CODECOPY DUP2 DUP2 ADD PUSH1 0x40 MSTORE DUP2 ADD SWAP1 PUSH2 0x31 SWAP2 SWAP1 PUSH2 0x2AD JUMP JUMPDEST CALLER DUP2 DUP1 PUSH20 0xFFFFFFFFFFFFFFFFFFFFFFFFFFFFFFFFFFFFFFFF AND PUSH1 0x80 DUP2 PUSH20 0xFFFFFFFFFFFFFFFFFFFFFFFFFFFFFFFFFFFFFFFF AND DUP2 MSTORE POP POP DUP1 PUSH20 0xFFFFFFFFFFFFFFFFFFFFFFFFFFFFFFFFFFFFFFFF AND PUSH4 0x26B1D5F PUSH1 0x40 MLOAD DUP2 PUSH4 0xFFFFFFFF AND PUSH1 0xE0 SHL DUP2 MSTORE PUSH1 0x4 ADD PUSH1 0x20 PUSH1 0x40 MLOAD DUP1 DUP4 SUB DUP2 DUP7 GAS STATICCALL ISZERO DUP1 ISZERO PUSH2 0xB0 JUMPI RETURNDATASIZE PUSH0 DUP1 RETURNDATACOPY RETURNDATASIZE PUSH0 REVERT JUMPDEST POP POP POP POP PUSH1 0x40 MLOAD RETURNDATASIZE PUSH1 0x1F NOT PUSH1 0x1F DUP3 ADD AND DUP3 ADD DUP1 PUSH1 0x40 MSTORE POP DUP2 ADD SWAP1 PUSH2 0xD4 SWAP2 SWAP1 PUSH2 0x2AD JUMP JUMPDEST PUSH20 0xFFFFFFFFFFFFFFFFFFFFFFFFFFFFFFFFFFFFFFFF AND PUSH1 0xA0 DUP2 PUSH20 0xFFFFFFFFFFFFFFFFFFFFFFFFFFFFFFFFFFFFFFFF AND DUP2 MSTORE POP POP POP PUSH0 PUSH20 0xFFFFFFFFFFFFFFFFFFFFFFFFFFFFFFFFFFFFFFFF AND DUP2 PUSH20 0xFFFFFFFFFFFFFFFFFFFFFFFFFFFFFFFFFFFFFFFF AND SUB PUSH2 0x178 JUMPI PUSH0 PUSH1 0x40 MLOAD PUSH32 0x1E4FBDF700000000000000000000000000000000000000000000000000000000 DUP2 MSTORE PUSH1 0x4 ADD PUSH2 0x16F SWAP2 SWAP1 PUSH2 0x2E7 JUMP JUMPDEST PUSH1 0x40 MLOAD DUP1 SWAP2 SUB SWAP1 REVERT JUMPDEST PUSH2 0x187 DUP2 PUSH2 0x18E PUSH1 0x20 SHL PUSH1 0x20 SHR JUMP JUMPDEST POP POP PUSH2 0x300 JUMP JUMPDEST PUSH0 DUP1 PUSH0 SWAP1 SLOAD SWAP1 PUSH2 0x100 EXP SWAP1 DIV PUSH20 0xFFFFFFFFFFFFFFFFFFFFFFFFFFFFFFFFFFFFFFFF AND SWAP1 POP DUP2 PUSH0 DUP1 PUSH2 0x100 EXP DUP2 SLOAD DUP2 PUSH20 0xFFFFFFFFFFFFFFFFFFFFFFFFFFFFFFFFFFFFFFFF MUL NOT AND SWAP1 DUP4 PUSH20 0xFFFFFFFFFFFFFFFFFFFFFFFFFFFFFFFFFFFFFFFF AND MUL OR SWAP1 SSTORE POP DUP2 PUSH20 0xFFFFFFFFFFFFFFFFFFFFFFFFFFFFFFFFFFFFFFFF AND DUP2 PUSH20 0xFFFFFFFFFFFFFFFFFFFFFFFFFFFFFFFFFFFFFFFF AND PUSH32 0x8BE0079C531659141344CD1FD0A4F28419497F9722A3DAAFE3B4186F6B6457E0 PUSH1 0x40 MLOAD PUSH1 0x40 MLOAD DUP1 SWAP2 SUB SWAP1 LOG3 POP POP JUMP JUMPDEST PUSH0 DUP1 REVERT JUMPDEST PUSH0 PUSH20 0xFFFFFFFFFFFFFFFFFFFFFFFFFFFFFFFFFFFFFFFF DUP3 AND SWAP1 POP SWAP2 SWAP1 POP JUMP JUMPDEST PUSH0 PUSH2 0x27C DUP3 PUSH2 0x253 JUMP JUMPDEST SWAP1 POP SWAP2 SWAP1 POP JUMP JUMPDEST PUSH2 0x28C DUP2 PUSH2 0x272 JUMP JUMPDEST DUP2 EQ PUSH2 0x296 JUMPI PUSH0 DUP1 REVERT JUMPDEST POP JUMP JUMPDEST PUSH0 DUP2 MLOAD SWAP1 POP PUSH2 0x2A7 DUP2 PUSH2 0x283 JUMP JUMPDEST SWAP3 SWAP2 POP POP JUMP JUMPDEST PUSH0 PUSH1 0x20 DUP3 DUP5 SUB SLT ISZERO PUSH2 0x2C2 JUMPI PUSH2 0x2C1 PUSH2 0x24F JUMP JUMPDEST JUMPDEST PUSH0 PUSH2 0x2CF DUP5 DUP3 DUP6 ADD PUSH2 0x299 JUMP JUMPDEST SWAP2 POP POP SWAP3 SWAP2 POP POP JUMP JUMPDEST PUSH2 0x2E1 DUP2 PUSH2 0x272 JUMP JUMPDEST DUP3 MSTORE POP POP JUMP JUMPDEST PUSH0 PUSH1 0x20 DUP3 ADD SWAP1 POP PUSH2 0x2FA PUSH0 DUP4 ADD DUP5 PUSH2 0x2D8 JUMP JUMPDEST SWAP3 SWAP2 POP POP JUMP JUMPDEST PUSH1 0x80 MLOAD PUSH1 0xA0 MLOAD PUSH2 0x32E8 PUSH2 0x336 PUSH0 CODECOPY PUSH0 DUP2 DUP2 PUSH2 0x7FD ADD MSTORE DUP2 DUP2 PUSH2 0xCFB ADD MSTORE DUP2 DUP2 PUSH2 0xF90 ADD MSTORE PUSH2 0x1027 ADD MSTORE PUSH0 PUSH2 0x2E6 ADD MSTORE PUSH2 0x32E8 PUSH0 RETURN INVALID PUSH1 0x80 PUSH1 0x40 MSTORE CALLVALUE DUP1 ISZERO PUSH2 0xF JUMPI PUSH0 DUP1 REVERT JUMPDEST POP PUSH1 0x4 CALLDATASIZE LT PUSH2 0xB2 JUMPI PUSH0 CALLDATALOAD PUSH1 0xE0 SHR DUP1 PUSH4 0x715018A6 GT PUSH2 0x6F JUMPI DUP1 PUSH4 0x715018A6 EQ PUSH2 0x19F JUMPI DUP1 PUSH4 0x7535D246 EQ PUSH2 0x1A9 JUMPI DUP1 PUSH4 0x8DA5CB5B EQ PUSH2 0x1C7 JUMPI DUP1 PUSH4 0x9CBF194D EQ PUSH2 0x1E5 JUMPI DUP1 PUSH4 0xCB42019C EQ PUSH2 0x201 JUMPI DUP1 PUSH4 0xF2FDE38B EQ PUSH2 0x231 JUMPI PUSH2 0xB2 JUMP JUMPDEST DUP1 PUSH4 0x3D911D9 EQ PUSH2 0xB6 JUMPI DUP1 PUSH4 0x542975C EQ PUSH2 0xE6 JUMPI DUP1 PUSH4 0x6B091F9 EQ PUSH2 0x104 JUMPI DUP1 PUSH4 0x1B11D0FF EQ PUSH2 0x120 JUMPI DUP1 PUSH4 0x245C94D3 EQ PUSH2 0x150 JUMPI DUP1 PUSH4 0x43183834 EQ PUSH2 0x181 JUMPI JUMPDEST PUSH0 DUP1 REVERT JUMPDEST PUSH2 0xD0 PUSH1 0x4 DUP1 CALLDATASIZE SUB DUP2 ADD SWAP1 PUSH2 0xCB SWAP2 SWAP1 PUSH2 0x1D04 JUMP JUMPDEST PUSH2 0x24D JUMP JUMPDEST PUSH1 0x40 MLOAD PUSH2 0xDD SWAP2 SWAP1 PUSH2 0x1D3E JUMP JUMPDEST PUSH1 0x40 MLOAD DUP1 SWAP2 SUB SWAP1 RETURN JUMPDEST PUSH2 0xEE PUSH2 0x2E4 JUMP JUMPDEST PUSH1 0x40 MLOAD PUSH2 0xFB SWAP2 SWAP1 PUSH2 0x1DD1 JUMP JUMPDEST PUSH1 0x40 MLOAD DUP1 SWAP2 SUB SWAP1 RETURN JUMPDEST PUSH2 0x11E PUSH1 0x4 DUP1 CALLDATASIZE SUB DUP2 ADD SWAP1 PUSH2 0x119 SWAP2 SWAP1 PUSH2 0x1E25 JUMP JUMPDEST PUSH2 0x308 JUMP JUMPDEST STOP JUMPDEST PUSH2 0x13A PUSH1 0x4 DUP1 CALLDATASIZE SUB DUP2 ADD SWAP1 PUSH2 0x135 SWAP2 SWAP1 PUSH2 0x1EC4 JUMP JUMPDEST PUSH2 0x52A JUMP JUMPDEST PUSH1 0x40 MLOAD PUSH2 0x147 SWAP2 SWAP1 PUSH2 0x1F74 JUMP JUMPDEST PUSH1 0x40 MLOAD DUP1 SWAP2 SUB SWAP1 RETURN JUMPDEST PUSH2 0x16A PUSH1 0x4 DUP1 CALLDATASIZE SUB DUP2 ADD SWAP1 PUSH2 0x165 SWAP2 SWAP1 PUSH2 0x1FE2 JUMP JUMPDEST PUSH2 0x979 JUMP JUMPDEST PUSH1 0x40 MLOAD PUSH2 0x178 SWAP3 SWAP2 SWAP1 PUSH2 0x2053 JUMP JUMPDEST PUSH1 0x40 MLOAD DUP1 SWAP2 SUB SWAP1 RETURN JUMPDEST PUSH2 0x189 PUSH2 0xCE0 JUMP JUMPDEST PUSH1 0x40 MLOAD PUSH2 0x196 SWAP2 SWAP1 PUSH2 0x1D3E JUMP JUMPDEST PUSH1 0x40 MLOAD DUP1 SWAP2 SUB SWAP1 RETURN JUMPDEST PUSH2 0x1A7 PUSH2 0xCE6 JUMP JUMPDEST STOP JUMPDEST PUSH2 0x1B1 PUSH2 0xCF9 JUMP JUMPDEST PUSH1 0x40 MLOAD PUSH2 0x1BE SWAP2 SWAP1 PUSH2 0x209A JUMP JUMPDEST PUSH1 0x40 MLOAD DUP1 SWAP2 SUB SWAP1 RETURN JUMPDEST PUSH2 0x1CF PUSH2 0xD1D JUMP JUMPDEST PUSH1 0x40 MLOAD PUSH2 0x1DC SWAP2 SWAP1 PUSH2 0x20C2 JUMP JUMPDEST PUSH1 0x40 MLOAD DUP1 SWAP2 SUB SWAP1 RETURN JUMPDEST PUSH2 0x1FF PUSH1 0x4 DUP1 CALLDATASIZE SUB DUP2 ADD SWAP1 PUSH2 0x1FA SWAP2 SWAP1 PUSH2 0x1FE2 JUMP JUMPDEST PUSH2 0xD44 JUMP JUMPDEST STOP JUMPDEST PUSH2 0x21B PUSH1 0x4 DUP1 CALLDATASIZE SUB DUP2 ADD SWAP1 PUSH2 0x216 SWAP2 SWAP1 PUSH2 0x1E25 JUMP JUMPDEST PUSH2 0x1023 JUMP JUMPDEST PUSH1 0x40 MLOAD PUSH2 0x228 SWAP2 SWAP1 PUSH2 0x1D3E JUMP JUMPDEST PUSH1 0x40 MLOAD DUP1 SWAP2 SUB SWAP1 RETURN JUMPDEST PUSH2 0x24B PUSH1 0x4 DUP1 CALLDATASIZE SUB DUP2 ADD SWAP1 PUSH2 0x246 SWAP2 SWAP1 PUSH2 0x20DB JUMP JUMPDEST PUSH2 0x10ED JUMP JUMPDEST STOP JUMPDEST PUSH0 DUP2 PUSH1 0x2 DUP2 SWAP1 SSTORE POP PUSH1 0x1 PUSH0 SWAP1 SLOAD SWAP1 PUSH2 0x100 EXP SWAP1 DIV PUSH20 0xFFFFFFFFFFFFFFFFFFFFFFFFFFFFFFFFFFFFFFFF AND PUSH20 0xFFFFFFFFFFFFFFFFFFFFFFFFFFFFFFFFFFFFFFFF AND PUSH4 0xB60E72CC DUP4 PUSH1 0x40 MLOAD DUP3 PUSH4 0xFFFFFFFF AND PUSH1 0xE0 SHL DUP2 MSTORE PUSH1 0x4 ADD PUSH2 0x2AF SWAP2 SWAP1 PUSH2 0x2160 JUMP JUMPDEST PUSH0 PUSH1 0x40 MLOAD DUP1 DUP4 SUB DUP2 PUSH0 DUP8 DUP1 EXTCODESIZE ISZERO DUP1 ISZERO PUSH2 0x2C6 JUMPI PUSH0 DUP1 REVERT JUMPDEST POP GAS CALL ISZERO DUP1 ISZERO PUSH2 0x2D8 JUMPI RETURNDATASIZE PUSH0 DUP1 RETURNDATACOPY RETURNDATASIZE PUSH0 REVERT JUMPDEST POP POP POP POP DUP2 SWAP1 POP SWAP2 SWAP1 POP JUMP JUMPDEST PUSH32 0x0 DUP2 JUMP JUMPDEST PUSH2 0x310 PUSH2 0x1171 JUMP JUMPDEST PUSH1 0x1 PUSH0 SWAP1 SLOAD SWAP1 PUSH2 0x100 EXP SWAP1 DIV PUSH20 0xFFFFFFFFFFFFFFFFFFFFFFFFFFFFFFFFFFFFFFFF AND PUSH20 0xFFFFFFFFFFFFFFFFFFFFFFFFFFFFFFFFFFFFFFFF AND PUSH4 0x41304FAC PUSH1 0x40 MLOAD DUP2 PUSH4 0xFFFFFFFF AND PUSH1 0xE0 SHL DUP2 MSTORE PUSH1 0x4 ADD PUSH2 0x368 SWAP1 PUSH2 0x21FC JUMP JUMPDEST PUSH0 PUSH1 0x40 MLOAD DUP1 DUP4 SUB DUP2 PUSH0 DUP8 DUP1 EXTCODESIZE ISZERO DUP1 ISZERO PUSH2 0x37F JUMPI PUSH0 DUP1 REVERT JUMPDEST POP GAS CALL ISZERO DUP1 ISZERO PUSH2 0x391 JUMPI RETURNDATASIZE PUSH0 DUP1 RETURNDATACOPY RETURNDATASIZE PUSH0 REVERT JUMPDEST POP POP POP POP PUSH1 0x1 PUSH0 SWAP1 SLOAD SWAP1 PUSH2 0x100 EXP SWAP1 DIV PUSH20 0xFFFFFFFFFFFFFFFFFFFFFFFFFFFFFFFFFFFFFFFF AND PUSH20 0xFFFFFFFFFFFFFFFFFFFFFFFFFFFFFFFFFFFFFFFF AND PUSH4 0x319AF333 DUP4 PUSH1 0x40 MLOAD DUP3 PUSH4 0xFFFFFFFF AND PUSH1 0xE0 SHL DUP2 MSTORE PUSH1 0x4 ADD PUSH2 0x3EF SWAP2 SWAP1 PUSH2 0x2264 JUMP JUMPDEST PUSH0 PUSH1 0x40 MLOAD DUP1 DUP4 SUB DUP2 PUSH0 DUP8 DUP1 EXTCODESIZE ISZERO DUP1 ISZERO PUSH2 0x406 JUMPI PUSH0 DUP1 REVERT JUMPDEST POP GAS CALL ISZERO DUP1 ISZERO PUSH2 0x418 JUMPI RETURNDATASIZE PUSH0 DUP1 RETURNDATACOPY RETURNDATASIZE PUSH0 REVERT JUMPDEST POP POP POP POP PUSH1 0x1 PUSH0 SWAP1 SLOAD SWAP1 PUSH2 0x100 EXP SWAP1 DIV PUSH20 0xFFFFFFFFFFFFFFFFFFFFFFFFFFFFFFFFFFFFFFFF AND PUSH20 0xFFFFFFFFFFFFFFFFFFFFFFFFFFFFFFFFFFFFFFFF AND PUSH4 0xB60E72CC DUP3 PUSH1 0x40 MLOAD DUP3 PUSH4 0xFFFFFFFF AND PUSH1 0xE0 SHL DUP2 MSTORE PUSH1 0x4 ADD PUSH2 0x476 SWAP2 SWAP1 PUSH2 0x22DA JUMP JUMPDEST PUSH0 PUSH1 0x40 MLOAD DUP1 DUP4 SUB DUP2 PUSH0 DUP8 DUP1 EXTCODESIZE ISZERO DUP1 ISZERO PUSH2 0x48D JUMPI PUSH0 DUP1 REVERT JUMPDEST POP GAS CALL ISZERO DUP1 ISZERO PUSH2 0x49F JUMPI RETURNDATASIZE PUSH0 DUP1 RETURNDATACOPY RETURNDATASIZE PUSH0 REVERT JUMPDEST POP POP POP POP DUP2 PUSH20 0xFFFFFFFFFFFFFFFFFFFFFFFFFFFFFFFFFFFFFFFF AND PUSH4 0xA9059CBB PUSH2 0x4C7 PUSH2 0xD1D JUMP JUMPDEST DUP4 PUSH1 0x40 MLOAD DUP4 PUSH4 0xFFFFFFFF AND PUSH1 0xE0 SHL DUP2 MSTORE PUSH1 0x4 ADD PUSH2 0x4E5 SWAP3 SWAP2 SWAP1 PUSH2 0x2306 JUMP JUMPDEST PUSH1 0x20 PUSH1 0x40 MLOAD DUP1 DUP4 SUB DUP2 PUSH0 DUP8 GAS CALL ISZERO DUP1 ISZERO PUSH2 0x501 JUMPI RETURNDATASIZE PUSH0 DUP1 RETURNDATACOPY RETURNDATASIZE PUSH0 REVERT JUMPDEST POP POP POP POP PUSH1 0x40 MLOAD RETURNDATASIZE PUSH1 0x1F NOT PUSH1 0x1F DUP3 ADD AND DUP3 ADD DUP1 PUSH1 0x40 MSTORE POP DUP2 ADD SWAP1 PUSH2 0x525 SWAP2 SWAP1 PUSH2 0x2357 JUMP JUMPDEST POP POP POP JUMP JUMPDEST PUSH0 PUSH1 0x1 PUSH0 SWAP1 SLOAD SWAP1 PUSH2 0x100 EXP SWAP1 DIV PUSH20 0xFFFFFFFFFFFFFFFFFFFFFFFFFFFFFFFFFFFFFFFF AND PUSH20 0xFFFFFFFFFFFFFFFFFFFFFFFFFFFFFFFFFFFFFFFF AND PUSH4 0x41304FAC PUSH1 0x40 MLOAD DUP2 PUSH4 0xFFFFFFFF AND PUSH1 0xE0 SHL DUP2 MSTORE PUSH1 0x4 ADD PUSH2 0x583 SWAP1 PUSH2 0x23F2 JUMP JUMPDEST PUSH0 PUSH1 0x40 MLOAD DUP1 DUP4 SUB DUP2 PUSH0 DUP8 DUP1 EXTCODESIZE ISZERO DUP1 ISZERO PUSH2 0x59A JUMPI PUSH0 DUP1 REVERT JUMPDEST POP GAS CALL ISZERO DUP1 ISZERO PUSH2 0x5AC JUMPI RETURNDATASIZE PUSH0 DUP1 RETURNDATACOPY RETURNDATASIZE PUSH0 REVERT JUMPDEST POP POP POP POP PUSH1 0x1 PUSH0 SWAP1 SLOAD SWAP1 PUSH2 0x100 EXP SWAP1 DIV PUSH20 0xFFFFFFFFFFFFFFFFFFFFFFFFFFFFFFFFFFFFFFFF AND PUSH20 0xFFFFFFFFFFFFFFFFFFFFFFFFFFFFFFFFFFFFFFFF AND PUSH4 0x319AF333 DUP9 PUSH1 0x40 MLOAD DUP3 PUSH4 0xFFFFFFFF AND PUSH1 0xE0 SHL DUP2 MSTORE PUSH1 0x4 ADD PUSH2 0x60A SWAP2 SWAP1 PUSH2 0x245A JUMP JUMPDEST PUSH0 PUSH1 0x40 MLOAD DUP1 DUP4 SUB DUP2 PUSH0 DUP8 DUP1 EXTCODESIZE ISZERO DUP1 ISZERO PUSH2 0x621 JUMPI PUSH0 DUP1 REVERT JUMPDEST POP GAS CALL ISZERO DUP1 ISZERO PUSH2 0x633 JUMPI RETURNDATASIZE PUSH0 DUP1 RETURNDATACOPY RETURNDATASIZE PUSH0 REVERT JUMPDEST POP POP POP POP PUSH1 0x1 PUSH0 SWAP1 SLOAD SWAP1 PUSH2 0x100 EXP SWAP1 DIV PUSH20 0xFFFFFFFFFFFFFFFFFFFFFFFFFFFFFFFFFFFFFFFF AND PUSH20 0xFFFFFFFFFFFFFFFFFFFFFFFFFFFFFFFFFFFFFFFF AND PUSH4 0xB60E72CC DUP8 PUSH1 0x40 MLOAD DUP3 PUSH4 0xFFFFFFFF AND PUSH1 0xE0 SHL DUP2 MSTORE PUSH1 0x4 ADD PUSH2 0x691 SWAP2 SWAP1 PUSH2 0x22DA JUMP JUMPDEST PUSH0 PUSH1 0x40 MLOAD DUP1 DUP4 SUB DUP2 PUSH0 DUP8 DUP1 EXTCODESIZE ISZERO DUP1 ISZERO PUSH2 0x6A8 JUMPI PUSH0 DUP1 REVERT JUMPDEST POP GAS CALL ISZERO DUP1 ISZERO PUSH2 0x6BA JUMPI RETURNDATASIZE PUSH0 DUP1 RETURNDATACOPY RETURNDATASIZE PUSH0 REVERT JUMPDEST POP POP POP POP PUSH1 0x1 PUSH0 SWAP1 SLOAD SWAP1 PUSH2 0x100 EXP SWAP1 DIV PUSH20 0xFFFFFFFFFFFFFFFFFFFFFFFFFFFFFFFFFFFFFFFF AND PUSH20 0xFFFFFFFFFFFFFFFFFFFFFFFFFFFFFFFFFFFFFFFF AND PUSH4 0xB60E72CC DUP7 PUSH1 0x40 MLOAD DUP3 PUSH4 0xFFFFFFFF AND PUSH1 0xE0 SHL DUP2 MSTORE PUSH1 0x4 ADD PUSH2 0x718 SWAP2 SWAP1 PUSH2 0x24D0 JUMP JUMPDEST PUSH0 PUSH1 0x40 MLOAD DUP1 DUP4 SUB DUP2 PUSH0 DUP8 DUP1 EXTCODESIZE ISZERO DUP1 ISZERO PUSH2 0x72F JUMPI PUSH0 DUP1 REVERT JUMPDEST POP GAS CALL ISZERO DUP1 ISZERO PUSH2 0x741 JUMPI RETURNDATASIZE PUSH0 DUP1 RETURNDATACOPY RETURNDATASIZE PUSH0 REVERT JUMPDEST POP POP POP POP PUSH0 DUP4 DUP4 DUP2 ADD SWAP1 PUSH2 0x755 SWAP2 SWAP1 PUSH2 0x2644 JUMP JUMPDEST SWAP1 POP PUSH1 0x1 PUSH0 SWAP1 SLOAD SWAP1 PUSH2 0x100 EXP SWAP1 DIV PUSH20 0xFFFFFFFFFFFFFFFFFFFFFFFFFFFFFFFFFFFFFFFF AND PUSH20 0xFFFFFFFFFFFFFFFFFFFFFFFFFFFFFFFFFFFFFFFF AND PUSH4 0xB60E72CC DUP3 MLOAD PUSH1 0x40 MLOAD DUP3 PUSH4 0xFFFFFFFF AND PUSH1 0xE0 SHL DUP2 MSTORE PUSH1 0x4 ADD PUSH2 0x7B2 SWAP2 SWAP1 PUSH2 0x26D5 JUMP JUMPDEST PUSH0 PUSH1 0x40 MLOAD DUP1 DUP4 SUB DUP2 PUSH0 DUP8 DUP1 EXTCODESIZE ISZERO DUP1 ISZERO PUSH2 0x7C9 JUMPI PUSH0 DUP1 REVERT JUMPDEST POP GAS CALL ISZERO DUP1 ISZERO PUSH2 0x7DB JUMPI RETURNDATASIZE PUSH0 DUP1 RETURNDATACOPY RETURNDATASIZE PUSH0 REVERT JUMPDEST POP POP POP POP DUP8 PUSH20 0xFFFFFFFFFFFFFFFFFFFFFFFFFFFFFFFFFFFFFFFF AND PUSH4 0x95EA7B3 PUSH32 0x0 DUP9 DUP11 PUSH2 0x828 SWAP2 SWAP1 PUSH2 0x272E JUMP JUMPDEST PUSH1 0x40 MLOAD DUP4 PUSH4 0xFFFFFFFF AND PUSH1 0xE0 SHL DUP2 MSTORE PUSH1 0x4 ADD PUSH2 0x845 SWAP3 SWAP2 SWAP1 PUSH2 0x2306 JUMP JUMPDEST PUSH1 0x20 PUSH1 0x40 MLOAD DUP1 DUP4 SUB DUP2 PUSH0 DUP8 GAS CALL ISZERO DUP1 ISZERO PUSH2 0x861 JUMPI RETURNDATASIZE PUSH0 DUP1 RETURNDATACOPY RETURNDATASIZE PUSH0 REVERT JUMPDEST POP POP POP POP PUSH1 0x40 MLOAD RETURNDATASIZE PUSH1 0x1F NOT PUSH1 0x1F DUP3 ADD AND DUP3 ADD DUP1 PUSH1 0x40 MSTORE POP DUP2 ADD SWAP1 PUSH2 0x885 SWAP2 SWAP1 PUSH2 0x2357 JUMP JUMPDEST POP PUSH0 PUSH2 0x892 DUP10 DUP10 DUP5 PUSH2 0x11F8 JUMP JUMPDEST SWAP1 POP DUP7 DUP9 PUSH2 0x8A0 SWAP2 SWAP1 PUSH2 0x272E JUMP JUMPDEST DUP2 LT ISZERO PUSH2 0x8E2 JUMPI PUSH1 0x40 MLOAD PUSH32 0x8C379A000000000000000000000000000000000000000000000000000000000 DUP2 MSTORE PUSH1 0x4 ADD PUSH2 0x8D9 SWAP1 PUSH2 0x27D1 JUMP JUMPDEST PUSH1 0x40 MLOAD DUP1 SWAP2 SUB SWAP1 REVERT JUMPDEST PUSH1 0x1 PUSH0 SWAP1 SLOAD SWAP1 PUSH2 0x100 EXP SWAP1 DIV PUSH20 0xFFFFFFFFFFFFFFFFFFFFFFFFFFFFFFFFFFFFFFFF AND PUSH20 0xFFFFFFFFFFFFFFFFFFFFFFFFFFFFFFFFFFFFFFFF AND PUSH4 0xB60E72CC DUP9 PUSH1 0x40 MLOAD DUP3 PUSH4 0xFFFFFFFF AND PUSH1 0xE0 SHL DUP2 MSTORE PUSH1 0x4 ADD PUSH2 0x93C SWAP2 SWAP1 PUSH2 0x2839 JUMP JUMPDEST PUSH0 PUSH1 0x40 MLOAD DUP1 DUP4 SUB DUP2 PUSH0 DUP8 DUP1 EXTCODESIZE ISZERO DUP1 ISZERO PUSH2 0x953 JUMPI PUSH0 DUP1 REVERT JUMPDEST POP GAS CALL ISZERO DUP1 ISZERO PUSH2 0x965 JUMPI RETURNDATASIZE PUSH0 DUP1 RETURNDATACOPY RETURNDATASIZE PUSH0 REVERT JUMPDEST POP POP POP POP PUSH1 0x1 SWAP3 POP POP POP SWAP7 SWAP6 POP POP POP POP POP POP JUMP JUMPDEST PUSH0 DUP1 PUSH1 0x1 PUSH0 SWAP1 SLOAD SWAP1 PUSH2 0x100 EXP SWAP1 DIV PUSH20 0xFFFFFFFFFFFFFFFFFFFFFFFFFFFFFFFFFFFFFFFF AND PUSH20 0xFFFFFFFFFFFFFFFFFFFFFFFFFFFFFFFFFFFFFFFF AND PUSH4 0x41304FAC PUSH1 0x40 MLOAD DUP2 PUSH4 0xFFFFFFFF AND PUSH1 0xE0 SHL DUP2 MSTORE PUSH1 0x4 ADD PUSH2 0x9D3 SWAP1 PUSH2 0x28D5 JUMP JUMPDEST PUSH0 PUSH1 0x40 MLOAD DUP1 DUP4 SUB DUP2 PUSH0 DUP8 DUP1 EXTCODESIZE ISZERO DUP1 ISZERO PUSH2 0x9EA JUMPI PUSH0 DUP1 REVERT JUMPDEST POP GAS CALL ISZERO DUP1 ISZERO PUSH2 0x9FC JUMPI RETURNDATASIZE PUSH0 DUP1 RETURNDATACOPY RETURNDATASIZE PUSH0 REVERT JUMPDEST POP POP POP POP PUSH1 0x1 PUSH0 SWAP1 SLOAD SWAP1 PUSH2 0x100 EXP SWAP1 DIV PUSH20 0xFFFFFFFFFFFFFFFFFFFFFFFFFFFFFFFFFFFFFFFF AND PUSH20 0xFFFFFFFFFFFFFFFFFFFFFFFFFFFFFFFFFFFFFFFF AND PUSH4 0x319AF333 DUP8 PUSH1 0x40 MLOAD DUP3 PUSH4 0xFFFFFFFF AND PUSH1 0xE0 SHL DUP2 MSTORE PUSH1 0x4 ADD PUSH2 0xA5A SWAP2 SWAP1 PUSH2 0x245A JUMP JUMPDEST PUSH0 PUSH1 0x40 MLOAD DUP1 DUP4 SUB DUP2 PUSH0 DUP8 DUP1 EXTCODESIZE ISZERO DUP1 ISZERO PUSH2 0xA71 JUMPI PUSH0 DUP1 REVERT JUMPDEST POP GAS CALL ISZERO DUP1 ISZERO PUSH2 0xA83 JUMPI RETURNDATASIZE PUSH0 DUP1 RETURNDATACOPY RETURNDATASIZE PUSH0 REVERT JUMPDEST POP POP POP POP PUSH1 0x1 PUSH0 SWAP1 SLOAD SWAP1 PUSH2 0x100 EXP SWAP1 DIV PUSH20 0xFFFFFFFFFFFFFFFFFFFFFFFFFFFFFFFFFFFFFFFF AND PUSH20 0xFFFFFFFFFFFFFFFFFFFFFFFFFFFFFFFFFFFFFFFF AND PUSH4 0xB60E72CC DUP7 PUSH1 0x40 MLOAD DUP3 PUSH4 0xFFFFFFFF AND PUSH1 0xE0 SHL DUP2 MSTORE PUSH1 0x4 ADD PUSH2 0xAE1 SWAP2 SWAP1 PUSH2 0x22DA JUMP JUMPDEST PUSH0 PUSH1 0x40 MLOAD DUP1 DUP4 SUB DUP2 PUSH0 DUP8 DUP1 EXTCODESIZE ISZERO DUP1 ISZERO PUSH2 0xAF8 JUMPI PUSH0 DUP1 REVERT JUMPDEST POP GAS CALL ISZERO DUP1 ISZERO PUSH2 0xB0A JUMPI RETURNDATASIZE PUSH0 DUP1 RETURNDATACOPY RETURNDATASIZE PUSH0 REVERT JUMPDEST POP POP POP POP PUSH1 0x1 PUSH0 SWAP1 SLOAD SWAP1 PUSH2 0x100 EXP SWAP1 DIV PUSH20 0xFFFFFFFFFFFFFFFFFFFFFFFFFFFFFFFFFFFFFFFF AND PUSH20 0xFFFFFFFFFFFFFFFFFFFFFFFFFFFFFFFFFFFFFFFF AND PUSH4 0xB60E72CC DUP6 DUP6 SWAP1 POP PUSH1 0x40 MLOAD DUP3 PUSH4 0xFFFFFFFF AND PUSH1 0xE0 SHL DUP2 MSTORE PUSH1 0x4 ADD PUSH2 0xB6B SWAP2 SWAP1 PUSH2 0x26D5 JUMP JUMPDEST PUSH0 PUSH1 0x40 MLOAD DUP1 DUP4 SUB DUP2 PUSH0 DUP8 DUP1 EXTCODESIZE ISZERO DUP1 ISZERO PUSH2 0xB82 JUMPI PUSH0 DUP1 REVERT JUMPDEST POP GAS CALL ISZERO DUP1 ISZERO PUSH2 0xB94 JUMPI RETURNDATASIZE PUSH0 DUP1 RETURNDATACOPY RETURNDATASIZE PUSH0 REVERT JUMPDEST POP POP POP POP PUSH0 PUSH2 0xBA5 DUP8 DUP8 DUP8 DUP8 PUSH2 0x1763 JUMP JUMPDEST SWAP1 POP PUSH0 PUSH2 0xBB2 DUP9 DUP9 PUSH2 0x1023 JUMP JUMPDEST SWAP1 POP PUSH1 0x1 PUSH0 SWAP1 SLOAD SWAP1 PUSH2 0x100 EXP SWAP1 DIV PUSH20 0xFFFFFFFFFFFFFFFFFFFFFFFFFFFFFFFFFFFFFFFF AND PUSH20 0xFFFFFFFFFFFFFFFFFFFFFFFFFFFFFFFFFFFFFFFF AND PUSH4 0xB60E72CC DUP3 PUSH1 0x40 MLOAD DUP3 PUSH4 0xFFFFFFFF AND PUSH1 0xE0 SHL DUP2 MSTORE PUSH1 0x4 ADD PUSH2 0xC0E SWAP2 SWAP1 PUSH2 0x293D JUMP JUMPDEST PUSH0 PUSH1 0x40 MLOAD DUP1 DUP4 SUB DUP2 PUSH0 DUP8 DUP1 EXTCODESIZE ISZERO DUP1 ISZERO PUSH2 0xC25 JUMPI PUSH0 DUP1 REVERT JUMPDEST POP GAS CALL ISZERO DUP1 ISZERO PUSH2 0xC37 JUMPI RETURNDATASIZE PUSH0 DUP1 RETURNDATACOPY RETURNDATASIZE PUSH0 REVERT JUMPDEST POP POP POP POP PUSH1 0x1 PUSH0 SWAP1 SLOAD SWAP1 PUSH2 0x100 EXP SWAP1 DIV PUSH20 0xFFFFFFFFFFFFFFFFFFFFFFFFFFFFFFFFFFFFFFFF AND PUSH20 0xFFFFFFFFFFFFFFFFFFFFFFFFFFFFFFFFFFFFFFFF AND PUSH4 0xB60E72CC DUP4 PUSH1 0x40 MLOAD DUP3 PUSH4 0xFFFFFFFF AND PUSH1 0xE0 SHL DUP2 MSTORE PUSH1 0x4 ADD PUSH2 0xC95 SWAP2 SWAP1 PUSH2 0x29B3 JUMP JUMPDEST PUSH0 PUSH1 0x40 MLOAD DUP1 DUP4 SUB DUP2 PUSH0 DUP8 DUP1 EXTCODESIZE ISZERO DUP1 ISZERO PUSH2 0xCAC JUMPI PUSH0 DUP1 REVERT JUMPDEST POP GAS CALL ISZERO DUP1 ISZERO PUSH2 0xCBE JUMPI RETURNDATASIZE PUSH0 DUP1 RETURNDATACOPY RETURNDATASIZE PUSH0 REVERT JUMPDEST POP POP POP POP DUP1 DUP8 PUSH2 0xCCE SWAP2 SWAP1 PUSH2 0x272E JUMP JUMPDEST DUP3 GT DUP3 SWAP4 POP SWAP4 POP POP POP SWAP5 POP SWAP5 SWAP3 POP POP POP JUMP JUMPDEST PUSH1 0x2 SLOAD DUP2 JUMP JUMPDEST PUSH2 0xCEE PUSH2 0x1171 JUMP JUMPDEST PUSH2 0xCF7 PUSH0 PUSH2 0x1BF8 JUMP JUMPDEST JUMP JUMPDEST PUSH32 0x0 DUP2 JUMP JUMPDEST PUSH0 DUP1 PUSH0 SWAP1 SLOAD SWAP1 PUSH2 0x100 EXP SWAP1 DIV PUSH20 0xFFFFFFFFFFFFFFFFFFFFFFFFFFFFFFFFFFFFFFFF AND SWAP1 POP SWAP1 JUMP JUMPDEST PUSH2 0xD4C PUSH2 0x1171 JUMP JUMPDEST PUSH1 0x1 PUSH0 SWAP1 SLOAD SWAP1 PUSH2 0x100 EXP SWAP1 DIV PUSH20 0xFFFFFFFFFFFFFFFFFFFFFFFFFFFFFFFFFFFFFFFF AND PUSH20 0xFFFFFFFFFFFFFFFFFFFFFFFFFFFFFFFFFFFFFFFF AND PUSH4 0x41304FAC PUSH1 0x40 MLOAD DUP2 PUSH4 0xFFFFFFFF AND PUSH1 0xE0 SHL DUP2 MSTORE PUSH1 0x4 ADD PUSH2 0xDA4 SWAP1 PUSH2 0x2A4F JUMP JUMPDEST PUSH0 PUSH1 0x40 MLOAD DUP1 DUP4 SUB DUP2 PUSH0 DUP8 DUP1 EXTCODESIZE ISZERO DUP1 ISZERO PUSH2 0xDBB JUMPI PUSH0 DUP1 REVERT JUMPDEST POP GAS CALL ISZERO DUP1 ISZERO PUSH2 0xDCD JUMPI RETURNDATASIZE PUSH0 DUP1 RETURNDATACOPY RETURNDATASIZE PUSH0 REVERT JUMPDEST POP POP POP POP PUSH1 0x1 PUSH0 SWAP1 SLOAD SWAP1 PUSH2 0x100 EXP SWAP1 DIV PUSH20 0xFFFFFFFFFFFFFFFFFFFFFFFFFFFFFFFFFFFFFFFF AND PUSH20 0xFFFFFFFFFFFFFFFFFFFFFFFFFFFFFFFFFFFFFFFF AND PUSH4 0x319AF333 DUP6 PUSH1 0x40 MLOAD DUP3 PUSH4 0xFFFFFFFF AND PUSH1 0xE0 SHL DUP2 MSTORE PUSH1 0x4 ADD PUSH2 0xE2B SWAP2 SWAP1 PUSH2 0x245A JUMP JUMPDEST PUSH0 PUSH1 0x40 MLOAD DUP1 DUP4 SUB DUP2 PUSH0 DUP8 DUP1 EXTCODESIZE ISZERO DUP1 ISZERO PUSH2 0xE42 JUMPI PUSH0 DUP1 REVERT JUMPDEST POP GAS CALL ISZERO DUP1 ISZERO PUSH2 0xE54 JUMPI RETURNDATASIZE PUSH0 DUP1 RETURNDATACOPY RETURNDATASIZE PUSH0 REVERT JUMPDEST POP POP POP POP PUSH1 0x1 PUSH0 SWAP1 SLOAD SWAP1 PUSH2 0x100 EXP SWAP1 DIV PUSH20 0xFFFFFFFFFFFFFFFFFFFFFFFFFFFFFFFFFFFFFFFF AND PUSH20 0xFFFFFFFFFFFFFFFFFFFFFFFFFFFFFFFFFFFFFFFF AND PUSH4 0xB60E72CC DUP5 PUSH1 0x40 MLOAD DUP3 PUSH4 0xFFFFFFFF AND PUSH1 0xE0 SHL DUP2 MSTORE PUSH1 0x4 ADD PUSH2 0xEB2 SWAP2 SWAP1 PUSH2 0x22DA JUMP JUMPDEST PUSH0 PUSH1 0x40 MLOAD DUP1 DUP4 SUB DUP2 PUSH0 DUP8 DUP1 EXTCODESIZE ISZERO DUP1 ISZERO PUSH2 0xEC9 JUMPI PUSH0 DUP1 REVERT JUMPDEST POP GAS CALL ISZERO DUP1 ISZERO PUSH2 0xEDB JUMPI RETURNDATASIZE PUSH0 DUP1 RETURNDATACOPY RETURNDATASIZE PUSH0 REVERT JUMPDEST POP POP POP POP PUSH1 0x1 PUSH0 SWAP1 SLOAD SWAP1 PUSH2 0x100 EXP SWAP1 DIV PUSH20 0xFFFFFFFFFFFFFFFFFFFFFFFFFFFFFFFFFFFFFFFF AND PUSH20 0xFFFFFFFFFFFFFFFFFFFFFFFFFFFFFFFFFFFFFFFF AND PUSH4 0xB60E72CC DUP4 DUP4 SWAP1 POP PUSH1 0x40 MLOAD DUP3 PUSH4 0xFFFFFFFF AND PUSH1 0xE0 SHL DUP2 MSTORE PUSH1 0x4 ADD PUSH2 0xF3C SWAP2 SWAP1 PUSH2 0x26D5 JUMP JUMPDEST PUSH0 PUSH1 0x40 MLOAD DUP1 DUP4 SUB DUP2 PUSH0 DUP8 DUP1 EXTCODESIZE ISZERO DUP1 ISZERO PUSH2 0xF53 JUMPI PUSH0 DUP1 REVERT JUMPDEST POP GAS CALL ISZERO DUP1 ISZERO PUSH2 0xF65 JUMPI RETURNDATASIZE PUSH0 DUP1 RETURNDATACOPY RETURNDATASIZE PUSH0 REVERT JUMPDEST POP POP POP POP PUSH0 DUP3 DUP3 PUSH1 0x40 MLOAD PUSH1 0x20 ADD PUSH2 0xF7D SWAP3 SWAP2 SWAP1 PUSH2 0x2B29 JUMP JUMPDEST PUSH1 0x40 MLOAD PUSH1 0x20 DUP2 DUP4 SUB SUB DUP2 MSTORE SWAP1 PUSH1 0x40 MSTORE SWAP1 POP PUSH32 0x0 PUSH20 0xFFFFFFFFFFFFFFFFFFFFFFFFFFFFFFFFFFFFFFFF AND PUSH4 0x42B0B77C ADDRESS DUP8 DUP8 DUP6 PUSH0 PUSH1 0x40 MLOAD DUP7 PUSH4 0xFFFFFFFF AND PUSH1 0xE0 SHL DUP2 MSTORE PUSH1 0x4 ADD PUSH2 0xFEF SWAP6 SWAP5 SWAP4 SWAP3 SWAP2 SWAP1 PUSH2 0x2BF1 JUMP JUMPDEST PUSH0 PUSH1 0x40 MLOAD DUP1 DUP4 SUB DUP2 PUSH0 DUP8 DUP1 EXTCODESIZE ISZERO DUP1 ISZERO PUSH2 0x1006 JUMPI PUSH0 DUP1 REVERT JUMPDEST POP GAS CALL ISZERO DUP1 ISZERO PUSH2 0x1018 JUMPI RETURNDATASIZE PUSH0 DUP1 RETURNDATACOPY RETURNDATASIZE PUSH0 REVERT JUMPDEST POP POP POP POP POP POP POP POP POP JUMP JUMPDEST PUSH0 DUP1 PUSH32 0x0 PUSH20 0xFFFFFFFFFFFFFFFFFFFFFFFFFFFFFFFFFFFFFFFF AND PUSH4 0x74B2E43 PUSH1 0x40 MLOAD DUP2 PUSH4 0xFFFFFFFF AND PUSH1 0xE0 SHL DUP2 MSTORE PUSH1 0x4 ADD PUSH1 0x20 PUSH1 0x40 MLOAD DUP1 DUP4 SUB DUP2 DUP7 GAS STATICCALL ISZERO DUP1 ISZERO PUSH2 0x108E JUMPI RETURNDATASIZE PUSH0 DUP1 RETURNDATACOPY RETURNDATASIZE PUSH0 REVERT JUMPDEST POP POP POP POP PUSH1 0x40 MLOAD RETURNDATASIZE PUSH1 0x1F NOT PUSH1 0x1F DUP3 ADD AND DUP3 ADD DUP1 PUSH1 0x40 MSTORE POP DUP2 ADD SWAP1 PUSH2 0x10B2 SWAP2 SWAP1 PUSH2 0x2C8E JUMP JUMPDEST PUSH16 0xFFFFFFFFFFFFFFFFFFFFFFFFFFFFFFFF AND SWAP1 POP PUSH0 PUSH2 0x2710 DUP3 DUP6 PUSH2 0x10D6 SWAP2 SWAP1 PUSH2 0x2CB9 JUMP JUMPDEST PUSH2 0x10E0 SWAP2 SWAP1 PUSH2 0x2D27 JUMP JUMPDEST SWAP1 POP DUP1 SWAP3 POP POP POP SWAP3 SWAP2 POP POP JUMP JUMPDEST PUSH2 0x10F5 PUSH2 0x1171 JUMP JUMPDEST PUSH0 PUSH20 0xFFFFFFFFFFFFFFFFFFFFFFFFFFFFFFFFFFFFFFFF AND DUP2 PUSH20 0xFFFFFFFFFFFFFFFFFFFFFFFFFFFFFFFFFFFFFFFF AND SUB PUSH2 0x1165 JUMPI PUSH0 PUSH1 0x40 MLOAD PUSH32 0x1E4FBDF700000000000000000000000000000000000000000000000000000000 DUP2 MSTORE PUSH1 0x4 ADD PUSH2 0x115C SWAP2 SWAP1 PUSH2 0x20C2 JUMP JUMPDEST PUSH1 0x40 MLOAD DUP1 SWAP2 SUB SWAP1 REVERT JUMPDEST PUSH2 0x116E DUP2 PUSH2 0x1BF8 JUMP JUMPDEST POP JUMP JUMPDEST PUSH2 0x1179 PUSH2 0x1CB9 JUMP JUMPDEST PUSH20 0xFFFFFFFFFFFFFFFFFFFFFFFFFFFFFFFFFFFFFFFF AND PUSH2 0x1197 PUSH2 0xD1D JUMP JUMPDEST PUSH20 0xFFFFFFFFFFFFFFFFFFFFFFFFFFFFFFFFFFFFFFFF AND EQ PUSH2 0x11F6 JUMPI PUSH2 0x11BA PUSH2 0x1CB9 JUMP JUMPDEST PUSH1 0x40 MLOAD PUSH32 0x118CDAA700000000000000000000000000000000000000000000000000000000 DUP2 MSTORE PUSH1 0x4 ADD PUSH2 0x11ED SWAP2 SWAP1 PUSH2 0x20C2 JUMP JUMPDEST PUSH1 0x40 MLOAD DUP1 SWAP2 SUB SWAP1 REVERT JUMPDEST JUMP JUMPDEST PUSH0 PUSH1 0x1 PUSH0 SWAP1 SLOAD SWAP1 PUSH2 0x100 EXP SWAP1 DIV PUSH20 0xFFFFFFFFFFFFFFFFFFFFFFFFFFFFFFFFFFFFFFFF AND PUSH20 0xFFFFFFFFFFFFFFFFFFFFFFFFFFFFFFFFFFFFFFFF AND PUSH4 0x41304FAC PUSH1 0x40 MLOAD DUP2 PUSH4 0xFFFFFFFF AND PUSH1 0xE0 SHL DUP2 MSTORE PUSH1 0x4 ADD PUSH2 0x1251 SWAP1 PUSH2 0x2DC7 JUMP JUMPDEST PUSH0 PUSH1 0x40 MLOAD DUP1 DUP4 SUB DUP2 PUSH0 DUP8 DUP1 EXTCODESIZE ISZERO DUP1 ISZERO PUSH2 0x1268 JUMPI PUSH0 DUP1 REVERT JUMPDEST POP GAS CALL ISZERO DUP1 ISZERO PUSH2 0x127A JUMPI RETURNDATASIZE PUSH0 DUP1 RETURNDATACOPY RETURNDATASIZE PUSH0 REVERT JUMPDEST POP POP POP POP PUSH0 DUP5 PUSH20 0xFFFFFFFFFFFFFFFFFFFFFFFFFFFFFFFFFFFFFFFF AND PUSH4 0x70A08231 ADDRESS PUSH1 0x40 MLOAD DUP3 PUSH4 0xFFFFFFFF AND PUSH1 0xE0 SHL DUP2 MSTORE PUSH1 0x4 ADD PUSH2 0x12B8 SWAP2 SWAP1 PUSH2 0x20C2 JUMP JUMPDEST PUSH1 0x20 PUSH1 0x40 MLOAD DUP1 DUP4 SUB DUP2 DUP7 GAS STATICCALL ISZERO DUP1 ISZERO PUSH2 0x12D3 JUMPI RETURNDATASIZE PUSH0 DUP1 RETURNDATACOPY RETURNDATASIZE PUSH0 REVERT JUMPDEST POP POP POP POP PUSH1 0x40 MLOAD RETURNDATASIZE PUSH1 0x1F NOT PUSH1 0x1F DUP3 ADD AND DUP3 ADD DUP1 PUSH1 0x40 MSTORE POP DUP2 ADD SWAP1 PUSH2 0x12F7 SWAP2 SWAP1 PUSH2 0x2DF9 JUMP JUMPDEST SWAP1 POP PUSH1 0x1 PUSH0 SWAP1 SLOAD SWAP1 PUSH2 0x100 EXP SWAP1 DIV PUSH20 0xFFFFFFFFFFFFFFFFFFFFFFFFFFFFFFFFFFFFFFFF AND PUSH20 0xFFFFFFFFFFFFFFFFFFFFFFFFFFFFFFFFFFFFFFFF AND PUSH4 0xB60E72CC DUP3 PUSH1 0x40 MLOAD DUP3 PUSH4 0xFFFFFFFF AND PUSH1 0xE0 SHL DUP2 MSTORE PUSH1 0x4 ADD PUSH2 0x1353 SWAP2 SWAP1 PUSH2 0x2E6E JUMP JUMPDEST PUSH0 PUSH1 0x40 MLOAD DUP1 DUP4 SUB DUP2 PUSH0 DUP8 DUP1 EXTCODESIZE ISZERO DUP1 ISZERO PUSH2 0x136A JUMPI PUSH0 DUP1 REVERT JUMPDEST POP GAS CALL ISZERO DUP1 ISZERO PUSH2 0x137C JUMPI RETURNDATASIZE PUSH0 DUP1 RETURNDATACOPY RETURNDATASIZE PUSH0 REVERT JUMPDEST POP POP POP POP PUSH0 JUMPDEST PUSH1 0x1 DUP5 MLOAD PUSH2 0x1390 SWAP2 SWAP1 PUSH2 0x2E9A JUMP JUMPDEST DUP2 LT ISZERO PUSH2 0x1654 JUMPI PUSH0 DUP7 PUSH20 0xFFFFFFFFFFFFFFFFFFFFFFFFFFFFFFFFFFFFFFFF AND PUSH4 0x70A08231 ADDRESS PUSH1 0x40 MLOAD DUP3 PUSH4 0xFFFFFFFF AND PUSH1 0xE0 SHL DUP2 MSTORE PUSH1 0x4 ADD PUSH2 0x13D1 SWAP2 SWAP1 PUSH2 0x20C2 JUMP JUMPDEST PUSH1 0x20 PUSH1 0x40 MLOAD DUP1 DUP4 SUB DUP2 DUP7 GAS STATICCALL ISZERO DUP1 ISZERO PUSH2 0x13EC JUMPI RETURNDATASIZE PUSH0 DUP1 RETURNDATACOPY RETURNDATASIZE PUSH0 REVERT JUMPDEST POP POP POP POP PUSH1 0x40 MLOAD RETURNDATASIZE PUSH1 0x1F NOT PUSH1 0x1F DUP3 ADD AND DUP3 ADD DUP1 PUSH1 0x40 MSTORE POP DUP2 ADD SWAP1 PUSH2 0x1410 SWAP2 SWAP1 PUSH2 0x2DF9 JUMP JUMPDEST SWAP1 POP DUP7 PUSH20 0xFFFFFFFFFFFFFFFFFFFFFFFFFFFFFFFFFFFFFFFF AND PUSH4 0x95EA7B3 DUP7 DUP5 DUP2 MLOAD DUP2 LT PUSH2 0x1441 JUMPI PUSH2 0x1440 PUSH2 0x2ECD JUMP JUMPDEST JUMPDEST PUSH1 0x20 MUL PUSH1 0x20 ADD ADD MLOAD DUP4 PUSH1 0x40 MLOAD DUP4 PUSH4 0xFFFFFFFF AND PUSH1 0xE0 SHL DUP2 MSTORE PUSH1 0x4 ADD PUSH2 0x1467 SWAP3 SWAP2 SWAP1 PUSH2 0x2306 JUMP JUMPDEST PUSH1 0x20 PUSH1 0x40 MLOAD DUP1 DUP4 SUB DUP2 PUSH0 DUP8 GAS CALL ISZERO DUP1 ISZERO PUSH2 0x1483 JUMPI RETURNDATASIZE PUSH0 DUP1 RETURNDATACOPY RETURNDATASIZE PUSH0 REVERT JUMPDEST POP POP POP POP PUSH1 0x40 MLOAD RETURNDATASIZE PUSH1 0x1F NOT PUSH1 0x1F DUP3 ADD AND DUP3 ADD DUP1 PUSH1 0x40 MSTORE POP DUP2 ADD SWAP1 PUSH2 0x14A7 SWAP2 SWAP1 PUSH2 0x2357 JUMP JUMPDEST POP PUSH0 PUSH1 0x2 PUSH8 0xFFFFFFFFFFFFFFFF DUP2 GT ISZERO PUSH2 0x14C4 JUMPI PUSH2 0x14C3 PUSH2 0x250C JUMP JUMPDEST JUMPDEST PUSH1 0x40 MLOAD SWAP1 DUP1 DUP3 MSTORE DUP1 PUSH1 0x20 MUL PUSH1 0x20 ADD DUP3 ADD PUSH1 0x40 MSTORE DUP1 ISZERO PUSH2 0x14F2 JUMPI DUP2 PUSH1 0x20 ADD PUSH1 0x20 DUP3 MUL DUP1 CALLDATASIZE DUP4 CALLDATACOPY DUP1 DUP3 ADD SWAP2 POP POP SWAP1 POP JUMPDEST POP SWAP1 POP DUP8 DUP2 PUSH0 DUP2 MLOAD DUP2 LT PUSH2 0x1509 JUMPI PUSH2 0x1508 PUSH2 0x2ECD JUMP JUMPDEST JUMPDEST PUSH1 0x20 MUL PUSH1 0x20 ADD ADD SWAP1 PUSH20 0xFFFFFFFFFFFFFFFFFFFFFFFFFFFFFFFFFFFFFFFF AND SWAP1 DUP2 PUSH20 0xFFFFFFFFFFFFFFFFFFFFFFFFFFFFFFFFFFFFFFFF AND DUP2 MSTORE POP POP PUSH20 0xC02AAA39B223FE8D0A0E5C4F27EAD9083C756CC2 DUP2 PUSH1 0x1 DUP2 MLOAD DUP2 LT PUSH2 0x156C JUMPI PUSH2 0x156B PUSH2 0x2ECD JUMP JUMPDEST JUMPDEST PUSH1 0x20 MUL PUSH1 0x20 ADD ADD SWAP1 PUSH20 0xFFFFFFFFFFFFFFFFFFFFFFFFFFFFFFFFFFFFFFFF AND SWAP1 DUP2 PUSH20 0xFFFFFFFFFFFFFFFFFFFFFFFFFFFFFFFFFFFFFFFF AND DUP2 MSTORE POP POP DUP6 DUP4 DUP2 MLOAD DUP2 LT PUSH2 0x15B9 JUMPI PUSH2 0x15B8 PUSH2 0x2ECD JUMP JUMPDEST JUMPDEST PUSH1 0x20 MUL PUSH1 0x20 ADD ADD MLOAD PUSH20 0xFFFFFFFFFFFFFFFFFFFFFFFFFFFFFFFFFFFFFFFF AND PUSH4 0x38ED1739 DUP4 PUSH0 DUP5 ADDRESS TIMESTAMP PUSH1 0x40 MLOAD DUP7 PUSH4 0xFFFFFFFF AND PUSH1 0xE0 SHL DUP2 MSTORE PUSH1 0x4 ADD PUSH2 0x1601 SWAP6 SWAP5 SWAP4 SWAP3 SWAP2 SWAP1 PUSH2 0x2FAB JUMP JUMPDEST PUSH0 PUSH1 0x40 MLOAD DUP1 DUP4 SUB DUP2 PUSH0 DUP8 GAS CALL ISZERO DUP1 ISZERO PUSH2 0x161C JUMPI RETURNDATASIZE PUSH0 DUP1 RETURNDATACOPY RETURNDATASIZE PUSH0 REVERT JUMPDEST POP POP POP POP PUSH1 0x40 MLOAD RETURNDATASIZE PUSH0 DUP3 RETURNDATACOPY RETURNDATASIZE PUSH1 0x1F NOT PUSH1 0x1F DUP3 ADD AND DUP3 ADD DUP1 PUSH1 0x40 MSTORE POP DUP2 ADD SWAP1 PUSH2 0x1644 SWAP2 SWAP1 PUSH2 0x30C3 JUMP JUMPDEST POP POP POP DUP1 DUP1 PUSH1 0x1 ADD SWAP2 POP POP PUSH2 0x1382 JUMP JUMPDEST POP PUSH0 DUP6 PUSH20 0xFFFFFFFFFFFFFFFFFFFFFFFFFFFFFFFFFFFFFFFF AND PUSH4 0x70A08231 ADDRESS PUSH1 0x40 MLOAD DUP3 PUSH4 0xFFFFFFFF AND PUSH1 0xE0 SHL DUP2 MSTORE PUSH1 0x4 ADD PUSH2 0x168F SWAP2 SWAP1 PUSH2 0x20C2 JUMP JUMPDEST PUSH1 0x20 PUSH1 0x40 MLOAD DUP1 DUP4 SUB DUP2 DUP7 GAS STATICCALL ISZERO DUP1 ISZERO PUSH2 0x16AA JUMPI RETURNDATASIZE PUSH0 DUP1 RETURNDATACOPY RETURNDATASIZE PUSH0 REVERT JUMPDEST POP POP POP POP PUSH1 0x40 MLOAD RETURNDATASIZE PUSH1 0x1F NOT PUSH1 0x1F DUP3 ADD AND DUP3 ADD DUP1 PUSH1 0x40 MSTORE POP DUP2 ADD SWAP1 PUSH2 0x16CE SWAP2 SWAP1 PUSH2 0x2DF9 JUMP JUMPDEST SWAP1 POP PUSH1 0x1 PUSH0 SWAP1 SLOAD SWAP1 PUSH2 0x100 EXP SWAP1 DIV PUSH20 0xFFFFFFFFFFFFFFFFFFFFFFFFFFFFFFFFFFFFFFFF AND PUSH20 0xFFFFFFFFFFFFFFFFFFFFFFFFFFFFFFFFFFFFFFFF AND PUSH4 0xB60E72CC DUP3 PUSH1 0x40 MLOAD DUP3 PUSH4 0xFFFFFFFF AND PUSH1 0xE0 SHL DUP2 MSTORE PUSH1 0x4 ADD PUSH2 0x172A SWAP2 SWAP1 PUSH2 0x3154 JUMP JUMPDEST PUSH0 PUSH1 0x40 MLOAD DUP1 DUP4 SUB DUP2 PUSH0 DUP8 DUP1 EXTCODESIZE ISZERO DUP1 ISZERO PUSH2 0x1741 JUMPI PUSH0 DUP1 REVERT JUMPDEST POP GAS CALL ISZERO DUP1 ISZERO PUSH2 0x1753 JUMPI RETURNDATASIZE PUSH0 DUP1 RETURNDATACOPY RETURNDATASIZE PUSH0 REVERT JUMPDEST POP POP POP POP DUP1 SWAP3 POP POP POP SWAP4 SWAP3 POP POP POP JUMP JUMPDEST PUSH0 PUSH1 0x1 PUSH0 SWAP1 SLOAD SWAP1 PUSH2 0x100 EXP SWAP1 DIV PUSH20 0xFFFFFFFFFFFFFFFFFFFFFFFFFFFFFFFFFFFFFFFF AND PUSH20 0xFFFFFFFFFFFFFFFFFFFFFFFFFFFFFFFFFFFFFFFF AND PUSH4 0x41304FAC PUSH1 0x40 MLOAD DUP2 PUSH4 0xFFFFFFFF AND PUSH1 0xE0 SHL DUP2 MSTORE PUSH1 0x4 ADD PUSH2 0x17BC SWAP1 PUSH2 0x31F0 JUMP JUMPDEST PUSH0 PUSH1 0x40 MLOAD DUP1 DUP4 SUB DUP2 PUSH0 DUP8 DUP1 EXTCODESIZE ISZERO DUP1 ISZERO PUSH2 0x17D3 JUMPI PUSH0 DUP1 REVERT JUMPDEST POP GAS CALL ISZERO DUP1 ISZERO PUSH2 0x17E5 JUMPI RETURNDATASIZE PUSH0 DUP1 RETURNDATACOPY RETURNDATASIZE PUSH0 REVERT JUMPDEST POP POP POP POP PUSH1 0x1 PUSH0 SWAP1 SLOAD SWAP1 PUSH2 0x100 EXP SWAP1 DIV PUSH20 0xFFFFFFFFFFFFFFFFFFFFFFFFFFFFFFFFFFFFFFFF AND PUSH20 0xFFFFFFFFFFFFFFFFFFFFFFFFFFFFFFFFFFFFFFFF AND PUSH4 0x319AF333 DUP7 PUSH1 0x40 MLOAD DUP3 PUSH4 0xFFFFFFFF AND PUSH1 0xE0 SHL DUP2 MSTORE PUSH1 0x4 ADD PUSH2 0x1843 SWAP2 SWAP1 PUSH2 0x245A JUMP JUMPDEST PUSH0 PUSH1 0x40 MLOAD DUP1 DUP4 SUB DUP2 PUSH0 DUP8 DUP1 EXTCODESIZE ISZERO DUP1 ISZERO PUSH2 0x185A JUMPI PUSH0 DUP1 REVERT JUMPDEST POP GAS CALL ISZERO DUP1 ISZERO PUSH2 0x186C JUMPI RETURNDATASIZE PUSH0 DUP1 RETURNDATACOPY RETURNDATASIZE PUSH0 REVERT JUMPDEST POP POP POP POP PUSH1 0x1 PUSH0 SWAP1 SLOAD SWAP1 PUSH2 0x100 EXP SWAP1 DIV PUSH20 0xFFFFFFFFFFFFFFFFFFFFFFFFFFFFFFFFFFFFFFFF AND PUSH20 0xFFFFFFFFFFFFFFFFFFFFFFFFFFFFFFFFFFFFFFFF AND PUSH4 0xB60E72CC DUP6 PUSH1 0x40 MLOAD DUP3 PUSH4 0xFFFFFFFF AND PUSH1 0xE0 SHL DUP2 MSTORE PUSH1 0x4 ADD PUSH2 0x18CA SWAP2 SWAP1 PUSH2 0x22DA JUMP JUMPDEST PUSH0 PUSH1 0x40 MLOAD DUP1 DUP4 SUB DUP2 PUSH0 DUP8 DUP1 EXTCODESIZE ISZERO DUP1 ISZERO PUSH2 0x18E1 JUMPI PUSH0 DUP1 REVERT JUMPDEST POP GAS CALL ISZERO DUP1 ISZERO PUSH2 0x18F3 JUMPI RETURNDATASIZE PUSH0 DUP1 RETURNDATACOPY RETURNDATASIZE PUSH0 REVERT JUMPDEST POP POP POP POP PUSH1 0x1 PUSH0 SWAP1 SLOAD SWAP1 PUSH2 0x100 EXP SWAP1 DIV PUSH20 0xFFFFFFFFFFFFFFFFFFFFFFFFFFFFFFFFFFFFFFFF AND PUSH20 0xFFFFFFFFFFFFFFFFFFFFFFFFFFFFFFFFFFFFFFFF AND PUSH4 0xB60E72CC DUP5 DUP5 SWAP1 POP PUSH1 0x40 MLOAD DUP3 PUSH4 0xFFFFFFFF AND PUSH1 0xE0 SHL DUP2 MSTORE PUSH1 0x4 ADD PUSH2 0x1954 SWAP2 SWAP1 PUSH2 0x26D5 JUMP JUMPDEST PUSH0 PUSH1 0x40 MLOAD DUP1 DUP4 SUB DUP2 PUSH0 DUP8 DUP1 EXTCODESIZE ISZERO DUP1 ISZERO PUSH2 0x196B JUMPI PUSH0 DUP1 REVERT JUMPDEST POP GAS CALL ISZERO DUP1 ISZERO PUSH2 0x197D JUMPI RETURNDATASIZE PUSH0 DUP1 RETURNDATACOPY RETURNDATASIZE PUSH0 REVERT JUMPDEST POP POP POP POP PUSH0 DUP5 SWAP1 POP PUSH0 JUMPDEST DUP5 DUP5 SWAP1 POP DUP2 LT ISZERO PUSH2 0x1B64 JUMPI PUSH0 PUSH1 0x2 PUSH8 0xFFFFFFFFFFFFFFFF DUP2 GT ISZERO PUSH2 0x19AE JUMPI PUSH2 0x19AD PUSH2 0x250C JUMP JUMPDEST JUMPDEST PUSH1 0x40 MLOAD SWAP1 DUP1 DUP3 MSTORE DUP1 PUSH1 0x20 MUL PUSH1 0x20 ADD DUP3 ADD PUSH1 0x40 MSTORE DUP1 ISZERO PUSH2 0x19DC JUMPI DUP2 PUSH1 0x20 ADD PUSH1 0x20 DUP3 MUL DUP1 CALLDATASIZE DUP4 CALLDATACOPY DUP1 DUP3 ADD SWAP2 POP POP SWAP1 POP JUMPDEST POP SWAP1 POP DUP8 DUP2 PUSH0 DUP2 MLOAD DUP2 LT PUSH2 0x19F3 JUMPI PUSH2 0x19F2 PUSH2 0x2ECD JUMP JUMPDEST JUMPDEST PUSH1 0x20 MUL PUSH1 0x20 ADD ADD SWAP1 PUSH20 0xFFFFFFFFFFFFFFFFFFFFFFFFFFFFFFFFFFFFFFFF AND SWAP1 DUP2 PUSH20 0xFFFFFFFFFFFFFFFFFFFFFFFFFFFFFFFFFFFFFFFF AND DUP2 MSTORE POP POP PUSH20 0xC02AAA39B223FE8D0A0E5C4F27EAD9083C756CC2 DUP2 PUSH1 0x1 DUP2 MLOAD DUP2 LT PUSH2 0x1A56 JUMPI PUSH2 0x1A55 PUSH2 0x2ECD JUMP JUMPDEST JUMPDEST PUSH1 0x20 MUL PUSH1 0x20 ADD ADD SWAP1 PUSH20 0xFFFFFFFFFFFFFFFFFFFFFFFFFFFFFFFFFFFFFFFF AND SWAP1 DUP2 PUSH20 0xFFFFFFFFFFFFFFFFFFFFFFFFFFFFFFFFFFFFFFFF AND DUP2 MSTORE POP POP PUSH0 DUP7 DUP7 DUP5 DUP2 DUP2 LT PUSH2 0x1AA4 JUMPI PUSH2 0x1AA3 PUSH2 0x2ECD JUMP JUMPDEST JUMPDEST SWAP1 POP PUSH1 0x20 MUL ADD PUSH1 0x20 DUP2 ADD SWAP1 PUSH2 0x1AB9 SWAP2 SWAP1 PUSH2 0x20DB JUMP JUMPDEST PUSH20 0xFFFFFFFFFFFFFFFFFFFFFFFFFFFFFFFFFFFFFFFF AND PUSH4 0xD06CA61F DUP6 DUP5 PUSH1 0x40 MLOAD DUP4 PUSH4 0xFFFFFFFF AND PUSH1 0xE0 SHL DUP2 MSTORE PUSH1 0x4 ADD PUSH2 0x1AF3 SWAP3 SWAP2 SWAP1 PUSH2 0x320E JUMP JUMPDEST PUSH0 PUSH1 0x40 MLOAD DUP1 DUP4 SUB DUP2 DUP7 GAS STATICCALL ISZERO DUP1 ISZERO PUSH2 0x1B0D JUMPI RETURNDATASIZE PUSH0 DUP1 RETURNDATACOPY RETURNDATASIZE PUSH0 REVERT JUMPDEST POP POP POP POP PUSH1 0x40 MLOAD RETURNDATASIZE PUSH0 DUP3 RETURNDATACOPY RETURNDATASIZE PUSH1 0x1F NOT PUSH1 0x1F DUP3 ADD AND DUP3 ADD DUP1 PUSH1 0x40 MSTORE POP DUP2 ADD SWAP1 PUSH2 0x1B35 SWAP2 SWAP1 PUSH2 0x30C3 JUMP JUMPDEST SWAP1 POP DUP1 PUSH1 0x1 DUP2 MLOAD DUP2 LT PUSH2 0x1B4B JUMPI PUSH2 0x1B4A PUSH2 0x2ECD JUMP JUMPDEST JUMPDEST PUSH1 0x20 MUL PUSH1 0x20 ADD ADD MLOAD SWAP4 POP POP POP DUP1 DUP1 PUSH1 0x1 ADD SWAP2 POP POP PUSH2 0x1987 JUMP JUMPDEST POP PUSH1 0x1 PUSH0 SWAP1 SLOAD SWAP1 PUSH2 0x100 EXP SWAP1 DIV PUSH20 0xFFFFFFFFFFFFFFFFFFFFFFFFFFFFFFFFFFFFFFFF AND PUSH20 0xFFFFFFFFFFFFFFFFFFFFFFFFFFFFFFFFFFFFFFFF AND PUSH4 0xB60E72CC DUP3 PUSH1 0x40 MLOAD DUP3 PUSH4 0xFFFFFFFF AND PUSH1 0xE0 SHL DUP2 MSTORE PUSH1 0x4 ADD PUSH2 0x1BBF SWAP2 SWAP1 PUSH2 0x3286 JUMP JUMPDEST PUSH0 PUSH1 0x40 MLOAD DUP1 DUP4 SUB DUP2 PUSH0 DUP8 DUP1 EXTCODESIZE ISZERO DUP1 ISZERO PUSH2 0x1BD6 JUMPI PUSH0 DUP1 REVERT JUMPDEST POP GAS CALL ISZERO DUP1 ISZERO PUSH2 0x1BE8 JUMPI RETURNDATASIZE PUSH0 DUP1 RETURNDATACOPY RETURNDATASIZE PUSH0 REVERT JUMPDEST POP POP POP POP DUP1 SWAP2 POP POP SWAP5 SWAP4 POP POP POP POP JUMP JUMPDEST PUSH0 DUP1 PUSH0 SWAP1 SLOAD SWAP1 PUSH2 0x100 EXP SWAP1 DIV PUSH20 0xFFFFFFFFFFFFFFFFFFFFFFFFFFFFFFFFFFFFFFFF AND SWAP1 POP DUP2 PUSH0 DUP1 PUSH2 0x100 EXP DUP2 SLOAD DUP2 PUSH20 0xFFFFFFFFFFFFFFFFFFFFFFFFFFFFFFFFFFFFFFFF MUL NOT AND SWAP1 DUP4 PUSH20 0xFFFFFFFFFFFFFFFFFFFFFFFFFFFFFFFFFFFFFFFF AND MUL OR SWAP1 SSTORE POP DUP2 PUSH20 0xFFFFFFFFFFFFFFFFFFFFFFFFFFFFFFFFFFFFFFFF AND DUP2 PUSH20 0xFFFFFFFFFFFFFFFFFFFFFFFFFFFFFFFFFFFFFFFF AND PUSH32 0x8BE0079C531659141344CD1FD0A4F28419497F9722A3DAAFE3B4186F6B6457E0 PUSH1 0x40 MLOAD PUSH1 0x40 MLOAD DUP1 SWAP2 SUB SWAP1 LOG3 POP POP JUMP JUMPDEST PUSH0 CALLER SWAP1 POP SWAP1 JUMP JUMPDEST PUSH0 PUSH1 0x40 MLOAD SWAP1 POP SWAP1 JUMP JUMPDEST PUSH0 DUP1 REVERT JUMPDEST PUSH0 DUP1 REVERT JUMPDEST PUSH0 DUP2 SWAP1 POP SWAP2 SWAP1 POP JUMP JUMPDEST PUSH2 0x1CE3 DUP2 PUSH2 0x1CD1 JUMP JUMPDEST DUP2 EQ PUSH2 0x1CED JUMPI PUSH0 DUP1 REVERT JUMPDEST POP JUMP JUMPDEST PUSH0 DUP2 CALLDATALOAD SWAP1 POP PUSH2 0x1CFE DUP2 PUSH2 0x1CDA JUMP JUMPDEST SWAP3 SWAP2 POP POP JUMP JUMPDEST PUSH0 PUSH1 0x20 DUP3 DUP5 SUB SLT ISZERO PUSH2 0x1D19 JUMPI PUSH2 0x1D18 PUSH2 0x1CC9 JUMP JUMPDEST JUMPDEST PUSH0 PUSH2 0x1D26 DUP5 DUP3 DUP6 ADD PUSH2 0x1CF0 JUMP JUMPDEST SWAP2 POP POP SWAP3 SWAP2 POP POP JUMP JUMPDEST PUSH2 0x1D38 DUP2 PUSH2 0x1CD1 JUMP JUMPDEST DUP3 MSTORE POP POP JUMP JUMPDEST PUSH0 PUSH1 0x20 DUP3 ADD SWAP1 POP PUSH2 0x1D51 PUSH0 DUP4 ADD DUP5 PUSH2 0x1D2F JUMP JUMPDEST SWAP3 SWAP2 POP POP JUMP JUMPDEST PUSH0 PUSH20 0xFFFFFFFFFFFFFFFFFFFFFFFFFFFFFFFFFFFFFFFF DUP3 AND SWAP1 POP SWAP2 SWAP1 POP JUMP JUMPDEST PUSH0 DUP2 SWAP1 POP SWAP2 SWAP1 POP JUMP JUMPDEST PUSH0 PUSH2 0x1D99 PUSH2 0x1D94 PUSH2 0x1D8F DUP5 PUSH2 0x1D57 JUMP JUMPDEST PUSH2 0x1D76 JUMP JUMPDEST PUSH2 0x1D57 JUMP JUMPDEST SWAP1 POP SWAP2 SWAP1 POP JUMP JUMPDEST PUSH0 PUSH2 0x1DAA DUP3 PUSH2 0x1D7F JUMP JUMPDEST SWAP1 POP SWAP2 SWAP1 POP JUMP JUMPDEST PUSH0 PUSH2 0x1DBB DUP3 PUSH2 0x1DA0 JUMP JUMPDEST SWAP1 POP SWAP2 SWAP1 POP JUMP JUMPDEST PUSH2 0x1DCB DUP2 PUSH2 0x1DB1 JUMP JUMPDEST DUP3 MSTORE POP POP JUMP JUMPDEST PUSH0 PUSH1 0x20 DUP3 ADD SWAP1 POP PUSH2 0x1DE4 PUSH0 DUP4 ADD DUP5 PUSH2 0x1DC2 JUMP JUMPDEST SWAP3 SWAP2 POP POP JUMP JUMPDEST PUSH0 PUSH2 0x1DF4 DUP3 PUSH2 0x1D57 JUMP JUMPDEST SWAP1 POP SWAP2 SWAP1 POP JUMP JUMPDEST PUSH2 0x1E04 DUP2 PUSH2 0x1DEA JUMP JUMPDEST DUP2 EQ PUSH2 0x1E0E JUMPI PUSH0 DUP1 REVERT JUMPDEST POP JUMP JUMPDEST PUSH0 DUP2 CALLDATALOAD SWAP1 POP PUSH2 0x1E1F DUP2 PUSH2 0x1DFB JUMP JUMPDEST SWAP3 SWAP2 POP POP JUMP JUMPDEST PUSH0 DUP1 PUSH1 0x40 DUP4 DUP6 SUB SLT ISZERO PUSH2 0x1E3B JUMPI PUSH2 0x1E3A PUSH2 0x1CC9 JUMP JUMPDEST JUMPDEST PUSH0 PUSH2 0x1E48 DUP6 DUP3 DUP7 ADD PUSH2 0x1E11 JUMP JUMPDEST SWAP3 POP POP PUSH1 0x20 PUSH2 0x1E59 DUP6 DUP3 DUP7 ADD PUSH2 0x1CF0 JUMP JUMPDEST SWAP2 POP POP SWAP3 POP SWAP3 SWAP1 POP JUMP JUMPDEST PUSH0 DUP1 REVERT JUMPDEST PUSH0 DUP1 REVERT JUMPDEST PUSH0 DUP1 REVERT JUMPDEST PUSH0 DUP1 DUP4 PUSH1 0x1F DUP5 ADD SLT PUSH2 0x1E84 JUMPI PUSH2 0x1E83 PUSH2 0x1E63 JUMP JUMPDEST JUMPDEST DUP3 CALLDATALOAD SWAP1 POP PUSH8 0xFFFFFFFFFFFFFFFF DUP2 GT ISZERO PUSH2 0x1EA1 JUMPI PUSH2 0x1EA0 PUSH2 0x1E67 JUMP JUMPDEST JUMPDEST PUSH1 0x20 DUP4 ADD SWAP2 POP DUP4 PUSH1 0x1 DUP3 MUL DUP4 ADD GT ISZERO PUSH2 0x1EBD JUMPI PUSH2 0x1EBC PUSH2 0x1E6B JUMP JUMPDEST JUMPDEST SWAP3 POP SWAP3 SWAP1 POP JUMP JUMPDEST PUSH0 DUP1 PUSH0 DUP1 PUSH0 DUP1 PUSH1 0xA0 DUP8 DUP10 SUB SLT ISZERO PUSH2 0x1EDE JUMPI PUSH2 0x1EDD PUSH2 0x1CC9 JUMP JUMPDEST JUMPDEST PUSH0 PUSH2 0x1EEB DUP10 DUP3 DUP11 ADD PUSH2 0x1E11 JUMP JUMPDEST SWAP7 POP POP PUSH1 0x20 PUSH2 0x1EFC DUP10 DUP3 DUP11 ADD PUSH2 0x1CF0 JUMP JUMPDEST SWAP6 POP POP PUSH1 0x40 PUSH2 0x1F0D DUP10 DUP3 DUP11 ADD PUSH2 0x1CF0 JUMP JUMPDEST SWAP5 POP POP PUSH1 0x60 PUSH2 0x1F1E DUP10 DUP3 DUP11 ADD PUSH2 0x1E11 JUMP JUMPDEST SWAP4 POP POP PUSH1 0x80 DUP8 ADD CALLDATALOAD PUSH8 0xFFFFFFFFFFFFFFFF DUP2 GT ISZERO PUSH2 0x1F3F JUMPI PUSH2 0x1F3E PUSH2 0x1CCD JUMP JUMPDEST JUMPDEST PUSH2 0x1F4B DUP10 DUP3 DUP11 ADD PUSH2 0x1E6F JUMP JUMPDEST SWAP3 POP SWAP3 POP POP SWAP3 SWAP6 POP SWAP3 SWAP6 POP SWAP3 SWAP6 JUMP JUMPDEST PUSH0 DUP2 ISZERO ISZERO SWAP1 POP SWAP2 SWAP1 POP JUMP JUMPDEST PUSH2 0x1F6E DUP2 PUSH2 0x1F5A JUMP JUMPDEST DUP3 MSTORE POP POP JUMP JUMPDEST PUSH0 PUSH1 0x20 DUP3 ADD SWAP1 POP PUSH2 0x1F87 PUSH0 DUP4 ADD DUP5 PUSH2 0x1F65 JUMP JUMPDEST SWAP3 SWAP2 POP POP JUMP JUMPDEST PUSH0 DUP1 DUP4 PUSH1 0x1F DUP5 ADD SLT PUSH2 0x1FA2 JUMPI PUSH2 0x1FA1 PUSH2 0x1E63 JUMP JUMPDEST JUMPDEST DUP3 CALLDATALOAD SWAP1 POP PUSH8 0xFFFFFFFFFFFFFFFF DUP2 GT ISZERO PUSH2 0x1FBF JUMPI PUSH2 0x1FBE PUSH2 0x1E67 JUMP JUMPDEST JUMPDEST PUSH1 0x20 DUP4 ADD SWAP2 POP DUP4 PUSH1 0x20 DUP3 MUL DUP4 ADD GT ISZERO PUSH2 0x1FDB JUMPI PUSH2 0x1FDA PUSH2 0x1E6B JUMP JUMPDEST JUMPDEST SWAP3 POP SWAP3 SWAP1 POP JUMP JUMPDEST PUSH0 DUP1 PUSH0 DUP1 PUSH1 0x60 DUP6 DUP8 SUB SLT ISZERO PUSH2 0x1FFA JUMPI PUSH2 0x1FF9 PUSH2 0x1CC9 JUMP JUMPDEST JUMPDEST PUSH0 PUSH2 0x2007 DUP8 DUP3 DUP9 ADD PUSH2 0x1E11 JUMP JUMPDEST SWAP5 POP POP PUSH1 0x20 PUSH2 0x2018 DUP8 DUP3 DUP9 ADD PUSH2 0x1CF0 JUMP JUMPDEST SWAP4 POP POP PUSH1 0x40 DUP6 ADD CALLDATALOAD PUSH8 0xFFFFFFFFFFFFFFFF DUP2 GT ISZERO PUSH2 0x2039 JUMPI PUSH2 0x2038 PUSH2 0x1CCD JUMP JUMPDEST JUMPDEST PUSH2 0x2045 DUP8 DUP3 DUP9 ADD PUSH2 0x1F8D JUMP JUMPDEST SWAP3 POP SWAP3 POP POP SWAP3 SWAP6 SWAP2 SWAP5 POP SWAP3 POP JUMP JUMPDEST PUSH0 PUSH1 0x40 DUP3 ADD SWAP1 POP PUSH2 0x2066 PUSH0 DUP4 ADD DUP6 PUSH2 0x1F65 JUMP JUMPDEST PUSH2 0x2073 PUSH1 0x20 DUP4 ADD DUP5 PUSH2 0x1D2F JUMP JUMPDEST SWAP4 SWAP3 POP POP POP JUMP JUMPDEST PUSH0 PUSH2 0x2084 DUP3 PUSH2 0x1DA0 JUMP JUMPDEST SWAP1 POP SWAP2 SWAP1 POP JUMP JUMPDEST PUSH2 0x2094 DUP2 PUSH2 0x207A JUMP JUMPDEST DUP3 MSTORE POP POP JUMP JUMPDEST PUSH0 PUSH1 0x20 DUP3 ADD SWAP1 POP PUSH2 0x20AD PUSH0 DUP4 ADD DUP5 PUSH2 0x208B JUMP JUMPDEST SWAP3 SWAP2 POP POP JUMP JUMPDEST PUSH2 0x20BC DUP2 PUSH2 0x1DEA JUMP JUMPDEST DUP3 MSTORE POP POP JUMP JUMPDEST PUSH0 PUSH1 0x20 DUP3 ADD SWAP1 POP PUSH2 0x20D5 PUSH0 DUP4 ADD DUP5 PUSH2 0x20B3 JUMP JUMPDEST SWAP3 SWAP2 POP POP JUMP JUMPDEST PUSH0 PUSH1 0x20 DUP3 DUP5 SUB SLT ISZERO PUSH2 0x20F0 JUMPI PUSH2 0x20EF PUSH2 0x1CC9 JUMP JUMPDEST JUMPDEST PUSH0 PUSH2 0x20FD DUP5 DUP3 DUP6 ADD PUSH2 0x1E11 JUMP JUMPDEST SWAP2 POP POP SWAP3 SWAP2 POP POP JUMP JUMPDEST PUSH0 DUP3 DUP3 MSTORE PUSH1 0x20 DUP3 ADD SWAP1 POP SWAP3 SWAP2 POP POP JUMP JUMPDEST PUSH32 0x76616C7565206368616E6765643A000000000000000000000000000000000000 PUSH0 DUP3 ADD MSTORE POP JUMP JUMPDEST PUSH0 PUSH2 0x214A PUSH1 0xE DUP4 PUSH2 0x2106 JUMP JUMPDEST SWAP2 POP PUSH2 0x2155 DUP3 PUSH2 0x2116 JUMP JUMPDEST PUSH1 0x20 DUP3 ADD SWAP1 POP SWAP2 SWAP1 POP JUMP JUMPDEST PUSH0 PUSH1 0x40 DUP3 ADD SWAP1 POP DUP2 DUP2 SUB PUSH0 DUP4 ADD MSTORE PUSH2 0x2177 DUP2 PUSH2 0x213E JUMP JUMPDEST SWAP1 POP PUSH2 0x2186 PUSH1 0x20 DUP4 ADD DUP5 PUSH2 0x1D2F JUMP JUMPDEST SWAP3 SWAP2 POP POP JUMP JUMPDEST PUSH32 0x2A2A2A2A2A2A2A2A2A207769746864726177546F6B656E73202A2A2A2A2A2A2A PUSH0 DUP3 ADD MSTORE PUSH32 0x2A2A2A2A2A000000000000000000000000000000000000000000000000000000 PUSH1 0x20 DUP3 ADD MSTORE POP JUMP JUMPDEST PUSH0 PUSH2 0x21E6 PUSH1 0x25 DUP4 PUSH2 0x2106 JUMP JUMPDEST SWAP2 POP PUSH2 0x21F1 DUP3 PUSH2 0x218C JUMP JUMPDEST PUSH1 0x40 DUP3 ADD SWAP1 POP SWAP2 SWAP1 POP JUMP JUMPDEST PUSH0 PUSH1 0x20 DUP3 ADD SWAP1 POP DUP2 DUP2 SUB PUSH0 DUP4 ADD MSTORE PUSH2 0x2213 DUP2 PUSH2 0x21DA JUMP JUMPDEST SWAP1 POP SWAP2 SWAP1 POP JUMP JUMPDEST PUSH32 0x546F6B656E3A0000000000000000000000000000000000000000000000000000 PUSH0 DUP3 ADD MSTORE POP JUMP JUMPDEST PUSH0 PUSH2 0x224E PUSH1 0x6 DUP4 PUSH2 0x2106 JUMP JUMPDEST SWAP2 POP PUSH2 0x2259 DUP3 PUSH2 0x221A JUMP JUMPDEST PUSH1 0x20 DUP3 ADD SWAP1 POP SWAP2 SWAP1 POP JUMP JUMPDEST PUSH0 PUSH1 0x40 DUP3 ADD SWAP1 POP DUP2 DUP2 SUB PUSH0 DUP4 ADD MSTORE PUSH2 0x227B DUP2 PUSH2 0x2242 JUMP JUMPDEST SWAP1 POP PUSH2 0x228A PUSH1 0x20 DUP4 ADD DUP5 PUSH2 0x20B3 JUMP JUMPDEST SWAP3 SWAP2 POP POP JUMP JUMPDEST PUSH32 0x416D6F756E743A00000000000000000000000000000000000000000000000000 PUSH0 DUP3 ADD MSTORE POP JUMP JUMPDEST PUSH0 PUSH2 0x22C4 PUSH1 0x7 DUP4 PUSH2 0x2106 JUMP JUMPDEST SWAP2 POP PUSH2 0x22CF DUP3 PUSH2 0x2290 JUMP JUMPDEST PUSH1 0x20 DUP3 ADD SWAP1 POP SWAP2 SWAP1 POP JUMP JUMPDEST PUSH0 PUSH1 0x40 DUP3 ADD SWAP1 POP DUP2 DUP2 SUB PUSH0 DUP4 ADD MSTORE PUSH2 0x22F1 DUP2 PUSH2 0x22B8 JUMP JUMPDEST SWAP1 POP PUSH2 0x2300 PUSH1 0x20 DUP4 ADD DUP5 PUSH2 0x1D2F JUMP JUMPDEST SWAP3 SWAP2 POP POP JUMP JUMPDEST PUSH0 PUSH1 0x40 DUP3 ADD SWAP1 POP PUSH2 0x2319 PUSH0 DUP4 ADD DUP6 PUSH2 0x20B3 JUMP JUMPDEST PUSH2 0x2326 PUSH1 0x20 DUP4 ADD DUP5 PUSH2 0x1D2F JUMP JUMPDEST SWAP4 SWAP3 POP POP POP JUMP JUMPDEST PUSH2 0x2336 DUP2 PUSH2 0x1F5A JUMP JUMPDEST DUP2 EQ PUSH2 0x2340 JUMPI PUSH0 DUP1 REVERT JUMPDEST POP JUMP JUMPDEST PUSH0 DUP2 MLOAD SWAP1 POP PUSH2 0x2351 DUP2 PUSH2 0x232D JUMP JUMPDEST SWAP3 SWAP2 POP POP JUMP JUMPDEST PUSH0 PUSH1 0x20 DUP3 DUP5 SUB SLT ISZERO PUSH2 0x236C JUMPI PUSH2 0x236B PUSH2 0x1CC9 JUMP JUMPDEST JUMPDEST PUSH0 PUSH2 0x2379 DUP5 DUP3 DUP6 ADD PUSH2 0x2343 JUMP JUMPDEST SWAP2 POP POP SWAP3 SWAP2 POP POP JUMP JUMPDEST PUSH32 0x2A2A2A2A2A2A2A2A2A20657865637574654F7065726174696F6E202A2A2A2A2A PUSH0 DUP3 ADD MSTORE PUSH32 0x2A2A2A2A2A2A2A00000000000000000000000000000000000000000000000000 PUSH1 0x20 DUP3 ADD MSTORE POP JUMP JUMPDEST PUSH0 PUSH2 0x23DC PUSH1 0x27 DUP4 PUSH2 0x2106 JUMP JUMPDEST SWAP2 POP PUSH2 0x23E7 DUP3 PUSH2 0x2382 JUMP JUMPDEST PUSH1 0x40 DUP3 ADD SWAP1 POP SWAP2 SWAP1 POP JUMP JUMPDEST PUSH0 PUSH1 0x20 DUP3 ADD SWAP1 POP DUP2 DUP2 SUB PUSH0 DUP4 ADD MSTORE PUSH2 0x2409 DUP2 PUSH2 0x23D0 JUMP JUMPDEST SWAP1 POP SWAP2 SWAP1 POP JUMP JUMPDEST PUSH32 0x41737365743A0000000000000000000000000000000000000000000000000000 PUSH0 DUP3 ADD MSTORE POP JUMP JUMPDEST PUSH0 PUSH2 0x2444 PUSH1 0x6 DUP4 PUSH2 0x2106 JUMP JUMPDEST SWAP2 POP PUSH2 0x244F DUP3 PUSH2 0x2410 JUMP JUMPDEST PUSH1 0x20 DUP3 ADD SWAP1 POP SWAP2 SWAP1 POP JUMP JUMPDEST PUSH0 PUSH1 0x40 DUP3 ADD SWAP1 POP DUP2 DUP2 SUB PUSH0 DUP4 ADD MSTORE PUSH2 0x2471 DUP2 PUSH2 0x2438 JUMP JUMPDEST SWAP1 POP PUSH2 0x2480 PUSH1 0x20 DUP4 ADD DUP5 PUSH2 0x20B3 JUMP JUMPDEST SWAP3 SWAP2 POP POP JUMP JUMPDEST PUSH32 0x7072656D69756D3A000000000000000000000000000000000000000000000000 PUSH0 DUP3 ADD MSTORE POP JUMP JUMPDEST PUSH0 PUSH2 0x24BA PUSH1 0x8 DUP4 PUSH2 0x2106 JUMP JUMPDEST SWAP2 POP PUSH2 0x24C5 DUP3 PUSH2 0x2486 JUMP JUMPDEST PUSH1 0x20 DUP3 ADD SWAP1 POP SWAP2 SWAP1 POP JUMP JUMPDEST PUSH0 PUSH1 0x40 DUP3 ADD SWAP1 POP DUP2 DUP2 SUB PUSH0 DUP4 ADD MSTORE PUSH2 0x24E7 DUP2 PUSH2 0x24AE JUMP JUMPDEST SWAP1 POP PUSH2 0x24F6 PUSH1 0x20 DUP4 ADD DUP5 PUSH2 0x1D2F JUMP JUMPDEST SWAP3 SWAP2 POP POP JUMP JUMPDEST PUSH0 PUSH1 0x1F NOT PUSH1 0x1F DUP4 ADD AND SWAP1 POP SWAP2 SWAP1 POP JUMP JUMPDEST PUSH32 0x4E487B7100000000000000000000000000000000000000000000000000000000 PUSH0 MSTORE PUSH1 0x41 PUSH1 0x4 MSTORE PUSH1 0x24 PUSH0 REVERT JUMPDEST PUSH2 0x2542 DUP3 PUSH2 0x24FC JUMP JUMPDEST DUP2 ADD DUP2 DUP2 LT PUSH8 0xFFFFFFFFFFFFFFFF DUP3 GT OR ISZERO PUSH2 0x2561 JUMPI PUSH2 0x2560 PUSH2 0x250C JUMP JUMPDEST JUMPDEST DUP1 PUSH1 0x40 MSTORE POP POP POP JUMP JUMPDEST PUSH0 PUSH2 0x2573 PUSH2 0x1CC0 JUMP JUMPDEST SWAP1 POP PUSH2 0x257F DUP3 DUP3 PUSH2 0x2539 JUMP JUMPDEST SWAP2 SWAP1 POP JUMP JUMPDEST PUSH0 PUSH8 0xFFFFFFFFFFFFFFFF DUP3 GT ISZERO PUSH2 0x259E JUMPI PUSH2 0x259D PUSH2 0x250C JUMP JUMPDEST JUMPDEST PUSH1 0x20 DUP3 MUL SWAP1 POP PUSH1 0x20 DUP2 ADD SWAP1 POP SWAP2 SWAP1 POP JUMP JUMPDEST PUSH0 PUSH2 0x25C1 PUSH2 0x25BC DUP5 PUSH2 0x2584 JUMP JUMPDEST PUSH2 0x256A JUMP JUMPDEST SWAP1 POP DUP1 DUP4 DUP3 MSTORE PUSH1 0x20 DUP3 ADD SWAP1 POP PUSH1 0x20 DUP5 MUL DUP4 ADD DUP6 DUP2 GT ISZERO PUSH2 0x25E4 JUMPI PUSH2 0x25E3 PUSH2 0x1E6B JUMP JUMPDEST JUMPDEST DUP4 JUMPDEST DUP2 DUP2 LT ISZERO PUSH2 0x260D JUMPI DUP1 PUSH2 0x25F9 DUP9 DUP3 PUSH2 0x1E11 JUMP JUMPDEST DUP5 MSTORE PUSH1 0x20 DUP5 ADD SWAP4 POP POP PUSH1 0x20 DUP2 ADD SWAP1 POP PUSH2 0x25E6 JUMP JUMPDEST POP POP POP SWAP4 SWAP3 POP POP POP JUMP JUMPDEST PUSH0 DUP3 PUSH1 0x1F DUP4 ADD SLT PUSH2 0x262B JUMPI PUSH2 0x262A PUSH2 0x1E63 JUMP JUMPDEST JUMPDEST DUP2 CALLDATALOAD PUSH2 0x263B DUP5 DUP3 PUSH1 0x20 DUP7 ADD PUSH2 0x25AF JUMP JUMPDEST SWAP2 POP POP SWAP3 SWAP2 POP POP JUMP JUMPDEST PUSH0 PUSH1 0x20 DUP3 DUP5 SUB SLT ISZERO PUSH2 0x2659 JUMPI PUSH2 0x2658 PUSH2 0x1CC9 JUMP JUMPDEST JUMPDEST PUSH0 DUP3 ADD CALLDATALOAD PUSH8 0xFFFFFFFFFFFFFFFF DUP2 GT ISZERO PUSH2 0x2676 JUMPI PUSH2 0x2675 PUSH2 0x1CCD JUMP JUMPDEST JUMPDEST PUSH2 0x2682 DUP5 DUP3 DUP6 ADD PUSH2 0x2617 JUMP JUMPDEST SWAP2 POP POP SWAP3 SWAP2 POP POP JUMP JUMPDEST PUSH32 0x4E756D626572206F662044455865733A00000000000000000000000000000000 PUSH0 DUP3 ADD MSTORE POP JUMP JUMPDEST PUSH0 PUSH2 0x26BF PUSH1 0x10 DUP4 PUSH2 0x2106 JUMP JUMPDEST SWAP2 POP PUSH2 0x26CA DUP3 PUSH2 0x268B JUMP JUMPDEST PUSH1 0x20 DUP3 ADD SWAP1 POP SWAP2 SWAP1 POP JUMP JUMPDEST PUSH0 PUSH1 0x40 DUP3 ADD SWAP1 POP DUP2 DUP2 SUB PUSH0 DUP4 ADD MSTORE PUSH2 0x26EC DUP2 PUSH2 0x26B3 JUMP JUMPDEST SWAP1 POP PUSH2 0x26FB PUSH1 0x20 DUP4 ADD DUP5 PUSH2 0x1D2F JUMP JUMPDEST SWAP3 SWAP2 POP POP JUMP JUMPDEST PUSH32 0x4E487B7100000000000000000000000000000000000000000000000000000000 PUSH0 MSTORE PUSH1 0x11 PUSH1 0x4 MSTORE PUSH1 0x24 PUSH0 REVERT JUMPDEST PUSH0 PUSH2 0x2738 DUP3 PUSH2 0x1CD1 JUMP JUMPDEST SWAP2 POP PUSH2 0x2743 DUP4 PUSH2 0x1CD1 JUMP JUMPDEST SWAP3 POP DUP3 DUP3 ADD SWAP1 POP DUP1 DUP3 GT ISZERO PUSH2 0x275B JUMPI PUSH2 0x275A PUSH2 0x2701 JUMP JUMPDEST JUMPDEST SWAP3 SWAP2 POP POP JUMP JUMPDEST PUSH32 0x496E73756666696369656E742066756E647320746F20726570617920666C6173 PUSH0 DUP3 ADD MSTORE PUSH32 0x68206C6F616E0000000000000000000000000000000000000000000000000000 PUSH1 0x20 DUP3 ADD MSTORE POP JUMP JUMPDEST PUSH0 PUSH2 0x27BB PUSH1 0x26 DUP4 PUSH2 0x2106 JUMP JUMPDEST SWAP2 POP PUSH2 0x27C6 DUP3 PUSH2 0x2761 JUMP JUMPDEST PUSH1 0x40 DUP3 ADD SWAP1 POP SWAP2 SWAP1 POP JUMP JUMPDEST PUSH0 PUSH1 0x20 DUP3 ADD SWAP1 POP DUP2 DUP2 SUB PUSH0 DUP4 ADD MSTORE PUSH2 0x27E8 DUP2 PUSH2 0x27AF JUMP JUMPDEST SWAP1 POP SWAP2 SWAP1 POP JUMP JUMPDEST PUSH32 0x616D6F756E7452656365697665643A0000000000000000000000000000000000 PUSH0 DUP3 ADD MSTORE POP JUMP JUMPDEST PUSH0 PUSH2 0x2823 PUSH1 0xF DUP4 PUSH2 0x2106 JUMP JUMPDEST SWAP2 POP PUSH2 0x282E DUP3 PUSH2 0x27EF JUMP JUMPDEST PUSH1 0x20 DUP3 ADD SWAP1 POP SWAP2 SWAP1 POP JUMP JUMPDEST PUSH0 PUSH1 0x40 DUP3 ADD SWAP1 POP DUP2 DUP2 SUB PUSH0 DUP4 ADD MSTORE PUSH2 0x2850 DUP2 PUSH2 0x2817 JUMP JUMPDEST SWAP1 POP PUSH2 0x285F PUSH1 0x20 DUP4 ADD DUP5 PUSH2 0x1D2F JUMP JUMPDEST SWAP3 SWAP2 POP POP JUMP JUMPDEST PUSH32 0x2A2A2A2A2A2A2A2A2A20636865636B41726269747261676550726F6669746162 PUSH0 DUP3 ADD MSTORE PUSH32 0x696C697479202A2A2A2A2A2A2A2A2A2A2A2A0000000000000000000000000000 PUSH1 0x20 DUP3 ADD MSTORE POP JUMP JUMPDEST PUSH0 PUSH2 0x28BF PUSH1 0x32 DUP4 PUSH2 0x2106 JUMP JUMPDEST SWAP2 POP PUSH2 0x28CA DUP3 PUSH2 0x2865 JUMP JUMPDEST PUSH1 0x40 DUP3 ADD SWAP1 POP SWAP2 SWAP1 POP JUMP JUMPDEST PUSH0 PUSH1 0x20 DUP3 ADD SWAP1 POP DUP2 DUP2 SUB PUSH0 DUP4 ADD MSTORE PUSH2 0x28EC DUP2 PUSH2 0x28B3 JUMP JUMPDEST SWAP1 POP SWAP2 SWAP1 POP JUMP JUMPDEST PUSH32 0x466C617368206C6F616E207072656D69756D3A00000000000000000000000000 PUSH0 DUP3 ADD MSTORE POP JUMP JUMPDEST PUSH0 PUSH2 0x2927 PUSH1 0x13 DUP4 PUSH2 0x2106 JUMP JUMPDEST SWAP2 POP PUSH2 0x2932 DUP3 PUSH2 0x28F3 JUMP JUMPDEST PUSH1 0x20 DUP3 ADD SWAP1 POP SWAP2 SWAP1 POP JUMP JUMPDEST PUSH0 PUSH1 0x40 DUP3 ADD SWAP1 POP DUP2 DUP2 SUB PUSH0 DUP4 ADD MSTORE PUSH2 0x2954 DUP2 PUSH2 0x291B JUMP JUMPDEST SWAP1 POP PUSH2 0x2963 PUSH1 0x20 DUP4 ADD DUP5 PUSH2 0x1D2F JUMP JUMPDEST SWAP3 SWAP2 POP POP JUMP JUMPDEST PUSH32 0x457374696D617465642072657475726E3A000000000000000000000000000000 PUSH0 DUP3 ADD MSTORE POP JUMP JUMPDEST PUSH0 PUSH2 0x299D PUSH1 0x11 DUP4 PUSH2 0x2106 JUMP JUMPDEST SWAP2 POP PUSH2 0x29A8 DUP3 PUSH2 0x2969 JUMP JUMPDEST PUSH1 0x20 DUP3 ADD SWAP1 POP SWAP2 SWAP1 POP JUMP JUMPDEST PUSH0 PUSH1 0x40 DUP3 ADD SWAP1 POP DUP2 DUP2 SUB PUSH0 DUP4 ADD MSTORE PUSH2 0x29CA DUP2 PUSH2 0x2991 JUMP JUMPDEST SWAP1 POP PUSH2 0x29D9 PUSH1 0x20 DUP4 ADD DUP5 PUSH2 0x1D2F JUMP JUMPDEST SWAP3 SWAP2 POP POP JUMP JUMPDEST PUSH32 0x2A2A2A2A2A2A2A2A2A2065786563757465466C6173684C6F616E202A2A2A2A2A PUSH0 DUP3 ADD MSTORE PUSH32 0x2A2A2A2A2A2A2A00000000000000000000000000000000000000000000000000 PUSH1 0x20 DUP3 ADD MSTORE POP JUMP JUMPDEST PUSH0 PUSH2 0x2A39 PUSH1 0x27 DUP4 PUSH2 0x2106 JUMP JUMPDEST SWAP2 POP PUSH2 0x2A44 DUP3 PUSH2 0x29DF JUMP JUMPDEST PUSH1 0x40 DUP3 ADD SWAP1 POP SWAP2 SWAP1 POP JUMP JUMPDEST PUSH0 PUSH1 0x20 DUP3 ADD SWAP1 POP DUP2 DUP2 SUB PUSH0 DUP4 ADD MSTORE PUSH2 0x2A66 DUP2 PUSH2 0x2A2D JUMP JUMPDEST SWAP1 POP SWAP2 SWAP1 POP JUMP JUMPDEST PUSH0 DUP3 DUP3 MSTORE PUSH1 0x20 DUP3 ADD SWAP1 POP SWAP3 SWAP2 POP POP JUMP JUMPDEST PUSH0 DUP2 SWAP1 POP SWAP2 SWAP1 POP JUMP JUMPDEST PUSH2 0x2A8F DUP2 PUSH2 0x1DEA JUMP JUMPDEST DUP3 MSTORE POP POP JUMP JUMPDEST PUSH0 PUSH2 0x2AA0 DUP4 DUP4 PUSH2 0x2A86 JUMP JUMPDEST PUSH1 0x20 DUP4 ADD SWAP1 POP SWAP3 SWAP2 POP POP JUMP JUMPDEST PUSH0 PUSH2 0x2ABA PUSH1 0x20 DUP5 ADD DUP5 PUSH2 0x1E11 JUMP JUMPDEST SWAP1 POP SWAP3 SWAP2 POP POP JUMP JUMPDEST PUSH0 PUSH1 0x20 DUP3 ADD SWAP1 POP SWAP2 SWAP1 POP JUMP JUMPDEST PUSH0 PUSH2 0x2AD9 DUP4 DUP6 PUSH2 0x2A6D JUMP JUMPDEST SWAP4 POP PUSH2 0x2AE4 DUP3 PUSH2 0x2A7D JUMP JUMPDEST DUP1 PUSH0 JUMPDEST DUP6 DUP2 LT ISZERO PUSH2 0x2B1C JUMPI PUSH2 0x2AF9 DUP3 DUP5 PUSH2 0x2AAC JUMP JUMPDEST PUSH2 0x2B03 DUP9 DUP3 PUSH2 0x2A95 JUMP JUMPDEST SWAP8 POP PUSH2 0x2B0E DUP4 PUSH2 0x2AC2 JUMP JUMPDEST SWAP3 POP POP PUSH1 0x1 DUP2 ADD SWAP1 POP PUSH2 0x2AE7 JUMP JUMPDEST POP DUP6 SWAP3 POP POP POP SWAP4 SWAP3 POP POP POP JUMP JUMPDEST PUSH0 PUSH1 0x20 DUP3 ADD SWAP1 POP DUP2 DUP2 SUB PUSH0 DUP4 ADD MSTORE PUSH2 0x2B42 DUP2 DUP5 DUP7 PUSH2 0x2ACE JUMP JUMPDEST SWAP1 POP SWAP4 SWAP3 POP POP POP JUMP JUMPDEST PUSH0 DUP2 MLOAD SWAP1 POP SWAP2 SWAP1 POP JUMP JUMPDEST PUSH0 DUP3 DUP3 MSTORE PUSH1 0x20 DUP3 ADD SWAP1 POP SWAP3 SWAP2 POP POP JUMP JUMPDEST DUP3 DUP2 DUP4 MCOPY PUSH0 DUP4 DUP4 ADD MSTORE POP POP POP JUMP JUMPDEST PUSH0 PUSH2 0x2B7D DUP3 PUSH2 0x2B4B JUMP JUMPDEST PUSH2 0x2B87 DUP2 DUP6 PUSH2 0x2B55 JUMP JUMPDEST SWAP4 POP PUSH2 0x2B97 DUP2 DUP6 PUSH1 0x20 DUP7 ADD PUSH2 0x2B65 JUMP JUMPDEST PUSH2 0x2BA0 DUP2 PUSH2 0x24FC JUMP JUMPDEST DUP5 ADD SWAP2 POP POP SWAP3 SWAP2 POP POP JUMP JUMPDEST PUSH0 DUP2 SWAP1 POP SWAP2 SWAP1 POP JUMP JUMPDEST PUSH0 PUSH2 0xFFFF DUP3 AND SWAP1 POP SWAP2 SWAP1 POP JUMP JUMPDEST PUSH0 PUSH2 0x2BDB PUSH2 0x2BD6 PUSH2 0x2BD1 DUP5 PUSH2 0x2BAB JUMP JUMPDEST PUSH2 0x1D76 JUMP JUMPDEST PUSH2 0x2BB4 JUMP JUMPDEST SWAP1 POP SWAP2 SWAP1 POP JUMP JUMPDEST PUSH2 0x2BEB DUP2 PUSH2 0x2BC1 JUMP JUMPDEST DUP3 MSTORE POP POP JUMP JUMPDEST PUSH0 PUSH1 0xA0 DUP3 ADD SWAP1 POP PUSH2 0x2C04 PUSH0 DUP4 ADD DUP9 PUSH2 0x20B3 JUMP JUMPDEST PUSH2 0x2C11 PUSH1 0x20 DUP4 ADD DUP8 PUSH2 0x20B3 JUMP JUMPDEST PUSH2 0x2C1E PUSH1 0x40 DUP4 ADD DUP7 PUSH2 0x1D2F JUMP JUMPDEST DUP2 DUP2 SUB PUSH1 0x60 DUP4 ADD MSTORE PUSH2 0x2C30 DUP2 DUP6 PUSH2 0x2B73 JUMP JUMPDEST SWAP1 POP PUSH2 0x2C3F PUSH1 0x80 DUP4 ADD DUP5 PUSH2 0x2BE2 JUMP JUMPDEST SWAP7 SWAP6 POP POP POP POP POP POP JUMP JUMPDEST PUSH0 PUSH16 0xFFFFFFFFFFFFFFFFFFFFFFFFFFFFFFFF DUP3 AND SWAP1 POP SWAP2 SWAP1 POP JUMP JUMPDEST PUSH2 0x2C6D DUP2 PUSH2 0x2C49 JUMP JUMPDEST DUP2 EQ PUSH2 0x2C77 JUMPI PUSH0 DUP1 REVERT JUMPDEST POP JUMP JUMPDEST PUSH0 DUP2 MLOAD SWAP1 POP PUSH2 0x2C88 DUP2 PUSH2 0x2C64 JUMP JUMPDEST SWAP3 SWAP2 POP POP JUMP JUMPDEST PUSH0 PUSH1 0x20 DUP3 DUP5 SUB SLT ISZERO PUSH2 0x2CA3 JUMPI PUSH2 0x2CA2 PUSH2 0x1CC9 JUMP JUMPDEST JUMPDEST PUSH0 PUSH2 0x2CB0 DUP5 DUP3 DUP6 ADD PUSH2 0x2C7A JUMP JUMPDEST SWAP2 POP POP SWAP3 SWAP2 POP POP JUMP JUMPDEST PUSH0 PUSH2 0x2CC3 DUP3 PUSH2 0x1CD1 JUMP JUMPDEST SWAP2 POP PUSH2 0x2CCE DUP4 PUSH2 0x1CD1 JUMP JUMPDEST SWAP3 POP DUP3 DUP3 MUL PUSH2 0x2CDC DUP2 PUSH2 0x1CD1 JUMP JUMPDEST SWAP2 POP DUP3 DUP3 DIV DUP5 EQ DUP4 ISZERO OR PUSH2 0x2CF3 JUMPI PUSH2 0x2CF2 PUSH2 0x2701 JUMP JUMPDEST JUMPDEST POP SWAP3 SWAP2 POP POP JUMP JUMPDEST PUSH32 0x4E487B7100000000000000000000000000000000000000000000000000000000 PUSH0 MSTORE PUSH1 0x12 PUSH1 0x4 MSTORE PUSH1 0x24 PUSH0 REVERT JUMPDEST PUSH0 PUSH2 0x2D31 DUP3 PUSH2 0x1CD1 JUMP JUMPDEST SWAP2 POP PUSH2 0x2D3C DUP4 PUSH2 0x1CD1 JUMP JUMPDEST SWAP3 POP DUP3 PUSH2 0x2D4C JUMPI PUSH2 0x2D4B PUSH2 0x2CFA JUMP JUMPDEST JUMPDEST DUP3 DUP3 DIV SWAP1 POP SWAP3 SWAP2 POP POP JUMP JUMPDEST PUSH32 0x2A2A2A2A2A2A2A2A2A2065786563757465417262697472616765202A2A2A2A2A PUSH0 DUP3 ADD MSTORE PUSH32 0x2A2A2A2A2A2A2A00000000000000000000000000000000000000000000000000 PUSH1 0x20 DUP3 ADD MSTORE POP JUMP JUMPDEST PUSH0 PUSH2 0x2DB1 PUSH1 0x27 DUP4 PUSH2 0x2106 JUMP JUMPDEST SWAP2 POP PUSH2 0x2DBC DUP3 PUSH2 0x2D57 JUMP JUMPDEST PUSH1 0x40 DUP3 ADD SWAP1 POP SWAP2 SWAP1 POP JUMP JUMPDEST PUSH0 PUSH1 0x20 DUP3 ADD SWAP1 POP DUP2 DUP2 SUB PUSH0 DUP4 ADD MSTORE PUSH2 0x2DDE DUP2 PUSH2 0x2DA5 JUMP JUMPDEST SWAP1 POP SWAP2 SWAP1 POP JUMP JUMPDEST PUSH0 DUP2 MLOAD SWAP1 POP PUSH2 0x2DF3 DUP2 PUSH2 0x1CDA JUMP JUMPDEST SWAP3 SWAP2 POP POP JUMP JUMPDEST PUSH0 PUSH1 0x20 DUP3 DUP5 SUB SLT ISZERO PUSH2 0x2E0E JUMPI PUSH2 0x2E0D PUSH2 0x1CC9 JUMP JUMPDEST JUMPDEST PUSH0 PUSH2 0x2E1B DUP5 DUP3 DUP6 ADD PUSH2 0x2DE5 JUMP JUMPDEST SWAP2 POP POP SWAP3 SWAP2 POP POP JUMP JUMPDEST PUSH32 0x537461727442616C616E63653A00000000000000000000000000000000000000 PUSH0 DUP3 ADD MSTORE POP JUMP JUMPDEST PUSH0 PUSH2 0x2E58 PUSH1 0xD DUP4 PUSH2 0x2106 JUMP JUMPDEST SWAP2 POP PUSH2 0x2E63 DUP3 PUSH2 0x2E24 JUMP JUMPDEST PUSH1 0x20 DUP3 ADD SWAP1 POP SWAP2 SWAP1 POP JUMP JUMPDEST PUSH0 PUSH1 0x40 DUP3 ADD SWAP1 POP DUP2 DUP2 SUB PUSH0 DUP4 ADD MSTORE PUSH2 0x2E85 DUP2 PUSH2 0x2E4C JUMP JUMPDEST SWAP1 POP PUSH2 0x2E94 PUSH1 0x20 DUP4 ADD DUP5 PUSH2 0x1D2F JUMP JUMPDEST SWAP3 SWAP2 POP POP JUMP JUMPDEST PUSH0 PUSH2 0x2EA4 DUP3 PUSH2 0x1CD1 JUMP JUMPDEST SWAP2 POP PUSH2 0x2EAF DUP4 PUSH2 0x1CD1 JUMP JUMPDEST SWAP3 POP DUP3 DUP3 SUB SWAP1 POP DUP2 DUP2 GT ISZERO PUSH2 0x2EC7 JUMPI PUSH2 0x2EC6 PUSH2 0x2701 JUMP JUMPDEST JUMPDEST SWAP3 SWAP2 POP POP JUMP JUMPDEST PUSH32 0x4E487B7100000000000000000000000000000000000000000000000000000000 PUSH0 MSTORE PUSH1 0x32 PUSH1 0x4 MSTORE PUSH1 0x24 PUSH0 REVERT JUMPDEST PUSH0 PUSH2 0x2F14 PUSH2 0x2F0F PUSH2 0x2F0A DUP5 PUSH2 0x2BAB JUMP JUMPDEST PUSH2 0x1D76 JUMP JUMPDEST PUSH2 0x1CD1 JUMP JUMPDEST SWAP1 POP SWAP2 SWAP1 POP JUMP JUMPDEST PUSH2 0x2F24 DUP2 PUSH2 0x2EFA JUMP JUMPDEST DUP3 MSTORE POP POP JUMP JUMPDEST PUSH0 DUP2 MLOAD SWAP1 POP SWAP2 SWAP1 POP JUMP JUMPDEST PUSH0 DUP2 SWAP1 POP PUSH1 0x20 DUP3 ADD SWAP1 POP SWAP2 SWAP1 POP JUMP JUMPDEST PUSH0 PUSH1 0x20 DUP3 ADD SWAP1 POP SWAP2 SWAP1 POP JUMP JUMPDEST PUSH0 PUSH2 0x2F59 DUP3 PUSH2 0x2F2A JUMP JUMPDEST PUSH2 0x2F63 DUP2 DUP6 PUSH2 0x2A6D JUMP JUMPDEST SWAP4 POP PUSH2 0x2F6E DUP4 PUSH2 0x2F34 JUMP JUMPDEST DUP1 PUSH0 JUMPDEST DUP4 DUP2 LT ISZERO PUSH2 0x2F9E JUMPI DUP2 MLOAD PUSH2 0x2F85 DUP9 DUP3 PUSH2 0x2A95 JUMP JUMPDEST SWAP8 POP PUSH2 0x2F90 DUP4 PUSH2 0x2F43 JUMP JUMPDEST SWAP3 POP POP PUSH1 0x1 DUP2 ADD SWAP1 POP PUSH2 0x2F71 JUMP JUMPDEST POP DUP6 SWAP4 POP POP POP POP SWAP3 SWAP2 POP POP JUMP JUMPDEST PUSH0 PUSH1 0xA0 DUP3 ADD SWAP1 POP PUSH2 0x2FBE PUSH0 DUP4 ADD DUP9 PUSH2 0x1D2F JUMP JUMPDEST PUSH2 0x2FCB PUSH1 0x20 DUP4 ADD DUP8 PUSH2 0x2F1B JUMP JUMPDEST DUP2 DUP2 SUB PUSH1 0x40 DUP4 ADD MSTORE PUSH2 0x2FDD DUP2 DUP7 PUSH2 0x2F4F JUMP JUMPDEST SWAP1 POP PUSH2 0x2FEC PUSH1 0x60 DUP4 ADD DUP6 PUSH2 0x20B3 JUMP JUMPDEST PUSH2 0x2FF9 PUSH1 0x80 DUP4 ADD DUP5 PUSH2 0x1D2F JUMP JUMPDEST SWAP7 SWAP6 POP POP POP POP POP POP JUMP JUMPDEST PUSH0 PUSH8 0xFFFFFFFFFFFFFFFF DUP3 GT ISZERO PUSH2 0x301D JUMPI PUSH2 0x301C PUSH2 0x250C JUMP JUMPDEST JUMPDEST PUSH1 0x20 DUP3 MUL SWAP1 POP PUSH1 0x20 DUP2 ADD SWAP1 POP SWAP2 SWAP1 POP JUMP JUMPDEST PUSH0 PUSH2 0x3040 PUSH2 0x303B DUP5 PUSH2 0x3003 JUMP JUMPDEST PUSH2 0x256A JUMP JUMPDEST SWAP1 POP DUP1 DUP4 DUP3 MSTORE PUSH1 0x20 DUP3 ADD SWAP1 POP PUSH1 0x20 DUP5 MUL DUP4 ADD DUP6 DUP2 GT ISZERO PUSH2 0x3063 JUMPI PUSH2 0x3062 PUSH2 0x1E6B JUMP JUMPDEST JUMPDEST DUP4 JUMPDEST DUP2 DUP2 LT ISZERO PUSH2 0x308C JUMPI DUP1 PUSH2 0x3078 DUP9 DUP3 PUSH2 0x2DE5 JUMP JUMPDEST DUP5 MSTORE PUSH1 0x20 DUP5 ADD SWAP4 POP POP PUSH1 0x20 DUP2 ADD SWAP1 POP PUSH2 0x3065 JUMP JUMPDEST POP POP POP SWAP4 SWAP3 POP POP POP JUMP JUMPDEST PUSH0 DUP3 PUSH1 0x1F DUP4 ADD SLT PUSH2 0x30AA JUMPI PUSH2 0x30A9 PUSH2 0x1E63 JUMP JUMPDEST JUMPDEST DUP2 MLOAD PUSH2 0x30BA DUP5 DUP3 PUSH1 0x20 DUP7 ADD PUSH2 0x302E JUMP JUMPDEST SWAP2 POP POP SWAP3 SWAP2 POP POP JUMP JUMPDEST PUSH0 PUSH1 0x20 DUP3 DUP5 SUB SLT ISZERO PUSH2 0x30D8 JUMPI PUSH2 0x30D7 PUSH2 0x1CC9 JUMP JUMPDEST JUMPDEST PUSH0 DUP3 ADD MLOAD PUSH8 0xFFFFFFFFFFFFFFFF DUP2 GT ISZERO PUSH2 0x30F5 JUMPI PUSH2 0x30F4 PUSH2 0x1CCD JUMP JUMPDEST JUMPDEST PUSH2 0x3101 DUP5 DUP3 DUP6 ADD PUSH2 0x3096 JUMP JUMPDEST SWAP2 POP POP SWAP3 SWAP2 POP POP JUMP JUMPDEST PUSH32 0x46696E616C2042616C616E63653A000000000000000000000000000000000000 PUSH0 DUP3 ADD MSTORE POP JUMP JUMPDEST PUSH0 PUSH2 0x313E PUSH1 0xE DUP4 PUSH2 0x2106 JUMP JUMPDEST SWAP2 POP PUSH2 0x3149 DUP3 PUSH2 0x310A JUMP JUMPDEST PUSH1 0x20 DUP3 ADD SWAP1 POP SWAP2 SWAP1 POP JUMP JUMPDEST PUSH0 PUSH1 0x40 DUP3 ADD SWAP1 POP DUP2 DUP2 SUB PUSH0 DUP4 ADD MSTORE PUSH2 0x316B DUP2 PUSH2 0x3132 JUMP JUMPDEST SWAP1 POP PUSH2 0x317A PUSH1 0x20 DUP4 ADD DUP5 PUSH2 0x1D2F JUMP JUMPDEST SWAP3 SWAP2 POP POP JUMP JUMPDEST PUSH32 0x2A2A2A2A2A2A2A2A2A2073696D756C617465417262697472616765202A2A2A2A PUSH0 DUP3 ADD MSTORE PUSH32 0x2A2A2A2A2A2A2A2A000000000000000000000000000000000000000000000000 PUSH1 0x20 DUP3 ADD MSTORE POP JUMP JUMPDEST PUSH0 PUSH2 0x31DA PUSH1 0x28 DUP4 PUSH2 0x2106 JUMP JUMPDEST SWAP2 POP PUSH2 0x31E5 DUP3 PUSH2 0x3180 JUMP JUMPDEST PUSH1 0x40 DUP3 ADD SWAP1 POP SWAP2 SWAP1 POP JUMP JUMPDEST PUSH0 PUSH1 0x20 DUP3 ADD SWAP1 POP DUP2 DUP2 SUB PUSH0 DUP4 ADD MSTORE PUSH2 0x3207 DUP2 PUSH2 0x31CE JUMP JUMPDEST SWAP1 POP SWAP2 SWAP1 POP JUMP JUMPDEST PUSH0 PUSH1 0x40 DUP3 ADD SWAP1 POP PUSH2 0x3221 PUSH0 DUP4 ADD DUP6 PUSH2 0x1D2F JUMP JUMPDEST DUP2 DUP2 SUB PUSH1 0x20 DUP4 ADD MSTORE PUSH2 0x3233 DUP2 DUP5 PUSH2 0x2F4F JUMP JUMPDEST SWAP1 POP SWAP4 SWAP3 POP POP POP JUMP JUMPDEST PUSH32 0x43757272656E7420416D6F756E743A0000000000000000000000000000000000 PUSH0 DUP3 ADD MSTORE POP JUMP JUMPDEST PUSH0 PUSH2 0x3270 PUSH1 0xF DUP4 PUSH2 0x2106 JUMP JUMPDEST SWAP2 POP PUSH2 0x327B DUP3 PUSH2 0x323C JUMP JUMPDEST PUSH1 0x20 DUP3 ADD SWAP1 POP SWAP2 SWAP1 POP JUMP JUMPDEST PUSH0 PUSH1 0x40 DUP3 ADD SWAP1 POP DUP2 DUP2 SUB PUSH0 DUP4 ADD MSTORE PUSH2 0x329D DUP2 PUSH2 0x3264 JUMP JUMPDEST SWAP1 POP PUSH2 0x32AC PUSH1 0x20 DUP4 ADD DUP5 PUSH2 0x1D2F JUMP JUMPDEST SWAP3 SWAP2 POP POP JUMP INVALID LOG2 PUSH5 0x6970667358 0x22 SLT KECCAK256 MUL 0xBE DUP9 0xC3 0xD ADDMOD 0xB9 0xC5 CALLDATACOPY 0xB9 0xC8 PUSH30 0x8D012CA8BB54481F0F7040B2FAE79311CC806CF364736F6C634300081A00 CALLER "
		},
		"gasEstimates": {
			"creation": {
				"codeDepositCost": "2606400",
				"executionCost": "infinite",
				"totalCost": "infinite"
			},
			"external": {
				"ADDRESSES_PROVIDER()": "infinite",
				"POOL()": "infinite",
				"calculateFlashLoanFee(address,uint256)": "infinite",
				"checkArbitrageProfitability(address,uint256,address[])": "infinite",
				"executeFlashLoan(address,uint256,address[])": "infinite",
				"executeOperation(address,uint256,uint256,address,bytes)": "infinite",
				"lastValue()": "2536",
				"owner()": "2559",
				"renounceOwnership()": "infinite",
				"setValueAndEmit(uint256)": "infinite",
				"transferOwnership(address)": "infinite",
				"withdrawTokens(address,uint256)": "infinite"
			},
			"internal": {
				"executeArbitrage(address,uint256,address[] memory)": "infinite",
				"simulateArbitrage(address,uint256,address[] calldata)": "infinite"
			}
		},
		"methodIdentifiers": {
			"ADDRESSES_PROVIDER()": "0542975c",
			"POOL()": "7535d246",
			"calculateFlashLoanFee(address,uint256)": "cb42019c",
			"checkArbitrageProfitability(address,uint256,address[])": "245c94d3",
			"executeFlashLoan(address,uint256,address[])": "9cbf194d",
			"executeOperation(address,uint256,uint256,address,bytes)": "1b11d0ff",
			"lastValue()": "43183834",
			"owner()": "8da5cb5b",
			"renounceOwnership()": "715018a6",
			"setValueAndEmit(uint256)": "03d911d9",
			"transferOwnership(address)": "f2fde38b",
			"withdrawTokens(address,uint256)": "06b091f9"
		}
	},
	"abi": [
		{
			"inputs": [
				{
					"internalType": "address",
					"name": "_addressProvider",
					"type": "address"
				}
			],
			"stateMutability": "nonpayable",
			"type": "constructor"
		},
		{
			"inputs": [
				{
					"internalType": "address",
					"name": "owner",
					"type": "address"
				}
			],
			"name": "OwnableInvalidOwner",
			"type": "error"
		},
		{
			"inputs": [
				{
					"internalType": "address",
					"name": "account",
					"type": "address"
				}
			],
			"name": "OwnableUnauthorizedAccount",
			"type": "error"
		},
		{
			"anonymous": false,
			"inputs": [
				{
					"indexed": true,
					"internalType": "address",
					"name": "previousOwner",
					"type": "address"
				},
				{
					"indexed": true,
					"internalType": "address",
					"name": "newOwner",
					"type": "address"
				}
			],
			"name": "OwnershipTransferred",
			"type": "event"
		},
		{
			"inputs": [],
			"name": "ADDRESSES_PROVIDER",
			"outputs": [
				{
					"internalType": "contract IPoolAddressesProvider",
					"name": "",
					"type": "address"
				}
			],
			"stateMutability": "view",
			"type": "function"
		},
		{
			"inputs": [],
			"name": "POOL",
			"outputs": [
				{
					"internalType": "contract IPool",
					"name": "",
					"type": "address"
				}
			],
			"stateMutability": "view",
			"type": "function"
		},
		{
			"inputs": [
				{
					"internalType": "address",
					"name": "asset",
					"type": "address"
				},
				{
					"internalType": "uint256",
					"name": "amount",
					"type": "uint256"
				}
			],
			"name": "calculateFlashLoanFee",
			"outputs": [
				{
					"internalType": "uint256",
					"name": "",
					"type": "uint256"
				}
			],
			"stateMutability": "view",
			"type": "function"
		},
		{
			"inputs": [
				{
					"internalType": "address",
					"name": "asset",
					"type": "address"
				},
				{
					"internalType": "uint256",
					"name": "amount",
					"type": "uint256"
				},
				{
					"internalType": "address[]",
					"name": "dexRouters",
					"type": "address[]"
				}
			],
			"name": "checkArbitrageProfitability",
			"outputs": [
				{
					"internalType": "bool",
					"name": "",
					"type": "bool"
				},
				{
					"internalType": "uint256",
					"name": "",
					"type": "uint256"
				}
			],
			"stateMutability": "nonpayable",
			"type": "function"
		},
		{
			"inputs": [
				{
					"internalType": "address",
					"name": "asset",
					"type": "address"
				},
				{
					"internalType": "uint256",
					"name": "amount",
					"type": "uint256"
				},
				{
					"internalType": "address[]",
					"name": "dexRouters",
					"type": "address[]"
				}
			],
			"name": "executeFlashLoan",
			"outputs": [],
			"stateMutability": "nonpayable",
			"type": "function"
		},
		{
			"inputs": [
				{
					"internalType": "address",
					"name": "asset",
					"type": "address"
				},
				{
					"internalType": "uint256",
					"name": "amount",
					"type": "uint256"
				},
				{
					"internalType": "uint256",
					"name": "premium",
					"type": "uint256"
				},
				{
					"internalType": "address",
					"name": "initiator",
					"type": "address"
				},
				{
					"internalType": "bytes",
					"name": "params",
					"type": "bytes"
				}
			],
			"name": "executeOperation",
			"outputs": [
				{
					"internalType": "bool",
					"name": "",
					"type": "bool"
				}
			],
			"stateMutability": "nonpayable",
			"type": "function"
		},
		{
			"inputs": [],
			"name": "lastValue",
			"outputs": [
				{
					"internalType": "uint256",
					"name": "",
					"type": "uint256"
				}
			],
			"stateMutability": "view",
			"type": "function"
		},
		{
			"inputs": [],
			"name": "owner",
			"outputs": [
				{
					"internalType": "address",
					"name": "",
					"type": "address"
				}
			],
			"stateMutability": "view",
			"type": "function"
		},
		{
			"inputs": [],
			"name": "renounceOwnership",
			"outputs": [],
			"stateMutability": "nonpayable",
			"type": "function"
		},
		{
			"inputs": [
				{
					"internalType": "uint256",
					"name": "_value",
					"type": "uint256"
				}
			],
			"name": "setValueAndEmit",
			"outputs": [
				{
					"internalType": "uint256",
					"name": "",
					"type": "uint256"
				}
			],
			"stateMutability": "nonpayable",
			"type": "function"
		},
		{
			"inputs": [
				{
					"internalType": "address",
					"name": "newOwner",
					"type": "address"
				}
			],
			"name": "transferOwnership",
			"outputs": [],
			"stateMutability": "nonpayable",
			"type": "function"
		},
		{
			"inputs": [
				{
					"internalType": "address",
					"name": "token",
					"type": "address"
				},
				{
					"internalType": "uint256",
					"name": "amount",
					"type": "uint256"
				}
			],
			"name": "withdrawTokens",
			"outputs": [],
			"stateMutability": "nonpayable",
			"type": "function"
		}
	]
}