{
	"data": {
		"bytecode": {
			"linkReferences": {},
			"object": "608060405234801561000f575f80fd5b5060645f819055507f562e29553298dfb8a4d73d6caa41b92eda49f1606f7cffcb4bd08d6ae9910deb5f5460405161004791906100ec565b60405180910390a1610118565b5f82825260208201905092915050565b7f436f6e7374727563746f722063616c6c65642c20696e697469616c2076616c755f8201527f653a000000000000000000000000000000000000000000000000000000000000602082015250565b5f6100be602283610054565b91506100c982610064565b604082019050919050565b5f819050919050565b6100e6816100d4565b82525050565b5f6040820190508181035f830152610103816100b2565b905061011260208301846100dd565b92915050565b610733806101255f395ff3fe608060405234801561000f575f80fd5b506004361061003f575f3560e01c806320965255146100435780635524107714610061578063ee5fdfa51461007d575b5f80fd5b61004b610099565b6040516100589190610264565b60405180910390f35b61007b600480360381019061007691906102ab565b6100a1565b005b610097600480360381019061009291906102ab565b61011a565b005b5f8054905090565b7f562e29553298dfb8a4d73d6caa41b92eda49f1606f7cffcb4bd08d6ae9910deb5f546040516100d19190610330565b60405180910390a1805f819055507f562e29553298dfb8a4d73d6caa41b92eda49f1606f7cffcb4bd08d6ae9910deb5f5460405161010f91906103a6565b60405180910390a150565b7f562e29553298dfb8a4d73d6caa41b92eda49f1606f7cffcb4bd08d6ae9910deb81604051610149919061041c565b60405180910390a17f62ddffe5b5108385f7a590f100e1ee414ad9551a31f089e64e82998440785e1e3360405161018091906104d1565b60405180910390a15f600282610196919061052a565b90507f562e29553298dfb8a4d73d6caa41b92eda49f1606f7cffcb4bd08d6ae9910deb816040516101c791906105b5565b60405180910390a16064811115610212577fa95e6e2a182411e7a6f9ed114a85c3761d87f9b8f453d842c71235aa64fff99f60405161020590610651565b60405180910390a1610248565b7fa95e6e2a182411e7a6f9ed114a85c3761d87f9b8f453d842c71235aa64fff99f60405161023f906106df565b60405180910390a15b5050565b5f819050919050565b61025e8161024c565b82525050565b5f6020820190506102775f830184610255565b92915050565b5f80fd5b61028a8161024c565b8114610294575f80fd5b50565b5f813590506102a581610281565b92915050565b5f602082840312156102c0576102bf61027d565b5b5f6102cd84828501610297565b91505092915050565b5f82825260208201905092915050565b7f4f6c642076616c75653a000000000000000000000000000000000000000000005f82015250565b5f61031a600a836102d6565b9150610325826102e6565b602082019050919050565b5f6040820190508181035f8301526103478161030e565b90506103566020830184610255565b92915050565b7f4e65772076616c75652073657420746f3a0000000000000000000000000000005f82015250565b5f6103906011836102d6565b915061039b8261035c565b602082019050919050565b5f6040820190508181035f8301526103bd81610384565b90506103cc6020830184610255565b92915050565b7f496e7075742072656365697665643a00000000000000000000000000000000005f82015250565b5f610406600f836102d6565b9150610411826103d2565b602082019050919050565b5f6040820190508181035f830152610433816103fa565b90506104426020830184610255565b92915050565b7f46756e6374696f6e2063616c6c65642062793a000000000000000000000000005f82015250565b5f61047c6013836102d6565b915061048782610448565b602082019050919050565b5f73ffffffffffffffffffffffffffffffffffffffff82169050919050565b5f6104bb82610492565b9050919050565b6104cb816104b1565b82525050565b5f6040820190508181035f8301526104e881610470565b90506104f760208301846104c2565b92915050565b7f4e487b71000000000000000000000000000000000000000000000000000000005f52601160045260245ffd5b5f6105348261024c565b915061053f8361024c565b925082820261054d8161024c565b91508282048414831517610564576105636104fd565b5b5092915050565b7f43616c63756c617465642076616c75653a0000000000000000000000000000005f82015250565b5f61059f6011836102d6565b91506105aa8261056b565b602082019050919050565b5f6040820190508181035f8301526105cc81610593565b90506105db6020830184610255565b92915050565b7f43616c63756c617465642076616c75652069732067726561746572207468616e5f8201527f2031303000000000000000000000000000000000000000000000000000000000602082015250565b5f61063b6024836102d6565b9150610646826105e1565b604082019050919050565b5f6020820190508181035f8301526106688161062f565b9050919050565b7f43616c63756c617465642076616c7565206973206c657373207468616e206f725f8201527f20657175616c20746f2031303000000000000000000000000000000000000000602082015250565b5f6106c9602d836102d6565b91506106d48261066f565b604082019050919050565b5f6020820190508181035f8301526106f6816106bd565b905091905056fea2646970667358221220036bce80b8d553adf7ec019324b066df50a46425bbf5b7a9c416ca544059ec9464736f6c634300081a0033",
			"opcodes": "PUSH1 0x80 PUSH1 0x40 MSTORE CALLVALUE DUP1 ISZERO PUSH2 0xF JUMPI PUSH0 DUP1 REVERT JUMPDEST POP PUSH1 0x64 PUSH0 DUP2 SWAP1 SSTORE POP PUSH32 0x562E29553298DFB8A4D73D6CAA41B92EDA49F1606F7CFFCB4BD08D6AE9910DEB PUSH0 SLOAD PUSH1 0x40 MLOAD PUSH2 0x47 SWAP2 SWAP1 PUSH2 0xEC JUMP JUMPDEST PUSH1 0x40 MLOAD DUP1 SWAP2 SUB SWAP1 LOG1 PUSH2 0x118 JUMP JUMPDEST PUSH0 DUP3 DUP3 MSTORE PUSH1 0x20 DUP3 ADD SWAP1 POP SWAP3 SWAP2 POP POP JUMP JUMPDEST PUSH32 0x436F6E7374727563746F722063616C6C65642C20696E697469616C2076616C75 PUSH0 DUP3 ADD MSTORE PUSH32 0x653A000000000000000000000000000000000000000000000000000000000000 PUSH1 0x20 DUP3 ADD MSTORE POP JUMP JUMPDEST PUSH0 PUSH2 0xBE PUSH1 0x22 DUP4 PUSH2 0x54 JUMP JUMPDEST SWAP2 POP PUSH2 0xC9 DUP3 PUSH2 0x64 JUMP JUMPDEST PUSH1 0x40 DUP3 ADD SWAP1 POP SWAP2 SWAP1 POP JUMP JUMPDEST PUSH0 DUP2 SWAP1 POP SWAP2 SWAP1 POP JUMP JUMPDEST PUSH2 0xE6 DUP2 PUSH2 0xD4 JUMP JUMPDEST DUP3 MSTORE POP POP JUMP JUMPDEST PUSH0 PUSH1 0x40 DUP3 ADD SWAP1 POP DUP2 DUP2 SUB PUSH0 DUP4 ADD MSTORE PUSH2 0x103 DUP2 PUSH2 0xB2 JUMP JUMPDEST SWAP1 POP PUSH2 0x112 PUSH1 0x20 DUP4 ADD DUP5 PUSH2 0xDD JUMP JUMPDEST SWAP3 SWAP2 POP POP JUMP JUMPDEST PUSH2 0x733 DUP1 PUSH2 0x125 PUSH0 CODECOPY PUSH0 RETURN INVALID PUSH1 0x80 PUSH1 0x40 MSTORE CALLVALUE DUP1 ISZERO PUSH2 0xF JUMPI PUSH0 DUP1 REVERT JUMPDEST POP PUSH1 0x4 CALLDATASIZE LT PUSH2 0x3F JUMPI PUSH0 CALLDATALOAD PUSH1 0xE0 SHR DUP1 PUSH4 0x20965255 EQ PUSH2 0x43 JUMPI DUP1 PUSH4 0x55241077 EQ PUSH2 0x61 JUMPI DUP1 PUSH4 0xEE5FDFA5 EQ PUSH2 0x7D JUMPI JUMPDEST PUSH0 DUP1 REVERT JUMPDEST PUSH2 0x4B PUSH2 0x99 JUMP JUMPDEST PUSH1 0x40 MLOAD PUSH2 0x58 SWAP2 SWAP1 PUSH2 0x264 JUMP JUMPDEST PUSH1 0x40 MLOAD DUP1 SWAP2 SUB SWAP1 RETURN JUMPDEST PUSH2 0x7B PUSH1 0x4 DUP1 CALLDATASIZE SUB DUP2 ADD SWAP1 PUSH2 0x76 SWAP2 SWAP1 PUSH2 0x2AB JUMP JUMPDEST PUSH2 0xA1 JUMP JUMPDEST STOP JUMPDEST PUSH2 0x97 PUSH1 0x4 DUP1 CALLDATASIZE SUB DUP2 ADD SWAP1 PUSH2 0x92 SWAP2 SWAP1 PUSH2 0x2AB JUMP JUMPDEST PUSH2 0x11A JUMP JUMPDEST STOP JUMPDEST PUSH0 DUP1 SLOAD SWAP1 POP SWAP1 JUMP JUMPDEST PUSH32 0x562E29553298DFB8A4D73D6CAA41B92EDA49F1606F7CFFCB4BD08D6AE9910DEB PUSH0 SLOAD PUSH1 0x40 MLOAD PUSH2 0xD1 SWAP2 SWAP1 PUSH2 0x330 JUMP JUMPDEST PUSH1 0x40 MLOAD DUP1 SWAP2 SUB SWAP1 LOG1 DUP1 PUSH0 DUP2 SWAP1 SSTORE POP PUSH32 0x562E29553298DFB8A4D73D6CAA41B92EDA49F1606F7CFFCB4BD08D6AE9910DEB PUSH0 SLOAD PUSH1 0x40 MLOAD PUSH2 0x10F SWAP2 SWAP1 PUSH2 0x3A6 JUMP JUMPDEST PUSH1 0x40 MLOAD DUP1 SWAP2 SUB SWAP1 LOG1 POP JUMP JUMPDEST PUSH32 0x562E29553298DFB8A4D73D6CAA41B92EDA49F1606F7CFFCB4BD08D6AE9910DEB DUP2 PUSH1 0x40 MLOAD PUSH2 0x149 SWAP2 SWAP1 PUSH2 0x41C JUMP JUMPDEST PUSH1 0x40 MLOAD DUP1 SWAP2 SUB SWAP1 LOG1 PUSH32 0x62DDFFE5B5108385F7A590F100E1EE414AD9551A31F089E64E82998440785E1E CALLER PUSH1 0x40 MLOAD PUSH2 0x180 SWAP2 SWAP1 PUSH2 0x4D1 JUMP JUMPDEST PUSH1 0x40 MLOAD DUP1 SWAP2 SUB SWAP1 LOG1 PUSH0 PUSH1 0x2 DUP3 PUSH2 0x196 SWAP2 SWAP1 PUSH2 0x52A JUMP JUMPDEST SWAP1 POP PUSH32 0x562E29553298DFB8A4D73D6CAA41B92EDA49F1606F7CFFCB4BD08D6AE9910DEB DUP2 PUSH1 0x40 MLOAD PUSH2 0x1C7 SWAP2 SWAP1 PUSH2 0x5B5 JUMP JUMPDEST PUSH1 0x40 MLOAD DUP1 SWAP2 SUB SWAP1 LOG1 PUSH1 0x64 DUP2 GT ISZERO PUSH2 0x212 JUMPI PUSH32 0xA95E6E2A182411E7A6F9ED114A85C3761D87F9B8F453D842C71235AA64FFF99F PUSH1 0x40 MLOAD PUSH2 0x205 SWAP1 PUSH2 0x651 JUMP JUMPDEST PUSH1 0x40 MLOAD DUP1 SWAP2 SUB SWAP1 LOG1 PUSH2 0x248 JUMP JUMPDEST PUSH32 0xA95E6E2A182411E7A6F9ED114A85C3761D87F9B8F453D842C71235AA64FFF99F PUSH1 0x40 MLOAD PUSH2 0x23F SWAP1 PUSH2 0x6DF JUMP JUMPDEST PUSH1 0x40 MLOAD DUP1 SWAP2 SUB SWAP1 LOG1 JUMPDEST POP POP JUMP JUMPDEST PUSH0 DUP2 SWAP1 POP SWAP2 SWAP1 POP JUMP JUMPDEST PUSH2 0x25E DUP2 PUSH2 0x24C JUMP JUMPDEST DUP3 MSTORE POP POP JUMP JUMPDEST PUSH0 PUSH1 0x20 DUP3 ADD SWAP1 POP PUSH2 0x277 PUSH0 DUP4 ADD DUP5 PUSH2 0x255 JUMP JUMPDEST SWAP3 SWAP2 POP POP JUMP JUMPDEST PUSH0 DUP1 REVERT JUMPDEST PUSH2 0x28A DUP2 PUSH2 0x24C JUMP JUMPDEST DUP2 EQ PUSH2 0x294 JUMPI PUSH0 DUP1 REVERT JUMPDEST POP JUMP JUMPDEST PUSH0 DUP2 CALLDATALOAD SWAP1 POP PUSH2 0x2A5 DUP2 PUSH2 0x281 JUMP JUMPDEST SWAP3 SWAP2 POP POP JUMP JUMPDEST PUSH0 PUSH1 0x20 DUP3 DUP5 SUB SLT ISZERO PUSH2 0x2C0 JUMPI PUSH2 0x2BF PUSH2 0x27D JUMP JUMPDEST JUMPDEST PUSH0 PUSH2 0x2CD DUP5 DUP3 DUP6 ADD PUSH2 0x297 JUMP JUMPDEST SWAP2 POP POP SWAP3 SWAP2 POP POP JUMP JUMPDEST PUSH0 DUP3 DUP3 MSTORE PUSH1 0x20 DUP3 ADD SWAP1 POP SWAP3 SWAP2 POP POP JUMP JUMPDEST PUSH32 0x4F6C642076616C75653A00000000000000000000000000000000000000000000 PUSH0 DUP3 ADD MSTORE POP JUMP JUMPDEST PUSH0 PUSH2 0x31A PUSH1 0xA DUP4 PUSH2 0x2D6 JUMP JUMPDEST SWAP2 POP PUSH2 0x325 DUP3 PUSH2 0x2E6 JUMP JUMPDEST PUSH1 0x20 DUP3 ADD SWAP1 POP SWAP2 SWAP1 POP JUMP JUMPDEST PUSH0 PUSH1 0x40 DUP3 ADD SWAP1 POP DUP2 DUP2 SUB PUSH0 DUP4 ADD MSTORE PUSH2 0x347 DUP2 PUSH2 0x30E JUMP JUMPDEST SWAP1 POP PUSH2 0x356 PUSH1 0x20 DUP4 ADD DUP5 PUSH2 0x255 JUMP JUMPDEST SWAP3 SWAP2 POP POP JUMP JUMPDEST PUSH32 0x4E65772076616C75652073657420746F3A000000000000000000000000000000 PUSH0 DUP3 ADD MSTORE POP JUMP JUMPDEST PUSH0 PUSH2 0x390 PUSH1 0x11 DUP4 PUSH2 0x2D6 JUMP JUMPDEST SWAP2 POP PUSH2 0x39B DUP3 PUSH2 0x35C JUMP JUMPDEST PUSH1 0x20 DUP3 ADD SWAP1 POP SWAP2 SWAP1 POP JUMP JUMPDEST PUSH0 PUSH1 0x40 DUP3 ADD SWAP1 POP DUP2 DUP2 SUB PUSH0 DUP4 ADD MSTORE PUSH2 0x3BD DUP2 PUSH2 0x384 JUMP JUMPDEST SWAP1 POP PUSH2 0x3CC PUSH1 0x20 DUP4 ADD DUP5 PUSH2 0x255 JUMP JUMPDEST SWAP3 SWAP2 POP POP JUMP JUMPDEST PUSH32 0x496E7075742072656365697665643A0000000000000000000000000000000000 PUSH0 DUP3 ADD MSTORE POP JUMP JUMPDEST PUSH0 PUSH2 0x406 PUSH1 0xF DUP4 PUSH2 0x2D6 JUMP JUMPDEST SWAP2 POP PUSH2 0x411 DUP3 PUSH2 0x3D2 JUMP JUMPDEST PUSH1 0x20 DUP3 ADD SWAP1 POP SWAP2 SWAP1 POP JUMP JUMPDEST PUSH0 PUSH1 0x40 DUP3 ADD SWAP1 POP DUP2 DUP2 SUB PUSH0 DUP4 ADD MSTORE PUSH2 0x433 DUP2 PUSH2 0x3FA JUMP JUMPDEST SWAP1 POP PUSH2 0x442 PUSH1 0x20 DUP4 ADD DUP5 PUSH2 0x255 JUMP JUMPDEST SWAP3 SWAP2 POP POP JUMP JUMPDEST PUSH32 0x46756E6374696F6E2063616C6C65642062793A00000000000000000000000000 PUSH0 DUP3 ADD MSTORE POP JUMP JUMPDEST PUSH0 PUSH2 0x47C PUSH1 0x13 DUP4 PUSH2 0x2D6 JUMP JUMPDEST SWAP2 POP PUSH2 0x487 DUP3 PUSH2 0x448 JUMP JUMPDEST PUSH1 0x20 DUP3 ADD SWAP1 POP SWAP2 SWAP1 POP JUMP JUMPDEST PUSH0 PUSH20 0xFFFFFFFFFFFFFFFFFFFFFFFFFFFFFFFFFFFFFFFF DUP3 AND SWAP1 POP SWAP2 SWAP1 POP JUMP JUMPDEST PUSH0 PUSH2 0x4BB DUP3 PUSH2 0x492 JUMP JUMPDEST SWAP1 POP SWAP2 SWAP1 POP JUMP JUMPDEST PUSH2 0x4CB DUP2 PUSH2 0x4B1 JUMP JUMPDEST DUP3 MSTORE POP POP JUMP JUMPDEST PUSH0 PUSH1 0x40 DUP3 ADD SWAP1 POP DUP2 DUP2 SUB PUSH0 DUP4 ADD MSTORE PUSH2 0x4E8 DUP2 PUSH2 0x470 JUMP JUMPDEST SWAP1 POP PUSH2 0x4F7 PUSH1 0x20 DUP4 ADD DUP5 PUSH2 0x4C2 JUMP JUMPDEST SWAP3 SWAP2 POP POP JUMP JUMPDEST PUSH32 0x4E487B7100000000000000000000000000000000000000000000000000000000 PUSH0 MSTORE PUSH1 0x11 PUSH1 0x4 MSTORE PUSH1 0x24 PUSH0 REVERT JUMPDEST PUSH0 PUSH2 0x534 DUP3 PUSH2 0x24C JUMP JUMPDEST SWAP2 POP PUSH2 0x53F DUP4 PUSH2 0x24C JUMP JUMPDEST SWAP3 POP DUP3 DUP3 MUL PUSH2 0x54D DUP2 PUSH2 0x24C JUMP JUMPDEST SWAP2 POP DUP3 DUP3 DIV DUP5 EQ DUP4 ISZERO OR PUSH2 0x564 JUMPI PUSH2 0x563 PUSH2 0x4FD JUMP JUMPDEST JUMPDEST POP SWAP3 SWAP2 POP POP JUMP JUMPDEST PUSH32 0x43616C63756C617465642076616C75653A000000000000000000000000000000 PUSH0 DUP3 ADD MSTORE POP JUMP JUMPDEST PUSH0 PUSH2 0x59F PUSH1 0x11 DUP4 PUSH2 0x2D6 JUMP JUMPDEST SWAP2 POP PUSH2 0x5AA DUP3 PUSH2 0x56B JUMP JUMPDEST PUSH1 0x20 DUP3 ADD SWAP1 POP SWAP2 SWAP1 POP JUMP JUMPDEST PUSH0 PUSH1 0x40 DUP3 ADD SWAP1 POP DUP2 DUP2 SUB PUSH0 DUP4 ADD MSTORE PUSH2 0x5CC DUP2 PUSH2 0x593 JUMP JUMPDEST SWAP1 POP PUSH2 0x5DB PUSH1 0x20 DUP4 ADD DUP5 PUSH2 0x255 JUMP JUMPDEST SWAP3 SWAP2 POP POP JUMP JUMPDEST PUSH32 0x43616C63756C617465642076616C75652069732067726561746572207468616E PUSH0 DUP3 ADD MSTORE PUSH32 0x2031303000000000000000000000000000000000000000000000000000000000 PUSH1 0x20 DUP3 ADD MSTORE POP JUMP JUMPDEST PUSH0 PUSH2 0x63B PUSH1 0x24 DUP4 PUSH2 0x2D6 JUMP JUMPDEST SWAP2 POP PUSH2 0x646 DUP3 PUSH2 0x5E1 JUMP JUMPDEST PUSH1 0x40 DUP3 ADD SWAP1 POP SWAP2 SWAP1 POP JUMP JUMPDEST PUSH0 PUSH1 0x20 DUP3 ADD SWAP1 POP DUP2 DUP2 SUB PUSH0 DUP4 ADD MSTORE PUSH2 0x668 DUP2 PUSH2 0x62F JUMP JUMPDEST SWAP1 POP SWAP2 SWAP1 POP JUMP JUMPDEST PUSH32 0x43616C63756C617465642076616C7565206973206C657373207468616E206F72 PUSH0 DUP3 ADD MSTORE PUSH32 0x20657175616C20746F2031303000000000000000000000000000000000000000 PUSH1 0x20 DUP3 ADD MSTORE POP JUMP JUMPDEST PUSH0 PUSH2 0x6C9 PUSH1 0x2D DUP4 PUSH2 0x2D6 JUMP JUMPDEST SWAP2 POP PUSH2 0x6D4 DUP3 PUSH2 0x66F JUMP JUMPDEST PUSH1 0x40 DUP3 ADD SWAP1 POP SWAP2 SWAP1 POP JUMP JUMPDEST PUSH0 PUSH1 0x20 DUP3 ADD SWAP1 POP DUP2 DUP2 SUB PUSH0 DUP4 ADD MSTORE PUSH2 0x6F6 DUP2 PUSH2 0x6BD JUMP JUMPDEST SWAP1 POP SWAP2 SWAP1 POP JUMP INVALID LOG2 PUSH5 0x6970667358 0x22 SLT KECCAK256 SUB PUSH12 0xCE80B8D553ADF7EC019324B0 PUSH7 0xDF50A46425BBF5 0xB7 0xA9 0xC4 AND 0xCA SLOAD BLOCKHASH MSIZE 0xEC SWAP5 PUSH5 0x736F6C6343 STOP ADDMOD BYTE STOP CALLER "
		},
		"gasEstimates": {
			"creation": {
				"codeDepositCost": "368600",
				"executionCost": "27038",
				"totalCost": "395638"
			},
			"external": {
				"debugExample(uint256)": "infinite",
				"getValue()": "2410",
				"setValue(uint256)": "infinite"
			}
		},
		"methodIdentifiers": {
			"debugExample(uint256)": "ee5fdfa5",
			"getValue()": "20965255",
			"setValue(uint256)": "55241077"
		}
	},
	"abi": [
		{
			"inputs": [],
			"stateMutability": "nonpayable",
			"type": "constructor"
		},
		{
			"anonymous": false,
			"inputs": [
				{
					"indexed": false,
					"internalType": "string",
					"name": "message",
					"type": "string"
				},
				{
					"indexed": false,
					"internalType": "address",
					"name": "addr",
					"type": "address"
				}
			],
			"name": "LogAddress",
			"type": "event"
		},
		{
			"anonymous": false,
			"inputs": [
				{
					"indexed": false,
					"internalType": "string",
					"name": "message",
					"type": "string"
				}
			],
			"name": "LogString",
			"type": "event"
		},
		{
			"anonymous": false,
			"inputs": [
				{
					"indexed": false,
					"internalType": "string",
					"name": "message",
					"type": "string"
				},
				{
					"indexed": false,
					"internalType": "uint256",
					"name": "value",
					"type": "uint256"
				}
			],
			"name": "LogValue",
			"type": "event"
		},
		{
			"inputs": [
				{
					"internalType": "uint256",
					"name": "_input",
					"type": "uint256"
				}
			],
			"name": "debugExample",
			"outputs": [],
			"stateMutability": "nonpayable",
			"type": "function"
		},
		{
			"inputs": [],
			"name": "getValue",
			"outputs": [
				{
					"internalType": "uint256",
					"name": "",
					"type": "uint256"
				}
			],
			"stateMutability": "view",
			"type": "function"
		},
		{
			"inputs": [
				{
					"internalType": "uint256",
					"name": "_newValue",
					"type": "uint256"
				}
			],
			"name": "setValue",
			"outputs": [],
			"stateMutability": "nonpayable",
			"type": "function"
		}
	]
}